{
  "_format": "hh-sol-artifact-1",
  "contractName": "NFTReceipt",
  "sourceName": "contracts/NFTReceipt.sol",
  "abi": [
    {
      "inputs": [
        {
          "internalType": "string",
          "name": "baseURI",
          "type": "string"
        }
      ],
      "stateMutability": "nonpayable",
      "type": "constructor"
    },
    {
      "anonymous": false,
      "inputs": [
        {
          "indexed": true,
          "internalType": "address",
          "name": "owner",
          "type": "address"
        },
        {
          "indexed": true,
          "internalType": "address",
          "name": "approved",
          "type": "address"
        },
        {
          "indexed": true,
          "internalType": "uint256",
          "name": "tokenId",
          "type": "uint256"
        }
      ],
      "name": "Approval",
      "type": "event"
    },
    {
      "anonymous": false,
      "inputs": [
        {
          "indexed": true,
          "internalType": "address",
          "name": "owner",
          "type": "address"
        },
        {
          "indexed": true,
          "internalType": "address",
          "name": "operator",
          "type": "address"
        },
        {
          "indexed": false,
          "internalType": "bool",
          "name": "approved",
          "type": "bool"
        }
      ],
      "name": "ApprovalForAll",
      "type": "event"
    },
    {
      "anonymous": false,
      "inputs": [
        {
          "indexed": false,
          "internalType": "uint256",
          "name": "_fromTokenId",
          "type": "uint256"
        },
        {
          "indexed": false,
          "internalType": "uint256",
          "name": "_toTokenId",
          "type": "uint256"
        }
      ],
      "name": "BatchMetadataUpdate",
      "type": "event"
    },
    {
      "anonymous": false,
      "inputs": [
        {
          "indexed": false,
          "internalType": "uint256",
          "name": "_tokenId",
          "type": "uint256"
        }
      ],
      "name": "MetadataUpdate",
      "type": "event"
    },
    {
      "anonymous": false,
      "inputs": [
        {
          "indexed": true,
          "internalType": "bytes32",
          "name": "orderHash",
          "type": "bytes32"
        },
        {
          "indexed": true,
          "internalType": "uint256",
          "name": "tokenId",
          "type": "uint256"
        },
        {
          "indexed": true,
          "internalType": "address",
          "name": "owner",
          "type": "address"
        },
        {
          "indexed": false,
          "internalType": "address",
          "name": "minter",
          "type": "address"
        },
        {
          "indexed": false,
          "internalType": "string",
          "name": "metadataUrl",
          "type": "string"
        }
      ],
      "name": "OrderReceiptMinted",
      "type": "event"
    },
    {
      "anonymous": false,
      "inputs": [
        {
          "indexed": false,
          "internalType": "address",
          "name": "account",
          "type": "address"
        }
      ],
      "name": "Paused",
      "type": "event"
    },
    {
      "anonymous": false,
      "inputs": [
        {
          "indexed": true,
          "internalType": "uint256",
          "name": "tokenId",
          "type": "uint256"
        },
        {
          "indexed": false,
          "internalType": "string",
          "name": "oldMetadataUrl",
          "type": "string"
        },
        {
          "indexed": false,
          "internalType": "string",
          "name": "newMetadataUrl",
          "type": "string"
        }
      ],
      "name": "ReceiptMetadataUpdated",
      "type": "event"
    },
    {
      "anonymous": false,
      "inputs": [
        {
          "indexed": true,
          "internalType": "uint256",
          "name": "tokenId",
          "type": "uint256"
        },
        {
          "indexed": true,
          "internalType": "address",
          "name": "owner",
          "type": "address"
        }
      ],
      "name": "ReceiptRestored",
      "type": "event"
    },
    {
      "anonymous": false,
      "inputs": [
        {
          "indexed": true,
          "internalType": "uint256",
          "name": "tokenId",
          "type": "uint256"
        },
        {
          "indexed": true,
          "internalType": "address",
          "name": "owner",
          "type": "address"
        },
        {
          "indexed": false,
          "internalType": "string",
          "name": "reason",
          "type": "string"
        }
      ],
      "name": "ReceiptRevoked",
      "type": "event"
    },
    {
      "anonymous": false,
      "inputs": [
        {
          "indexed": false,
          "internalType": "address",
          "name": "sender",
          "type": "address"
        },
        {
          "indexed": false,
          "internalType": "uint256",
          "name": "amount",
          "type": "uint256"
        }
      ],
      "name": "Received",
      "type": "event"
    },
    {
      "anonymous": false,
      "inputs": [
        {
          "indexed": true,
          "internalType": "bytes32",
          "name": "role",
          "type": "bytes32"
        },
        {
          "indexed": true,
          "internalType": "bytes32",
          "name": "previousAdminRole",
          "type": "bytes32"
        },
        {
          "indexed": true,
          "internalType": "bytes32",
          "name": "newAdminRole",
          "type": "bytes32"
        }
      ],
      "name": "RoleAdminChanged",
      "type": "event"
    },
    {
      "anonymous": false,
      "inputs": [
        {
          "indexed": true,
          "internalType": "bytes32",
          "name": "role",
          "type": "bytes32"
        },
        {
          "indexed": true,
          "internalType": "address",
          "name": "account",
          "type": "address"
        },
        {
          "indexed": true,
          "internalType": "address",
          "name": "sender",
          "type": "address"
        }
      ],
      "name": "RoleGranted",
      "type": "event"
    },
    {
      "anonymous": false,
      "inputs": [
        {
          "indexed": true,
          "internalType": "bytes32",
          "name": "role",
          "type": "bytes32"
        },
        {
          "indexed": true,
          "internalType": "address",
          "name": "account",
          "type": "address"
        },
        {
          "indexed": true,
          "internalType": "address",
          "name": "sender",
          "type": "address"
        }
      ],
      "name": "RoleRevoked",
      "type": "event"
    },
    {
      "anonymous": false,
      "inputs": [
        {
          "indexed": true,
          "internalType": "address",
          "name": "from",
          "type": "address"
        },
        {
          "indexed": true,
          "internalType": "address",
          "name": "to",
          "type": "address"
        },
        {
          "indexed": true,
          "internalType": "uint256",
          "name": "tokenId",
          "type": "uint256"
        }
      ],
      "name": "Transfer",
      "type": "event"
    },
    {
      "anonymous": false,
      "inputs": [
        {
          "indexed": false,
          "internalType": "address",
          "name": "account",
          "type": "address"
        }
      ],
      "name": "Unpaused",
      "type": "event"
    },
    {
      "stateMutability": "payable",
      "type": "fallback"
    },
    {
      "inputs": [],
      "name": "ADMIN_ROLE",
      "outputs": [
        {
          "internalType": "bytes32",
          "name": "",
          "type": "bytes32"
        }
      ],
      "stateMutability": "view",
      "type": "function"
    },
    {
      "inputs": [],
      "name": "DEFAULT_ADMIN_ROLE",
      "outputs": [
        {
          "internalType": "bytes32",
          "name": "",
          "type": "bytes32"
        }
      ],
      "stateMutability": "view",
      "type": "function"
    },
    {
      "inputs": [],
      "name": "MINTER_ROLE",
      "outputs": [
        {
          "internalType": "bytes32",
          "name": "",
          "type": "bytes32"
        }
      ],
      "stateMutability": "view",
      "type": "function"
    },
    {
      "inputs": [
        {
          "internalType": "address",
          "name": "to",
          "type": "address"
        },
        {
          "internalType": "uint256",
          "name": "tokenId",
          "type": "uint256"
        }
      ],
      "name": "approve",
      "outputs": [],
      "stateMutability": "nonpayable",
      "type": "function"
    },
    {
      "inputs": [
        {
          "internalType": "address",
          "name": "owner",
          "type": "address"
        }
      ],
      "name": "balanceOf",
      "outputs": [
        {
          "internalType": "uint256",
          "name": "",
          "type": "uint256"
        }
      ],
      "stateMutability": "view",
      "type": "function"
    },
    {
      "inputs": [
        {
          "internalType": "uint256",
          "name": "tokenId",
          "type": "uint256"
        }
      ],
      "name": "getApproved",
      "outputs": [
        {
          "internalType": "address",
          "name": "",
          "type": "address"
        }
      ],
      "stateMutability": "view",
      "type": "function"
    },
    {
      "inputs": [
        {
          "internalType": "bytes32",
          "name": "role",
          "type": "bytes32"
        }
      ],
      "name": "getRoleAdmin",
      "outputs": [
        {
          "internalType": "bytes32",
          "name": "",
          "type": "bytes32"
        }
      ],
      "stateMutability": "view",
      "type": "function"
    },
    {
      "inputs": [
        {
          "internalType": "bytes32",
          "name": "role",
          "type": "bytes32"
        },
        {
          "internalType": "address",
          "name": "account",
          "type": "address"
        }
      ],
      "name": "grantRole",
      "outputs": [],
      "stateMutability": "nonpayable",
      "type": "function"
    },
    {
      "inputs": [
        {
          "internalType": "bytes32",
          "name": "role",
          "type": "bytes32"
        },
        {
          "internalType": "address",
          "name": "account",
          "type": "address"
        }
      ],
      "name": "hasRole",
      "outputs": [
        {
          "internalType": "bool",
          "name": "",
          "type": "bool"
        }
      ],
      "stateMutability": "view",
      "type": "function"
    },
    {
      "inputs": [
        {
          "internalType": "address",
          "name": "owner",
          "type": "address"
        },
        {
          "internalType": "address",
          "name": "operator",
          "type": "address"
        }
      ],
      "name": "isApprovedForAll",
      "outputs": [
        {
          "internalType": "bool",
          "name": "",
          "type": "bool"
        }
      ],
      "stateMutability": "view",
      "type": "function"
    },
    {
      "inputs": [],
      "name": "name",
      "outputs": [
        {
          "internalType": "string",
          "name": "",
          "type": "string"
        }
      ],
      "stateMutability": "view",
      "type": "function"
    },
    {
      "inputs": [
        {
          "internalType": "bytes32",
          "name": "",
          "type": "bytes32"
        }
      ],
      "name": "orderHashToTokenId",
      "outputs": [
        {
          "internalType": "uint256",
          "name": "",
          "type": "uint256"
        }
      ],
      "stateMutability": "view",
      "type": "function"
    },
    {
      "inputs": [
        {
          "internalType": "uint256",
          "name": "tokenId",
          "type": "uint256"
        }
      ],
      "name": "ownerOf",
      "outputs": [
        {
          "internalType": "address",
          "name": "",
          "type": "address"
        }
      ],
      "stateMutability": "view",
      "type": "function"
    },
    {
      "inputs": [
        {
          "internalType": "address",
          "name": "",
          "type": "address"
        },
        {
          "internalType": "uint256",
          "name": "",
          "type": "uint256"
        }
      ],
      "name": "ownerTokens",
      "outputs": [
        {
          "internalType": "uint256",
          "name": "",
          "type": "uint256"
        }
      ],
      "stateMutability": "view",
      "type": "function"
    },
    {
      "inputs": [],
      "name": "pause",
      "outputs": [],
      "stateMutability": "nonpayable",
      "type": "function"
    },
    {
      "inputs": [],
      "name": "paused",
      "outputs": [
        {
          "internalType": "bool",
          "name": "",
          "type": "bool"
        }
      ],
      "stateMutability": "view",
      "type": "function"
    },
    {
      "inputs": [
        {
          "internalType": "uint256",
          "name": "",
          "type": "uint256"
        }
      ],
      "name": "receipts",
      "outputs": [
        {
          "internalType": "bytes32",
          "name": "orderHash",
          "type": "bytes32"
        },
        {
          "internalType": "string",
          "name": "metadataUrl",
          "type": "string"
        },
        {
          "internalType": "uint256",
          "name": "timestamp",
          "type": "uint256"
        },
        {
          "internalType": "address",
          "name": "minter",
          "type": "address"
        },
        {
          "internalType": "bool",
          "name": "isActive",
          "type": "bool"
        }
      ],
      "stateMutability": "view",
      "type": "function"
    },
    {
      "inputs": [
        {
          "internalType": "bytes32",
          "name": "role",
          "type": "bytes32"
        },
        {
          "internalType": "address",
          "name": "account",
          "type": "address"
        }
      ],
      "name": "renounceRole",
      "outputs": [],
      "stateMutability": "nonpayable",
      "type": "function"
    },
    {
      "inputs": [
        {
          "internalType": "address",
          "name": "to",
          "type": "address"
        },
        {
          "internalType": "bytes32",
          "name": "orderHash",
          "type": "bytes32"
        },
        {
          "internalType": "string",
          "name": "metadataUrl",
          "type": "string"
        }
      ],
      "name": "restoreReceipt",
      "outputs": [
        {
          "internalType": "uint256",
          "name": "",
          "type": "uint256"
        }
      ],
      "stateMutability": "nonpayable",
      "type": "function"
    },
    {
      "inputs": [
        {
          "internalType": "uint256",
          "name": "tokenId",
          "type": "uint256"
        },
        {
          "internalType": "string",
          "name": "reason",
          "type": "string"
        }
      ],
      "name": "revokeReceipt",
      "outputs": [],
      "stateMutability": "nonpayable",
      "type": "function"
    },
    {
      "inputs": [
        {
          "internalType": "bytes32",
          "name": "role",
          "type": "bytes32"
        },
        {
          "internalType": "address",
          "name": "account",
          "type": "address"
        }
      ],
      "name": "revokeRole",
      "outputs": [],
      "stateMutability": "nonpayable",
      "type": "function"
    },
    {
      "inputs": [
        {
          "internalType": "address",
          "name": "to",
          "type": "address"
        },
        {
          "internalType": "bytes32",
          "name": "orderHash",
          "type": "bytes32"
        },
        {
          "internalType": "string",
          "name": "metadataUrl",
          "type": "string"
        }
      ],
      "name": "safeMint",
      "outputs": [
        {
          "internalType": "uint256",
          "name": "",
          "type": "uint256"
        }
      ],
      "stateMutability": "nonpayable",
      "type": "function"
    },
    {
      "inputs": [
        {
          "internalType": "address",
          "name": "from",
          "type": "address"
        },
        {
          "internalType": "address",
          "name": "to",
          "type": "address"
        },
        {
          "internalType": "uint256",
          "name": "tokenId",
          "type": "uint256"
        }
      ],
      "name": "safeTransferFrom",
      "outputs": [],
      "stateMutability": "nonpayable",
      "type": "function"
    },
    {
      "inputs": [
        {
          "internalType": "address",
          "name": "from",
          "type": "address"
        },
        {
          "internalType": "address",
          "name": "to",
          "type": "address"
        },
        {
          "internalType": "uint256",
          "name": "tokenId",
          "type": "uint256"
        },
        {
          "internalType": "bytes",
          "name": "data",
          "type": "bytes"
        }
      ],
      "name": "safeTransferFrom",
      "outputs": [],
      "stateMutability": "nonpayable",
      "type": "function"
    },
    {
      "inputs": [
        {
          "internalType": "address",
          "name": "operator",
          "type": "address"
        },
        {
          "internalType": "bool",
          "name": "approved",
          "type": "bool"
        }
      ],
      "name": "setApprovalForAll",
      "outputs": [],
      "stateMutability": "nonpayable",
      "type": "function"
    },
    {
      "inputs": [
        {
          "internalType": "string",
          "name": "baseURI",
          "type": "string"
        }
      ],
      "name": "setBaseURI",
      "outputs": [],
      "stateMutability": "nonpayable",
      "type": "function"
    },
    {
      "inputs": [
        {
          "internalType": "bytes4",
          "name": "interfaceId",
          "type": "bytes4"
        }
      ],
      "name": "supportsInterface",
      "outputs": [
        {
          "internalType": "bool",
          "name": "",
          "type": "bool"
        }
      ],
      "stateMutability": "view",
      "type": "function"
    },
    {
      "inputs": [],
      "name": "symbol",
      "outputs": [
        {
          "internalType": "string",
          "name": "",
          "type": "string"
        }
      ],
      "stateMutability": "view",
      "type": "function"
    },
    {
      "inputs": [
        {
          "internalType": "uint256",
          "name": "index",
          "type": "uint256"
        }
      ],
      "name": "tokenByIndex",
      "outputs": [
        {
          "internalType": "uint256",
          "name": "",
          "type": "uint256"
        }
      ],
      "stateMutability": "view",
      "type": "function"
    },
    {
      "inputs": [
        {
          "internalType": "address",
          "name": "owner",
          "type": "address"
        },
        {
          "internalType": "uint256",
          "name": "index",
          "type": "uint256"
        }
      ],
      "name": "tokenOfOwnerByIndex",
      "outputs": [
        {
          "internalType": "uint256",
          "name": "",
          "type": "uint256"
        }
      ],
      "stateMutability": "view",
      "type": "function"
    },
    {
      "inputs": [
        {
          "internalType": "uint256",
          "name": "tokenId",
          "type": "uint256"
        }
      ],
      "name": "tokenURI",
      "outputs": [
        {
          "internalType": "string",
          "name": "",
          "type": "string"
        }
      ],
      "stateMutability": "view",
      "type": "function"
    },
    {
      "inputs": [],
      "name": "totalSupply",
      "outputs": [
        {
          "internalType": "uint256",
          "name": "",
          "type": "uint256"
        }
      ],
      "stateMutability": "view",
      "type": "function"
    },
    {
      "inputs": [
        {
          "internalType": "address",
          "name": "from",
          "type": "address"
        },
        {
          "internalType": "address",
          "name": "to",
          "type": "address"
        },
        {
          "internalType": "uint256",
          "name": "tokenId",
          "type": "uint256"
        }
      ],
      "name": "transferFrom",
      "outputs": [],
      "stateMutability": "nonpayable",
      "type": "function"
    },
    {
      "inputs": [],
      "name": "unpause",
      "outputs": [],
      "stateMutability": "nonpayable",
      "type": "function"
    },
    {
      "inputs": [
        {
          "internalType": "uint256",
          "name": "tokenId",
          "type": "uint256"
        },
        {
          "internalType": "string",
          "name": "newMetadataUrl",
          "type": "string"
        }
      ],
      "name": "updateMetadata",
      "outputs": [],
      "stateMutability": "nonpayable",
      "type": "function"
    },
    {
      "stateMutability": "payable",
      "type": "receive"
    }
  ],
  "bytecode": "0x604060808152346200061657620037bd803803806200001e816200063b565b92833981019060208082840312620006165781516001600160401b039283821162000616570192601f90808286011215620006165784518481116200039957601f199562000072828501881686016200063b565b928284528583830101116200061657849060005b8381106200060157505060009183010152620000a16200061b565b92600c84526b13dc99195c949958d95a5c1d60a21b81850152620000c46200061b565b6005908181526413d490d41560da1b83820152855187811162000399576000546001978882811c92168015620005f6575b8683101462000378578188849311620005a2575b5085908883116001146200053d5760009262000531575b5050600019600383901b1c191690871b176000555b80519087821162000399578654908782811c9216801562000526575b8583101462000378578187849311620004d2575b5084908783116001146200046e5760009262000462575b5050600019600383901b1c191690861b1785555b84600c5560ff1980600d5416600d5560008052600b908184528960002033600052845260ff8a60002054161562000428575b7fa49807205ce4d355092ef5a8a18f56e8913cf4a201fbe287825b095693c21775806000528285528a60002033600052855260ff8b600020541615620003ec575b507f9f2df0fed2c77648de5860a4cc508cd0818c85b8b8a1ab4ceeef8d981c8956a691826000528085528a60002033600052855260ff8b600020541615620003af575b50505082519586116200039957601254908582811c921680156200038e575b8383101462000378578482116200032e575b505080928511600114620002c3575083945090839291600094620002b7575b50501b916000199060031b1c1916176012555b5161313b9081620006628239f35b01519250388062000296565b929484908116601260005284600020946000905b88838310620003135750505010620002f9575b505050811b01601255620002a9565b015160001960f88460031b161c19169055388080620002ea565b858701518855909601959485019487935090810190620002d7565b6012600052826000209085808901821c830193858a106200036e575b01901c019085905b82811062000361575062000277565b6000815501859062000352565b935082936200034a565b634e487b7160e01b600052602260045260246000fd5b91607f169162000265565b634e487b7160e01b600052604160045260246000fd5b82600052845289600020336000528452868a60002091825416179055339033906000805160206200379d833981519152600080a438808062000246565b806000528285528a6000203360005285528a6000208883825416179055339033906000805160206200379d833981519152600080a43862000203565b6000805281845289600020336000528452896000208782825416179055333360006000805160206200379d8339815191528180a4620001c2565b0151905038806200017c565b908a8994169184600052866000209260005b88828210620004bb5750508411620004a1575b505050811b01855562000190565b015160001960f88460031b161c1916905538808062000493565b8385015186558c9790950194938401930162000480565b909150876000528460002087808501861c8201928786106200051c575b918a918695949301871c01915b8281106200050c57505062000165565b600081558594508a9101620004fc565b92508192620004ef565b91607f169162000151565b01519050388062000120565b908b8a94169160008052876000209260005b898282106200058b575050841162000571575b505050811b0160005562000135565b015160001960f88460031b161c1916905538808062000562565b8385015186558d979095019493840193016200054f565b909150600080528560002088808501871c820192888610620005ec575b918b918695949301881c01915b828110620005dc57505062000109565b600081558594508b9101620005cc565b92508192620005bf565b91607f1691620000f5565b81810183015185820184015286920162000086565b600080fd5b60408051919082016001600160401b038111838210176200039957604052565b6040519190601f01601f191682016001600160401b03811183821017620003995760405256fe60a060408181526004918236101561002d575b5050503615610025576100236130d4565b005b6100236130d4565b600092833560e01c91826301ffc9a714611cb45750816306fdde0314611c0c578163081812fc14611bec578163095ea7b314611a7e5781630f7ee1ec14611a0457816318160ddd146119e55781631c759b691461145257816323b872dd1461142d578163248a9ca31461140257816328b60031146113ba5781632f2ff15d1461130d5781632f745c591461126157816336568abe146111cf5781633f4ba83a1461113957816342842e0e146111055781634f6ccce71461107157816353c8388e14610e5357816355f804b314610cda5781635c975abb14610cb65781635f010ca114610c8e5781636352211e14610c5d57816370a0823114610c3057816375b238fc14610bf55781638456cb5914610b9a57816391d1485414610b5357816395d89b4114610a70578163a217fddf14610a55578163a22cb46514610985578163b07dbcdd1461069a578163b88d4fde14610610578163bd98de16146102c7578163c87b56dd1461028c578163d539139314610251578163d547741f1461020e575063e985e9c5146101be5780610012565b3461020a578060031936011261020a5760ff816020936101dc611db5565b6101e4611dd0565b6001600160a01b0391821683526005875283832091168252855220549151911615158152f35b5080fd5b9190503461024d578060031936011261024d5761024a91356102456001610233611dd0565b93838752600b6020528620015461229c565b6123a7565b80f35b8280fd5b50503461020a578160031936011261020a57602090517f9f2df0fed2c77648de5860a4cc508cd0818c85b8b8a1ab4ceeef8d981c8956a68152f35b8284346102c45760203660031901126102c457506102ad6102c0923561308a565b9051918291602083526020830190611d90565b0390f35b80fd5b83833461020a576102d73661207f565b916102e06120ae565b6102e8612c88565b60008281526002602052604090205461030b906001600160a01b03161515613047565b8184526020926010845260ff6003838720015460a01c16156105d557610330836124e0565b83865260108552828620600301805460ff60a01b1916905590610352846124e0565b6001600160a01b0393908481169081610554575050600854858852600987528188205561037e85612c65565b6008546000199081810190811161054157868952600988526103a3838a20549161201a565b90549060031b1c6103d0816103b78461201a565b90919082549060031b91821b91600019901b1916179055565b895260098852828920558588528782812055600854801561052e57918689838c7f8710d09aa0857d384a35e0fd4afdd7de1dbdb0d23360a9be557496173992b7de999897956104c997016104238161201a565b8482549160031b1b1916905560085561043b846124e0565b908484528c5288858420916bffffffffffffffffffffffff60a01b92838154169055169182845260038d5285842090815401905583835260028c528483209081541690557fddf252ad1be2c89b69c2b068fc378daa952ba7f163c4a11628f55a4df523b3ef8280a4600a88526104b3818a2054611de6565b6104cf575b519384938885521696830190611d90565b0390a380f35b868952600a8852888181206104e48154611de6565b806104f2575b5050506104b8565b82601f821160011461050a575050555b888a806104ea565b9091808252610527601f8d8420940160051c840160018501612c4e565b5555610502565b634e487b7160e01b895260318a52602489fd5b634e487b7160e01b895260118a52602489fd5b61055d9061241d565b60001981019190821161054157868952600788528289205482810361059e575b5086895288838120558852600687528188209088528652868181205561037e565b818a5260068952838a20838b528952838a2054828b5260068a52848b20828c528a5280858c20558a5260078952838a20558a61057d565b815162461bcd60e51b81528087018590526015602482015274151bdad95b88185b1c9958591e481c995d9bdad959605a1b6044820152606490fd5b83903461020a57608036600319011261020a5761062b611db5565b90610634611dd0565b91604435606435936001600160401b03851161069657366023860112156106965761066e6106919486602461024a98369301359101611f4e565b9261068161067c8433612616565b612541565b61068c8383836126de565b612a23565b6125f6565b8580fd5b8284346102c4576106aa36611fa3565b936106b36120ae565b6106bb612c88565b6001600160a01b03831691821561094e576106d7811515612bc9565b6106e386511515612c0a565b8452602094600f86528185205493841561090b578486526010875260ff6003848820015460a01c166108c8578486526010875260018084882001908351906001600160401b0382116108b557908291610740899796959454611de6565b8b601f821161087c575b50508a8a601f84116001146107eb579383806107d2958b956107d899957fe174b9ad4ee8d72c4f116b9005454ba0037b94fccedcc2bf686cbfec8960538f9c9b99936107e0575b501b916000199060031b1c19161790555b818b5260108c52858b206003810180546001600160a81b0319163317600160a01b17905542600290910155612ccc565b84612e6e565b519480a38152f35b890151925038610791565b50838b528b8b2091929190601f1983168c8e5b82821061086457505093836107d897937fe174b9ad4ee8d72c4f116b9005454ba0037b94fccedcc2bf686cbfec8960538f9a9997938c966107d2981061084b575b5050811b0190556107a2565b88015160001960f88460031b161c191690558f8061083f565b8984015185558d9b509386019392830192018e6107fe565b848c52808c206108a492601f860160051c82019286106108ab575b601f0160051c0190612c4e565b8b8b61074a565b9091508190610897565b634e487b7160e01b895260418b52602489fd5b825162461bcd60e51b8152808901889052601760248201527f546f6b656e20697320616c7265616479206163746976650000000000000000006044820152606490fd5b825162461bcd60e51b8152808901889052601760248201527f4e6f20746f6b656e20666f722074686973206f726465720000000000000000006044820152606490fd5b815162461bcd60e51b81526020818901526011602482015270125b9d985b1a59081c9958da5c1a595b9d607a1b6044820152606490fd5b9190503461024d578060031936011261024d576109a0611db5565b9060243591821515809303610a51576001600160a01b031692338414610a0f5750338452600560205280842083855260205280842060ff1981541660ff8416179055519081527f17307eab39ab6107e8899845ad3d59bd9653f200f220920489ca2b5937696c3160203392a380f35b6020606492519162461bcd60e51b8352820152601960248201527f4552433732313a20617070726f766520746f2063616c6c6572000000000000006044820152fd5b8480fd5b50503461020a578160031936011261020a5751908152602090f35b50503461020a578160031936011261020a57805190826001805491610a9483611de6565b80865292828116908115610b2b5750600114610acf575b505050610abd826102c0940383611e6c565b51918291602083526020830190611d90565b94508085527fb10e2d527612073b26eecdfd717e6a320cf44b4afac2b0732d9fcbe2b7fa0cf65b828610610b1357505050610abd8260206102c09582010194610aab565b80546020878701810191909152909501948101610af6565b6102c0975086935060209250610abd94915060ff191682840152151560051b82010194610aab565b90503461024d578160031936011261024d578160209360ff92610b74611dd0565b90358252600b86528282206001600160a01b039091168252855220549151911615158152f35b50503461020a578160031936011261020a5760207f62e78cea01bee320cd4e420270b5ea74000d11b0c9f74754ebdbfc544b05a25891610bd86120ae565b610be0612c88565b600160ff19600d541617600d5551338152a180f35b50503461020a578160031936011261020a57602090517fa49807205ce4d355092ef5a8a18f56e8913cf4a201fbe287825b095693c217758152f35b50503461020a57602036600319011261020a57602090610c56610c51611db5565b61241d565b9051908152f35b8284346102c45760203660031901126102c45750610c7d602092356124e0565b90516001600160a01b039091168152f35b90503461024d57602036600319011261024d576020928291358152600f845220549051908152f35b50503461020a578160031936011261020a5760209060ff600d541690519015158152f35b83346102c45760208060031936011261020a576001600160401b03908335828111610e4f57610d0c9036908601611f85565b93610d156120ae565b8451928311610e3c5750610d2a601254611de6565b601f8111610def575b5080601f8311600114610d6e57508293829392610d63575b50508160011b916000199060031b1c19161760125580f35b015190508380610d4b565b60128452601f198316947fbb8a6a4669ba250d26cd7a459eca9d215f8307e33aebe50379bc5a3617ec3444929185905b878210610dd7575050836001959610610dbe575b505050811b0160125580f35b015160001960f88460031b161c19169055838080610db2565b80600185968294968601518155019501930190610d9e565b610e3690601285527fbb8a6a4669ba250d26cd7a459eca9d215f8307e33aebe50379bc5a3617ec3444601f850160051c8101918486106108ab57601f0160051c0190612c4e565b84610d33565b634e487b7160e01b845260419052602483fd5b8380fd5b83833461020a57610e633661207f565b9091610e6d6120ae565b610e75612c88565b600083815260026020526040902054610e98906001600160a01b03161515613047565b81511561103857610ea88361308a565b91610eb38185612e6e565b838552602095601087526001908184882001918351916001600160401b0383116110255750610ee28354611de6565b601f8111610ff7575b5088601f8311600114610f6f579180808a9b9593610f5e97957f61a360d9cca9814bfb3679a5023b287d3343df80bde4718a26b757aecc9dce519b9c93610f64575b501b916000199060031b1c19161790555b610f518451958587968752860190611d90565b9184830390850152611d90565b0390a280f35b86015192508d610f2d565b83895289892091929190601f1983168a5b818110610fe257509183917f61a360d9cca9814bfb3679a5023b287d3343df80bde4718a26b757aecc9dce519a9b9c9694610f5e98969410610fc9575b5050811b019055610f3e565b85015160001960f88460031b161c191690558b80610fbd565b87830151845592850192918c01918c01610f80565b61101f90848a528a8a20601f850160051c8101918c86106108ab57601f0160051c0190612c4e565b89610eeb565b634e487b7160e01b895260419052602488fd5b5162461bcd60e51b81526020818601526014602482015273125b9d985b1a59081b595d1859185d184815549360621b6044820152606490fd5b905082346102c45760203660031901126102c457508035906008548210156110ad5760208361109f8461201a565b91905490519160031b1c8152f35b608490602084519162461bcd60e51b8352820152602c60248201527f455243373231456e756d657261626c653a20676c6f62616c20696e646578206f60448201526b7574206f6620626f756e647360a01b6064820152fd5b50503461020a5761069161024a9161111c36611fe5565b9192519261112984611e20565b86845261068161067c8433612616565b90503461024d578260031936011261024d576111536120ae565b600d549060ff821615611195575060ff1916600d55513381527f5db9ee0a495bf2e6ff9c91a7834c1ba4fdd244a5e8aa4e537bd38aeae4b073aa90602090a180f35b606490602084519162461bcd60e51b8352820152601460248201527314185d5cd8589b194e881b9bdd081c185d5cd95960621b6044820152fd5b8391503461020a578260031936011261020a576111ea611dd0565b90336001600160a01b03831603611206579061024a91356123a7565b608490602085519162461bcd60e51b8352820152602f60248201527f416363657373436f6e74726f6c3a2063616e206f6e6c792072656e6f756e636560448201526e103937b632b9903337b91039b2b63360891b6064820152fd5b8284346102c457816003193601126102c45761127b611db5565b602435906112888161241d565b8210156112b6576001600160a01b031682526006602090815283832091835290815290829020548251908152f35b835162461bcd60e51b8152602081870152602b60248201527f455243373231456e756d657261626c653a206f776e657220696e646578206f7560448201526a74206f6620626f756e647360a81b6064820152608490fd5b90503461024d578160031936011261024d573590611329611dd0565b90828452600b6020526113416001828620015461229c565b828452600b60209081528185206001600160a01b039093168086529290528084205460ff161561136f578380f35b828452600b6020528084208285526020528320600160ff1982541617905533917f2f8788117e7eff1d82e926ec794901d17c78024a50270940304540a733656f0d8480a43880808380f35b50503461020a578060031936011261020a576113d4611db5565b6001600160a01b031682526011602052808220805460243593908410156102c4575060209261109f91612067565b90503461024d57602036600319011261024d5781602093600192358152600b85522001549051908152f35b83346102c45761024a61143f36611fe5565b9161144d61067c8433612616565b6126de565b83833461020a5761146236611fa3565b7f9f2df0fed2c77648de5860a4cc508cd0818c85b8b8a1ab4ceeef8d981c8956a694929495868452602096600b8852858520338652885260ff86862054161561181b57506002600c54146117d8576002600c556114bd612c88565b6001600160a01b0386811694908515611795576114db851515612bc9565b6114e784511515612c0a565b848252600f89528682205461175b576001608052611510608051600e5401809981600e55612ccc565b61151a8489612e6e565b86516001600160401b0360a08201818111838210176117485789528682528a8201868152428a84015233606084015260805160808401528a855260108c52898520908351825551918251908111611735576080518201908d61157c8354611de6565b90601f8211611707575b50508d80601f831160011461169757508190600395899261168c575b5050816080511b9160001990861b1c19161790555b8983015160028201550191606082015116825491608060ff60a01b910151151560a01b16916affffffffffffffffffffff60a81b1617179055838152600f885286868220558481526011885285812090815492600160401b841015611679575050869392611654856103b77fa2339e7643e1cfce17c9bf4d24d46b99c1b008e24809842f1302144910b1fc549561166a9560805182018155612067565b8651918291338352888b84015288830190611d90565b0390a4608051600c5551908152f35b634e487b7160e01b825260419052602490fd5b015190508f806115a2565b919293948489528289209289601f198616915b8282106116ee57505090846003979695949392106116d6575b505050608051906080511b0190556115b7565b015160001983871b60f8161c191690558e80806116c3565b80859681939686015181556080510196019401906116aa565b83895280892061172e92601f850160051c82019285106108ab57601f0160051c0190612c4e565b8e8e611586565b634e487b7160e01b865260418752602486fd5b634e487b7160e01b855260418652602485fd5b865162461bcd60e51b81528084018a9052601460248201527313dc99195c88185b1c9958591e481b5a5b9d195960621b6044820152606490fd5b865162461bcd60e51b81528084018a9052601960248201527f496e76616c696420726563697069656e742061646472657373000000000000006044820152606490fd5b845162461bcd60e51b8152908101879052601f60248201527f5265656e7472616e637947756172643a207265656e7472616e742063616c6c006044820152606490fd5b93925094505061182a33612abb565b9183519061183782611e51565b604282528682019260603685378251156119d257603084538251906001918210156119bf5790607860218501536041915b818311611954575050506119135760486118e69385936118f59361190f975196879376020b1b1b2b9b9a1b7b73a3937b61d1030b1b1b7bab73a1604d1b8c8601526118bd8c8251928391603789019101611d6d565b8401917001034b99036b4b9b9b4b733903937b6329607d1b603784015251809386840190611d6d565b01036028810185520183611e6c565b5193849362461bcd60e51b85528401526024830190611d90565b0390fd5b606485878087519262461bcd60e51b845283015260248201527f537472696e67733a20686578206c656e67746820696e73756666696369656e746044820152fd5b909192600f811660108110156119ac576f181899199a1a9b1b9c1cb0b131b232b360811b901a6119848587612aaa565b53881c92801561199957600019019190611868565b634e487b7160e01b825260118952602482fd5b634e487b7160e01b835260328a52602483fd5b634e487b7160e01b815260328852602490fd5b634e487b7160e01b815260328752602490fd5b50503461020a578160031936011261020a576020906008549051908152f35b90503461024d57602036600319011261024d579181923581526010602052209081549060ff611a3560018501611e8d565b936003600282015491015490611a5c8451968796875260a0602088015260a0870190611d90565b938501526001600160a01b038116606085015260a01c16151560808301520390f35b90503461024d578160031936011261024d57611a98611db5565b6024359290916001600160a01b0391908280611ab3876124e0565b16941693808514611b9f57803314908115611b80575b5015611b1857848652602052842080546001600160a01b03191683179055611af0836124e0565b167f8c5be1e5ebec7d5bd14f71427d1e84f3dd0314c0f7b2291e5b200ac8c7c3b9258480a480f35b6020608492519162461bcd60e51b8352820152603d60248201527f4552433732313a20617070726f76652063616c6c6572206973206e6f7420746f60448201527f6b656e206f776e6572206f7220617070726f76656420666f7220616c6c0000006064820152fd5b90508652600560205281862033875260205260ff828720541638611ac9565b506020608492519162461bcd60e51b8352820152602160248201527f4552433732313a20617070726f76616c20746f2063757272656e74206f776e656044820152603960f91b6064820152fd5b8284346102c45760203660031901126102c45750610c7d60209235612503565b50503461020a578160031936011261020a57805190828054611c2d81611de6565b80855291600191808316908115610b2b5750600114611c5857505050610abd826102c0940383611e6c565b80809650527f290decd9548b62a8d60345a988386fc84ba6bc95484008f6362f93160ef3e5635b828610611c9c57505050610abd8260206102c09582010194610aab565b80546020878701810191909152909501948101611c7f565b84913461024d57602036600319011261024d573563ffffffff60e01b811680910361024d5760209250637965db0b60e01b8114908115611cf6575b5015158152f35b632483248360e11b811491508115611d10575b5083611cef565b63780e9d6360e01b811491508115611d2a575b5083611d09565b6380ac58cd60e01b811491508115611d5c575b8115611d4b575b5083611d23565b6301ffc9a760e01b14905083611d44565b635b5e139f60e01b81149150611d3d565b60005b838110611d805750506000910152565b8181015183820152602001611d70565b90602091611da981518092818552858086019101611d6d565b601f01601f1916010190565b600435906001600160a01b0382168203611dcb57565b600080fd5b602435906001600160a01b0382168203611dcb57565b90600182811c92168015611e16575b6020831014611e0057565b634e487b7160e01b600052602260045260246000fd5b91607f1691611df5565b602081019081106001600160401b03821117611e3b57604052565b634e487b7160e01b600052604160045260246000fd5b608081019081106001600160401b03821117611e3b57604052565b90601f801991011681019081106001600160401b03821117611e3b57604052565b9060405191826000825492611ea184611de6565b908184526001948581169081600014611f105750600114611ecd575b5050611ecb92500383611e6c565b565b9093915060005260209081600020936000915b818310611ef8575050611ecb93508201013880611ebd565b85548884018501529485019487945091830191611ee0565b915050611ecb94506020925060ff191682840152151560051b8201013880611ebd565b6001600160401b038111611e3b57601f01601f191660200190565b929192611f5a82611f33565b91611f686040519384611e6c565b829481845281830111611dcb578281602093846000960137010152565b9080601f83011215611dcb57816020611fa093359101611f4e565b90565b6060600319820112611dcb576004356001600160a01b0381168103611dcb579160243591604435906001600160401b038211611dcb57611fa091600401611f85565b6060906003190112611dcb576001600160a01b03906004358281168103611dcb57916024359081168103611dcb579060443590565b6008548110156120515760086000527ff3f7a9fe364faab93b216da50a3214154f22a0a2b415b23a84c8169e8b636ee30190600090565b634e487b7160e01b600052603260045260246000fd5b80548210156120515760005260206000200190600090565b906040600319830112611dcb5760043591602435906001600160401b038211611dcb57611fa091600401611f85565b3360009081527f5329df1543cb285eabd9ee00d915d71c9b1e8ff70a737be4b25897d47fe38cd2602090815260408083205490927fa49807205ce4d355092ef5a8a18f56e8913cf4a201fbe287825b095693c217759160ff16156121125750505050565b61211b33612abb565b9184519061212882611e51565b6042825284820192606036853782511561228857603084538251906001918210156122885790607860218501536041915b81831161221a575050506121d857604861190f9386936121bc936121ad985198899376020b1b1b2b9b9a1b7b73a3937b61d1030b1b1b7bab73a1604d1b8a8601526118bd815180928c603789019101611d6d565b01036028810187520185611e6c565b5192839262461bcd60e51b845260048401526024830190611d90565b60648486519062461bcd60e51b825280600483015260248201527f537472696e67733a20686578206c656e67746820696e73756666696369656e746044820152fd5b909192600f81166010811015612274576f181899199a1a9b1b9c1cb0b131b232b360811b901a61224a8587612aaa565b5360041c92801561226057600019019190612159565b634e487b7160e01b82526011600452602482fd5b634e487b7160e01b83526032600452602483fd5b634e487b7160e01b81526032600452602490fd5b600090808252602090600b8252604092838120338252835260ff8482205416156122c65750505050565b6122cf33612abb565b918451906122dc82611e51565b6042825284820192606036853782511561228857603084538251906001918210156122885790607860218501536041915b818311612361575050506121d857604861190f9386936121bc936121ad985198899376020b1b1b2b9b9a1b7b73a3937b61d1030b1b1b7bab73a1604d1b8a8601526118bd815180928c603789019101611d6d565b909192600f81166010811015612274576f181899199a1a9b1b9c1cb0b131b232b360811b901a6123918587612aaa565b5360041c9280156122605760001901919061230d565b90600091808352600b602052604083209160018060a01b03169182845260205260ff6040842054166123d857505050565b808352600b602052604083208284526020526040832060ff1981541690557ff6391f5c32d9c69d2a47ea670b442974b53935d1edc7fd64eb21e047a839171b339380a4565b6001600160a01b0316801561243d57600052600360205260406000205490565b60405162461bcd60e51b815260206004820152602960248201527f4552433732313a2061646472657373207a65726f206973206e6f7420612076616044820152683634b21037bbb732b960b91b6064820152608490fd5b1561249b57565b60405162461bcd60e51b815260206004820152601860248201527f4552433732313a20696e76616c696420746f6b656e20494400000000000000006044820152606490fd5b6000908152600260205260409020546001600160a01b0316611fa0811515612494565b600081815260026020526040902054612526906001600160a01b03161515612494565b6000908152600460205260409020546001600160a01b031690565b1561254857565b60405162461bcd60e51b815260206004820152602d60248201527f4552433732313a2063616c6c6572206973206e6f7420746f6b656e206f776e6560448201526c1c881bdc88185c1c1c9bdd9959609a1b6064820152608490fd5b60809060208152603260208201527f4552433732313a207472616e7366657220746f206e6f6e20455243373231526560408201527131b2b4bb32b91034b6b83632b6b2b73a32b960711b60608201520190565b156125fd57565b60405162461bcd60e51b81528061190f600482016125a3565b906001600160a01b03808061262a846124e0565b1693169183831493841561265d575b508315612647575b50505090565b61265391929350612503565b1614388080612641565b909350600052600560205260406000208260005260205260ff604060002054169238612639565b1561268b57565b60405162461bcd60e51b815260206004820152602560248201527f4552433732313a207472616e736665722066726f6d20696e636f72726563742060448201526437bbb732b960d91b6064820152608490fd5b612702916126eb846124e0565b6001600160a01b0393848416939185168414612684565b8382169384156128b8578391826127ff575061274c9260085487600052600960205260406000205561273387612c65565b8286036127cc575b50612745866124e0565b1614612684565b7fddf252ad1be2c89b69c2b068fc378daa952ba7f163c4a11628f55a4df523b3ef60008481526004602052604081206bffffffffffffffffffffffff60a01b9081815416905583825260036020526040822060001981540190558482526040822060018154019055858252600260205284604083209182541617905580a4565b6127d59061241d565b6040600087815260066020528181208382526020528882822055888152600760205220553861273b565b858303612811575b5061274c92612733565b61281c91925061241d565b6000198101919082116128a25761274c928492600090888252602090600782526040918284205482810361286b575b508a84528383812055868452600681528284209184525281205592612807565b878552600682528385208386528252838520548886526006835284862082875283528085872055855260078252838520553861284b565b634e487b7160e01b600052601160045260246000fd5b60405162461bcd60e51b8152602060048201526024808201527f4552433732313a207472616e7366657220746f20746865207a65726f206164646044820152637265737360e01b6064820152608490fd5b91929091803b15612a1a57612956936040519081630a85bd0160e11b9384825233600483015260009687602484015260448301526080606483015281878160209a8b966084830190611d90565b03926001600160a01b03165af18491816129da575b506129c9575050503d6000146129c1573d61298581611f33565b906129936040519283611e6c565b81528091833d92013e5b805191826129be5760405162461bcd60e51b81528061190f600482016125a3565b01fd5b50606061299d565b6001600160e01b0319161492509050565b9091508581813d8311612a13575b6129f28183611e6c565b81010312610a5157516001600160e01b031981168103610a5157903861296b565b503d6129e8565b50915050600190565b92939190803b15612aa057612a75946040518092630a85bd0160e11b9485835233600484015260018060a01b03809816602484015260448301526080606483015281806020998a956084830190611d90565b03916000988991165af18491816129da57506129c9575050503d6000146129c1573d61298581611f33565b5050915050600190565b908151811015612051570160200190565b60405190606082018281106001600160401b03821117611e3b57604052602a82526020820160403682378251156120515760309053815160019081101561205157607860218401536029905b808211612b5b575050612b175790565b606460405162461bcd60e51b815260206004820152602060248201527f537472696e67733a20686578206c656e67746820696e73756666696369656e746044820152fd5b9091600f81166010811015612bb4576f181899199a1a9b1b9c1cb0b131b232b360811b901a612b8a8486612aaa565b5360041c918015612b9f576000190190612b07565b60246000634e487b7160e01b81526011600452fd5b60246000634e487b7160e01b81526032600452fd5b15612bd057565b60405162461bcd60e51b8152602060048201526012602482015271092dcecc2d8d2c840dee4c8cae440d0c2e6d60731b6044820152606490fd5b15612c1157565b60405162461bcd60e51b815260206004820152601560248201527413595d1859185d1848155493081c995c5d5a5c9959605a1b6044820152606490fd5b818110612c59575050565b60008155600101612c4e565b60085490600160401b821015611e3b576103b7826001611ecb940160085561201a565b60ff600d5416612c9457565b60405162461bcd60e51b815260206004820152601060248201526f14185d5cd8589b194e881c185d5cd95960821b6044820152606490fd5b90604091825192612cdc84611e20565b60008085526001600160a01b038316918215612ddf57938092611ecb96949261069196612d27612d2185600052600260205260018060a01b0360406000205416151590565b15612e22565b60026008548584526020906009825283852055612d4386612c65565b612d4c8761241d565b8585526006825283852081865282528385208790558685526007825283852055600086815260026020526040902054612d8f906001600160a01b03161515612d21565b848452600381528284208054600101905585845252812080546001600160a01b031916831790557fddf252ad1be2c89b69c2b068fc378daa952ba7f163c4a11628f55a4df523b3ef8180a4612909565b5162461bcd60e51b815260206004820181905260248201527f4552433732313a206d696e7420746f20746865207a65726f20616464726573736044820152606490fd5b15612e2957565b60405162461bcd60e51b815260206004820152601c60248201527f4552433732313a20746f6b656e20616c7265616479206d696e746564000000006044820152606490fd5b6000818152600260205260409020549192916001600160a01b031615612feb57600090808252602091600a835260408120908551906001600160401b038211612fd757612ebb8354611de6565b601f8111612fa9575b508490601f8311600114612f2557907ff8e1a15aba9398e019f0b49df1a4fde98ee17ae345cb5f6b5e2c27f5033e8ce7969783612f1a575b50508160011b916000199060031b1c19161790555b604051908152a1565b015190503880612efc565b9196601f198816848452868420935b818110612f9257509160019391897ff8e1a15aba9398e019f0b49df1a4fde98ee17ae345cb5f6b5e2c27f5033e8ce7999a9410612f79575b505050811b019055612f11565b015160001960f88460031b161c19169055388080612f6c565b929387600181928786015181550195019301612f34565b612fd190848352868320601f850160051c8101918886106108ab57601f0160051c0190612c4e565b38612ec4565b634e487b7160e01b81526041600452602490fd5b60405162461bcd60e51b815260206004820152602e60248201527f45524337323155524953746f726167653a2055524920736574206f66206e6f6e60448201526d32bc34b9ba32b73a103a37b5b2b760911b6064820152608490fd5b1561304e57565b60405162461bcd60e51b8152602060048201526014602482015273151bdad95b88191bd95cc81b9bdd08195e1a5cdd60621b6044820152606490fd5b6000818152600260205260409020546130ad906001600160a01b03161515612494565b600052600a6020526130c26040600020611e8d565b60006040516130d081611e20565b5290565b7f88a5966d370b9919b20f3e2c13ff65706f196a4e32cc2c12bf57088f8852587460408051338152346020820152a156fea264697066735822122091947f24abedb2175af0fe6b2bc6e7a05dd470544d1c9894b1e12819050d982d64736f6c634300081400332f8788117e7eff1d82e926ec794901d17c78024a50270940304540a733656f0d",
  "linkReferences": {},
  "deployedLinkReferences": {}
}