{"contracts/InvoiceNFT.sol":{"InvoiceNFT":{"abi":[{"inputs":[],"stateMutability":"nonpayable","type":"constructor"},{"anonymous":false,"inputs":[{"indexed":true,"internalType":"address","name":"owner","type":"address"},{"indexed":true,"internalType":"address","name":"approved","type":"address"},{"indexed":true,"internalType":"uint256","name":"tokenId","type":"uint256"}],"name":"Approval","type":"event"},{"anonymous":false,"inputs":[{"indexed":true,"internalType":"address","name":"owner","type":"address"},{"indexed":true,"internalType":"address","name":"operator","type":"address"},{"indexed":false,"internalType":"bool","name":"approved","type":"bool"}],"name":"ApprovalForAll","type":"event"},{"anonymous":false,"inputs":[{"indexed":true,"internalType":"uint256","name":"tokenId","type":"uint256"},{"indexed":false,"internalType":"string","name":"orderId","type":"string"},{"indexed":false,"internalType":"address","name":"owner","type":"address"},{"indexed":false,"internalType":"uint256","name":"amount","type":"uint256"},{"indexed":false,"internalType":"uint256","name":"warrantyMonths","type":"uint256"}],"name":"InvoiceMinted","type":"event"},{"anonymous":false,"inputs":[{"indexed":true,"internalType":"address","name":"previousOwner","type":"address"},{"indexed":true,"internalType":"address","name":"newOwner","type":"address"}],"name":"OwnershipTransferred","type":"event"},{"anonymous":false,"inputs":[{"indexed":true,"internalType":"address","name":"from","type":"address"},{"indexed":true,"internalType":"address","name":"to","type":"address"},{"indexed":true,"internalType":"uint256","name":"tokenId","type":"uint256"}],"name":"Transfer","type":"event"},{"anonymous":false,"inputs":[{"indexed":true,"internalType":"uint256","name":"tokenId","type":"uint256"},{"indexed":false,"internalType":"address","name":"user","type":"address"},{"indexed":false,"internalType":"uint256","name":"timestamp","type":"uint256"}],"name":"WarrantyUsed","type":"event"},{"inputs":[{"internalType":"address","name":"to","type":"address"},{"internalType":"uint256","name":"tokenId","type":"uint256"}],"name":"approve","outputs":[],"stateMutability":"nonpayable","type":"function"},{"inputs":[{"internalType":"address","name":"owner","type":"address"}],"name":"balanceOf","outputs":[{"internalType":"uint256","name":"","type":"uint256"}],"stateMutability":"view","type":"function"},{"inputs":[{"internalType":"uint256","name":"tokenId","type":"uint256"}],"name":"getApproved","outputs":[{"internalType":"address","name":"","type":"address"}],"stateMutability":"view","type":"function"},{"inputs":[{"internalType":"uint256","name":"","type":"uint256"}],"name":"invoiceData","outputs":[{"internalType":"string","name":"orderId","type":"string"},{"internalType":"uint256","name":"amount","type":"uint256"},{"internalType":"uint256","name":"purchaseDate","type":"uint256"},{"internalType":"uint256","name":"warrantyMonths","type":"uint256"},{"internalType":"bool","name":"warrantyUsed","type":"bool"}],"stateMutability":"view","type":"function"},{"inputs":[{"internalType":"address","name":"owner","type":"address"},{"internalType":"address","name":"operator","type":"address"}],"name":"isApprovedForAll","outputs":[{"internalType":"bool","name":"","type":"bool"}],"stateMutability":"view","type":"function"},{"inputs":[{"internalType":"address","name":"to","type":"address"},{"internalType":"string","name":"orderId","type":"string"},{"internalType":"uint256","name":"amount","type":"uint256"},{"internalType":"uint256","name":"warrantyMonths","type":"uint256"}],"name":"mint","outputs":[{"internalType":"uint256","name":"","type":"uint256"}],"stateMutability":"nonpayable","type":"function"},{"inputs":[],"name":"name","outputs":[{"internalType":"string","name":"","type":"string"}],"stateMutability":"view","type":"function"},{"inputs":[{"internalType":"string","name":"","type":"string"}],"name":"orderToTokenId","outputs":[{"internalType":"uint256","name":"","type":"uint256"}],"stateMutability":"view","type":"function"},{"inputs":[],"name":"owner","outputs":[{"internalType":"address","name":"","type":"address"}],"stateMutability":"view","type":"function"},{"inputs":[{"internalType":"uint256","name":"tokenId","type":"uint256"}],"name":"ownerOf","outputs":[{"internalType":"address","name":"","type":"address"}],"stateMutability":"view","type":"function"},{"inputs":[],"name":"renounceOwnership","outputs":[],"stateMutability":"nonpayable","type":"function"},{"inputs":[{"internalType":"address","name":"from","type":"address"},{"internalType":"address","name":"to","type":"address"},{"internalType":"uint256","name":"tokenId","type":"uint256"}],"name":"safeTransferFrom","outputs":[],"stateMutability":"nonpayable","type":"function"},{"inputs":[{"internalType":"address","name":"from","type":"address"},{"internalType":"address","name":"to","type":"address"},{"internalType":"uint256","name":"tokenId","type":"uint256"},{"internalType":"bytes","name":"data","type":"bytes"}],"name":"safeTransferFrom","outputs":[],"stateMutability":"nonpayable","type":"function"},{"inputs":[{"internalType":"address","name":"operator","type":"address"},{"internalType":"bool","name":"approved","type":"bool"}],"name":"setApprovalForAll","outputs":[],"stateMutability":"nonpayable","type":"function"},{"inputs":[{"internalType":"bytes4","name":"interfaceId","type":"bytes4"}],"name":"supportsInterface","outputs":[{"internalType":"bool","name":"","type":"bool"}],"stateMutability":"view","type":"function"},{"inputs":[],"name":"symbol","outputs":[{"internalType":"string","name":"","type":"string"}],"stateMutability":"view","type":"function"},{"inputs":[{"internalType":"uint256","name":"tokenId","type":"uint256"}],"name":"tokenURI","outputs":[{"internalType":"string","name":"","type":"string"}],"stateMutability":"view","type":"function"},{"inputs":[{"internalType":"address","name":"from","type":"address"},{"internalType":"address","name":"to","type":"address"},{"internalType":"uint256","name":"tokenId","type":"uint256"}],"name":"transferFrom","outputs":[],"stateMutability":"nonpayable","type":"function"},{"inputs":[{"internalType":"address","name":"newOwner","type":"address"}],"name":"transferOwnership","outputs":[],"stateMutability":"nonpayable","type":"function"},{"inputs":[{"internalType":"uint256","name":"tokenId","type":"uint256"}],"name":"useWarranty","outputs":[],"stateMutability":"nonpayable","type":"function"}],"evm":{"bytecode":{"linkReferences":{},"object":"6080346200035f576001600160401b039060408181018381118382101762000349578152601082526020916f45636f6d6d65726365496e766f69636560801b838201528151938285018581108282111762000349578352600585526422a1a4a72b60d91b84860152815181811162000349576000948554916001948584811c941680156200033e575b838510146200032a578190601f94858111620002d7575b5083908583116001146200027357899262000267575b5050600019600383901b1c191690851b1786555b8651928311620002535783548481811c9116801562000248575b828210146200023457828111620001ec575b50809183116001146200018557508495829394959262000179575b5050600019600383901b1c191690821b1790555b60068054336001600160a01b03198216811790925591519290916001600160a01b0316907f8be0079c531659141344cd1fd0a4f28419497f9722a3daafe3b4186f6b6457e09080a36120c79081620003658239f35b01519050388062000110565b90601f198316968487528287209287905b898210620001d4575050838596979810620001ba575b505050811b01905562000124565b015160001960f88460031b161c19169055388080620001ac565b80878596829496860151815501950193019062000196565b8487528187208380860160051c8201928487106200022a575b0160051c019085905b8281106200021e575050620000f5565b8881550185906200020e565b9250819262000205565b634e487b7160e01b87526022600452602487fd5b90607f1690620000e3565b634e487b7160e01b86526041600452602486fd5b015190503880620000b5565b898052848a208894509190601f1984168b5b87828210620002c05750508411620002a6575b505050811b018655620000c9565b015160001960f88460031b161c1916905538808062000298565b8385015186558b9790950194938401930162000285565b9091508880528389208580850160051c82019286861062000320575b918991869594930160051c01915b828110620003115750506200009f565b8b815585945089910162000301565b92508192620002f3565b634e487b7160e01b88526022600452602488fd5b93607f169362000088565b634e487b7160e01b600052604160045260246000fd5b600080fdfe608080604052600436101561001357600080fd5b60003560e01c90816301ffc9a71461150c5750806306fdde0314611469578063081812fc1461144b578063095ea7b3146112d1578063178a5cff1461115957806323b872dd1461113557806342842e0e146111025780634a5dc3aa14610bfd5780636352211e14610bcd578063680abf4814610b7057806370a0823114610ad9578063715018a614610a7c5780638da5cb5b14610a5357806395d89b4114610974578063a22cb46514610899578063ab23b64614610822578063b88d4fde1461079a578063c87b56dd1461021f578063e985e9c5146101c95763f2fde38b146100fb57600080fd5b346101c45760203660031901126101c4576101146115bf565b61011c6117fd565b6001600160a01b0390811690811561017057600654826bffffffffffffffffffffffff60a01b821617600655167f8be0079c531659141344cd1fd0a4f28419497f9722a3daafe3b4186f6b6457e0600080a3005b60405162461bcd60e51b815260206004820152602660248201527f4f776e61626c653a206e6577206f776e657220697320746865207a65726f206160448201526564647265737360d01b6064820152608490fd5b600080fd5b346101c45760403660031901126101c4576101e26115bf565b6101ea6115d5565b9060018060a01b03809116600052600560205260406000209116600052602052602060ff604060002054166040519015158152f35b346101c4576020806003193601126101c4576004356000818152600260205260409020546001600160a01b03161561075e576000526008815260406000206040519061026a82611620565b61027381611757565b9182815260018201549182858301526102b460028201549360408401948552608060ff60046003860154956060880196875201541694019315158452611f4e565b936102bf8451611f4e565b946102ca8351611f4e565b945192519362278d0094858102958187041490151715610748576106b9966103006102fb6106b49761021e97611daa565b611f4e565b91511561072357886040516103148161166e565b6004815263155cd95960e21b82820152935b604051988996717b226e616d65223a22496e766f696365202360701b848901528051906104758582019261035e8160328d0186611577565b61088b60f21b6032918c01918201527f226465736372697074696f6e223a22452d636f6d6d6572636520496e766f696360348201527f6520616e642057617272616e7479204365727469666963617465222c0000000060548201527f22696d616765223a22697066733a2f2f516d5366516f6557365976427736583560708201527f5a354a3751585a764a3851394c5138714a3851394c5138714a3851394c512f7060908201526f1b1858d95a1bdb19195c8b9c1b99c88b60821b60b08201526d2261747472696275746573223a5b60901b60c08201527f7b2274726169745f74797065223a224f72646572204944222c2276616c75652260ce820152611d1160f11b60ee820152915192839060f0840190611577565b0162089f4b60ea1b60f08201527f7b2274726169745f74797065223a22416d6f756e74222c22646973706c61795f60f38201527f74797065223a226e756d626572222c2276616c7565223a0000000000000000006101138201528251906104e58261012a95878785019101611577565b0193611f4b60f21b8581809795819601527f7b2274726169745f74797065223a2250757263686173652044617465222c226461012c8201527f6973706c61795f74797065223a2264617465222c2276616c7565223a0000000061014c82015282519061055a8261016895898785019101611577565b01918201527f7b2274726169745f74797065223a2257617272616e7479204d6f6e746873222c61016a8201527f22646973706c61795f74797065223a226e756d626572222c2276616c7565223a61018a8201526105c2825180936101aa968785019101611577565b01918201527f7b2274726169745f74797065223a2257617272616e74792056616c696420556e6101ac8201527f74696c222c22646973706c61795f74797065223a2264617465222c2276616c756101cc8201526232911d60e91b6101ec820152825190610638826101ef958d8785019101611577565b01918201527f7b2274726169745f74797065223a2257617272616e747920537461747573222c6101f182015268113b30b63ab2911d1160b91b61021182015281519061068d8261021a948b8685019101611577565b019061227d60f01b90820152615d7d60f01b61021c820152036101fe81018452018261168a565b611de9565b9061070b603d60405180947f646174613a6170706c69636174696f6e2f6a736f6e3b6261736536342c000000858301526106fb81518092878686019101611577565b810103601d81018552018361168a565b61071f60405192828493845283019061159a565b0390f35b886040516107308161166e565b600681526541637469766560d01b8282015293610326565b634e487b7160e01b600052601160045260246000fd5b60405162461bcd60e51b8152600481018390526014602482015273151bdad95b88191bd95cc81b9bdd08195e1a5cdd60621b6044820152606490fd5b346101c45760803660031901126101c4576107b36115bf565b6107bb6115d5565b906064359060443567ffffffffffffffff83116101c457366023840112156101c457610820936107f861081b9436906024816004013591016116c8565b9261080b61080684336119db565b611902565b610816838383611aa3565b611cd7565b6119b7565b005b346101c45760203660031901126101c457600435600052600860205261087e604060002061084f81611757565b9060018101549060028101549060ff60046003830154920154169160405195869560a0875260a087019061159a565b93602086015260408501526060840152151560808301520390f35b346101c45760403660031901126101c4576108b26115bf565b60243590811515908183036101c4576001600160a01b03169133831461092f576109019033600052600560205260406000208460005260205260406000209060ff801983541691151516179055565b6040519081527f17307eab39ab6107e8899845ad3d59bd9653f200f220920489ca2b5937696c3160203392a3005b60405162461bcd60e51b815260206004820152601960248201527f4552433732313a20617070726f766520746f2063616c6c6572000000000000006044820152606490fd5b346101c45760003660031901126101c457604051600060018054906109988261171d565b80855291818116908115610a2c57506001146109d3575b61071f846109bf8186038261168a565b60405191829160208352602083019061159a565b600081815292507fb10e2d527612073b26eecdfd717e6a320cf44b4afac2b0732d9fcbe2b7fa0cf65b828410610a145750505081016020016109bf826109af565b805460208587018101919091529093019281016109fc565b60ff191660208087019190915292151560051b850190920192506109bf91508390506109af565b346101c45760003660031901126101c4576006546040516001600160a01b039091168152602090f35b346101c45760003660031901126101c457610a956117fd565b600680546001600160a01b031981169091556000906001600160a01b03167f8be0079c531659141344cd1fd0a4f28419497f9722a3daafe3b4186f6b6457e08280a3005b346101c45760203660031901126101c4576001600160a01b03610afa6115bf565b168015610b195760005260036020526020604060002054604051908152f35b60405162461bcd60e51b815260206004820152602960248201527f4552433732313a2061646472657373207a65726f206973206e6f7420612076616044820152683634b21037bbb732b960b91b6064820152608490fd5b346101c45760203660031901126101c45760043567ffffffffffffffff81116101c457610bba6020610ba7819336906004016116ff565b8160405193828580945193849201611577565b8101600981520301902054604051908152f35b346101c45760203660031901126101c4576020610beb6004356118a1565b6040516001600160a01b039091168152f35b346101c45760803660031901126101c457610c166115bf565b60249067ffffffffffffffff9082358281116101c457610c3a9036906004016116ff565b92610c436117fd565b6040516020818651610c588183858b01611577565b81016009815203019020546110c65783511561108f576044351561104b5760643515610ff8576001600754019283600755604051610c9581611652565b600081526001600160a01b03841615610fb457600085815260026020526040902054610d629161081b91610cd5906001600160a01b031615155b15611d5e565b600087815260026020526040902054610cf8906001600160a01b03161515610ccf565b6001600160a01b0386166000818152600360209081526040808320805460010190558a83526002909152812080546001600160a01b031916831790558891907fddf252ad1be2c89b69c2b068fc378daa952ba7f163c4a11628f55a4df523b3ef8180a48686611bb9565b60405190610d6f82611620565b85825260443560208301524260408301526064356060830152600060808301528460005260086020526040600020928251908151928311610fa05750610db5845461171d565b601f8111610f5c575b509160209693918695938890601f8311600114610ec2576080610e8d969484610e59957f47453627127e40530ba9cf2e1390e4f71a91447bffd9a434b1aaa0bdebd84f959a9895600495600092610eb7575b50508160011b916000199060031b1c19161784555b8b810151600185015560408101516002850155606081015160038501550151151591019060ff801983541691151516179055565b8460405188818551610e6e8183858a01611577565b810160098152030190205560405192839260808452608084019061159a565b6001600160a01b0390911682880152604435604083015260643560608301520390a2604051908152f35b015190508e80610e10565b9084600052896000209160005b601f1985168110610f425750610e8d96946001857f47453627127e40530ba9cf2e1390e4f71a91447bffd9a434b1aaa0bdebd84f959a9895600495608095610e5999601f19811610610f29575b505050811b018455610e25565b015160001960f88460031b161c191690558e8080610f1c565b8183015184558a9950600190930192918b01918b01610ecf565b846000526020600020601f840160051c810160208510610f99575b601f830160051c82018110610f8d575050610dbe565b60008155600101610f77565b5080610f77565b634e487b7160e01b60009081526041600452fd5b60405162461bcd60e51b8152602060048201819052818501527f4552433732313a206d696e7420746f20746865207a65726f20616464726573736044820152606490fd5b60849060266040519162461bcd60e51b8352602060048401528201527f57617272616e747920706572696f64206d75737420626520677265617465722060448201526507468616e20360d41b6064820152fd5b606490601d6040519162461bcd60e51b8352602060048401528201527f416d6f756e74206d7573742062652067726561746572207468616e20300000006044820152fd5b60649060106040519162461bcd60e51b8352602060048401528201526f125b9d985b1a59081bdc99195c88125160821b6044820152fd5b60649060156040519162461bcd60e51b8352602060048401528201527413dc99195c88185b1c9958591e481a185cc8139195605a1b6044820152fd5b346101c45761082061081b611116366115eb565b906040519261112484611652565b6000845261080b61080684336119db565b346101c457610820611146366115eb565b9161115461080684336119db565b611aa3565b346101c4576020806003193601126101c45760043590611178826118a1565b336001600160a01b039091160361129b57816000526008815260ff6004604060002001541661125f57816000526008815260406000206003600282015491015462278d0090818102918183041490151715610748576111d691611daa565b42116112285760407f0bc0332d9daf825142b13dbf9bb17844eaa4387f96f3b4e094b71526ac09d08d91836000526008815260048260002001600160ff198254161790558151903382524290820152a2005b6064906040519062461bcd60e51b82526004820152601060248201526f15d85c9c985b9d1e48195e1c1a5c995960821b6044820152fd5b6064906040519062461bcd60e51b82526004820152601560248201527415d85c9c985b9d1e48185b1c9958591e481d5cd959605a1b6044820152fd5b6064906040519062461bcd60e51b82526004820152600f60248201526e2737ba103a37b5b2b71037bbb732b960891b6044820152fd5b346101c45760403660031901126101c4576112ea6115bf565b602435906001600160a01b038080611301856118a1565b169216918083146113fc578033149081156113d7575b501561136c57600083815260046020526040902080546001600160a01b03191683179055611344836118a1565b167f8c5be1e5ebec7d5bd14f71427d1e84f3dd0314c0f7b2291e5b200ac8c7c3b925600080a4005b60405162461bcd60e51b815260206004820152603d60248201527f4552433732313a20617070726f76652063616c6c6572206973206e6f7420746f60448201527f6b656e206f776e6572206f7220617070726f76656420666f7220616c6c0000006064820152608490fd5b9050600052600560205260406000203360005260205260ff6040600020541684611317565b60405162461bcd60e51b815260206004820152602160248201527f4552433732313a20617070726f76616c20746f2063757272656e74206f776e656044820152603960f91b6064820152608490fd5b346101c45760203660031901126101c4576020610beb6004356118c4565b346101c45760003660031901126101c4576040516000805461148a8161171d565b80845290600190818116908115610a2c57506001146114b35761071f846109bf8186038261168a565b600080805292507f290decd9548b62a8d60345a988386fc84ba6bc95484008f6362f93160ef3e5635b8284106114f45750505081016020016109bf826109af565b805460208587018101919091529093019281016114dc565b346101c45760203660031901126101c4576004359063ffffffff60e01b82168092036101c4576020916380ac58cd60e01b8114908115611566575b8115611555575b5015158152f35b6301ffc9a760e01b1490508361154e565b635b5e139f60e01b81149150611547565b60005b83811061158a5750506000910152565b818101518382015260200161157a565b906020916115b381518092818552858086019101611577565b601f01601f1916010190565b600435906001600160a01b03821682036101c457565b602435906001600160a01b03821682036101c457565b60609060031901126101c4576001600160a01b039060043582811681036101c4579160243590811681036101c4579060443590565b60a0810190811067ffffffffffffffff82111761163c57604052565b634e487b7160e01b600052604160045260246000fd5b6020810190811067ffffffffffffffff82111761163c57604052565b6040810190811067ffffffffffffffff82111761163c57604052565b90601f8019910116810190811067ffffffffffffffff82111761163c57604052565b67ffffffffffffffff811161163c57601f01601f191660200190565b9291926116d4826116ac565b916116e2604051938461168a565b8294818452818301116101c4578281602093846000960137010152565b9080601f830112156101c45781602061171a933591016116c8565b90565b90600182811c9216801561174d575b602083101461173757565b634e487b7160e01b600052602260045260246000fd5b91607f169161172c565b906040519182600082549261176b8461171d565b9081845260019485811690816000146117da5750600114611797575b50506117959250038361168a565b565b9093915060005260209081600020936000915b8183106117c257505061179593508201013880611787565b855488840185015294850194879450918301916117aa565b91505061179594506020925060ff191682840152151560051b8201013880611787565b6006546001600160a01b0316330361181157565b606460405162461bcd60e51b815260206004820152602060248201527f4f776e61626c653a2063616c6c6572206973206e6f7420746865206f776e65726044820152fd5b1561185c57565b60405162461bcd60e51b815260206004820152601860248201527f4552433732313a20696e76616c696420746f6b656e20494400000000000000006044820152606490fd5b6000908152600260205260409020546001600160a01b031661171a811515611855565b6000818152600260205260409020546118e7906001600160a01b03161515611855565b6000908152600460205260409020546001600160a01b031690565b1561190957565b60405162461bcd60e51b815260206004820152602d60248201527f4552433732313a2063616c6c6572206973206e6f7420746f6b656e206f776e6560448201526c1c881bdc88185c1c1c9bdd9959609a1b6064820152608490fd5b60809060208152603260208201527f4552433732313a207472616e7366657220746f206e6f6e20455243373231526560408201527131b2b4bb32b91034b6b83632b6b2b73a32b960711b60608201520190565b156119be57565b60405162461bcd60e51b8152806119d760048201611964565b0390fd5b906001600160a01b0380806119ef846118a1565b16931691838314938415611a22575b508315611a0c575b50505090565b611a18919293506118c4565b1614388080611a06565b909350600052600560205260406000208260005260205260ff6040600020541692386119fe565b15611a5057565b60405162461bcd60e51b815260206004820152602560248201527f4552433732313a207472616e736665722066726f6d20696e636f72726563742060448201526437bbb732b960d91b6064820152608490fd5b90611acb91611ab1846118a1565b6001600160a01b0393918416928492909183168414611a49565b16918215611b685781611ae891611ae1866118a1565b1614611a49565b7fddf252ad1be2c89b69c2b068fc378daa952ba7f163c4a11628f55a4df523b3ef60008481526004602052604081206bffffffffffffffffffffffff60a01b9081815416905583825260036020526040822060001981540190558482526040822060018154019055858252600260205284604083209182541617905580a4565b60405162461bcd60e51b8152602060048201526024808201527f4552433732313a207472616e7366657220746f20746865207a65726f206164646044820152637265737360e01b6064820152608490fd5b91929091803b15611cce57611c06936040519081630a85bd0160e11b9384825233600483015260009687602484015260448301526080606483015281878160209a8b96608483019061159a565b03926001600160a01b03165af1849181611c8a575b50611c79575050503d600014611c71573d611c35816116ac565b90611c43604051928361168a565b81528091833d92013e5b80519182611c6e5760405162461bcd60e51b8152806119d760048201611964565b01fd5b506060611c4d565b6001600160e01b0319161492509050565b9091508581813d8311611cc7575b611ca2818361168a565b81010312611cc357516001600160e01b031981168103611cc3579038611c1b565b8480fd5b503d611c98565b50915050600190565b92939190803b15611d5457611d29946040518092630a85bd0160e11b9485835233600484015260018060a01b03809816602484015260448301526080606483015281806020998a95608483019061159a565b03916000988991165af1849181611c8a5750611c79575050503d600014611c71573d611c35816116ac565b5050915050600190565b15611d6557565b60405162461bcd60e51b815260206004820152601c60248201527f4552433732313a20746f6b656e20616c7265616479206d696e746564000000006044820152606490fd5b9190820180921161074857565b90611dc1826116ac565b611dce604051918261168a565b8281528092611ddf601f19916116ac565b0190602036910137565b805115611f3a57604051906060820182811067ffffffffffffffff82111761163c57604052604082527f4142434445464748494a4b4c4d4e4f505152535455565758595a61626364656660208301527f6768696a6b6c6d6e6f707172737475767778797a303132333435363738392b2f60408301528051600291828201809211610748576003918290046001600160fe1b038116810361074857611e90908495941b611db7565b936020850193829183518401906020820192835194600085525b838110611ee9575050505052510680600114611ed657600214611ecb575090565b603d90600019015390565b50603d9081600019820153600119015390565b87600491999293949901918251600190603f9082828260121c16880101518453828282600c1c16880101518385015382828260061c1688010151888501531685010151898201530197929190611eaa565b50604051611f4781611652565b6000815290565b806000917a184f03e93ff9f4daa797ed6e38ed64bf6a1f01000000000000000080821015612083575b506d04ee2d6d415b85acef810000000080831015612074575b50662386f26fc1000080831015612065575b506305f5e10080831015612056575b5061271080831015612047575b506064821015612037575b600a8092101561202d575b600190816021611fe5828701611db7565b95860101905b611ff7575b5050505090565b600019019083906f181899199a1a9b1b9c1cb0b131b232b360811b8282061a83530491821561202857919082611feb565b611ff0565b9160010191611fd4565b9190606460029104910191611fc9565b60049193920491019138611fbe565b60089193920491019138611fb1565b60109193920491019138611fa2565b60209193920491019138611f90565b604093508104915038611f7756fea2646970667358221220f882cb2430a4009179b90762a97c5f8da16568ad3cf20477103f2868672bd53564736f6c63430008140033","opcodes":"PUSH1 0x80 CALLVALUE PUSH3 0x35F JUMPI PUSH1 0x1 PUSH1 0x1 PUSH1 0x40 SHL SUB SWAP1 PUSH1 0x40 DUP2 DUP2 ADD DUP4 DUP2 GT DUP4 DUP3 LT OR PUSH3 0x349 JUMPI DUP2 MSTORE PUSH1 0x10 DUP3 MSTORE PUSH1 0x20 SWAP2 PUSH16 0x45636F6D6D65726365496E766F696365 PUSH1 0x80 SHL DUP4 DUP3 ADD MSTORE DUP2 MLOAD SWAP4 DUP3 DUP6 ADD DUP6 DUP2 LT DUP3 DUP3 GT OR PUSH3 0x349 JUMPI DUP4 MSTORE PUSH1 0x5 DUP6 MSTORE PUSH5 0x22A1A4A72B PUSH1 0xD9 SHL DUP5 DUP7 ADD MSTORE DUP2 MLOAD DUP2 DUP2 GT PUSH3 0x349 JUMPI PUSH1 0x0 SWAP5 DUP6 SLOAD SWAP2 PUSH1 0x1 SWAP5 DUP6 DUP5 DUP2 SHR SWAP5 AND DUP1 ISZERO PUSH3 0x33E JUMPI JUMPDEST DUP4 DUP6 LT EQ PUSH3 0x32A JUMPI DUP2 SWAP1 PUSH1 0x1F SWAP5 DUP6 DUP2 GT PUSH3 0x2D7 JUMPI JUMPDEST POP DUP4 SWAP1 DUP6 DUP4 GT PUSH1 0x1 EQ PUSH3 0x273 JUMPI DUP10 SWAP3 PUSH3 0x267 JUMPI JUMPDEST POP POP PUSH1 0x0 NOT PUSH1 0x3 DUP4 SWAP1 SHL SHR NOT AND SWAP1 DUP6 SHL OR DUP7 SSTORE JUMPDEST DUP7 MLOAD SWAP3 DUP4 GT PUSH3 0x253 JUMPI DUP4 SLOAD DUP5 DUP2 DUP2 SHR SWAP2 AND DUP1 ISZERO PUSH3 0x248 JUMPI JUMPDEST DUP3 DUP3 LT EQ PUSH3 0x234 JUMPI DUP3 DUP2 GT PUSH3 0x1EC JUMPI JUMPDEST POP DUP1 SWAP2 DUP4 GT PUSH1 0x1 EQ PUSH3 0x185 JUMPI POP DUP5 SWAP6 DUP3 SWAP4 SWAP5 SWAP6 SWAP3 PUSH3 0x179 JUMPI JUMPDEST POP POP PUSH1 0x0 NOT PUSH1 0x3 DUP4 SWAP1 SHL SHR NOT AND SWAP1 DUP3 SHL OR SWAP1 SSTORE JUMPDEST PUSH1 0x6 DUP1 SLOAD CALLER PUSH1 0x1 PUSH1 0x1 PUSH1 0xA0 SHL SUB NOT DUP3 AND DUP2 OR SWAP1 SWAP3 SSTORE SWAP2 MLOAD SWAP3 SWAP1 SWAP2 PUSH1 0x1 PUSH1 0x1 PUSH1 0xA0 SHL SUB AND SWAP1 PUSH32 0x8BE0079C531659141344CD1FD0A4F28419497F9722A3DAAFE3B4186F6B6457E0 SWAP1 DUP1 LOG3 PUSH2 0x20C7 SWAP1 DUP2 PUSH3 0x365 DUP3 CODECOPY RETURN JUMPDEST ADD MLOAD SWAP1 POP CODESIZE DUP1 PUSH3 0x110 JUMP JUMPDEST SWAP1 PUSH1 0x1F NOT DUP4 AND SWAP7 DUP5 DUP8 MSTORE DUP3 DUP8 KECCAK256 SWAP3 DUP8 SWAP1 JUMPDEST DUP10 DUP3 LT PUSH3 0x1D4 JUMPI POP POP DUP4 DUP6 SWAP7 SWAP8 SWAP9 LT PUSH3 0x1BA JUMPI JUMPDEST POP POP POP DUP2 SHL ADD SWAP1 SSTORE PUSH3 0x124 JUMP JUMPDEST ADD MLOAD PUSH1 0x0 NOT PUSH1 0xF8 DUP5 PUSH1 0x3 SHL AND SHR NOT AND SWAP1 SSTORE CODESIZE DUP1 DUP1 PUSH3 0x1AC JUMP JUMPDEST DUP1 DUP8 DUP6 SWAP7 DUP3 SWAP5 SWAP7 DUP7 ADD MLOAD DUP2 SSTORE ADD SWAP6 ADD SWAP4 ADD SWAP1 PUSH3 0x196 JUMP JUMPDEST DUP5 DUP8 MSTORE DUP2 DUP8 KECCAK256 DUP4 DUP1 DUP7 ADD PUSH1 0x5 SHR DUP3 ADD SWAP3 DUP5 DUP8 LT PUSH3 0x22A JUMPI JUMPDEST ADD PUSH1 0x5 SHR ADD SWAP1 DUP6 SWAP1 JUMPDEST DUP3 DUP2 LT PUSH3 0x21E JUMPI POP POP PUSH3 0xF5 JUMP JUMPDEST DUP9 DUP2 SSTORE ADD DUP6 SWAP1 PUSH3 0x20E JUMP JUMPDEST SWAP3 POP DUP2 SWAP3 PUSH3 0x205 JUMP JUMPDEST PUSH4 0x4E487B71 PUSH1 0xE0 SHL DUP8 MSTORE PUSH1 0x22 PUSH1 0x4 MSTORE PUSH1 0x24 DUP8 REVERT JUMPDEST SWAP1 PUSH1 0x7F AND SWAP1 PUSH3 0xE3 JUMP JUMPDEST PUSH4 0x4E487B71 PUSH1 0xE0 SHL DUP7 MSTORE PUSH1 0x41 PUSH1 0x4 MSTORE PUSH1 0x24 DUP7 REVERT JUMPDEST ADD MLOAD SWAP1 POP CODESIZE DUP1 PUSH3 0xB5 JUMP JUMPDEST DUP10 DUP1 MSTORE DUP5 DUP11 KECCAK256 DUP9 SWAP5 POP SWAP2 SWAP1 PUSH1 0x1F NOT DUP5 AND DUP12 JUMPDEST DUP8 DUP3 DUP3 LT PUSH3 0x2C0 JUMPI POP POP DUP5 GT PUSH3 0x2A6 JUMPI JUMPDEST POP POP POP DUP2 SHL ADD DUP7 SSTORE PUSH3 0xC9 JUMP JUMPDEST ADD MLOAD PUSH1 0x0 NOT PUSH1 0xF8 DUP5 PUSH1 0x3 SHL AND SHR NOT AND SWAP1 SSTORE CODESIZE DUP1 DUP1 PUSH3 0x298 JUMP JUMPDEST DUP4 DUP6 ADD MLOAD DUP7 SSTORE DUP12 SWAP8 SWAP1 SWAP6 ADD SWAP5 SWAP4 DUP5 ADD SWAP4 ADD PUSH3 0x285 JUMP JUMPDEST SWAP1 SWAP2 POP DUP9 DUP1 MSTORE DUP4 DUP10 KECCAK256 DUP6 DUP1 DUP6 ADD PUSH1 0x5 SHR DUP3 ADD SWAP3 DUP7 DUP7 LT PUSH3 0x320 JUMPI JUMPDEST SWAP2 DUP10 SWAP2 DUP7 SWAP6 SWAP5 SWAP4 ADD PUSH1 0x5 SHR ADD SWAP2 JUMPDEST DUP3 DUP2 LT PUSH3 0x311 JUMPI POP POP PUSH3 0x9F JUMP JUMPDEST DUP12 DUP2 SSTORE DUP6 SWAP5 POP DUP10 SWAP2 ADD PUSH3 0x301 JUMP JUMPDEST SWAP3 POP DUP2 SWAP3 PUSH3 0x2F3 JUMP JUMPDEST PUSH4 0x4E487B71 PUSH1 0xE0 SHL DUP9 MSTORE PUSH1 0x22 PUSH1 0x4 MSTORE PUSH1 0x24 DUP9 REVERT JUMPDEST SWAP4 PUSH1 0x7F AND SWAP4 PUSH3 0x88 JUMP JUMPDEST PUSH4 0x4E487B71 PUSH1 0xE0 SHL PUSH1 0x0 MSTORE PUSH1 0x41 PUSH1 0x4 MSTORE PUSH1 0x24 PUSH1 0x0 REVERT JUMPDEST PUSH1 0x0 DUP1 REVERT INVALID PUSH1 0x80 DUP1 PUSH1 0x40 MSTORE PUSH1 0x4 CALLDATASIZE LT ISZERO PUSH2 0x13 JUMPI PUSH1 0x0 DUP1 REVERT JUMPDEST PUSH1 0x0 CALLDATALOAD PUSH1 0xE0 SHR SWAP1 DUP2 PUSH4 0x1FFC9A7 EQ PUSH2 0x150C JUMPI POP DUP1 PUSH4 0x6FDDE03 EQ PUSH2 0x1469 JUMPI DUP1 PUSH4 0x81812FC EQ PUSH2 0x144B JUMPI DUP1 PUSH4 0x95EA7B3 EQ PUSH2 0x12D1 JUMPI DUP1 PUSH4 0x178A5CFF EQ PUSH2 0x1159 JUMPI DUP1 PUSH4 0x23B872DD EQ PUSH2 0x1135 JUMPI DUP1 PUSH4 0x42842E0E EQ PUSH2 0x1102 JUMPI DUP1 PUSH4 0x4A5DC3AA EQ PUSH2 0xBFD JUMPI DUP1 PUSH4 0x6352211E EQ PUSH2 0xBCD JUMPI DUP1 PUSH4 0x680ABF48 EQ PUSH2 0xB70 JUMPI DUP1 PUSH4 0x70A08231 EQ PUSH2 0xAD9 JUMPI DUP1 PUSH4 0x715018A6 EQ PUSH2 0xA7C JUMPI DUP1 PUSH4 0x8DA5CB5B EQ PUSH2 0xA53 JUMPI DUP1 PUSH4 0x95D89B41 EQ PUSH2 0x974 JUMPI DUP1 PUSH4 0xA22CB465 EQ PUSH2 0x899 JUMPI DUP1 PUSH4 0xAB23B646 EQ PUSH2 0x822 JUMPI DUP1 PUSH4 0xB88D4FDE EQ PUSH2 0x79A JUMPI DUP1 PUSH4 0xC87B56DD EQ PUSH2 0x21F JUMPI DUP1 PUSH4 0xE985E9C5 EQ PUSH2 0x1C9 JUMPI PUSH4 0xF2FDE38B EQ PUSH2 0xFB JUMPI PUSH1 0x0 DUP1 REVERT JUMPDEST CALLVALUE PUSH2 0x1C4 JUMPI PUSH1 0x20 CALLDATASIZE PUSH1 0x3 NOT ADD SLT PUSH2 0x1C4 JUMPI PUSH2 0x114 PUSH2 0x15BF JUMP JUMPDEST PUSH2 0x11C PUSH2 0x17FD JUMP JUMPDEST PUSH1 0x1 PUSH1 0x1 PUSH1 0xA0 SHL SUB SWAP1 DUP2 AND SWAP1 DUP2 ISZERO PUSH2 0x170 JUMPI PUSH1 0x6 SLOAD DUP3 PUSH12 0xFFFFFFFFFFFFFFFFFFFFFFFF PUSH1 0xA0 SHL DUP3 AND OR PUSH1 0x6 SSTORE AND PUSH32 0x8BE0079C531659141344CD1FD0A4F28419497F9722A3DAAFE3B4186F6B6457E0 PUSH1 0x0 DUP1 LOG3 STOP JUMPDEST PUSH1 0x40 MLOAD PUSH3 0x461BCD PUSH1 0xE5 SHL DUP2 MSTORE PUSH1 0x20 PUSH1 0x4 DUP3 ADD MSTORE PUSH1 0x26 PUSH1 0x24 DUP3 ADD MSTORE PUSH32 0x4F776E61626C653A206E6577206F776E657220697320746865207A65726F2061 PUSH1 0x44 DUP3 ADD MSTORE PUSH6 0x646472657373 PUSH1 0xD0 SHL PUSH1 0x64 DUP3 ADD MSTORE PUSH1 0x84 SWAP1 REVERT JUMPDEST PUSH1 0x0 DUP1 REVERT JUMPDEST CALLVALUE PUSH2 0x1C4 JUMPI PUSH1 0x40 CALLDATASIZE PUSH1 0x3 NOT ADD SLT PUSH2 0x1C4 JUMPI PUSH2 0x1E2 PUSH2 0x15BF JUMP JUMPDEST PUSH2 0x1EA PUSH2 0x15D5 JUMP JUMPDEST SWAP1 PUSH1 0x1 DUP1 PUSH1 0xA0 SHL SUB DUP1 SWAP2 AND PUSH1 0x0 MSTORE PUSH1 0x5 PUSH1 0x20 MSTORE PUSH1 0x40 PUSH1 0x0 KECCAK256 SWAP2 AND PUSH1 0x0 MSTORE PUSH1 0x20 MSTORE PUSH1 0x20 PUSH1 0xFF PUSH1 0x40 PUSH1 0x0 KECCAK256 SLOAD AND PUSH1 0x40 MLOAD SWAP1 ISZERO ISZERO DUP2 MSTORE RETURN JUMPDEST CALLVALUE PUSH2 0x1C4 JUMPI PUSH1 0x20 DUP1 PUSH1 0x3 NOT CALLDATASIZE ADD SLT PUSH2 0x1C4 JUMPI PUSH1 0x4 CALLDATALOAD PUSH1 0x0 DUP2 DUP2 MSTORE PUSH1 0x2 PUSH1 0x20 MSTORE PUSH1 0x40 SWAP1 KECCAK256 SLOAD PUSH1 0x1 PUSH1 0x1 PUSH1 0xA0 SHL SUB AND ISZERO PUSH2 0x75E JUMPI PUSH1 0x0 MSTORE PUSH1 0x8 DUP2 MSTORE PUSH1 0x40 PUSH1 0x0 KECCAK256 PUSH1 0x40 MLOAD SWAP1 PUSH2 0x26A DUP3 PUSH2 0x1620 JUMP JUMPDEST PUSH2 0x273 DUP2 PUSH2 0x1757 JUMP JUMPDEST SWAP2 DUP3 DUP2 MSTORE PUSH1 0x1 DUP3 ADD SLOAD SWAP2 DUP3 DUP6 DUP4 ADD MSTORE PUSH2 0x2B4 PUSH1 0x2 DUP3 ADD SLOAD SWAP4 PUSH1 0x40 DUP5 ADD SWAP5 DUP6 MSTORE PUSH1 0x80 PUSH1 0xFF PUSH1 0x4 PUSH1 0x3 DUP7 ADD SLOAD SWAP6 PUSH1 0x60 DUP9 ADD SWAP7 DUP8 MSTORE ADD SLOAD AND SWAP5 ADD SWAP4 ISZERO ISZERO DUP5 MSTORE PUSH2 0x1F4E JUMP JUMPDEST SWAP4 PUSH2 0x2BF DUP5 MLOAD PUSH2 0x1F4E JUMP JUMPDEST SWAP5 PUSH2 0x2CA DUP4 MLOAD PUSH2 0x1F4E JUMP JUMPDEST SWAP5 MLOAD SWAP3 MLOAD SWAP4 PUSH3 0x278D00 SWAP5 DUP6 DUP2 MUL SWAP6 DUP2 DUP8 DIV EQ SWAP1 ISZERO OR ISZERO PUSH2 0x748 JUMPI PUSH2 0x6B9 SWAP7 PUSH2 0x300 PUSH2 0x2FB PUSH2 0x6B4 SWAP8 PUSH2 0x21E SWAP8 PUSH2 0x1DAA JUMP JUMPDEST PUSH2 0x1F4E JUMP JUMPDEST SWAP2 MLOAD ISZERO PUSH2 0x723 JUMPI DUP9 PUSH1 0x40 MLOAD PUSH2 0x314 DUP2 PUSH2 0x166E JUMP JUMPDEST PUSH1 0x4 DUP2 MSTORE PUSH4 0x155CD959 PUSH1 0xE2 SHL DUP3 DUP3 ADD MSTORE SWAP4 JUMPDEST PUSH1 0x40 MLOAD SWAP9 DUP10 SWAP7 PUSH18 0x7B226E616D65223A22496E766F6963652023 PUSH1 0x70 SHL DUP5 DUP10 ADD MSTORE DUP1 MLOAD SWAP1 PUSH2 0x475 DUP6 DUP3 ADD SWAP3 PUSH2 0x35E DUP2 PUSH1 0x32 DUP14 ADD DUP7 PUSH2 0x1577 JUMP JUMPDEST PUSH2 0x88B PUSH1 0xF2 SHL PUSH1 0x32 SWAP2 DUP13 ADD SWAP2 DUP3 ADD MSTORE PUSH32 0x226465736372697074696F6E223A22452D636F6D6D6572636520496E766F6963 PUSH1 0x34 DUP3 ADD MSTORE PUSH32 0x6520616E642057617272616E7479204365727469666963617465222C00000000 PUSH1 0x54 DUP3 ADD MSTORE PUSH32 0x22696D616765223A22697066733A2F2F516D5366516F65573659764277365835 PUSH1 0x70 DUP3 ADD MSTORE PUSH32 0x5A354A3751585A764A3851394C5138714A3851394C5138714A3851394C512F70 PUSH1 0x90 DUP3 ADD MSTORE PUSH16 0x1B1858D95A1BDB19195C8B9C1B99C88B PUSH1 0x82 SHL PUSH1 0xB0 DUP3 ADD MSTORE PUSH14 0x2261747472696275746573223A5B PUSH1 0x90 SHL PUSH1 0xC0 DUP3 ADD MSTORE PUSH32 0x7B2274726169745F74797065223A224F72646572204944222C2276616C756522 PUSH1 0xCE DUP3 ADD MSTORE PUSH2 0x1D11 PUSH1 0xF1 SHL PUSH1 0xEE DUP3 ADD MSTORE SWAP2 MLOAD SWAP3 DUP4 SWAP1 PUSH1 0xF0 DUP5 ADD SWAP1 PUSH2 0x1577 JUMP JUMPDEST ADD PUSH3 0x89F4B PUSH1 0xEA SHL PUSH1 0xF0 DUP3 ADD MSTORE PUSH32 0x7B2274726169745F74797065223A22416D6F756E74222C22646973706C61795F PUSH1 0xF3 DUP3 ADD MSTORE PUSH32 0x74797065223A226E756D626572222C2276616C7565223A000000000000000000 PUSH2 0x113 DUP3 ADD MSTORE DUP3 MLOAD SWAP1 PUSH2 0x4E5 DUP3 PUSH2 0x12A SWAP6 DUP8 DUP8 DUP6 ADD SWAP2 ADD PUSH2 0x1577 JUMP JUMPDEST ADD SWAP4 PUSH2 0x1F4B PUSH1 0xF2 SHL DUP6 DUP2 DUP1 SWAP8 SWAP6 DUP2 SWAP7 ADD MSTORE PUSH32 0x7B2274726169745F74797065223A2250757263686173652044617465222C2264 PUSH2 0x12C DUP3 ADD MSTORE PUSH32 0x6973706C61795F74797065223A2264617465222C2276616C7565223A00000000 PUSH2 0x14C DUP3 ADD MSTORE DUP3 MLOAD SWAP1 PUSH2 0x55A DUP3 PUSH2 0x168 SWAP6 DUP10 DUP8 DUP6 ADD SWAP2 ADD PUSH2 0x1577 JUMP JUMPDEST ADD SWAP2 DUP3 ADD MSTORE PUSH32 0x7B2274726169745F74797065223A2257617272616E7479204D6F6E746873222C PUSH2 0x16A DUP3 ADD MSTORE PUSH32 0x22646973706C61795F74797065223A226E756D626572222C2276616C7565223A PUSH2 0x18A DUP3 ADD MSTORE PUSH2 0x5C2 DUP3 MLOAD DUP1 SWAP4 PUSH2 0x1AA SWAP7 DUP8 DUP6 ADD SWAP2 ADD PUSH2 0x1577 JUMP JUMPDEST ADD SWAP2 DUP3 ADD MSTORE PUSH32 0x7B2274726169745F74797065223A2257617272616E74792056616C696420556E PUSH2 0x1AC DUP3 ADD MSTORE PUSH32 0x74696C222C22646973706C61795F74797065223A2264617465222C2276616C75 PUSH2 0x1CC DUP3 ADD MSTORE PUSH3 0x32911D PUSH1 0xE9 SHL PUSH2 0x1EC DUP3 ADD MSTORE DUP3 MLOAD SWAP1 PUSH2 0x638 DUP3 PUSH2 0x1EF SWAP6 DUP14 DUP8 DUP6 ADD SWAP2 ADD PUSH2 0x1577 JUMP JUMPDEST ADD SWAP2 DUP3 ADD MSTORE PUSH32 0x7B2274726169745F74797065223A2257617272616E747920537461747573222C PUSH2 0x1F1 DUP3 ADD MSTORE PUSH9 0x113B30B63AB2911D11 PUSH1 0xB9 SHL PUSH2 0x211 DUP3 ADD MSTORE DUP2 MLOAD SWAP1 PUSH2 0x68D DUP3 PUSH2 0x21A SWAP5 DUP12 DUP7 DUP6 ADD SWAP2 ADD PUSH2 0x1577 JUMP JUMPDEST ADD SWAP1 PUSH2 0x227D PUSH1 0xF0 SHL SWAP1 DUP3 ADD MSTORE PUSH2 0x5D7D PUSH1 0xF0 SHL PUSH2 0x21C DUP3 ADD MSTORE SUB PUSH2 0x1FE DUP2 ADD DUP5 MSTORE ADD DUP3 PUSH2 0x168A JUMP JUMPDEST PUSH2 0x1DE9 JUMP JUMPDEST SWAP1 PUSH2 0x70B PUSH1 0x3D PUSH1 0x40 MLOAD DUP1 SWAP5 PUSH32 0x646174613A6170706C69636174696F6E2F6A736F6E3B6261736536342C000000 DUP6 DUP4 ADD MSTORE PUSH2 0x6FB DUP2 MLOAD DUP1 SWAP3 DUP8 DUP7 DUP7 ADD SWAP2 ADD PUSH2 0x1577 JUMP JUMPDEST DUP2 ADD SUB PUSH1 0x1D DUP2 ADD DUP6 MSTORE ADD DUP4 PUSH2 0x168A JUMP JUMPDEST PUSH2 0x71F PUSH1 0x40 MLOAD SWAP3 DUP3 DUP5 SWAP4 DUP5 MSTORE DUP4 ADD SWAP1 PUSH2 0x159A JUMP JUMPDEST SUB SWAP1 RETURN JUMPDEST DUP9 PUSH1 0x40 MLOAD PUSH2 0x730 DUP2 PUSH2 0x166E JUMP JUMPDEST PUSH1 0x6 DUP2 MSTORE PUSH6 0x416374697665 PUSH1 0xD0 SHL DUP3 DUP3 ADD MSTORE SWAP4 PUSH2 0x326 JUMP JUMPDEST PUSH4 0x4E487B71 PUSH1 0xE0 SHL PUSH1 0x0 MSTORE PUSH1 0x11 PUSH1 0x4 MSTORE PUSH1 0x24 PUSH1 0x0 REVERT JUMPDEST PUSH1 0x40 MLOAD PUSH3 0x461BCD PUSH1 0xE5 SHL DUP2 MSTORE PUSH1 0x4 DUP2 ADD DUP4 SWAP1 MSTORE PUSH1 0x14 PUSH1 0x24 DUP3 ADD MSTORE PUSH20 0x151BDAD95B88191BD95CC81B9BDD08195E1A5CDD PUSH1 0x62 SHL PUSH1 0x44 DUP3 ADD MSTORE PUSH1 0x64 SWAP1 REVERT JUMPDEST CALLVALUE PUSH2 0x1C4 JUMPI PUSH1 0x80 CALLDATASIZE PUSH1 0x3 NOT ADD SLT PUSH2 0x1C4 JUMPI PUSH2 0x7B3 PUSH2 0x15BF JUMP JUMPDEST PUSH2 0x7BB PUSH2 0x15D5 JUMP JUMPDEST SWAP1 PUSH1 0x64 CALLDATALOAD SWAP1 PUSH1 0x44 CALLDATALOAD PUSH8 0xFFFFFFFFFFFFFFFF DUP4 GT PUSH2 0x1C4 JUMPI CALLDATASIZE PUSH1 0x23 DUP5 ADD SLT ISZERO PUSH2 0x1C4 JUMPI PUSH2 0x820 SWAP4 PUSH2 0x7F8 PUSH2 0x81B SWAP5 CALLDATASIZE SWAP1 PUSH1 0x24 DUP2 PUSH1 0x4 ADD CALLDATALOAD SWAP2 ADD PUSH2 0x16C8 JUMP JUMPDEST SWAP3 PUSH2 0x80B PUSH2 0x806 DUP5 CALLER PUSH2 0x19DB JUMP JUMPDEST PUSH2 0x1902 JUMP JUMPDEST PUSH2 0x816 DUP4 DUP4 DUP4 PUSH2 0x1AA3 JUMP JUMPDEST PUSH2 0x1CD7 JUMP JUMPDEST PUSH2 0x19B7 JUMP JUMPDEST STOP JUMPDEST CALLVALUE PUSH2 0x1C4 JUMPI PUSH1 0x20 CALLDATASIZE PUSH1 0x3 NOT ADD SLT PUSH2 0x1C4 JUMPI PUSH1 0x4 CALLDATALOAD PUSH1 0x0 MSTORE PUSH1 0x8 PUSH1 0x20 MSTORE PUSH2 0x87E PUSH1 0x40 PUSH1 0x0 KECCAK256 PUSH2 0x84F DUP2 PUSH2 0x1757 JUMP JUMPDEST SWAP1 PUSH1 0x1 DUP2 ADD SLOAD SWAP1 PUSH1 0x2 DUP2 ADD SLOAD SWAP1 PUSH1 0xFF PUSH1 0x4 PUSH1 0x3 DUP4 ADD SLOAD SWAP3 ADD SLOAD AND SWAP2 PUSH1 0x40 MLOAD SWAP6 DUP7 SWAP6 PUSH1 0xA0 DUP8 MSTORE PUSH1 0xA0 DUP8 ADD SWAP1 PUSH2 0x159A JUMP JUMPDEST SWAP4 PUSH1 0x20 DUP7 ADD MSTORE PUSH1 0x40 DUP6 ADD MSTORE PUSH1 0x60 DUP5 ADD MSTORE ISZERO ISZERO PUSH1 0x80 DUP4 ADD MSTORE SUB SWAP1 RETURN JUMPDEST CALLVALUE PUSH2 0x1C4 JUMPI PUSH1 0x40 CALLDATASIZE PUSH1 0x3 NOT ADD SLT PUSH2 0x1C4 JUMPI PUSH2 0x8B2 PUSH2 0x15BF JUMP JUMPDEST PUSH1 0x24 CALLDATALOAD SWAP1 DUP2 ISZERO ISZERO SWAP1 DUP2 DUP4 SUB PUSH2 0x1C4 JUMPI PUSH1 0x1 PUSH1 0x1 PUSH1 0xA0 SHL SUB AND SWAP2 CALLER DUP4 EQ PUSH2 0x92F JUMPI PUSH2 0x901 SWAP1 CALLER PUSH1 0x0 MSTORE PUSH1 0x5 PUSH1 0x20 MSTORE PUSH1 0x40 PUSH1 0x0 KECCAK256 DUP5 PUSH1 0x0 MSTORE PUSH1 0x20 MSTORE PUSH1 0x40 PUSH1 0x0 KECCAK256 SWAP1 PUSH1 0xFF DUP1 NOT DUP4 SLOAD AND SWAP2 ISZERO ISZERO AND OR SWAP1 SSTORE JUMP JUMPDEST PUSH1 0x40 MLOAD SWAP1 DUP2 MSTORE PUSH32 0x17307EAB39AB6107E8899845AD3D59BD9653F200F220920489CA2B5937696C31 PUSH1 0x20 CALLER SWAP3 LOG3 STOP JUMPDEST PUSH1 0x40 MLOAD PUSH3 0x461BCD PUSH1 0xE5 SHL DUP2 MSTORE PUSH1 0x20 PUSH1 0x4 DUP3 ADD MSTORE PUSH1 0x19 PUSH1 0x24 DUP3 ADD MSTORE PUSH32 0x4552433732313A20617070726F766520746F2063616C6C657200000000000000 PUSH1 0x44 DUP3 ADD MSTORE PUSH1 0x64 SWAP1 REVERT JUMPDEST CALLVALUE PUSH2 0x1C4 JUMPI PUSH1 0x0 CALLDATASIZE PUSH1 0x3 NOT ADD SLT PUSH2 0x1C4 JUMPI PUSH1 0x40 MLOAD PUSH1 0x0 PUSH1 0x1 DUP1 SLOAD SWAP1 PUSH2 0x998 DUP3 PUSH2 0x171D JUMP JUMPDEST DUP1 DUP6 MSTORE SWAP2 DUP2 DUP2 AND SWAP1 DUP2 ISZERO PUSH2 0xA2C JUMPI POP PUSH1 0x1 EQ PUSH2 0x9D3 JUMPI JUMPDEST PUSH2 0x71F DUP5 PUSH2 0x9BF DUP2 DUP7 SUB DUP3 PUSH2 0x168A JUMP JUMPDEST PUSH1 0x40 MLOAD SWAP2 DUP3 SWAP2 PUSH1 0x20 DUP4 MSTORE PUSH1 0x20 DUP4 ADD SWAP1 PUSH2 0x159A JUMP JUMPDEST PUSH1 0x0 DUP2 DUP2 MSTORE SWAP3 POP PUSH32 0xB10E2D527612073B26EECDFD717E6A320CF44B4AFAC2B0732D9FCBE2B7FA0CF6 JUMPDEST DUP3 DUP5 LT PUSH2 0xA14 JUMPI POP POP POP DUP2 ADD PUSH1 0x20 ADD PUSH2 0x9BF DUP3 PUSH2 0x9AF JUMP JUMPDEST DUP1 SLOAD PUSH1 0x20 DUP6 DUP8 ADD DUP2 ADD SWAP2 SWAP1 SWAP2 MSTORE SWAP1 SWAP4 ADD SWAP3 DUP2 ADD PUSH2 0x9FC JUMP JUMPDEST PUSH1 0xFF NOT AND PUSH1 0x20 DUP1 DUP8 ADD SWAP2 SWAP1 SWAP2 MSTORE SWAP3 ISZERO ISZERO PUSH1 0x5 SHL DUP6 ADD SWAP1 SWAP3 ADD SWAP3 POP PUSH2 0x9BF SWAP2 POP DUP4 SWAP1 POP PUSH2 0x9AF JUMP JUMPDEST CALLVALUE PUSH2 0x1C4 JUMPI PUSH1 0x0 CALLDATASIZE PUSH1 0x3 NOT ADD SLT PUSH2 0x1C4 JUMPI PUSH1 0x6 SLOAD PUSH1 0x40 MLOAD PUSH1 0x1 PUSH1 0x1 PUSH1 0xA0 SHL SUB SWAP1 SWAP2 AND DUP2 MSTORE PUSH1 0x20 SWAP1 RETURN JUMPDEST CALLVALUE PUSH2 0x1C4 JUMPI PUSH1 0x0 CALLDATASIZE PUSH1 0x3 NOT ADD SLT PUSH2 0x1C4 JUMPI PUSH2 0xA95 PUSH2 0x17FD JUMP JUMPDEST PUSH1 0x6 DUP1 SLOAD PUSH1 0x1 PUSH1 0x1 PUSH1 0xA0 SHL SUB NOT DUP2 AND SWAP1 SWAP2 SSTORE PUSH1 0x0 SWAP1 PUSH1 0x1 PUSH1 0x1 PUSH1 0xA0 SHL SUB AND PUSH32 0x8BE0079C531659141344CD1FD0A4F28419497F9722A3DAAFE3B4186F6B6457E0 DUP3 DUP1 LOG3 STOP JUMPDEST CALLVALUE PUSH2 0x1C4 JUMPI PUSH1 0x20 CALLDATASIZE PUSH1 0x3 NOT ADD SLT PUSH2 0x1C4 JUMPI PUSH1 0x1 PUSH1 0x1 PUSH1 0xA0 SHL SUB PUSH2 0xAFA PUSH2 0x15BF JUMP JUMPDEST AND DUP1 ISZERO PUSH2 0xB19 JUMPI PUSH1 0x0 MSTORE PUSH1 0x3 PUSH1 0x20 MSTORE PUSH1 0x20 PUSH1 0x40 PUSH1 0x0 KECCAK256 SLOAD PUSH1 0x40 MLOAD SWAP1 DUP2 MSTORE RETURN JUMPDEST PUSH1 0x40 MLOAD PUSH3 0x461BCD PUSH1 0xE5 SHL DUP2 MSTORE PUSH1 0x20 PUSH1 0x4 DUP3 ADD MSTORE PUSH1 0x29 PUSH1 0x24 DUP3 ADD MSTORE PUSH32 0x4552433732313A2061646472657373207A65726F206973206E6F742061207661 PUSH1 0x44 DUP3 ADD MSTORE PUSH9 0x3634B21037BBB732B9 PUSH1 0xB9 SHL PUSH1 0x64 DUP3 ADD MSTORE PUSH1 0x84 SWAP1 REVERT JUMPDEST CALLVALUE PUSH2 0x1C4 JUMPI PUSH1 0x20 CALLDATASIZE PUSH1 0x3 NOT ADD SLT PUSH2 0x1C4 JUMPI PUSH1 0x4 CALLDATALOAD PUSH8 0xFFFFFFFFFFFFFFFF DUP2 GT PUSH2 0x1C4 JUMPI PUSH2 0xBBA PUSH1 0x20 PUSH2 0xBA7 DUP2 SWAP4 CALLDATASIZE SWAP1 PUSH1 0x4 ADD PUSH2 0x16FF JUMP JUMPDEST DUP2 PUSH1 0x40 MLOAD SWAP4 DUP3 DUP6 DUP1 SWAP5 MLOAD SWAP4 DUP5 SWAP3 ADD PUSH2 0x1577 JUMP JUMPDEST DUP2 ADD PUSH1 0x9 DUP2 MSTORE SUB ADD SWAP1 KECCAK256 SLOAD PUSH1 0x40 MLOAD SWAP1 DUP2 MSTORE RETURN JUMPDEST CALLVALUE PUSH2 0x1C4 JUMPI PUSH1 0x20 CALLDATASIZE PUSH1 0x3 NOT ADD SLT PUSH2 0x1C4 JUMPI PUSH1 0x20 PUSH2 0xBEB PUSH1 0x4 CALLDATALOAD PUSH2 0x18A1 JUMP JUMPDEST PUSH1 0x40 MLOAD PUSH1 0x1 PUSH1 0x1 PUSH1 0xA0 SHL SUB SWAP1 SWAP2 AND DUP2 MSTORE RETURN JUMPDEST CALLVALUE PUSH2 0x1C4 JUMPI PUSH1 0x80 CALLDATASIZE PUSH1 0x3 NOT ADD SLT PUSH2 0x1C4 JUMPI PUSH2 0xC16 PUSH2 0x15BF JUMP JUMPDEST PUSH1 0x24 SWAP1 PUSH8 0xFFFFFFFFFFFFFFFF SWAP1 DUP3 CALLDATALOAD DUP3 DUP2 GT PUSH2 0x1C4 JUMPI PUSH2 0xC3A SWAP1 CALLDATASIZE SWAP1 PUSH1 0x4 ADD PUSH2 0x16FF JUMP JUMPDEST SWAP3 PUSH2 0xC43 PUSH2 0x17FD JUMP JUMPDEST PUSH1 0x40 MLOAD PUSH1 0x20 DUP2 DUP7 MLOAD PUSH2 0xC58 DUP2 DUP4 DUP6 DUP12 ADD PUSH2 0x1577 JUMP JUMPDEST DUP2 ADD PUSH1 0x9 DUP2 MSTORE SUB ADD SWAP1 KECCAK256 SLOAD PUSH2 0x10C6 JUMPI DUP4 MLOAD ISZERO PUSH2 0x108F JUMPI PUSH1 0x44 CALLDATALOAD ISZERO PUSH2 0x104B JUMPI PUSH1 0x64 CALLDATALOAD ISZERO PUSH2 0xFF8 JUMPI PUSH1 0x1 PUSH1 0x7 SLOAD ADD SWAP3 DUP4 PUSH1 0x7 SSTORE PUSH1 0x40 MLOAD PUSH2 0xC95 DUP2 PUSH2 0x1652 JUMP JUMPDEST PUSH1 0x0 DUP2 MSTORE PUSH1 0x1 PUSH1 0x1 PUSH1 0xA0 SHL SUB DUP5 AND ISZERO PUSH2 0xFB4 JUMPI PUSH1 0x0 DUP6 DUP2 MSTORE PUSH1 0x2 PUSH1 0x20 MSTORE PUSH1 0x40 SWAP1 KECCAK256 SLOAD PUSH2 0xD62 SWAP2 PUSH2 0x81B SWAP2 PUSH2 0xCD5 SWAP1 PUSH1 0x1 PUSH1 0x1 PUSH1 0xA0 SHL SUB AND ISZERO ISZERO JUMPDEST ISZERO PUSH2 0x1D5E JUMP JUMPDEST PUSH1 0x0 DUP8 DUP2 MSTORE PUSH1 0x2 PUSH1 0x20 MSTORE PUSH1 0x40 SWAP1 KECCAK256 SLOAD PUSH2 0xCF8 SWAP1 PUSH1 0x1 PUSH1 0x1 PUSH1 0xA0 SHL SUB AND ISZERO ISZERO PUSH2 0xCCF JUMP JUMPDEST PUSH1 0x1 PUSH1 0x1 PUSH1 0xA0 SHL SUB DUP7 AND PUSH1 0x0 DUP2 DUP2 MSTORE PUSH1 0x3 PUSH1 0x20 SWAP1 DUP2 MSTORE PUSH1 0x40 DUP1 DUP4 KECCAK256 DUP1 SLOAD PUSH1 0x1 ADD SWAP1 SSTORE DUP11 DUP4 MSTORE PUSH1 0x2 SWAP1 SWAP2 MSTORE DUP2 KECCAK256 DUP1 SLOAD PUSH1 0x1 PUSH1 0x1 PUSH1 0xA0 SHL SUB NOT AND DUP4 OR SWAP1 SSTORE DUP9 SWAP2 SWAP1 PUSH32 0xDDF252AD1BE2C89B69C2B068FC378DAA952BA7F163C4A11628F55A4DF523B3EF DUP2 DUP1 LOG4 DUP7 DUP7 PUSH2 0x1BB9 JUMP JUMPDEST PUSH1 0x40 MLOAD SWAP1 PUSH2 0xD6F DUP3 PUSH2 0x1620 JUMP JUMPDEST DUP6 DUP3 MSTORE PUSH1 0x44 CALLDATALOAD PUSH1 0x20 DUP4 ADD MSTORE TIMESTAMP PUSH1 0x40 DUP4 ADD MSTORE PUSH1 0x64 CALLDATALOAD PUSH1 0x60 DUP4 ADD MSTORE PUSH1 0x0 PUSH1 0x80 DUP4 ADD MSTORE DUP5 PUSH1 0x0 MSTORE PUSH1 0x8 PUSH1 0x20 MSTORE PUSH1 0x40 PUSH1 0x0 KECCAK256 SWAP3 DUP3 MLOAD SWAP1 DUP2 MLOAD SWAP3 DUP4 GT PUSH2 0xFA0 JUMPI POP PUSH2 0xDB5 DUP5 SLOAD PUSH2 0x171D JUMP JUMPDEST PUSH1 0x1F DUP2 GT PUSH2 0xF5C JUMPI JUMPDEST POP SWAP2 PUSH1 0x20 SWAP7 SWAP4 SWAP2 DUP7 SWAP6 SWAP4 DUP9 SWAP1 PUSH1 0x1F DUP4 GT PUSH1 0x1 EQ PUSH2 0xEC2 JUMPI PUSH1 0x80 PUSH2 0xE8D SWAP7 SWAP5 DUP5 PUSH2 0xE59 SWAP6 PUSH32 0x47453627127E40530BA9CF2E1390E4F71A91447BFFD9A434B1AAA0BDEBD84F95 SWAP11 SWAP9 SWAP6 PUSH1 0x4 SWAP6 PUSH1 0x0 SWAP3 PUSH2 0xEB7 JUMPI JUMPDEST POP POP DUP2 PUSH1 0x1 SHL SWAP2 PUSH1 0x0 NOT SWAP1 PUSH1 0x3 SHL SHR NOT AND OR DUP5 SSTORE JUMPDEST DUP12 DUP2 ADD MLOAD PUSH1 0x1 DUP6 ADD SSTORE PUSH1 0x40 DUP2 ADD MLOAD PUSH1 0x2 DUP6 ADD SSTORE PUSH1 0x60 DUP2 ADD MLOAD PUSH1 0x3 DUP6 ADD SSTORE ADD MLOAD ISZERO ISZERO SWAP2 ADD SWAP1 PUSH1 0xFF DUP1 NOT DUP4 SLOAD AND SWAP2 ISZERO ISZERO AND OR SWAP1 SSTORE JUMP JUMPDEST DUP5 PUSH1 0x40 MLOAD DUP9 DUP2 DUP6 MLOAD PUSH2 0xE6E DUP2 DUP4 DUP6 DUP11 ADD PUSH2 0x1577 JUMP JUMPDEST DUP2 ADD PUSH1 0x9 DUP2 MSTORE SUB ADD SWAP1 KECCAK256 SSTORE PUSH1 0x40 MLOAD SWAP3 DUP4 SWAP3 PUSH1 0x80 DUP5 MSTORE PUSH1 0x80 DUP5 ADD SWAP1 PUSH2 0x159A JUMP JUMPDEST PUSH1 0x1 PUSH1 0x1 PUSH1 0xA0 SHL SUB SWAP1 SWAP2 AND DUP3 DUP9 ADD MSTORE PUSH1 0x44 CALLDATALOAD PUSH1 0x40 DUP4 ADD MSTORE PUSH1 0x64 CALLDATALOAD PUSH1 0x60 DUP4 ADD MSTORE SUB SWAP1 LOG2 PUSH1 0x40 MLOAD SWAP1 DUP2 MSTORE RETURN JUMPDEST ADD MLOAD SWAP1 POP DUP15 DUP1 PUSH2 0xE10 JUMP JUMPDEST SWAP1 DUP5 PUSH1 0x0 MSTORE DUP10 PUSH1 0x0 KECCAK256 SWAP2 PUSH1 0x0 JUMPDEST PUSH1 0x1F NOT DUP6 AND DUP2 LT PUSH2 0xF42 JUMPI POP PUSH2 0xE8D SWAP7 SWAP5 PUSH1 0x1 DUP6 PUSH32 0x47453627127E40530BA9CF2E1390E4F71A91447BFFD9A434B1AAA0BDEBD84F95 SWAP11 SWAP9 SWAP6 PUSH1 0x4 SWAP6 PUSH1 0x80 SWAP6 PUSH2 0xE59 SWAP10 PUSH1 0x1F NOT DUP2 AND LT PUSH2 0xF29 JUMPI JUMPDEST POP POP POP DUP2 SHL ADD DUP5 SSTORE PUSH2 0xE25 JUMP JUMPDEST ADD MLOAD PUSH1 0x0 NOT PUSH1 0xF8 DUP5 PUSH1 0x3 SHL AND SHR NOT AND SWAP1 SSTORE DUP15 DUP1 DUP1 PUSH2 0xF1C JUMP JUMPDEST DUP2 DUP4 ADD MLOAD DUP5 SSTORE DUP11 SWAP10 POP PUSH1 0x1 SWAP1 SWAP4 ADD SWAP3 SWAP2 DUP12 ADD SWAP2 DUP12 ADD PUSH2 0xECF JUMP JUMPDEST DUP5 PUSH1 0x0 MSTORE PUSH1 0x20 PUSH1 0x0 KECCAK256 PUSH1 0x1F DUP5 ADD PUSH1 0x5 SHR DUP2 ADD PUSH1 0x20 DUP6 LT PUSH2 0xF99 JUMPI JUMPDEST PUSH1 0x1F DUP4 ADD PUSH1 0x5 SHR DUP3 ADD DUP2 LT PUSH2 0xF8D JUMPI POP POP PUSH2 0xDBE JUMP JUMPDEST PUSH1 0x0 DUP2 SSTORE PUSH1 0x1 ADD PUSH2 0xF77 JUMP JUMPDEST POP DUP1 PUSH2 0xF77 JUMP JUMPDEST PUSH4 0x4E487B71 PUSH1 0xE0 SHL PUSH1 0x0 SWAP1 DUP2 MSTORE PUSH1 0x41 PUSH1 0x4 MSTORE REVERT JUMPDEST PUSH1 0x40 MLOAD PUSH3 0x461BCD PUSH1 0xE5 SHL DUP2 MSTORE PUSH1 0x20 PUSH1 0x4 DUP3 ADD DUP2 SWAP1 MSTORE DUP2 DUP6 ADD MSTORE PUSH32 0x4552433732313A206D696E7420746F20746865207A65726F2061646472657373 PUSH1 0x44 DUP3 ADD MSTORE PUSH1 0x64 SWAP1 REVERT JUMPDEST PUSH1 0x84 SWAP1 PUSH1 0x26 PUSH1 0x40 MLOAD SWAP2 PUSH3 0x461BCD PUSH1 0xE5 SHL DUP4 MSTORE PUSH1 0x20 PUSH1 0x4 DUP5 ADD MSTORE DUP3 ADD MSTORE PUSH32 0x57617272616E747920706572696F64206D757374206265206772656174657220 PUSH1 0x44 DUP3 ADD MSTORE PUSH6 0x7468616E203 PUSH1 0xD4 SHL PUSH1 0x64 DUP3 ADD MSTORE REVERT JUMPDEST PUSH1 0x64 SWAP1 PUSH1 0x1D PUSH1 0x40 MLOAD SWAP2 PUSH3 0x461BCD PUSH1 0xE5 SHL DUP4 MSTORE PUSH1 0x20 PUSH1 0x4 DUP5 ADD MSTORE DUP3 ADD MSTORE PUSH32 0x416D6F756E74206D7573742062652067726561746572207468616E2030000000 PUSH1 0x44 DUP3 ADD MSTORE REVERT JUMPDEST PUSH1 0x64 SWAP1 PUSH1 0x10 PUSH1 0x40 MLOAD SWAP2 PUSH3 0x461BCD PUSH1 0xE5 SHL DUP4 MSTORE PUSH1 0x20 PUSH1 0x4 DUP5 ADD MSTORE DUP3 ADD MSTORE PUSH16 0x125B9D985B1A59081BDC99195C881251 PUSH1 0x82 SHL PUSH1 0x44 DUP3 ADD MSTORE REVERT JUMPDEST PUSH1 0x64 SWAP1 PUSH1 0x15 PUSH1 0x40 MLOAD SWAP2 PUSH3 0x461BCD PUSH1 0xE5 SHL DUP4 MSTORE PUSH1 0x20 PUSH1 0x4 DUP5 ADD MSTORE DUP3 ADD MSTORE PUSH21 0x13DC99195C88185B1C9958591E481A185CC8139195 PUSH1 0x5A SHL PUSH1 0x44 DUP3 ADD MSTORE REVERT JUMPDEST CALLVALUE PUSH2 0x1C4 JUMPI PUSH2 0x820 PUSH2 0x81B PUSH2 0x1116 CALLDATASIZE PUSH2 0x15EB JUMP JUMPDEST SWAP1 PUSH1 0x40 MLOAD SWAP3 PUSH2 0x1124 DUP5 PUSH2 0x1652 JUMP JUMPDEST PUSH1 0x0 DUP5 MSTORE PUSH2 0x80B PUSH2 0x806 DUP5 CALLER PUSH2 0x19DB JUMP JUMPDEST CALLVALUE PUSH2 0x1C4 JUMPI PUSH2 0x820 PUSH2 0x1146 CALLDATASIZE PUSH2 0x15EB JUMP JUMPDEST SWAP2 PUSH2 0x1154 PUSH2 0x806 DUP5 CALLER PUSH2 0x19DB JUMP JUMPDEST PUSH2 0x1AA3 JUMP JUMPDEST CALLVALUE PUSH2 0x1C4 JUMPI PUSH1 0x20 DUP1 PUSH1 0x3 NOT CALLDATASIZE ADD SLT PUSH2 0x1C4 JUMPI PUSH1 0x4 CALLDATALOAD SWAP1 PUSH2 0x1178 DUP3 PUSH2 0x18A1 JUMP JUMPDEST CALLER PUSH1 0x1 PUSH1 0x1 PUSH1 0xA0 SHL SUB SWAP1 SWAP2 AND SUB PUSH2 0x129B JUMPI DUP2 PUSH1 0x0 MSTORE PUSH1 0x8 DUP2 MSTORE PUSH1 0xFF PUSH1 0x4 PUSH1 0x40 PUSH1 0x0 KECCAK256 ADD SLOAD AND PUSH2 0x125F JUMPI DUP2 PUSH1 0x0 MSTORE PUSH1 0x8 DUP2 MSTORE PUSH1 0x40 PUSH1 0x0 KECCAK256 PUSH1 0x3 PUSH1 0x2 DUP3 ADD SLOAD SWAP2 ADD SLOAD PUSH3 0x278D00 SWAP1 DUP2 DUP2 MUL SWAP2 DUP2 DUP4 DIV EQ SWAP1 ISZERO OR ISZERO PUSH2 0x748 JUMPI PUSH2 0x11D6 SWAP2 PUSH2 0x1DAA JUMP JUMPDEST TIMESTAMP GT PUSH2 0x1228 JUMPI PUSH1 0x40 PUSH32 0xBC0332D9DAF825142B13DBF9BB17844EAA4387F96F3B4E094B71526AC09D08D SWAP2 DUP4 PUSH1 0x0 MSTORE PUSH1 0x8 DUP2 MSTORE PUSH1 0x4 DUP3 PUSH1 0x0 KECCAK256 ADD PUSH1 0x1 PUSH1 0xFF NOT DUP3 SLOAD AND OR SWAP1 SSTORE DUP2 MLOAD SWAP1 CALLER DUP3 MSTORE TIMESTAMP SWAP1 DUP3 ADD MSTORE LOG2 STOP JUMPDEST PUSH1 0x64 SWAP1 PUSH1 0x40 MLOAD SWAP1 PUSH3 0x461BCD PUSH1 0xE5 SHL DUP3 MSTORE PUSH1 0x4 DUP3 ADD MSTORE PUSH1 0x10 PUSH1 0x24 DUP3 ADD MSTORE PUSH16 0x15D85C9C985B9D1E48195E1C1A5C9959 PUSH1 0x82 SHL PUSH1 0x44 DUP3 ADD MSTORE REVERT JUMPDEST PUSH1 0x64 SWAP1 PUSH1 0x40 MLOAD SWAP1 PUSH3 0x461BCD PUSH1 0xE5 SHL DUP3 MSTORE PUSH1 0x4 DUP3 ADD MSTORE PUSH1 0x15 PUSH1 0x24 DUP3 ADD MSTORE PUSH21 0x15D85C9C985B9D1E48185B1C9958591E481D5CD959 PUSH1 0x5A SHL PUSH1 0x44 DUP3 ADD MSTORE REVERT JUMPDEST PUSH1 0x64 SWAP1 PUSH1 0x40 MLOAD SWAP1 PUSH3 0x461BCD PUSH1 0xE5 SHL DUP3 MSTORE PUSH1 0x4 DUP3 ADD MSTORE PUSH1 0xF PUSH1 0x24 DUP3 ADD MSTORE PUSH15 0x2737BA103A37B5B2B71037BBB732B9 PUSH1 0x89 SHL PUSH1 0x44 DUP3 ADD MSTORE REVERT JUMPDEST CALLVALUE PUSH2 0x1C4 JUMPI PUSH1 0x40 CALLDATASIZE PUSH1 0x3 NOT ADD SLT PUSH2 0x1C4 JUMPI PUSH2 0x12EA PUSH2 0x15BF JUMP JUMPDEST PUSH1 0x24 CALLDATALOAD SWAP1 PUSH1 0x1 PUSH1 0x1 PUSH1 0xA0 SHL SUB DUP1 DUP1 PUSH2 0x1301 DUP6 PUSH2 0x18A1 JUMP JUMPDEST AND SWAP3 AND SWAP2 DUP1 DUP4 EQ PUSH2 0x13FC JUMPI DUP1 CALLER EQ SWAP1 DUP2 ISZERO PUSH2 0x13D7 JUMPI JUMPDEST POP ISZERO PUSH2 0x136C JUMPI PUSH1 0x0 DUP4 DUP2 MSTORE PUSH1 0x4 PUSH1 0x20 MSTORE PUSH1 0x40 SWAP1 KECCAK256 DUP1 SLOAD PUSH1 0x1 PUSH1 0x1 PUSH1 0xA0 SHL SUB NOT AND DUP4 OR SWAP1 SSTORE PUSH2 0x1344 DUP4 PUSH2 0x18A1 JUMP JUMPDEST AND PUSH32 0x8C5BE1E5EBEC7D5BD14F71427D1E84F3DD0314C0F7B2291E5B200AC8C7C3B925 PUSH1 0x0 DUP1 LOG4 STOP JUMPDEST PUSH1 0x40 MLOAD PUSH3 0x461BCD PUSH1 0xE5 SHL DUP2 MSTORE PUSH1 0x20 PUSH1 0x4 DUP3 ADD MSTORE PUSH1 0x3D PUSH1 0x24 DUP3 ADD MSTORE PUSH32 0x4552433732313A20617070726F76652063616C6C6572206973206E6F7420746F PUSH1 0x44 DUP3 ADD MSTORE PUSH32 0x6B656E206F776E6572206F7220617070726F76656420666F7220616C6C000000 PUSH1 0x64 DUP3 ADD MSTORE PUSH1 0x84 SWAP1 REVERT JUMPDEST SWAP1 POP PUSH1 0x0 MSTORE PUSH1 0x5 PUSH1 0x20 MSTORE PUSH1 0x40 PUSH1 0x0 KECCAK256 CALLER PUSH1 0x0 MSTORE PUSH1 0x20 MSTORE PUSH1 0xFF PUSH1 0x40 PUSH1 0x0 KECCAK256 SLOAD AND DUP5 PUSH2 0x1317 JUMP JUMPDEST PUSH1 0x40 MLOAD PUSH3 0x461BCD PUSH1 0xE5 SHL DUP2 MSTORE PUSH1 0x20 PUSH1 0x4 DUP3 ADD MSTORE PUSH1 0x21 PUSH1 0x24 DUP3 ADD MSTORE PUSH32 0x4552433732313A20617070726F76616C20746F2063757272656E74206F776E65 PUSH1 0x44 DUP3 ADD MSTORE PUSH1 0x39 PUSH1 0xF9 SHL PUSH1 0x64 DUP3 ADD MSTORE PUSH1 0x84 SWAP1 REVERT JUMPDEST CALLVALUE PUSH2 0x1C4 JUMPI PUSH1 0x20 CALLDATASIZE PUSH1 0x3 NOT ADD SLT PUSH2 0x1C4 JUMPI PUSH1 0x20 PUSH2 0xBEB PUSH1 0x4 CALLDATALOAD PUSH2 0x18C4 JUMP JUMPDEST CALLVALUE PUSH2 0x1C4 JUMPI PUSH1 0x0 CALLDATASIZE PUSH1 0x3 NOT ADD SLT PUSH2 0x1C4 JUMPI PUSH1 0x40 MLOAD PUSH1 0x0 DUP1 SLOAD PUSH2 0x148A DUP2 PUSH2 0x171D JUMP JUMPDEST DUP1 DUP5 MSTORE SWAP1 PUSH1 0x1 SWAP1 DUP2 DUP2 AND SWAP1 DUP2 ISZERO PUSH2 0xA2C JUMPI POP PUSH1 0x1 EQ PUSH2 0x14B3 JUMPI PUSH2 0x71F DUP5 PUSH2 0x9BF DUP2 DUP7 SUB DUP3 PUSH2 0x168A JUMP JUMPDEST PUSH1 0x0 DUP1 DUP1 MSTORE SWAP3 POP PUSH32 0x290DECD9548B62A8D60345A988386FC84BA6BC95484008F6362F93160EF3E563 JUMPDEST DUP3 DUP5 LT PUSH2 0x14F4 JUMPI POP POP POP DUP2 ADD PUSH1 0x20 ADD PUSH2 0x9BF DUP3 PUSH2 0x9AF JUMP JUMPDEST DUP1 SLOAD PUSH1 0x20 DUP6 DUP8 ADD DUP2 ADD SWAP2 SWAP1 SWAP2 MSTORE SWAP1 SWAP4 ADD SWAP3 DUP2 ADD PUSH2 0x14DC JUMP JUMPDEST CALLVALUE PUSH2 0x1C4 JUMPI PUSH1 0x20 CALLDATASIZE PUSH1 0x3 NOT ADD SLT PUSH2 0x1C4 JUMPI PUSH1 0x4 CALLDATALOAD SWAP1 PUSH4 0xFFFFFFFF PUSH1 0xE0 SHL DUP3 AND DUP1 SWAP3 SUB PUSH2 0x1C4 JUMPI PUSH1 0x20 SWAP2 PUSH4 0x80AC58CD PUSH1 0xE0 SHL DUP2 EQ SWAP1 DUP2 ISZERO PUSH2 0x1566 JUMPI JUMPDEST DUP2 ISZERO PUSH2 0x1555 JUMPI JUMPDEST POP ISZERO ISZERO DUP2 MSTORE RETURN JUMPDEST PUSH4 0x1FFC9A7 PUSH1 0xE0 SHL EQ SWAP1 POP DUP4 PUSH2 0x154E JUMP JUMPDEST PUSH4 0x5B5E139F PUSH1 0xE0 SHL DUP2 EQ SWAP2 POP PUSH2 0x1547 JUMP JUMPDEST PUSH1 0x0 JUMPDEST DUP4 DUP2 LT PUSH2 0x158A JUMPI POP POP PUSH1 0x0 SWAP2 ADD MSTORE JUMP JUMPDEST DUP2 DUP2 ADD MLOAD DUP4 DUP3 ADD MSTORE PUSH1 0x20 ADD PUSH2 0x157A JUMP JUMPDEST SWAP1 PUSH1 0x20 SWAP2 PUSH2 0x15B3 DUP2 MLOAD DUP1 SWAP3 DUP2 DUP6 MSTORE DUP6 DUP1 DUP7 ADD SWAP2 ADD PUSH2 0x1577 JUMP JUMPDEST PUSH1 0x1F ADD PUSH1 0x1F NOT AND ADD ADD SWAP1 JUMP JUMPDEST PUSH1 0x4 CALLDATALOAD SWAP1 PUSH1 0x1 PUSH1 0x1 PUSH1 0xA0 SHL SUB DUP3 AND DUP3 SUB PUSH2 0x1C4 JUMPI JUMP JUMPDEST PUSH1 0x24 CALLDATALOAD SWAP1 PUSH1 0x1 PUSH1 0x1 PUSH1 0xA0 SHL SUB DUP3 AND DUP3 SUB PUSH2 0x1C4 JUMPI JUMP JUMPDEST PUSH1 0x60 SWAP1 PUSH1 0x3 NOT ADD SLT PUSH2 0x1C4 JUMPI PUSH1 0x1 PUSH1 0x1 PUSH1 0xA0 SHL SUB SWAP1 PUSH1 0x4 CALLDATALOAD DUP3 DUP2 AND DUP2 SUB PUSH2 0x1C4 JUMPI SWAP2 PUSH1 0x24 CALLDATALOAD SWAP1 DUP2 AND DUP2 SUB PUSH2 0x1C4 JUMPI SWAP1 PUSH1 0x44 CALLDATALOAD SWAP1 JUMP JUMPDEST PUSH1 0xA0 DUP2 ADD SWAP1 DUP2 LT PUSH8 0xFFFFFFFFFFFFFFFF DUP3 GT OR PUSH2 0x163C JUMPI PUSH1 0x40 MSTORE JUMP JUMPDEST PUSH4 0x4E487B71 PUSH1 0xE0 SHL PUSH1 0x0 MSTORE PUSH1 0x41 PUSH1 0x4 MSTORE PUSH1 0x24 PUSH1 0x0 REVERT JUMPDEST PUSH1 0x20 DUP2 ADD SWAP1 DUP2 LT PUSH8 0xFFFFFFFFFFFFFFFF DUP3 GT OR PUSH2 0x163C JUMPI PUSH1 0x40 MSTORE JUMP JUMPDEST PUSH1 0x40 DUP2 ADD SWAP1 DUP2 LT PUSH8 0xFFFFFFFFFFFFFFFF DUP3 GT OR PUSH2 0x163C JUMPI PUSH1 0x40 MSTORE JUMP JUMPDEST SWAP1 PUSH1 0x1F DUP1 NOT SWAP2 ADD AND DUP2 ADD SWAP1 DUP2 LT PUSH8 0xFFFFFFFFFFFFFFFF DUP3 GT OR PUSH2 0x163C JUMPI PUSH1 0x40 MSTORE JUMP JUMPDEST PUSH8 0xFFFFFFFFFFFFFFFF DUP2 GT PUSH2 0x163C JUMPI PUSH1 0x1F ADD PUSH1 0x1F NOT AND PUSH1 0x20 ADD SWAP1 JUMP JUMPDEST SWAP3 SWAP2 SWAP3 PUSH2 0x16D4 DUP3 PUSH2 0x16AC JUMP JUMPDEST SWAP2 PUSH2 0x16E2 PUSH1 0x40 MLOAD SWAP4 DUP5 PUSH2 0x168A JUMP JUMPDEST DUP3 SWAP5 DUP2 DUP5 MSTORE DUP2 DUP4 ADD GT PUSH2 0x1C4 JUMPI DUP3 DUP2 PUSH1 0x20 SWAP4 DUP5 PUSH1 0x0 SWAP7 ADD CALLDATACOPY ADD ADD MSTORE JUMP JUMPDEST SWAP1 DUP1 PUSH1 0x1F DUP4 ADD SLT ISZERO PUSH2 0x1C4 JUMPI DUP2 PUSH1 0x20 PUSH2 0x171A SWAP4 CALLDATALOAD SWAP2 ADD PUSH2 0x16C8 JUMP JUMPDEST SWAP1 JUMP JUMPDEST SWAP1 PUSH1 0x1 DUP3 DUP2 SHR SWAP3 AND DUP1 ISZERO PUSH2 0x174D JUMPI JUMPDEST PUSH1 0x20 DUP4 LT EQ PUSH2 0x1737 JUMPI JUMP JUMPDEST PUSH4 0x4E487B71 PUSH1 0xE0 SHL PUSH1 0x0 MSTORE PUSH1 0x22 PUSH1 0x4 MSTORE PUSH1 0x24 PUSH1 0x0 REVERT JUMPDEST SWAP2 PUSH1 0x7F AND SWAP2 PUSH2 0x172C JUMP JUMPDEST SWAP1 PUSH1 0x40 MLOAD SWAP2 DUP3 PUSH1 0x0 DUP3 SLOAD SWAP3 PUSH2 0x176B DUP5 PUSH2 0x171D JUMP JUMPDEST SWAP1 DUP2 DUP5 MSTORE PUSH1 0x1 SWAP5 DUP6 DUP2 AND SWAP1 DUP2 PUSH1 0x0 EQ PUSH2 0x17DA JUMPI POP PUSH1 0x1 EQ PUSH2 0x1797 JUMPI JUMPDEST POP POP PUSH2 0x1795 SWAP3 POP SUB DUP4 PUSH2 0x168A JUMP JUMPDEST JUMP JUMPDEST SWAP1 SWAP4 SWAP2 POP PUSH1 0x0 MSTORE PUSH1 0x20 SWAP1 DUP2 PUSH1 0x0 KECCAK256 SWAP4 PUSH1 0x0 SWAP2 JUMPDEST DUP2 DUP4 LT PUSH2 0x17C2 JUMPI POP POP PUSH2 0x1795 SWAP4 POP DUP3 ADD ADD CODESIZE DUP1 PUSH2 0x1787 JUMP JUMPDEST DUP6 SLOAD DUP9 DUP5 ADD DUP6 ADD MSTORE SWAP5 DUP6 ADD SWAP5 DUP8 SWAP5 POP SWAP2 DUP4 ADD SWAP2 PUSH2 0x17AA JUMP JUMPDEST SWAP2 POP POP PUSH2 0x1795 SWAP5 POP PUSH1 0x20 SWAP3 POP PUSH1 0xFF NOT AND DUP3 DUP5 ADD MSTORE ISZERO ISZERO PUSH1 0x5 SHL DUP3 ADD ADD CODESIZE DUP1 PUSH2 0x1787 JUMP JUMPDEST PUSH1 0x6 SLOAD PUSH1 0x1 PUSH1 0x1 PUSH1 0xA0 SHL SUB AND CALLER SUB PUSH2 0x1811 JUMPI JUMP JUMPDEST PUSH1 0x64 PUSH1 0x40 MLOAD PUSH3 0x461BCD PUSH1 0xE5 SHL DUP2 MSTORE PUSH1 0x20 PUSH1 0x4 DUP3 ADD MSTORE PUSH1 0x20 PUSH1 0x24 DUP3 ADD MSTORE PUSH32 0x4F776E61626C653A2063616C6C6572206973206E6F7420746865206F776E6572 PUSH1 0x44 DUP3 ADD MSTORE REVERT JUMPDEST ISZERO PUSH2 0x185C JUMPI JUMP JUMPDEST PUSH1 0x40 MLOAD PUSH3 0x461BCD PUSH1 0xE5 SHL DUP2 MSTORE PUSH1 0x20 PUSH1 0x4 DUP3 ADD MSTORE PUSH1 0x18 PUSH1 0x24 DUP3 ADD MSTORE PUSH32 0x4552433732313A20696E76616C696420746F6B656E2049440000000000000000 PUSH1 0x44 DUP3 ADD MSTORE PUSH1 0x64 SWAP1 REVERT JUMPDEST PUSH1 0x0 SWAP1 DUP2 MSTORE PUSH1 0x2 PUSH1 0x20 MSTORE PUSH1 0x40 SWAP1 KECCAK256 SLOAD PUSH1 0x1 PUSH1 0x1 PUSH1 0xA0 SHL SUB AND PUSH2 0x171A DUP2 ISZERO ISZERO PUSH2 0x1855 JUMP JUMPDEST PUSH1 0x0 DUP2 DUP2 MSTORE PUSH1 0x2 PUSH1 0x20 MSTORE PUSH1 0x40 SWAP1 KECCAK256 SLOAD PUSH2 0x18E7 SWAP1 PUSH1 0x1 PUSH1 0x1 PUSH1 0xA0 SHL SUB AND ISZERO ISZERO PUSH2 0x1855 JUMP JUMPDEST PUSH1 0x0 SWAP1 DUP2 MSTORE PUSH1 0x4 PUSH1 0x20 MSTORE PUSH1 0x40 SWAP1 KECCAK256 SLOAD PUSH1 0x1 PUSH1 0x1 PUSH1 0xA0 SHL SUB AND SWAP1 JUMP JUMPDEST ISZERO PUSH2 0x1909 JUMPI JUMP JUMPDEST PUSH1 0x40 MLOAD PUSH3 0x461BCD PUSH1 0xE5 SHL DUP2 MSTORE PUSH1 0x20 PUSH1 0x4 DUP3 ADD MSTORE PUSH1 0x2D PUSH1 0x24 DUP3 ADD MSTORE PUSH32 0x4552433732313A2063616C6C6572206973206E6F7420746F6B656E206F776E65 PUSH1 0x44 DUP3 ADD MSTORE PUSH13 0x1C881BDC88185C1C1C9BDD9959 PUSH1 0x9A SHL PUSH1 0x64 DUP3 ADD MSTORE PUSH1 0x84 SWAP1 REVERT JUMPDEST PUSH1 0x80 SWAP1 PUSH1 0x20 DUP2 MSTORE PUSH1 0x32 PUSH1 0x20 DUP3 ADD MSTORE PUSH32 0x4552433732313A207472616E7366657220746F206E6F6E204552433732315265 PUSH1 0x40 DUP3 ADD MSTORE PUSH18 0x31B2B4BB32B91034B6B83632B6B2B73A32B9 PUSH1 0x71 SHL PUSH1 0x60 DUP3 ADD MSTORE ADD SWAP1 JUMP JUMPDEST ISZERO PUSH2 0x19BE JUMPI JUMP JUMPDEST PUSH1 0x40 MLOAD PUSH3 0x461BCD PUSH1 0xE5 SHL DUP2 MSTORE DUP1 PUSH2 0x19D7 PUSH1 0x4 DUP3 ADD PUSH2 0x1964 JUMP JUMPDEST SUB SWAP1 REVERT JUMPDEST SWAP1 PUSH1 0x1 PUSH1 0x1 PUSH1 0xA0 SHL SUB DUP1 DUP1 PUSH2 0x19EF DUP5 PUSH2 0x18A1 JUMP JUMPDEST AND SWAP4 AND SWAP2 DUP4 DUP4 EQ SWAP4 DUP5 ISZERO PUSH2 0x1A22 JUMPI JUMPDEST POP DUP4 ISZERO PUSH2 0x1A0C JUMPI JUMPDEST POP POP POP SWAP1 JUMP JUMPDEST PUSH2 0x1A18 SWAP2 SWAP3 SWAP4 POP PUSH2 0x18C4 JUMP JUMPDEST AND EQ CODESIZE DUP1 DUP1 PUSH2 0x1A06 JUMP JUMPDEST SWAP1 SWAP4 POP PUSH1 0x0 MSTORE PUSH1 0x5 PUSH1 0x20 MSTORE PUSH1 0x40 PUSH1 0x0 KECCAK256 DUP3 PUSH1 0x0 MSTORE PUSH1 0x20 MSTORE PUSH1 0xFF PUSH1 0x40 PUSH1 0x0 KECCAK256 SLOAD AND SWAP3 CODESIZE PUSH2 0x19FE JUMP JUMPDEST ISZERO PUSH2 0x1A50 JUMPI JUMP JUMPDEST PUSH1 0x40 MLOAD PUSH3 0x461BCD PUSH1 0xE5 SHL DUP2 MSTORE PUSH1 0x20 PUSH1 0x4 DUP3 ADD MSTORE PUSH1 0x25 PUSH1 0x24 DUP3 ADD MSTORE PUSH32 0x4552433732313A207472616E736665722066726F6D20696E636F727265637420 PUSH1 0x44 DUP3 ADD MSTORE PUSH5 0x37BBB732B9 PUSH1 0xD9 SHL PUSH1 0x64 DUP3 ADD MSTORE PUSH1 0x84 SWAP1 REVERT JUMPDEST SWAP1 PUSH2 0x1ACB SWAP2 PUSH2 0x1AB1 DUP5 PUSH2 0x18A1 JUMP JUMPDEST PUSH1 0x1 PUSH1 0x1 PUSH1 0xA0 SHL SUB SWAP4 SWAP2 DUP5 AND SWAP3 DUP5 SWAP3 SWAP1 SWAP2 DUP4 AND DUP5 EQ PUSH2 0x1A49 JUMP JUMPDEST AND SWAP2 DUP3 ISZERO PUSH2 0x1B68 JUMPI DUP2 PUSH2 0x1AE8 SWAP2 PUSH2 0x1AE1 DUP7 PUSH2 0x18A1 JUMP JUMPDEST AND EQ PUSH2 0x1A49 JUMP JUMPDEST PUSH32 0xDDF252AD1BE2C89B69C2B068FC378DAA952BA7F163C4A11628F55A4DF523B3EF PUSH1 0x0 DUP5 DUP2 MSTORE PUSH1 0x4 PUSH1 0x20 MSTORE PUSH1 0x40 DUP2 KECCAK256 PUSH12 0xFFFFFFFFFFFFFFFFFFFFFFFF PUSH1 0xA0 SHL SWAP1 DUP2 DUP2 SLOAD AND SWAP1 SSTORE DUP4 DUP3 MSTORE PUSH1 0x3 PUSH1 0x20 MSTORE PUSH1 0x40 DUP3 KECCAK256 PUSH1 0x0 NOT DUP2 SLOAD ADD SWAP1 SSTORE DUP5 DUP3 MSTORE PUSH1 0x40 DUP3 KECCAK256 PUSH1 0x1 DUP2 SLOAD ADD SWAP1 SSTORE DUP6 DUP3 MSTORE PUSH1 0x2 PUSH1 0x20 MSTORE DUP5 PUSH1 0x40 DUP4 KECCAK256 SWAP2 DUP3 SLOAD AND OR SWAP1 SSTORE DUP1 LOG4 JUMP JUMPDEST PUSH1 0x40 MLOAD PUSH3 0x461BCD PUSH1 0xE5 SHL DUP2 MSTORE PUSH1 0x20 PUSH1 0x4 DUP3 ADD MSTORE PUSH1 0x24 DUP1 DUP3 ADD MSTORE PUSH32 0x4552433732313A207472616E7366657220746F20746865207A65726F20616464 PUSH1 0x44 DUP3 ADD MSTORE PUSH4 0x72657373 PUSH1 0xE0 SHL PUSH1 0x64 DUP3 ADD MSTORE PUSH1 0x84 SWAP1 REVERT JUMPDEST SWAP2 SWAP3 SWAP1 SWAP2 DUP1 EXTCODESIZE ISZERO PUSH2 0x1CCE JUMPI PUSH2 0x1C06 SWAP4 PUSH1 0x40 MLOAD SWAP1 DUP2 PUSH4 0xA85BD01 PUSH1 0xE1 SHL SWAP4 DUP5 DUP3 MSTORE CALLER PUSH1 0x4 DUP4 ADD MSTORE PUSH1 0x0 SWAP7 DUP8 PUSH1 0x24 DUP5 ADD MSTORE PUSH1 0x44 DUP4 ADD MSTORE PUSH1 0x80 PUSH1 0x64 DUP4 ADD MSTORE DUP2 DUP8 DUP2 PUSH1 0x20 SWAP11 DUP12 SWAP7 PUSH1 0x84 DUP4 ADD SWAP1 PUSH2 0x159A JUMP JUMPDEST SUB SWAP3 PUSH1 0x1 PUSH1 0x1 PUSH1 0xA0 SHL SUB AND GAS CALL DUP5 SWAP2 DUP2 PUSH2 0x1C8A JUMPI JUMPDEST POP PUSH2 0x1C79 JUMPI POP POP POP RETURNDATASIZE PUSH1 0x0 EQ PUSH2 0x1C71 JUMPI RETURNDATASIZE PUSH2 0x1C35 DUP2 PUSH2 0x16AC JUMP JUMPDEST SWAP1 PUSH2 0x1C43 PUSH1 0x40 MLOAD SWAP3 DUP4 PUSH2 0x168A JUMP JUMPDEST DUP2 MSTORE DUP1 SWAP2 DUP4 RETURNDATASIZE SWAP3 ADD RETURNDATACOPY JUMPDEST DUP1 MLOAD SWAP2 DUP3 PUSH2 0x1C6E JUMPI PUSH1 0x40 MLOAD PUSH3 0x461BCD PUSH1 0xE5 SHL DUP2 MSTORE DUP1 PUSH2 0x19D7 PUSH1 0x4 DUP3 ADD PUSH2 0x1964 JUMP JUMPDEST ADD REVERT JUMPDEST POP PUSH1 0x60 PUSH2 0x1C4D JUMP JUMPDEST PUSH1 0x1 PUSH1 0x1 PUSH1 0xE0 SHL SUB NOT AND EQ SWAP3 POP SWAP1 POP JUMP JUMPDEST SWAP1 SWAP2 POP DUP6 DUP2 DUP2 RETURNDATASIZE DUP4 GT PUSH2 0x1CC7 JUMPI JUMPDEST PUSH2 0x1CA2 DUP2 DUP4 PUSH2 0x168A JUMP JUMPDEST DUP2 ADD SUB SLT PUSH2 0x1CC3 JUMPI MLOAD PUSH1 0x1 PUSH1 0x1 PUSH1 0xE0 SHL SUB NOT DUP2 AND DUP2 SUB PUSH2 0x1CC3 JUMPI SWAP1 CODESIZE PUSH2 0x1C1B JUMP JUMPDEST DUP5 DUP1 REVERT JUMPDEST POP RETURNDATASIZE PUSH2 0x1C98 JUMP JUMPDEST POP SWAP2 POP POP PUSH1 0x1 SWAP1 JUMP JUMPDEST SWAP3 SWAP4 SWAP2 SWAP1 DUP1 EXTCODESIZE ISZERO PUSH2 0x1D54 JUMPI PUSH2 0x1D29 SWAP5 PUSH1 0x40 MLOAD DUP1 SWAP3 PUSH4 0xA85BD01 PUSH1 0xE1 SHL SWAP5 DUP6 DUP4 MSTORE CALLER PUSH1 0x4 DUP5 ADD MSTORE PUSH1 0x1 DUP1 PUSH1 0xA0 SHL SUB DUP1 SWAP9 AND PUSH1 0x24 DUP5 ADD MSTORE PUSH1 0x44 DUP4 ADD MSTORE PUSH1 0x80 PUSH1 0x64 DUP4 ADD MSTORE DUP2 DUP1 PUSH1 0x20 SWAP10 DUP11 SWAP6 PUSH1 0x84 DUP4 ADD SWAP1 PUSH2 0x159A JUMP JUMPDEST SUB SWAP2 PUSH1 0x0 SWAP9 DUP10 SWAP2 AND GAS CALL DUP5 SWAP2 DUP2 PUSH2 0x1C8A JUMPI POP PUSH2 0x1C79 JUMPI POP POP POP RETURNDATASIZE PUSH1 0x0 EQ PUSH2 0x1C71 JUMPI RETURNDATASIZE PUSH2 0x1C35 DUP2 PUSH2 0x16AC JUMP JUMPDEST POP POP SWAP2 POP POP PUSH1 0x1 SWAP1 JUMP JUMPDEST ISZERO PUSH2 0x1D65 JUMPI JUMP JUMPDEST PUSH1 0x40 MLOAD PUSH3 0x461BCD PUSH1 0xE5 SHL DUP2 MSTORE PUSH1 0x20 PUSH1 0x4 DUP3 ADD MSTORE PUSH1 0x1C PUSH1 0x24 DUP3 ADD MSTORE PUSH32 0x4552433732313A20746F6B656E20616C7265616479206D696E74656400000000 PUSH1 0x44 DUP3 ADD MSTORE PUSH1 0x64 SWAP1 REVERT JUMPDEST SWAP2 SWAP1 DUP3 ADD DUP1 SWAP3 GT PUSH2 0x748 JUMPI JUMP JUMPDEST SWAP1 PUSH2 0x1DC1 DUP3 PUSH2 0x16AC JUMP JUMPDEST PUSH2 0x1DCE PUSH1 0x40 MLOAD SWAP2 DUP3 PUSH2 0x168A JUMP JUMPDEST DUP3 DUP2 MSTORE DUP1 SWAP3 PUSH2 0x1DDF PUSH1 0x1F NOT SWAP2 PUSH2 0x16AC JUMP JUMPDEST ADD SWAP1 PUSH1 0x20 CALLDATASIZE SWAP2 ADD CALLDATACOPY JUMP JUMPDEST DUP1 MLOAD ISZERO PUSH2 0x1F3A JUMPI PUSH1 0x40 MLOAD SWAP1 PUSH1 0x60 DUP3 ADD DUP3 DUP2 LT PUSH8 0xFFFFFFFFFFFFFFFF DUP3 GT OR PUSH2 0x163C JUMPI PUSH1 0x40 MSTORE PUSH1 0x40 DUP3 MSTORE PUSH32 0x4142434445464748494A4B4C4D4E4F505152535455565758595A616263646566 PUSH1 0x20 DUP4 ADD MSTORE PUSH32 0x6768696A6B6C6D6E6F707172737475767778797A303132333435363738392B2F PUSH1 0x40 DUP4 ADD MSTORE DUP1 MLOAD PUSH1 0x2 SWAP2 DUP3 DUP3 ADD DUP1 SWAP3 GT PUSH2 0x748 JUMPI PUSH1 0x3 SWAP2 DUP3 SWAP1 DIV PUSH1 0x1 PUSH1 0x1 PUSH1 0xFE SHL SUB DUP2 AND DUP2 SUB PUSH2 0x748 JUMPI PUSH2 0x1E90 SWAP1 DUP5 SWAP6 SWAP5 SHL PUSH2 0x1DB7 JUMP JUMPDEST SWAP4 PUSH1 0x20 DUP6 ADD SWAP4 DUP3 SWAP2 DUP4 MLOAD DUP5 ADD SWAP1 PUSH1 0x20 DUP3 ADD SWAP3 DUP4 MLOAD SWAP5 PUSH1 0x0 DUP6 MSTORE JUMPDEST DUP4 DUP2 LT PUSH2 0x1EE9 JUMPI POP POP POP POP MSTORE MLOAD MOD DUP1 PUSH1 0x1 EQ PUSH2 0x1ED6 JUMPI PUSH1 0x2 EQ PUSH2 0x1ECB JUMPI POP SWAP1 JUMP JUMPDEST PUSH1 0x3D SWAP1 PUSH1 0x0 NOT ADD MSTORE8 SWAP1 JUMP JUMPDEST POP PUSH1 0x3D SWAP1 DUP2 PUSH1 0x0 NOT DUP3 ADD MSTORE8 PUSH1 0x1 NOT ADD MSTORE8 SWAP1 JUMP JUMPDEST DUP8 PUSH1 0x4 SWAP2 SWAP10 SWAP3 SWAP4 SWAP5 SWAP10 ADD SWAP2 DUP3 MLOAD PUSH1 0x1 SWAP1 PUSH1 0x3F SWAP1 DUP3 DUP3 DUP3 PUSH1 0x12 SHR AND DUP9 ADD ADD MLOAD DUP5 MSTORE8 DUP3 DUP3 DUP3 PUSH1 0xC SHR AND DUP9 ADD ADD MLOAD DUP4 DUP6 ADD MSTORE8 DUP3 DUP3 DUP3 PUSH1 0x6 SHR AND DUP9 ADD ADD MLOAD DUP9 DUP6 ADD MSTORE8 AND DUP6 ADD ADD MLOAD DUP10 DUP3 ADD MSTORE8 ADD SWAP8 SWAP3 SWAP2 SWAP1 PUSH2 0x1EAA JUMP JUMPDEST POP PUSH1 0x40 MLOAD PUSH2 0x1F47 DUP2 PUSH2 0x1652 JUMP JUMPDEST PUSH1 0x0 DUP2 MSTORE SWAP1 JUMP JUMPDEST DUP1 PUSH1 0x0 SWAP2 PUSH27 0x184F03E93FF9F4DAA797ED6E38ED64BF6A1F010000000000000000 DUP1 DUP3 LT ISZERO PUSH2 0x2083 JUMPI JUMPDEST POP PUSH14 0x4EE2D6D415B85ACEF8100000000 DUP1 DUP4 LT ISZERO PUSH2 0x2074 JUMPI JUMPDEST POP PUSH7 0x2386F26FC10000 DUP1 DUP4 LT ISZERO PUSH2 0x2065 JUMPI JUMPDEST POP PUSH4 0x5F5E100 DUP1 DUP4 LT ISZERO PUSH2 0x2056 JUMPI JUMPDEST POP PUSH2 0x2710 DUP1 DUP4 LT ISZERO PUSH2 0x2047 JUMPI JUMPDEST POP PUSH1 0x64 DUP3 LT ISZERO PUSH2 0x2037 JUMPI JUMPDEST PUSH1 0xA DUP1 SWAP3 LT ISZERO PUSH2 0x202D JUMPI JUMPDEST PUSH1 0x1 SWAP1 DUP2 PUSH1 0x21 PUSH2 0x1FE5 DUP3 DUP8 ADD PUSH2 0x1DB7 JUMP JUMPDEST SWAP6 DUP7 ADD ADD SWAP1 JUMPDEST PUSH2 0x1FF7 JUMPI JUMPDEST POP POP POP POP SWAP1 JUMP JUMPDEST PUSH1 0x0 NOT ADD SWAP1 DUP4 SWAP1 PUSH16 0x181899199A1A9B1B9C1CB0B131B232B3 PUSH1 0x81 SHL DUP3 DUP3 MOD BYTE DUP4 MSTORE8 DIV SWAP2 DUP3 ISZERO PUSH2 0x2028 JUMPI SWAP2 SWAP1 DUP3 PUSH2 0x1FEB JUMP JUMPDEST PUSH2 0x1FF0 JUMP JUMPDEST SWAP2 PUSH1 0x1 ADD SWAP2 PUSH2 0x1FD4 JUMP JUMPDEST SWAP2 SWAP1 PUSH1 0x64 PUSH1 0x2 SWAP2 DIV SWAP2 ADD SWAP2 PUSH2 0x1FC9 JUMP JUMPDEST PUSH1 0x4 SWAP2 SWAP4 SWAP3 DIV SWAP2 ADD SWAP2 CODESIZE PUSH2 0x1FBE JUMP JUMPDEST PUSH1 0x8 SWAP2 SWAP4 SWAP3 DIV SWAP2 ADD SWAP2 CODESIZE PUSH2 0x1FB1 JUMP JUMPDEST PUSH1 0x10 SWAP2 SWAP4 SWAP3 DIV SWAP2 ADD SWAP2 CODESIZE PUSH2 0x1FA2 JUMP JUMPDEST PUSH1 0x20 SWAP2 SWAP4 SWAP3 DIV SWAP2 ADD SWAP2 CODESIZE PUSH2 0x1F90 JUMP JUMPDEST PUSH1 0x40 SWAP4 POP DUP2 DIV SWAP2 POP CODESIZE PUSH2 0x1F77 JUMP INVALID LOG2 PUSH5 0x6970667358 0x22 SLT KECCAK256 0xF8 DUP3 0xCB 0x24 ADDRESS LOG4 STOP SWAP2 PUSH26 0xB90762A97C5F8DA16568AD3CF20477103F2868672BD53564736F PUSH13 0x63430008140033000000000000 "},"methodIdentifiers":{"approve(address,uint256)":"095ea7b3","balanceOf(address)":"70a08231","getApproved(uint256)":"081812fc","invoiceData(uint256)":"ab23b646","isApprovedForAll(address,address)":"e985e9c5","mint(address,string,uint256,uint256)":"4a5dc3aa","name()":"06fdde03","orderToTokenId(string)":"680abf48","owner()":"8da5cb5b","ownerOf(uint256)":"6352211e","renounceOwnership()":"715018a6","safeTransferFrom(address,address,uint256)":"42842e0e","safeTransferFrom(address,address,uint256,bytes)":"b88d4fde","setApprovalForAll(address,bool)":"a22cb465","supportsInterface(bytes4)":"01ffc9a7","symbol()":"95d89b41","tokenURI(uint256)":"c87b56dd","transferFrom(address,address,uint256)":"23b872dd","transferOwnership(address)":"f2fde38b","useWarranty(uint256)":"178a5cff"}}}}}