{"contracts/NFTReceipt.sol":{"NFTReceipt":{"abi":[{"inputs":[{"internalType":"string","name":"baseURI","type":"string"}],"stateMutability":"nonpayable","type":"constructor"},{"anonymous":false,"inputs":[{"indexed":true,"internalType":"address","name":"owner","type":"address"},{"indexed":true,"internalType":"address","name":"approved","type":"address"},{"indexed":true,"internalType":"uint256","name":"tokenId","type":"uint256"}],"name":"Approval","type":"event"},{"anonymous":false,"inputs":[{"indexed":true,"internalType":"address","name":"owner","type":"address"},{"indexed":true,"internalType":"address","name":"operator","type":"address"},{"indexed":false,"internalType":"bool","name":"approved","type":"bool"}],"name":"ApprovalForAll","type":"event"},{"anonymous":false,"inputs":[{"indexed":false,"internalType":"uint256","name":"_fromTokenId","type":"uint256"},{"indexed":false,"internalType":"uint256","name":"_toTokenId","type":"uint256"}],"name":"BatchMetadataUpdate","type":"event"},{"anonymous":false,"inputs":[{"indexed":false,"internalType":"uint256","name":"_tokenId","type":"uint256"}],"name":"MetadataUpdate","type":"event"},{"anonymous":false,"inputs":[{"indexed":true,"internalType":"bytes32","name":"orderHash","type":"bytes32"},{"indexed":true,"internalType":"uint256","name":"tokenId","type":"uint256"},{"indexed":true,"internalType":"address","name":"owner","type":"address"},{"indexed":false,"internalType":"address","name":"minter","type":"address"},{"indexed":false,"internalType":"string","name":"metadataUrl","type":"string"}],"name":"OrderReceiptMinted","type":"event"},{"anonymous":false,"inputs":[{"indexed":false,"internalType":"address","name":"account","type":"address"}],"name":"Paused","type":"event"},{"anonymous":false,"inputs":[{"indexed":true,"internalType":"uint256","name":"tokenId","type":"uint256"},{"indexed":false,"internalType":"string","name":"oldMetadataUrl","type":"string"},{"indexed":false,"internalType":"string","name":"newMetadataUrl","type":"string"}],"name":"ReceiptMetadataUpdated","type":"event"},{"anonymous":false,"inputs":[{"indexed":true,"internalType":"uint256","name":"tokenId","type":"uint256"},{"indexed":true,"internalType":"address","name":"owner","type":"address"}],"name":"ReceiptRestored","type":"event"},{"anonymous":false,"inputs":[{"indexed":true,"internalType":"uint256","name":"tokenId","type":"uint256"},{"indexed":true,"internalType":"address","name":"owner","type":"address"},{"indexed":false,"internalType":"string","name":"reason","type":"string"}],"name":"ReceiptRevoked","type":"event"},{"anonymous":false,"inputs":[{"indexed":false,"internalType":"address","name":"sender","type":"address"},{"indexed":false,"internalType":"uint256","name":"amount","type":"uint256"}],"name":"Received","type":"event"},{"anonymous":false,"inputs":[{"indexed":true,"internalType":"bytes32","name":"role","type":"bytes32"},{"indexed":true,"internalType":"bytes32","name":"previousAdminRole","type":"bytes32"},{"indexed":true,"internalType":"bytes32","name":"newAdminRole","type":"bytes32"}],"name":"RoleAdminChanged","type":"event"},{"anonymous":false,"inputs":[{"indexed":true,"internalType":"bytes32","name":"role","type":"bytes32"},{"indexed":true,"internalType":"address","name":"account","type":"address"},{"indexed":true,"internalType":"address","name":"sender","type":"address"}],"name":"RoleGranted","type":"event"},{"anonymous":false,"inputs":[{"indexed":true,"internalType":"bytes32","name":"role","type":"bytes32"},{"indexed":true,"internalType":"address","name":"account","type":"address"},{"indexed":true,"internalType":"address","name":"sender","type":"address"}],"name":"RoleRevoked","type":"event"},{"anonymous":false,"inputs":[{"indexed":true,"internalType":"address","name":"from","type":"address"},{"indexed":true,"internalType":"address","name":"to","type":"address"},{"indexed":true,"internalType":"uint256","name":"tokenId","type":"uint256"}],"name":"Transfer","type":"event"},{"anonymous":false,"inputs":[{"indexed":false,"internalType":"address","name":"account","type":"address"}],"name":"Unpaused","type":"event"},{"stateMutability":"payable","type":"fallback"},{"inputs":[],"name":"ADMIN_ROLE","outputs":[{"internalType":"bytes32","name":"","type":"bytes32"}],"stateMutability":"view","type":"function"},{"inputs":[],"name":"DEFAULT_ADMIN_ROLE","outputs":[{"internalType":"bytes32","name":"","type":"bytes32"}],"stateMutability":"view","type":"function"},{"inputs":[],"name":"MINTER_ROLE","outputs":[{"internalType":"bytes32","name":"","type":"bytes32"}],"stateMutability":"view","type":"function"},{"inputs":[{"internalType":"address","name":"to","type":"address"},{"internalType":"uint256","name":"tokenId","type":"uint256"}],"name":"approve","outputs":[],"stateMutability":"nonpayable","type":"function"},{"inputs":[{"internalType":"address","name":"owner","type":"address"}],"name":"balanceOf","outputs":[{"internalType":"uint256","name":"","type":"uint256"}],"stateMutability":"view","type":"function"},{"inputs":[{"internalType":"uint256","name":"tokenId","type":"uint256"}],"name":"getApproved","outputs":[{"internalType":"address","name":"","type":"address"}],"stateMutability":"view","type":"function"},{"inputs":[{"internalType":"bytes32","name":"role","type":"bytes32"}],"name":"getRoleAdmin","outputs":[{"internalType":"bytes32","name":"","type":"bytes32"}],"stateMutability":"view","type":"function"},{"inputs":[{"internalType":"bytes32","name":"role","type":"bytes32"},{"internalType":"address","name":"account","type":"address"}],"name":"grantRole","outputs":[],"stateMutability":"nonpayable","type":"function"},{"inputs":[{"internalType":"bytes32","name":"role","type":"bytes32"},{"internalType":"address","name":"account","type":"address"}],"name":"hasRole","outputs":[{"internalType":"bool","name":"","type":"bool"}],"stateMutability":"view","type":"function"},{"inputs":[{"internalType":"address","name":"owner","type":"address"},{"internalType":"address","name":"operator","type":"address"}],"name":"isApprovedForAll","outputs":[{"internalType":"bool","name":"","type":"bool"}],"stateMutability":"view","type":"function"},{"inputs":[],"name":"name","outputs":[{"internalType":"string","name":"","type":"string"}],"stateMutability":"view","type":"function"},{"inputs":[{"internalType":"bytes32","name":"","type":"bytes32"}],"name":"orderHashToTokenId","outputs":[{"internalType":"uint256","name":"","type":"uint256"}],"stateMutability":"view","type":"function"},{"inputs":[{"internalType":"uint256","name":"tokenId","type":"uint256"}],"name":"ownerOf","outputs":[{"internalType":"address","name":"","type":"address"}],"stateMutability":"view","type":"function"},{"inputs":[{"internalType":"address","name":"","type":"address"},{"internalType":"uint256","name":"","type":"uint256"}],"name":"ownerTokens","outputs":[{"internalType":"uint256","name":"","type":"uint256"}],"stateMutability":"view","type":"function"},{"inputs":[],"name":"pause","outputs":[],"stateMutability":"nonpayable","type":"function"},{"inputs":[],"name":"paused","outputs":[{"internalType":"bool","name":"","type":"bool"}],"stateMutability":"view","type":"function"},{"inputs":[{"internalType":"uint256","name":"","type":"uint256"}],"name":"receipts","outputs":[{"internalType":"bytes32","name":"orderHash","type":"bytes32"},{"internalType":"string","name":"metadataUrl","type":"string"},{"internalType":"uint256","name":"timestamp","type":"uint256"},{"internalType":"address","name":"minter","type":"address"},{"internalType":"bool","name":"isActive","type":"bool"}],"stateMutability":"view","type":"function"},{"inputs":[{"internalType":"bytes32","name":"role","type":"bytes32"},{"internalType":"address","name":"account","type":"address"}],"name":"renounceRole","outputs":[],"stateMutability":"nonpayable","type":"function"},{"inputs":[{"internalType":"address","name":"to","type":"address"},{"internalType":"bytes32","name":"orderHash","type":"bytes32"},{"internalType":"string","name":"metadataUrl","type":"string"}],"name":"restoreReceipt","outputs":[{"internalType":"uint256","name":"","type":"uint256"}],"stateMutability":"nonpayable","type":"function"},{"inputs":[{"internalType":"uint256","name":"tokenId","type":"uint256"},{"internalType":"string","name":"reason","type":"string"}],"name":"revokeReceipt","outputs":[],"stateMutability":"nonpayable","type":"function"},{"inputs":[{"internalType":"bytes32","name":"role","type":"bytes32"},{"internalType":"address","name":"account","type":"address"}],"name":"revokeRole","outputs":[],"stateMutability":"nonpayable","type":"function"},{"inputs":[{"internalType":"address","name":"to","type":"address"},{"internalType":"bytes32","name":"orderHash","type":"bytes32"},{"internalType":"string","name":"metadataUrl","type":"string"}],"name":"safeMint","outputs":[{"internalType":"uint256","name":"","type":"uint256"}],"stateMutability":"nonpayable","type":"function"},{"inputs":[{"internalType":"address","name":"from","type":"address"},{"internalType":"address","name":"to","type":"address"},{"internalType":"uint256","name":"tokenId","type":"uint256"}],"name":"safeTransferFrom","outputs":[],"stateMutability":"nonpayable","type":"function"},{"inputs":[{"internalType":"address","name":"from","type":"address"},{"internalType":"address","name":"to","type":"address"},{"internalType":"uint256","name":"tokenId","type":"uint256"},{"internalType":"bytes","name":"data","type":"bytes"}],"name":"safeTransferFrom","outputs":[],"stateMutability":"nonpayable","type":"function"},{"inputs":[{"internalType":"address","name":"operator","type":"address"},{"internalType":"bool","name":"approved","type":"bool"}],"name":"setApprovalForAll","outputs":[],"stateMutability":"nonpayable","type":"function"},{"inputs":[{"internalType":"string","name":"baseURI","type":"string"}],"name":"setBaseURI","outputs":[],"stateMutability":"nonpayable","type":"function"},{"inputs":[{"internalType":"bytes4","name":"interfaceId","type":"bytes4"}],"name":"supportsInterface","outputs":[{"internalType":"bool","name":"","type":"bool"}],"stateMutability":"view","type":"function"},{"inputs":[],"name":"symbol","outputs":[{"internalType":"string","name":"","type":"string"}],"stateMutability":"view","type":"function"},{"inputs":[{"internalType":"uint256","name":"index","type":"uint256"}],"name":"tokenByIndex","outputs":[{"internalType":"uint256","name":"","type":"uint256"}],"stateMutability":"view","type":"function"},{"inputs":[{"internalType":"address","name":"owner","type":"address"},{"internalType":"uint256","name":"index","type":"uint256"}],"name":"tokenOfOwnerByIndex","outputs":[{"internalType":"uint256","name":"","type":"uint256"}],"stateMutability":"view","type":"function"},{"inputs":[{"internalType":"uint256","name":"tokenId","type":"uint256"}],"name":"tokenURI","outputs":[{"internalType":"string","name":"","type":"string"}],"stateMutability":"view","type":"function"},{"inputs":[],"name":"totalSupply","outputs":[{"internalType":"uint256","name":"","type":"uint256"}],"stateMutability":"view","type":"function"},{"inputs":[{"internalType":"address","name":"from","type":"address"},{"internalType":"address","name":"to","type":"address"},{"internalType":"uint256","name":"tokenId","type":"uint256"}],"name":"transferFrom","outputs":[],"stateMutability":"nonpayable","type":"function"},{"inputs":[],"name":"unpause","outputs":[],"stateMutability":"nonpayable","type":"function"},{"inputs":[{"internalType":"uint256","name":"tokenId","type":"uint256"},{"internalType":"string","name":"newMetadataUrl","type":"string"}],"name":"updateMetadata","outputs":[],"stateMutability":"nonpayable","type":"function"},{"stateMutability":"payable","type":"receive"}],"evm":{"bytecode":{"linkReferences":{},"object":"604060808152346200061657620037bd803803806200001e816200063b565b92833981019060208082840312620006165781516001600160401b039283821162000616570192601f90808286011215620006165784518481116200039957601f199562000072828501881686016200063b565b928284528583830101116200061657849060005b8381106200060157505060009183010152620000a16200061b565b92600c84526b13dc99195c949958d95a5c1d60a21b81850152620000c46200061b565b6005908181526413d490d41560da1b83820152855187811162000399576000546001978882811c92168015620005f6575b8683101462000378578188849311620005a2575b5085908883116001146200053d5760009262000531575b5050600019600383901b1c191690871b176000555b80519087821162000399578654908782811c9216801562000526575b8583101462000378578187849311620004d2575b5084908783116001146200046e5760009262000462575b5050600019600383901b1c191690861b1785555b84600c5560ff1980600d5416600d5560008052600b908184528960002033600052845260ff8a60002054161562000428575b7fa49807205ce4d355092ef5a8a18f56e8913cf4a201fbe287825b095693c21775806000528285528a60002033600052855260ff8b600020541615620003ec575b507f9f2df0fed2c77648de5860a4cc508cd0818c85b8b8a1ab4ceeef8d981c8956a691826000528085528a60002033600052855260ff8b600020541615620003af575b50505082519586116200039957601254908582811c921680156200038e575b8383101462000378578482116200032e575b505080928511600114620002c3575083945090839291600094620002b7575b50501b916000199060031b1c1916176012555b5161313b9081620006628239f35b01519250388062000296565b929484908116601260005284600020946000905b88838310620003135750505010620002f9575b505050811b01601255620002a9565b015160001960f88460031b161c19169055388080620002ea565b858701518855909601959485019487935090810190620002d7565b6012600052826000209085808901821c830193858a106200036e575b01901c019085905b82811062000361575062000277565b6000815501859062000352565b935082936200034a565b634e487b7160e01b600052602260045260246000fd5b91607f169162000265565b634e487b7160e01b600052604160045260246000fd5b82600052845289600020336000528452868a60002091825416179055339033906000805160206200379d833981519152600080a438808062000246565b806000528285528a6000203360005285528a6000208883825416179055339033906000805160206200379d833981519152600080a43862000203565b6000805281845289600020336000528452896000208782825416179055333360006000805160206200379d8339815191528180a4620001c2565b0151905038806200017c565b908a8994169184600052866000209260005b88828210620004bb5750508411620004a1575b505050811b01855562000190565b015160001960f88460031b161c1916905538808062000493565b8385015186558c9790950194938401930162000480565b909150876000528460002087808501861c8201928786106200051c575b918a918695949301871c01915b8281106200050c57505062000165565b600081558594508a9101620004fc565b92508192620004ef565b91607f169162000151565b01519050388062000120565b908b8a94169160008052876000209260005b898282106200058b575050841162000571575b505050811b0160005562000135565b015160001960f88460031b161c1916905538808062000562565b8385015186558d979095019493840193016200054f565b909150600080528560002088808501871c820192888610620005ec575b918b918695949301881c01915b828110620005dc57505062000109565b600081558594508b9101620005cc565b92508192620005bf565b91607f1691620000f5565b81810183015185820184015286920162000086565b600080fd5b60408051919082016001600160401b038111838210176200039957604052565b6040519190601f01601f191682016001600160401b03811183821017620003995760405256fe60a060408181526004918236101561002d575b5050503615610025576100236130d4565b005b6100236130d4565b600092833560e01c91826301ffc9a714611cb45750816306fdde0314611c0c578163081812fc14611bec578163095ea7b314611a7e5781630f7ee1ec14611a0457816318160ddd146119e55781631c759b691461145257816323b872dd1461142d578163248a9ca31461140257816328b60031146113ba5781632f2ff15d1461130d5781632f745c591461126157816336568abe146111cf5781633f4ba83a1461113957816342842e0e146111055781634f6ccce71461107157816353c8388e14610e5357816355f804b314610cda5781635c975abb14610cb65781635f010ca114610c8e5781636352211e14610c5d57816370a0823114610c3057816375b238fc14610bf55781638456cb5914610b9a57816391d1485414610b5357816395d89b4114610a70578163a217fddf14610a55578163a22cb46514610985578163b07dbcdd1461069a578163b88d4fde14610610578163bd98de16146102c7578163c87b56dd1461028c578163d539139314610251578163d547741f1461020e575063e985e9c5146101be5780610012565b3461020a578060031936011261020a5760ff816020936101dc611db5565b6101e4611dd0565b6001600160a01b0391821683526005875283832091168252855220549151911615158152f35b5080fd5b9190503461024d578060031936011261024d5761024a91356102456001610233611dd0565b93838752600b6020528620015461229c565b6123a7565b80f35b8280fd5b50503461020a578160031936011261020a57602090517f9f2df0fed2c77648de5860a4cc508cd0818c85b8b8a1ab4ceeef8d981c8956a68152f35b8284346102c45760203660031901126102c457506102ad6102c0923561308a565b9051918291602083526020830190611d90565b0390f35b80fd5b83833461020a576102d73661207f565b916102e06120ae565b6102e8612c88565b60008281526002602052604090205461030b906001600160a01b03161515613047565b8184526020926010845260ff6003838720015460a01c16156105d557610330836124e0565b83865260108552828620600301805460ff60a01b1916905590610352846124e0565b6001600160a01b0393908481169081610554575050600854858852600987528188205561037e85612c65565b6008546000199081810190811161054157868952600988526103a3838a20549161201a565b90549060031b1c6103d0816103b78461201a565b90919082549060031b91821b91600019901b1916179055565b895260098852828920558588528782812055600854801561052e57918689838c7f8710d09aa0857d384a35e0fd4afdd7de1dbdb0d23360a9be557496173992b7de999897956104c997016104238161201a565b8482549160031b1b1916905560085561043b846124e0565b908484528c5288858420916bffffffffffffffffffffffff60a01b92838154169055169182845260038d5285842090815401905583835260028c528483209081541690557fddf252ad1be2c89b69c2b068fc378daa952ba7f163c4a11628f55a4df523b3ef8280a4600a88526104b3818a2054611de6565b6104cf575b519384938885521696830190611d90565b0390a380f35b868952600a8852888181206104e48154611de6565b806104f2575b5050506104b8565b82601f821160011461050a575050555b888a806104ea565b9091808252610527601f8d8420940160051c840160018501612c4e565b5555610502565b634e487b7160e01b895260318a52602489fd5b634e487b7160e01b895260118a52602489fd5b61055d9061241d565b60001981019190821161054157868952600788528289205482810361059e575b5086895288838120558852600687528188209088528652868181205561037e565b818a5260068952838a20838b528952838a2054828b5260068a52848b20828c528a5280858c20558a5260078952838a20558a61057d565b815162461bcd60e51b81528087018590526015602482015274151bdad95b88185b1c9958591e481c995d9bdad959605a1b6044820152606490fd5b83903461020a57608036600319011261020a5761062b611db5565b90610634611dd0565b91604435606435936001600160401b03851161069657366023860112156106965761066e6106919486602461024a98369301359101611f4e565b9261068161067c8433612616565b612541565b61068c8383836126de565b612a23565b6125f6565b8580fd5b8284346102c4576106aa36611fa3565b936106b36120ae565b6106bb612c88565b6001600160a01b03831691821561094e576106d7811515612bc9565b6106e386511515612c0a565b8452602094600f86528185205493841561090b578486526010875260ff6003848820015460a01c166108c8578486526010875260018084882001908351906001600160401b0382116108b557908291610740899796959454611de6565b8b601f821161087c575b50508a8a601f84116001146107eb579383806107d2958b956107d899957fe174b9ad4ee8d72c4f116b9005454ba0037b94fccedcc2bf686cbfec8960538f9c9b99936107e0575b501b916000199060031b1c19161790555b818b5260108c52858b206003810180546001600160a81b0319163317600160a01b17905542600290910155612ccc565b84612e6e565b519480a38152f35b890151925038610791565b50838b528b8b2091929190601f1983168c8e5b82821061086457505093836107d897937fe174b9ad4ee8d72c4f116b9005454ba0037b94fccedcc2bf686cbfec8960538f9a9997938c966107d2981061084b575b5050811b0190556107a2565b88015160001960f88460031b161c191690558f8061083f565b8984015185558d9b509386019392830192018e6107fe565b848c52808c206108a492601f860160051c82019286106108ab575b601f0160051c0190612c4e565b8b8b61074a565b9091508190610897565b634e487b7160e01b895260418b52602489fd5b825162461bcd60e51b8152808901889052601760248201527f546f6b656e20697320616c7265616479206163746976650000000000000000006044820152606490fd5b825162461bcd60e51b8152808901889052601760248201527f4e6f20746f6b656e20666f722074686973206f726465720000000000000000006044820152606490fd5b815162461bcd60e51b81526020818901526011602482015270125b9d985b1a59081c9958da5c1a595b9d607a1b6044820152606490fd5b9190503461024d578060031936011261024d576109a0611db5565b9060243591821515809303610a51576001600160a01b031692338414610a0f5750338452600560205280842083855260205280842060ff1981541660ff8416179055519081527f17307eab39ab6107e8899845ad3d59bd9653f200f220920489ca2b5937696c3160203392a380f35b6020606492519162461bcd60e51b8352820152601960248201527f4552433732313a20617070726f766520746f2063616c6c6572000000000000006044820152fd5b8480fd5b50503461020a578160031936011261020a5751908152602090f35b50503461020a578160031936011261020a57805190826001805491610a9483611de6565b80865292828116908115610b2b5750600114610acf575b505050610abd826102c0940383611e6c565b51918291602083526020830190611d90565b94508085527fb10e2d527612073b26eecdfd717e6a320cf44b4afac2b0732d9fcbe2b7fa0cf65b828610610b1357505050610abd8260206102c09582010194610aab565b80546020878701810191909152909501948101610af6565b6102c0975086935060209250610abd94915060ff191682840152151560051b82010194610aab565b90503461024d578160031936011261024d578160209360ff92610b74611dd0565b90358252600b86528282206001600160a01b039091168252855220549151911615158152f35b50503461020a578160031936011261020a5760207f62e78cea01bee320cd4e420270b5ea74000d11b0c9f74754ebdbfc544b05a25891610bd86120ae565b610be0612c88565b600160ff19600d541617600d5551338152a180f35b50503461020a578160031936011261020a57602090517fa49807205ce4d355092ef5a8a18f56e8913cf4a201fbe287825b095693c217758152f35b50503461020a57602036600319011261020a57602090610c56610c51611db5565b61241d565b9051908152f35b8284346102c45760203660031901126102c45750610c7d602092356124e0565b90516001600160a01b039091168152f35b90503461024d57602036600319011261024d576020928291358152600f845220549051908152f35b50503461020a578160031936011261020a5760209060ff600d541690519015158152f35b83346102c45760208060031936011261020a576001600160401b03908335828111610e4f57610d0c9036908601611f85565b93610d156120ae565b8451928311610e3c5750610d2a601254611de6565b601f8111610def575b5080601f8311600114610d6e57508293829392610d63575b50508160011b916000199060031b1c19161760125580f35b015190508380610d4b565b60128452601f198316947fbb8a6a4669ba250d26cd7a459eca9d215f8307e33aebe50379bc5a3617ec3444929185905b878210610dd7575050836001959610610dbe575b505050811b0160125580f35b015160001960f88460031b161c19169055838080610db2565b80600185968294968601518155019501930190610d9e565b610e3690601285527fbb8a6a4669ba250d26cd7a459eca9d215f8307e33aebe50379bc5a3617ec3444601f850160051c8101918486106108ab57601f0160051c0190612c4e565b84610d33565b634e487b7160e01b845260419052602483fd5b8380fd5b83833461020a57610e633661207f565b9091610e6d6120ae565b610e75612c88565b600083815260026020526040902054610e98906001600160a01b03161515613047565b81511561103857610ea88361308a565b91610eb38185612e6e565b838552602095601087526001908184882001918351916001600160401b0383116110255750610ee28354611de6565b601f8111610ff7575b5088601f8311600114610f6f579180808a9b9593610f5e97957f61a360d9cca9814bfb3679a5023b287d3343df80bde4718a26b757aecc9dce519b9c93610f64575b501b916000199060031b1c19161790555b610f518451958587968752860190611d90565b9184830390850152611d90565b0390a280f35b86015192508d610f2d565b83895289892091929190601f1983168a5b818110610fe257509183917f61a360d9cca9814bfb3679a5023b287d3343df80bde4718a26b757aecc9dce519a9b9c9694610f5e98969410610fc9575b5050811b019055610f3e565b85015160001960f88460031b161c191690558b80610fbd565b87830151845592850192918c01918c01610f80565b61101f90848a528a8a20601f850160051c8101918c86106108ab57601f0160051c0190612c4e565b89610eeb565b634e487b7160e01b895260419052602488fd5b5162461bcd60e51b81526020818601526014602482015273125b9d985b1a59081b595d1859185d184815549360621b6044820152606490fd5b905082346102c45760203660031901126102c457508035906008548210156110ad5760208361109f8461201a565b91905490519160031b1c8152f35b608490602084519162461bcd60e51b8352820152602c60248201527f455243373231456e756d657261626c653a20676c6f62616c20696e646578206f60448201526b7574206f6620626f756e647360a01b6064820152fd5b50503461020a5761069161024a9161111c36611fe5565b9192519261112984611e20565b86845261068161067c8433612616565b90503461024d578260031936011261024d576111536120ae565b600d549060ff821615611195575060ff1916600d55513381527f5db9ee0a495bf2e6ff9c91a7834c1ba4fdd244a5e8aa4e537bd38aeae4b073aa90602090a180f35b606490602084519162461bcd60e51b8352820152601460248201527314185d5cd8589b194e881b9bdd081c185d5cd95960621b6044820152fd5b8391503461020a578260031936011261020a576111ea611dd0565b90336001600160a01b03831603611206579061024a91356123a7565b608490602085519162461bcd60e51b8352820152602f60248201527f416363657373436f6e74726f6c3a2063616e206f6e6c792072656e6f756e636560448201526e103937b632b9903337b91039b2b63360891b6064820152fd5b8284346102c457816003193601126102c45761127b611db5565b602435906112888161241d565b8210156112b6576001600160a01b031682526006602090815283832091835290815290829020548251908152f35b835162461bcd60e51b8152602081870152602b60248201527f455243373231456e756d657261626c653a206f776e657220696e646578206f7560448201526a74206f6620626f756e647360a81b6064820152608490fd5b90503461024d578160031936011261024d573590611329611dd0565b90828452600b6020526113416001828620015461229c565b828452600b60209081528185206001600160a01b039093168086529290528084205460ff161561136f578380f35b828452600b6020528084208285526020528320600160ff1982541617905533917f2f8788117e7eff1d82e926ec794901d17c78024a50270940304540a733656f0d8480a43880808380f35b50503461020a578060031936011261020a576113d4611db5565b6001600160a01b031682526011602052808220805460243593908410156102c4575060209261109f91612067565b90503461024d57602036600319011261024d5781602093600192358152600b85522001549051908152f35b83346102c45761024a61143f36611fe5565b9161144d61067c8433612616565b6126de565b83833461020a5761146236611fa3565b7f9f2df0fed2c77648de5860a4cc508cd0818c85b8b8a1ab4ceeef8d981c8956a694929495868452602096600b8852858520338652885260ff86862054161561181b57506002600c54146117d8576002600c556114bd612c88565b6001600160a01b0386811694908515611795576114db851515612bc9565b6114e784511515612c0a565b848252600f89528682205461175b576001608052611510608051600e5401809981600e55612ccc565b61151a8489612e6e565b86516001600160401b0360a08201818111838210176117485789528682528a8201868152428a84015233606084015260805160808401528a855260108c52898520908351825551918251908111611735576080518201908d61157c8354611de6565b90601f8211611707575b50508d80601f831160011461169757508190600395899261168c575b5050816080511b9160001990861b1c19161790555b8983015160028201550191606082015116825491608060ff60a01b910151151560a01b16916affffffffffffffffffffff60a81b1617179055838152600f885286868220558481526011885285812090815492600160401b841015611679575050869392611654856103b77fa2339e7643e1cfce17c9bf4d24d46b99c1b008e24809842f1302144910b1fc549561166a9560805182018155612067565b8651918291338352888b84015288830190611d90565b0390a4608051600c5551908152f35b634e487b7160e01b825260419052602490fd5b015190508f806115a2565b919293948489528289209289601f198616915b8282106116ee57505090846003979695949392106116d6575b505050608051906080511b0190556115b7565b015160001983871b60f8161c191690558e80806116c3565b80859681939686015181556080510196019401906116aa565b83895280892061172e92601f850160051c82019285106108ab57601f0160051c0190612c4e565b8e8e611586565b634e487b7160e01b865260418752602486fd5b634e487b7160e01b855260418652602485fd5b865162461bcd60e51b81528084018a9052601460248201527313dc99195c88185b1c9958591e481b5a5b9d195960621b6044820152606490fd5b865162461bcd60e51b81528084018a9052601960248201527f496e76616c696420726563697069656e742061646472657373000000000000006044820152606490fd5b845162461bcd60e51b8152908101879052601f60248201527f5265656e7472616e637947756172643a207265656e7472616e742063616c6c006044820152606490fd5b93925094505061182a33612abb565b9183519061183782611e51565b604282528682019260603685378251156119d257603084538251906001918210156119bf5790607860218501536041915b818311611954575050506119135760486118e69385936118f59361190f975196879376020b1b1b2b9b9a1b7b73a3937b61d1030b1b1b7bab73a1604d1b8c8601526118bd8c8251928391603789019101611d6d565b8401917001034b99036b4b9b9b4b733903937b6329607d1b603784015251809386840190611d6d565b01036028810185520183611e6c565b5193849362461bcd60e51b85528401526024830190611d90565b0390fd5b606485878087519262461bcd60e51b845283015260248201527f537472696e67733a20686578206c656e67746820696e73756666696369656e746044820152fd5b909192600f811660108110156119ac576f181899199a1a9b1b9c1cb0b131b232b360811b901a6119848587612aaa565b53881c92801561199957600019019190611868565b634e487b7160e01b825260118952602482fd5b634e487b7160e01b835260328a52602483fd5b634e487b7160e01b815260328852602490fd5b634e487b7160e01b815260328752602490fd5b50503461020a578160031936011261020a576020906008549051908152f35b90503461024d57602036600319011261024d579181923581526010602052209081549060ff611a3560018501611e8d565b936003600282015491015490611a5c8451968796875260a0602088015260a0870190611d90565b938501526001600160a01b038116606085015260a01c16151560808301520390f35b90503461024d578160031936011261024d57611a98611db5565b6024359290916001600160a01b0391908280611ab3876124e0565b16941693808514611b9f57803314908115611b80575b5015611b1857848652602052842080546001600160a01b03191683179055611af0836124e0565b167f8c5be1e5ebec7d5bd14f71427d1e84f3dd0314c0f7b2291e5b200ac8c7c3b9258480a480f35b6020608492519162461bcd60e51b8352820152603d60248201527f4552433732313a20617070726f76652063616c6c6572206973206e6f7420746f60448201527f6b656e206f776e6572206f7220617070726f76656420666f7220616c6c0000006064820152fd5b90508652600560205281862033875260205260ff828720541638611ac9565b506020608492519162461bcd60e51b8352820152602160248201527f4552433732313a20617070726f76616c20746f2063757272656e74206f776e656044820152603960f91b6064820152fd5b8284346102c45760203660031901126102c45750610c7d60209235612503565b50503461020a578160031936011261020a57805190828054611c2d81611de6565b80855291600191808316908115610b2b5750600114611c5857505050610abd826102c0940383611e6c565b80809650527f290decd9548b62a8d60345a988386fc84ba6bc95484008f6362f93160ef3e5635b828610611c9c57505050610abd8260206102c09582010194610aab565b80546020878701810191909152909501948101611c7f565b84913461024d57602036600319011261024d573563ffffffff60e01b811680910361024d5760209250637965db0b60e01b8114908115611cf6575b5015158152f35b632483248360e11b811491508115611d10575b5083611cef565b63780e9d6360e01b811491508115611d2a575b5083611d09565b6380ac58cd60e01b811491508115611d5c575b8115611d4b575b5083611d23565b6301ffc9a760e01b14905083611d44565b635b5e139f60e01b81149150611d3d565b60005b838110611d805750506000910152565b8181015183820152602001611d70565b90602091611da981518092818552858086019101611d6d565b601f01601f1916010190565b600435906001600160a01b0382168203611dcb57565b600080fd5b602435906001600160a01b0382168203611dcb57565b90600182811c92168015611e16575b6020831014611e0057565b634e487b7160e01b600052602260045260246000fd5b91607f1691611df5565b602081019081106001600160401b03821117611e3b57604052565b634e487b7160e01b600052604160045260246000fd5b608081019081106001600160401b03821117611e3b57604052565b90601f801991011681019081106001600160401b03821117611e3b57604052565b9060405191826000825492611ea184611de6565b908184526001948581169081600014611f105750600114611ecd575b5050611ecb92500383611e6c565b565b9093915060005260209081600020936000915b818310611ef8575050611ecb93508201013880611ebd565b85548884018501529485019487945091830191611ee0565b915050611ecb94506020925060ff191682840152151560051b8201013880611ebd565b6001600160401b038111611e3b57601f01601f191660200190565b929192611f5a82611f33565b91611f686040519384611e6c565b829481845281830111611dcb578281602093846000960137010152565b9080601f83011215611dcb57816020611fa093359101611f4e565b90565b6060600319820112611dcb576004356001600160a01b0381168103611dcb579160243591604435906001600160401b038211611dcb57611fa091600401611f85565b6060906003190112611dcb576001600160a01b03906004358281168103611dcb57916024359081168103611dcb579060443590565b6008548110156120515760086000527ff3f7a9fe364faab93b216da50a3214154f22a0a2b415b23a84c8169e8b636ee30190600090565b634e487b7160e01b600052603260045260246000fd5b80548210156120515760005260206000200190600090565b906040600319830112611dcb5760043591602435906001600160401b038211611dcb57611fa091600401611f85565b3360009081527f5329df1543cb285eabd9ee00d915d71c9b1e8ff70a737be4b25897d47fe38cd2602090815260408083205490927fa49807205ce4d355092ef5a8a18f56e8913cf4a201fbe287825b095693c217759160ff16156121125750505050565b61211b33612abb565b9184519061212882611e51565b6042825284820192606036853782511561228857603084538251906001918210156122885790607860218501536041915b81831161221a575050506121d857604861190f9386936121bc936121ad985198899376020b1b1b2b9b9a1b7b73a3937b61d1030b1b1b7bab73a1604d1b8a8601526118bd815180928c603789019101611d6d565b01036028810187520185611e6c565b5192839262461bcd60e51b845260048401526024830190611d90565b60648486519062461bcd60e51b825280600483015260248201527f537472696e67733a20686578206c656e67746820696e73756666696369656e746044820152fd5b909192600f81166010811015612274576f181899199a1a9b1b9c1cb0b131b232b360811b901a61224a8587612aaa565b5360041c92801561226057600019019190612159565b634e487b7160e01b82526011600452602482fd5b634e487b7160e01b83526032600452602483fd5b634e487b7160e01b81526032600452602490fd5b600090808252602090600b8252604092838120338252835260ff8482205416156122c65750505050565b6122cf33612abb565b918451906122dc82611e51565b6042825284820192606036853782511561228857603084538251906001918210156122885790607860218501536041915b818311612361575050506121d857604861190f9386936121bc936121ad985198899376020b1b1b2b9b9a1b7b73a3937b61d1030b1b1b7bab73a1604d1b8a8601526118bd815180928c603789019101611d6d565b909192600f81166010811015612274576f181899199a1a9b1b9c1cb0b131b232b360811b901a6123918587612aaa565b5360041c9280156122605760001901919061230d565b90600091808352600b602052604083209160018060a01b03169182845260205260ff6040842054166123d857505050565b808352600b602052604083208284526020526040832060ff1981541690557ff6391f5c32d9c69d2a47ea670b442974b53935d1edc7fd64eb21e047a839171b339380a4565b6001600160a01b0316801561243d57600052600360205260406000205490565b60405162461bcd60e51b815260206004820152602960248201527f4552433732313a2061646472657373207a65726f206973206e6f7420612076616044820152683634b21037bbb732b960b91b6064820152608490fd5b1561249b57565b60405162461bcd60e51b815260206004820152601860248201527f4552433732313a20696e76616c696420746f6b656e20494400000000000000006044820152606490fd5b6000908152600260205260409020546001600160a01b0316611fa0811515612494565b600081815260026020526040902054612526906001600160a01b03161515612494565b6000908152600460205260409020546001600160a01b031690565b1561254857565b60405162461bcd60e51b815260206004820152602d60248201527f4552433732313a2063616c6c6572206973206e6f7420746f6b656e206f776e6560448201526c1c881bdc88185c1c1c9bdd9959609a1b6064820152608490fd5b60809060208152603260208201527f4552433732313a207472616e7366657220746f206e6f6e20455243373231526560408201527131b2b4bb32b91034b6b83632b6b2b73a32b960711b60608201520190565b156125fd57565b60405162461bcd60e51b81528061190f600482016125a3565b906001600160a01b03808061262a846124e0565b1693169183831493841561265d575b508315612647575b50505090565b61265391929350612503565b1614388080612641565b909350600052600560205260406000208260005260205260ff604060002054169238612639565b1561268b57565b60405162461bcd60e51b815260206004820152602560248201527f4552433732313a207472616e736665722066726f6d20696e636f72726563742060448201526437bbb732b960d91b6064820152608490fd5b612702916126eb846124e0565b6001600160a01b0393848416939185168414612684565b8382169384156128b8578391826127ff575061274c9260085487600052600960205260406000205561273387612c65565b8286036127cc575b50612745866124e0565b1614612684565b7fddf252ad1be2c89b69c2b068fc378daa952ba7f163c4a11628f55a4df523b3ef60008481526004602052604081206bffffffffffffffffffffffff60a01b9081815416905583825260036020526040822060001981540190558482526040822060018154019055858252600260205284604083209182541617905580a4565b6127d59061241d565b6040600087815260066020528181208382526020528882822055888152600760205220553861273b565b858303612811575b5061274c92612733565b61281c91925061241d565b6000198101919082116128a25761274c928492600090888252602090600782526040918284205482810361286b575b508a84528383812055868452600681528284209184525281205592612807565b878552600682528385208386528252838520548886526006835284862082875283528085872055855260078252838520553861284b565b634e487b7160e01b600052601160045260246000fd5b60405162461bcd60e51b8152602060048201526024808201527f4552433732313a207472616e7366657220746f20746865207a65726f206164646044820152637265737360e01b6064820152608490fd5b91929091803b15612a1a57612956936040519081630a85bd0160e11b9384825233600483015260009687602484015260448301526080606483015281878160209a8b966084830190611d90565b03926001600160a01b03165af18491816129da575b506129c9575050503d6000146129c1573d61298581611f33565b906129936040519283611e6c565b81528091833d92013e5b805191826129be5760405162461bcd60e51b81528061190f600482016125a3565b01fd5b50606061299d565b6001600160e01b0319161492509050565b9091508581813d8311612a13575b6129f28183611e6c565b81010312610a5157516001600160e01b031981168103610a5157903861296b565b503d6129e8565b50915050600190565b92939190803b15612aa057612a75946040518092630a85bd0160e11b9485835233600484015260018060a01b03809816602484015260448301526080606483015281806020998a956084830190611d90565b03916000988991165af18491816129da57506129c9575050503d6000146129c1573d61298581611f33565b5050915050600190565b908151811015612051570160200190565b60405190606082018281106001600160401b03821117611e3b57604052602a82526020820160403682378251156120515760309053815160019081101561205157607860218401536029905b808211612b5b575050612b175790565b606460405162461bcd60e51b815260206004820152602060248201527f537472696e67733a20686578206c656e67746820696e73756666696369656e746044820152fd5b9091600f81166010811015612bb4576f181899199a1a9b1b9c1cb0b131b232b360811b901a612b8a8486612aaa565b5360041c918015612b9f576000190190612b07565b60246000634e487b7160e01b81526011600452fd5b60246000634e487b7160e01b81526032600452fd5b15612bd057565b60405162461bcd60e51b8152602060048201526012602482015271092dcecc2d8d2c840dee4c8cae440d0c2e6d60731b6044820152606490fd5b15612c1157565b60405162461bcd60e51b815260206004820152601560248201527413595d1859185d1848155493081c995c5d5a5c9959605a1b6044820152606490fd5b818110612c59575050565b60008155600101612c4e565b60085490600160401b821015611e3b576103b7826001611ecb940160085561201a565b60ff600d5416612c9457565b60405162461bcd60e51b815260206004820152601060248201526f14185d5cd8589b194e881c185d5cd95960821b6044820152606490fd5b90604091825192612cdc84611e20565b60008085526001600160a01b038316918215612ddf57938092611ecb96949261069196612d27612d2185600052600260205260018060a01b0360406000205416151590565b15612e22565b60026008548584526020906009825283852055612d4386612c65565b612d4c8761241d565b8585526006825283852081865282528385208790558685526007825283852055600086815260026020526040902054612d8f906001600160a01b03161515612d21565b848452600381528284208054600101905585845252812080546001600160a01b031916831790557fddf252ad1be2c89b69c2b068fc378daa952ba7f163c4a11628f55a4df523b3ef8180a4612909565b5162461bcd60e51b815260206004820181905260248201527f4552433732313a206d696e7420746f20746865207a65726f20616464726573736044820152606490fd5b15612e2957565b60405162461bcd60e51b815260206004820152601c60248201527f4552433732313a20746f6b656e20616c7265616479206d696e746564000000006044820152606490fd5b6000818152600260205260409020549192916001600160a01b031615612feb57600090808252602091600a835260408120908551906001600160401b038211612fd757612ebb8354611de6565b601f8111612fa9575b508490601f8311600114612f2557907ff8e1a15aba9398e019f0b49df1a4fde98ee17ae345cb5f6b5e2c27f5033e8ce7969783612f1a575b50508160011b916000199060031b1c19161790555b604051908152a1565b015190503880612efc565b9196601f198816848452868420935b818110612f9257509160019391897ff8e1a15aba9398e019f0b49df1a4fde98ee17ae345cb5f6b5e2c27f5033e8ce7999a9410612f79575b505050811b019055612f11565b015160001960f88460031b161c19169055388080612f6c565b929387600181928786015181550195019301612f34565b612fd190848352868320601f850160051c8101918886106108ab57601f0160051c0190612c4e565b38612ec4565b634e487b7160e01b81526041600452602490fd5b60405162461bcd60e51b815260206004820152602e60248201527f45524337323155524953746f726167653a2055524920736574206f66206e6f6e60448201526d32bc34b9ba32b73a103a37b5b2b760911b6064820152608490fd5b1561304e57565b60405162461bcd60e51b8152602060048201526014602482015273151bdad95b88191bd95cc81b9bdd08195e1a5cdd60621b6044820152606490fd5b6000818152600260205260409020546130ad906001600160a01b03161515612494565b600052600a6020526130c26040600020611e8d565b60006040516130d081611e20565b5290565b7f88a5966d370b9919b20f3e2c13ff65706f196a4e32cc2c12bf57088f8852587460408051338152346020820152a156fea264697066735822122091947f24abedb2175af0fe6b2bc6e7a05dd470544d1c9894b1e12819050d982d64736f6c634300081400332f8788117e7eff1d82e926ec794901d17c78024a50270940304540a733656f0d","opcodes":"PUSH1 0x40 PUSH1 0x80 DUP2 MSTORE CALLVALUE PUSH3 0x616 JUMPI PUSH3 0x37BD DUP1 CODESIZE SUB DUP1 PUSH3 0x1E DUP2 PUSH3 0x63B JUMP JUMPDEST SWAP3 DUP4 CODECOPY DUP2 ADD SWAP1 PUSH1 0x20 DUP1 DUP3 DUP5 SUB SLT PUSH3 0x616 JUMPI DUP2 MLOAD PUSH1 0x1 PUSH1 0x1 PUSH1 0x40 SHL SUB SWAP3 DUP4 DUP3 GT PUSH3 0x616 JUMPI ADD SWAP3 PUSH1 0x1F SWAP1 DUP1 DUP3 DUP7 ADD SLT ISZERO PUSH3 0x616 JUMPI DUP5 MLOAD DUP5 DUP2 GT PUSH3 0x399 JUMPI PUSH1 0x1F NOT SWAP6 PUSH3 0x72 DUP3 DUP6 ADD DUP9 AND DUP7 ADD PUSH3 0x63B JUMP JUMPDEST SWAP3 DUP3 DUP5 MSTORE DUP6 DUP4 DUP4 ADD ADD GT PUSH3 0x616 JUMPI DUP5 SWAP1 PUSH1 0x0 JUMPDEST DUP4 DUP2 LT PUSH3 0x601 JUMPI POP POP PUSH1 0x0 SWAP2 DUP4 ADD ADD MSTORE PUSH3 0xA1 PUSH3 0x61B JUMP JUMPDEST SWAP3 PUSH1 0xC DUP5 MSTORE PUSH12 0x13DC99195C949958D95A5C1D PUSH1 0xA2 SHL DUP2 DUP6 ADD MSTORE PUSH3 0xC4 PUSH3 0x61B JUMP JUMPDEST PUSH1 0x5 SWAP1 DUP2 DUP2 MSTORE PUSH5 0x13D490D415 PUSH1 0xDA SHL DUP4 DUP3 ADD MSTORE DUP6 MLOAD DUP8 DUP2 GT PUSH3 0x399 JUMPI PUSH1 0x0 SLOAD PUSH1 0x1 SWAP8 DUP9 DUP3 DUP2 SHR SWAP3 AND DUP1 ISZERO PUSH3 0x5F6 JUMPI JUMPDEST DUP7 DUP4 LT EQ PUSH3 0x378 JUMPI DUP2 DUP9 DUP5 SWAP4 GT PUSH3 0x5A2 JUMPI JUMPDEST POP DUP6 SWAP1 DUP9 DUP4 GT PUSH1 0x1 EQ PUSH3 0x53D JUMPI PUSH1 0x0 SWAP3 PUSH3 0x531 JUMPI JUMPDEST POP POP PUSH1 0x0 NOT PUSH1 0x3 DUP4 SWAP1 SHL SHR NOT AND SWAP1 DUP8 SHL OR PUSH1 0x0 SSTORE JUMPDEST DUP1 MLOAD SWAP1 DUP8 DUP3 GT PUSH3 0x399 JUMPI DUP7 SLOAD SWAP1 DUP8 DUP3 DUP2 SHR SWAP3 AND DUP1 ISZERO PUSH3 0x526 JUMPI JUMPDEST DUP6 DUP4 LT EQ PUSH3 0x378 JUMPI DUP2 DUP8 DUP5 SWAP4 GT PUSH3 0x4D2 JUMPI JUMPDEST POP DUP5 SWAP1 DUP8 DUP4 GT PUSH1 0x1 EQ PUSH3 0x46E JUMPI PUSH1 0x0 SWAP3 PUSH3 0x462 JUMPI JUMPDEST POP POP PUSH1 0x0 NOT PUSH1 0x3 DUP4 SWAP1 SHL SHR NOT AND SWAP1 DUP7 SHL OR DUP6 SSTORE JUMPDEST DUP5 PUSH1 0xC SSTORE PUSH1 0xFF NOT DUP1 PUSH1 0xD SLOAD AND PUSH1 0xD SSTORE PUSH1 0x0 DUP1 MSTORE PUSH1 0xB SWAP1 DUP2 DUP5 MSTORE DUP10 PUSH1 0x0 KECCAK256 CALLER PUSH1 0x0 MSTORE DUP5 MSTORE PUSH1 0xFF DUP11 PUSH1 0x0 KECCAK256 SLOAD AND ISZERO PUSH3 0x428 JUMPI JUMPDEST PUSH32 0xA49807205CE4D355092EF5A8A18F56E8913CF4A201FBE287825B095693C21775 DUP1 PUSH1 0x0 MSTORE DUP3 DUP6 MSTORE DUP11 PUSH1 0x0 KECCAK256 CALLER PUSH1 0x0 MSTORE DUP6 MSTORE PUSH1 0xFF DUP12 PUSH1 0x0 KECCAK256 SLOAD AND ISZERO PUSH3 0x3EC JUMPI JUMPDEST POP PUSH32 0x9F2DF0FED2C77648DE5860A4CC508CD0818C85B8B8A1AB4CEEEF8D981C8956A6 SWAP2 DUP3 PUSH1 0x0 MSTORE DUP1 DUP6 MSTORE DUP11 PUSH1 0x0 KECCAK256 CALLER PUSH1 0x0 MSTORE DUP6 MSTORE PUSH1 0xFF DUP12 PUSH1 0x0 KECCAK256 SLOAD AND ISZERO PUSH3 0x3AF JUMPI JUMPDEST POP POP POP DUP3 MLOAD SWAP6 DUP7 GT PUSH3 0x399 JUMPI PUSH1 0x12 SLOAD SWAP1 DUP6 DUP3 DUP2 SHR SWAP3 AND DUP1 ISZERO PUSH3 0x38E JUMPI JUMPDEST DUP4 DUP4 LT EQ PUSH3 0x378 JUMPI DUP5 DUP3 GT PUSH3 0x32E JUMPI JUMPDEST POP POP DUP1 SWAP3 DUP6 GT PUSH1 0x1 EQ PUSH3 0x2C3 JUMPI POP DUP4 SWAP5 POP SWAP1 DUP4 SWAP3 SWAP2 PUSH1 0x0 SWAP5 PUSH3 0x2B7 JUMPI JUMPDEST POP POP SHL SWAP2 PUSH1 0x0 NOT SWAP1 PUSH1 0x3 SHL SHR NOT AND OR PUSH1 0x12 SSTORE JUMPDEST MLOAD PUSH2 0x313B SWAP1 DUP2 PUSH3 0x662 DUP3 CODECOPY RETURN JUMPDEST ADD MLOAD SWAP3 POP CODESIZE DUP1 PUSH3 0x296 JUMP JUMPDEST SWAP3 SWAP5 DUP5 SWAP1 DUP2 AND PUSH1 0x12 PUSH1 0x0 MSTORE DUP5 PUSH1 0x0 KECCAK256 SWAP5 PUSH1 0x0 SWAP1 JUMPDEST DUP9 DUP4 DUP4 LT PUSH3 0x313 JUMPI POP POP POP LT PUSH3 0x2F9 JUMPI JUMPDEST POP POP POP DUP2 SHL ADD PUSH1 0x12 SSTORE PUSH3 0x2A9 JUMP JUMPDEST ADD MLOAD PUSH1 0x0 NOT PUSH1 0xF8 DUP5 PUSH1 0x3 SHL AND SHR NOT AND SWAP1 SSTORE CODESIZE DUP1 DUP1 PUSH3 0x2EA JUMP JUMPDEST DUP6 DUP8 ADD MLOAD DUP9 SSTORE SWAP1 SWAP7 ADD SWAP6 SWAP5 DUP6 ADD SWAP5 DUP8 SWAP4 POP SWAP1 DUP2 ADD SWAP1 PUSH3 0x2D7 JUMP JUMPDEST PUSH1 0x12 PUSH1 0x0 MSTORE DUP3 PUSH1 0x0 KECCAK256 SWAP1 DUP6 DUP1 DUP10 ADD DUP3 SHR DUP4 ADD SWAP4 DUP6 DUP11 LT PUSH3 0x36E JUMPI JUMPDEST ADD SWAP1 SHR ADD SWAP1 DUP6 SWAP1 JUMPDEST DUP3 DUP2 LT PUSH3 0x361 JUMPI POP PUSH3 0x277 JUMP JUMPDEST PUSH1 0x0 DUP2 SSTORE ADD DUP6 SWAP1 PUSH3 0x352 JUMP JUMPDEST SWAP4 POP DUP3 SWAP4 PUSH3 0x34A JUMP JUMPDEST PUSH4 0x4E487B71 PUSH1 0xE0 SHL PUSH1 0x0 MSTORE PUSH1 0x22 PUSH1 0x4 MSTORE PUSH1 0x24 PUSH1 0x0 REVERT JUMPDEST SWAP2 PUSH1 0x7F AND SWAP2 PUSH3 0x265 JUMP JUMPDEST PUSH4 0x4E487B71 PUSH1 0xE0 SHL PUSH1 0x0 MSTORE PUSH1 0x41 PUSH1 0x4 MSTORE PUSH1 0x24 PUSH1 0x0 REVERT JUMPDEST DUP3 PUSH1 0x0 MSTORE DUP5 MSTORE DUP10 PUSH1 0x0 KECCAK256 CALLER PUSH1 0x0 MSTORE DUP5 MSTORE DUP7 DUP11 PUSH1 0x0 KECCAK256 SWAP2 DUP3 SLOAD AND OR SWAP1 SSTORE CALLER SWAP1 CALLER SWAP1 PUSH1 0x0 DUP1 MLOAD PUSH1 0x20 PUSH3 0x379D DUP4 CODECOPY DUP2 MLOAD SWAP2 MSTORE PUSH1 0x0 DUP1 LOG4 CODESIZE DUP1 DUP1 PUSH3 0x246 JUMP JUMPDEST DUP1 PUSH1 0x0 MSTORE DUP3 DUP6 MSTORE DUP11 PUSH1 0x0 KECCAK256 CALLER PUSH1 0x0 MSTORE DUP6 MSTORE DUP11 PUSH1 0x0 KECCAK256 DUP9 DUP4 DUP3 SLOAD AND OR SWAP1 SSTORE CALLER SWAP1 CALLER SWAP1 PUSH1 0x0 DUP1 MLOAD PUSH1 0x20 PUSH3 0x379D DUP4 CODECOPY DUP2 MLOAD SWAP2 MSTORE PUSH1 0x0 DUP1 LOG4 CODESIZE PUSH3 0x203 JUMP JUMPDEST PUSH1 0x0 DUP1 MSTORE DUP2 DUP5 MSTORE DUP10 PUSH1 0x0 KECCAK256 CALLER PUSH1 0x0 MSTORE DUP5 MSTORE DUP10 PUSH1 0x0 KECCAK256 DUP8 DUP3 DUP3 SLOAD AND OR SWAP1 SSTORE CALLER CALLER PUSH1 0x0 PUSH1 0x0 DUP1 MLOAD PUSH1 0x20 PUSH3 0x379D DUP4 CODECOPY DUP2 MLOAD SWAP2 MSTORE DUP2 DUP1 LOG4 PUSH3 0x1C2 JUMP JUMPDEST ADD MLOAD SWAP1 POP CODESIZE DUP1 PUSH3 0x17C JUMP JUMPDEST SWAP1 DUP11 DUP10 SWAP5 AND SWAP2 DUP5 PUSH1 0x0 MSTORE DUP7 PUSH1 0x0 KECCAK256 SWAP3 PUSH1 0x0 JUMPDEST DUP9 DUP3 DUP3 LT PUSH3 0x4BB JUMPI POP POP DUP5 GT PUSH3 0x4A1 JUMPI JUMPDEST POP POP POP DUP2 SHL ADD DUP6 SSTORE PUSH3 0x190 JUMP JUMPDEST ADD MLOAD PUSH1 0x0 NOT PUSH1 0xF8 DUP5 PUSH1 0x3 SHL AND SHR NOT AND SWAP1 SSTORE CODESIZE DUP1 DUP1 PUSH3 0x493 JUMP JUMPDEST DUP4 DUP6 ADD MLOAD DUP7 SSTORE DUP13 SWAP8 SWAP1 SWAP6 ADD SWAP5 SWAP4 DUP5 ADD SWAP4 ADD PUSH3 0x480 JUMP JUMPDEST SWAP1 SWAP2 POP DUP8 PUSH1 0x0 MSTORE DUP5 PUSH1 0x0 KECCAK256 DUP8 DUP1 DUP6 ADD DUP7 SHR DUP3 ADD SWAP3 DUP8 DUP7 LT PUSH3 0x51C JUMPI JUMPDEST SWAP2 DUP11 SWAP2 DUP7 SWAP6 SWAP5 SWAP4 ADD DUP8 SHR ADD SWAP2 JUMPDEST DUP3 DUP2 LT PUSH3 0x50C JUMPI POP POP PUSH3 0x165 JUMP JUMPDEST PUSH1 0x0 DUP2 SSTORE DUP6 SWAP5 POP DUP11 SWAP2 ADD PUSH3 0x4FC JUMP JUMPDEST SWAP3 POP DUP2 SWAP3 PUSH3 0x4EF JUMP JUMPDEST SWAP2 PUSH1 0x7F AND SWAP2 PUSH3 0x151 JUMP JUMPDEST ADD MLOAD SWAP1 POP CODESIZE DUP1 PUSH3 0x120 JUMP JUMPDEST SWAP1 DUP12 DUP11 SWAP5 AND SWAP2 PUSH1 0x0 DUP1 MSTORE DUP8 PUSH1 0x0 KECCAK256 SWAP3 PUSH1 0x0 JUMPDEST DUP10 DUP3 DUP3 LT PUSH3 0x58B JUMPI POP POP DUP5 GT PUSH3 0x571 JUMPI JUMPDEST POP POP POP DUP2 SHL ADD PUSH1 0x0 SSTORE PUSH3 0x135 JUMP JUMPDEST ADD MLOAD PUSH1 0x0 NOT PUSH1 0xF8 DUP5 PUSH1 0x3 SHL AND SHR NOT AND SWAP1 SSTORE CODESIZE DUP1 DUP1 PUSH3 0x562 JUMP JUMPDEST DUP4 DUP6 ADD MLOAD DUP7 SSTORE DUP14 SWAP8 SWAP1 SWAP6 ADD SWAP5 SWAP4 DUP5 ADD SWAP4 ADD PUSH3 0x54F JUMP JUMPDEST SWAP1 SWAP2 POP PUSH1 0x0 DUP1 MSTORE DUP6 PUSH1 0x0 KECCAK256 DUP9 DUP1 DUP6 ADD DUP8 SHR DUP3 ADD SWAP3 DUP9 DUP7 LT PUSH3 0x5EC JUMPI JUMPDEST SWAP2 DUP12 SWAP2 DUP7 SWAP6 SWAP5 SWAP4 ADD DUP9 SHR ADD SWAP2 JUMPDEST DUP3 DUP2 LT PUSH3 0x5DC JUMPI POP POP PUSH3 0x109 JUMP JUMPDEST PUSH1 0x0 DUP2 SSTORE DUP6 SWAP5 POP DUP12 SWAP2 ADD PUSH3 0x5CC JUMP JUMPDEST SWAP3 POP DUP2 SWAP3 PUSH3 0x5BF JUMP JUMPDEST SWAP2 PUSH1 0x7F AND SWAP2 PUSH3 0xF5 JUMP JUMPDEST DUP2 DUP2 ADD DUP4 ADD MLOAD DUP6 DUP3 ADD DUP5 ADD MSTORE DUP7 SWAP3 ADD PUSH3 0x86 JUMP JUMPDEST PUSH1 0x0 DUP1 REVERT JUMPDEST PUSH1 0x40 DUP1 MLOAD SWAP2 SWAP1 DUP3 ADD PUSH1 0x1 PUSH1 0x1 PUSH1 0x40 SHL SUB DUP2 GT DUP4 DUP3 LT OR PUSH3 0x399 JUMPI PUSH1 0x40 MSTORE JUMP JUMPDEST PUSH1 0x40 MLOAD SWAP2 SWAP1 PUSH1 0x1F ADD PUSH1 0x1F NOT AND DUP3 ADD PUSH1 0x1 PUSH1 0x1 PUSH1 0x40 SHL SUB DUP2 GT DUP4 DUP3 LT OR PUSH3 0x399 JUMPI PUSH1 0x40 MSTORE JUMP INVALID PUSH1 0xA0 PUSH1 0x40 DUP2 DUP2 MSTORE PUSH1 0x4 SWAP2 DUP3 CALLDATASIZE LT ISZERO PUSH2 0x2D JUMPI JUMPDEST POP POP POP CALLDATASIZE ISZERO PUSH2 0x25 JUMPI PUSH2 0x23 PUSH2 0x30D4 JUMP JUMPDEST STOP JUMPDEST PUSH2 0x23 PUSH2 0x30D4 JUMP JUMPDEST PUSH1 0x0 SWAP3 DUP4 CALLDATALOAD PUSH1 0xE0 SHR SWAP2 DUP3 PUSH4 0x1FFC9A7 EQ PUSH2 0x1CB4 JUMPI POP DUP2 PUSH4 0x6FDDE03 EQ PUSH2 0x1C0C JUMPI DUP2 PUSH4 0x81812FC EQ PUSH2 0x1BEC JUMPI DUP2 PUSH4 0x95EA7B3 EQ PUSH2 0x1A7E JUMPI DUP2 PUSH4 0xF7EE1EC EQ PUSH2 0x1A04 JUMPI DUP2 PUSH4 0x18160DDD EQ PUSH2 0x19E5 JUMPI DUP2 PUSH4 0x1C759B69 EQ PUSH2 0x1452 JUMPI DUP2 PUSH4 0x23B872DD EQ PUSH2 0x142D JUMPI DUP2 PUSH4 0x248A9CA3 EQ PUSH2 0x1402 JUMPI DUP2 PUSH4 0x28B60031 EQ PUSH2 0x13BA JUMPI DUP2 PUSH4 0x2F2FF15D EQ PUSH2 0x130D JUMPI DUP2 PUSH4 0x2F745C59 EQ PUSH2 0x1261 JUMPI DUP2 PUSH4 0x36568ABE EQ PUSH2 0x11CF JUMPI DUP2 PUSH4 0x3F4BA83A EQ PUSH2 0x1139 JUMPI DUP2 PUSH4 0x42842E0E EQ PUSH2 0x1105 JUMPI DUP2 PUSH4 0x4F6CCCE7 EQ PUSH2 0x1071 JUMPI DUP2 PUSH4 0x53C8388E EQ PUSH2 0xE53 JUMPI DUP2 PUSH4 0x55F804B3 EQ PUSH2 0xCDA JUMPI DUP2 PUSH4 0x5C975ABB EQ PUSH2 0xCB6 JUMPI DUP2 PUSH4 0x5F010CA1 EQ PUSH2 0xC8E JUMPI DUP2 PUSH4 0x6352211E EQ PUSH2 0xC5D JUMPI DUP2 PUSH4 0x70A08231 EQ PUSH2 0xC30 JUMPI DUP2 PUSH4 0x75B238FC EQ PUSH2 0xBF5 JUMPI DUP2 PUSH4 0x8456CB59 EQ PUSH2 0xB9A JUMPI DUP2 PUSH4 0x91D14854 EQ PUSH2 0xB53 JUMPI DUP2 PUSH4 0x95D89B41 EQ PUSH2 0xA70 JUMPI DUP2 PUSH4 0xA217FDDF EQ PUSH2 0xA55 JUMPI DUP2 PUSH4 0xA22CB465 EQ PUSH2 0x985 JUMPI DUP2 PUSH4 0xB07DBCDD EQ PUSH2 0x69A JUMPI DUP2 PUSH4 0xB88D4FDE EQ PUSH2 0x610 JUMPI DUP2 PUSH4 0xBD98DE16 EQ PUSH2 0x2C7 JUMPI DUP2 PUSH4 0xC87B56DD EQ PUSH2 0x28C JUMPI DUP2 PUSH4 0xD5391393 EQ PUSH2 0x251 JUMPI DUP2 PUSH4 0xD547741F EQ PUSH2 0x20E JUMPI POP PUSH4 0xE985E9C5 EQ PUSH2 0x1BE JUMPI DUP1 PUSH2 0x12 JUMP JUMPDEST CALLVALUE PUSH2 0x20A JUMPI DUP1 PUSH1 0x3 NOT CALLDATASIZE ADD SLT PUSH2 0x20A JUMPI PUSH1 0xFF DUP2 PUSH1 0x20 SWAP4 PUSH2 0x1DC PUSH2 0x1DB5 JUMP JUMPDEST PUSH2 0x1E4 PUSH2 0x1DD0 JUMP JUMPDEST PUSH1 0x1 PUSH1 0x1 PUSH1 0xA0 SHL SUB SWAP2 DUP3 AND DUP4 MSTORE PUSH1 0x5 DUP8 MSTORE DUP4 DUP4 KECCAK256 SWAP2 AND DUP3 MSTORE DUP6 MSTORE KECCAK256 SLOAD SWAP2 MLOAD SWAP2 AND ISZERO ISZERO DUP2 MSTORE RETURN JUMPDEST POP DUP1 REVERT JUMPDEST SWAP2 SWAP1 POP CALLVALUE PUSH2 0x24D JUMPI DUP1 PUSH1 0x3 NOT CALLDATASIZE ADD SLT PUSH2 0x24D JUMPI PUSH2 0x24A SWAP2 CALLDATALOAD PUSH2 0x245 PUSH1 0x1 PUSH2 0x233 PUSH2 0x1DD0 JUMP JUMPDEST SWAP4 DUP4 DUP8 MSTORE PUSH1 0xB PUSH1 0x20 MSTORE DUP7 KECCAK256 ADD SLOAD PUSH2 0x229C JUMP JUMPDEST PUSH2 0x23A7 JUMP JUMPDEST DUP1 RETURN JUMPDEST DUP3 DUP1 REVERT JUMPDEST POP POP CALLVALUE PUSH2 0x20A JUMPI DUP2 PUSH1 0x3 NOT CALLDATASIZE ADD SLT PUSH2 0x20A JUMPI PUSH1 0x20 SWAP1 MLOAD PUSH32 0x9F2DF0FED2C77648DE5860A4CC508CD0818C85B8B8A1AB4CEEEF8D981C8956A6 DUP2 MSTORE RETURN JUMPDEST DUP3 DUP5 CALLVALUE PUSH2 0x2C4 JUMPI PUSH1 0x20 CALLDATASIZE PUSH1 0x3 NOT ADD SLT PUSH2 0x2C4 JUMPI POP PUSH2 0x2AD PUSH2 0x2C0 SWAP3 CALLDATALOAD PUSH2 0x308A JUMP JUMPDEST SWAP1 MLOAD SWAP2 DUP3 SWAP2 PUSH1 0x20 DUP4 MSTORE PUSH1 0x20 DUP4 ADD SWAP1 PUSH2 0x1D90 JUMP JUMPDEST SUB SWAP1 RETURN JUMPDEST DUP1 REVERT JUMPDEST DUP4 DUP4 CALLVALUE PUSH2 0x20A JUMPI PUSH2 0x2D7 CALLDATASIZE PUSH2 0x207F JUMP JUMPDEST SWAP2 PUSH2 0x2E0 PUSH2 0x20AE JUMP JUMPDEST PUSH2 0x2E8 PUSH2 0x2C88 JUMP JUMPDEST PUSH1 0x0 DUP3 DUP2 MSTORE PUSH1 0x2 PUSH1 0x20 MSTORE PUSH1 0x40 SWAP1 KECCAK256 SLOAD PUSH2 0x30B SWAP1 PUSH1 0x1 PUSH1 0x1 PUSH1 0xA0 SHL SUB AND ISZERO ISZERO PUSH2 0x3047 JUMP JUMPDEST DUP2 DUP5 MSTORE PUSH1 0x20 SWAP3 PUSH1 0x10 DUP5 MSTORE PUSH1 0xFF PUSH1 0x3 DUP4 DUP8 KECCAK256 ADD SLOAD PUSH1 0xA0 SHR AND ISZERO PUSH2 0x5D5 JUMPI PUSH2 0x330 DUP4 PUSH2 0x24E0 JUMP JUMPDEST DUP4 DUP7 MSTORE PUSH1 0x10 DUP6 MSTORE DUP3 DUP7 KECCAK256 PUSH1 0x3 ADD DUP1 SLOAD PUSH1 0xFF PUSH1 0xA0 SHL NOT AND SWAP1 SSTORE SWAP1 PUSH2 0x352 DUP5 PUSH2 0x24E0 JUMP JUMPDEST PUSH1 0x1 PUSH1 0x1 PUSH1 0xA0 SHL SUB SWAP4 SWAP1 DUP5 DUP2 AND SWAP1 DUP2 PUSH2 0x554 JUMPI POP POP PUSH1 0x8 SLOAD DUP6 DUP9 MSTORE PUSH1 0x9 DUP8 MSTORE DUP2 DUP9 KECCAK256 SSTORE PUSH2 0x37E DUP6 PUSH2 0x2C65 JUMP JUMPDEST PUSH1 0x8 SLOAD PUSH1 0x0 NOT SWAP1 DUP2 DUP2 ADD SWAP1 DUP2 GT PUSH2 0x541 JUMPI DUP7 DUP10 MSTORE PUSH1 0x9 DUP9 MSTORE PUSH2 0x3A3 DUP4 DUP11 KECCAK256 SLOAD SWAP2 PUSH2 0x201A JUMP JUMPDEST SWAP1 SLOAD SWAP1 PUSH1 0x3 SHL SHR PUSH2 0x3D0 DUP2 PUSH2 0x3B7 DUP5 PUSH2 0x201A JUMP JUMPDEST SWAP1 SWAP2 SWAP1 DUP3 SLOAD SWAP1 PUSH1 0x3 SHL SWAP2 DUP3 SHL SWAP2 PUSH1 0x0 NOT SWAP1 SHL NOT AND OR SWAP1 SSTORE JUMP JUMPDEST DUP10 MSTORE PUSH1 0x9 DUP9 MSTORE DUP3 DUP10 KECCAK256 SSTORE DUP6 DUP9 MSTORE DUP8 DUP3 DUP2 KECCAK256 SSTORE PUSH1 0x8 SLOAD DUP1 ISZERO PUSH2 0x52E JUMPI SWAP2 DUP7 DUP10 DUP4 DUP13 PUSH32 0x8710D09AA0857D384A35E0FD4AFDD7DE1DBDB0D23360A9BE557496173992B7DE SWAP10 SWAP9 SWAP8 SWAP6 PUSH2 0x4C9 SWAP8 ADD PUSH2 0x423 DUP2 PUSH2 0x201A JUMP JUMPDEST DUP5 DUP3 SLOAD SWAP2 PUSH1 0x3 SHL SHL NOT AND SWAP1 SSTORE PUSH1 0x8 SSTORE PUSH2 0x43B DUP5 PUSH2 0x24E0 JUMP JUMPDEST SWAP1 DUP5 DUP5 MSTORE DUP13 MSTORE DUP9 DUP6 DUP5 KECCAK256 SWAP2 PUSH12 0xFFFFFFFFFFFFFFFFFFFFFFFF PUSH1 0xA0 SHL SWAP3 DUP4 DUP2 SLOAD AND SWAP1 SSTORE AND SWAP2 DUP3 DUP5 MSTORE PUSH1 0x3 DUP14 MSTORE DUP6 DUP5 KECCAK256 SWAP1 DUP2 SLOAD ADD SWAP1 SSTORE DUP4 DUP4 MSTORE PUSH1 0x2 DUP13 MSTORE DUP5 DUP4 KECCAK256 SWAP1 DUP2 SLOAD AND SWAP1 SSTORE PUSH32 0xDDF252AD1BE2C89B69C2B068FC378DAA952BA7F163C4A11628F55A4DF523B3EF DUP3 DUP1 LOG4 PUSH1 0xA DUP9 MSTORE PUSH2 0x4B3 DUP2 DUP11 KECCAK256 SLOAD PUSH2 0x1DE6 JUMP JUMPDEST PUSH2 0x4CF JUMPI JUMPDEST MLOAD SWAP4 DUP5 SWAP4 DUP9 DUP6 MSTORE AND SWAP7 DUP4 ADD SWAP1 PUSH2 0x1D90 JUMP JUMPDEST SUB SWAP1 LOG3 DUP1 RETURN JUMPDEST DUP7 DUP10 MSTORE PUSH1 0xA DUP9 MSTORE DUP9 DUP2 DUP2 KECCAK256 PUSH2 0x4E4 DUP2 SLOAD PUSH2 0x1DE6 JUMP JUMPDEST DUP1 PUSH2 0x4F2 JUMPI JUMPDEST POP POP POP PUSH2 0x4B8 JUMP JUMPDEST DUP3 PUSH1 0x1F DUP3 GT PUSH1 0x1 EQ PUSH2 0x50A JUMPI POP POP SSTORE JUMPDEST DUP9 DUP11 DUP1 PUSH2 0x4EA JUMP JUMPDEST SWAP1 SWAP2 DUP1 DUP3 MSTORE PUSH2 0x527 PUSH1 0x1F DUP14 DUP5 KECCAK256 SWAP5 ADD PUSH1 0x5 SHR DUP5 ADD PUSH1 0x1 DUP6 ADD PUSH2 0x2C4E JUMP JUMPDEST SSTORE SSTORE PUSH2 0x502 JUMP JUMPDEST PUSH4 0x4E487B71 PUSH1 0xE0 SHL DUP10 MSTORE PUSH1 0x31 DUP11 MSTORE PUSH1 0x24 DUP10 REVERT JUMPDEST PUSH4 0x4E487B71 PUSH1 0xE0 SHL DUP10 MSTORE PUSH1 0x11 DUP11 MSTORE PUSH1 0x24 DUP10 REVERT JUMPDEST PUSH2 0x55D SWAP1 PUSH2 0x241D JUMP JUMPDEST PUSH1 0x0 NOT DUP2 ADD SWAP2 SWAP1 DUP3 GT PUSH2 0x541 JUMPI DUP7 DUP10 MSTORE PUSH1 0x7 DUP9 MSTORE DUP3 DUP10 KECCAK256 SLOAD DUP3 DUP2 SUB PUSH2 0x59E JUMPI JUMPDEST POP DUP7 DUP10 MSTORE DUP9 DUP4 DUP2 KECCAK256 SSTORE DUP9 MSTORE PUSH1 0x6 DUP8 MSTORE DUP2 DUP9 KECCAK256 SWAP1 DUP9 MSTORE DUP7 MSTORE DUP7 DUP2 DUP2 KECCAK256 SSTORE PUSH2 0x37E JUMP JUMPDEST DUP2 DUP11 MSTORE PUSH1 0x6 DUP10 MSTORE DUP4 DUP11 KECCAK256 DUP4 DUP12 MSTORE DUP10 MSTORE DUP4 DUP11 KECCAK256 SLOAD DUP3 DUP12 MSTORE PUSH1 0x6 DUP11 MSTORE DUP5 DUP12 KECCAK256 DUP3 DUP13 MSTORE DUP11 MSTORE DUP1 DUP6 DUP13 KECCAK256 SSTORE DUP11 MSTORE PUSH1 0x7 DUP10 MSTORE DUP4 DUP11 KECCAK256 SSTORE DUP11 PUSH2 0x57D JUMP JUMPDEST DUP2 MLOAD PUSH3 0x461BCD PUSH1 0xE5 SHL DUP2 MSTORE DUP1 DUP8 ADD DUP6 SWAP1 MSTORE PUSH1 0x15 PUSH1 0x24 DUP3 ADD MSTORE PUSH21 0x151BDAD95B88185B1C9958591E481C995D9BDAD959 PUSH1 0x5A SHL PUSH1 0x44 DUP3 ADD MSTORE PUSH1 0x64 SWAP1 REVERT JUMPDEST DUP4 SWAP1 CALLVALUE PUSH2 0x20A JUMPI PUSH1 0x80 CALLDATASIZE PUSH1 0x3 NOT ADD SLT PUSH2 0x20A JUMPI PUSH2 0x62B PUSH2 0x1DB5 JUMP JUMPDEST SWAP1 PUSH2 0x634 PUSH2 0x1DD0 JUMP JUMPDEST SWAP2 PUSH1 0x44 CALLDATALOAD PUSH1 0x64 CALLDATALOAD SWAP4 PUSH1 0x1 PUSH1 0x1 PUSH1 0x40 SHL SUB DUP6 GT PUSH2 0x696 JUMPI CALLDATASIZE PUSH1 0x23 DUP7 ADD SLT ISZERO PUSH2 0x696 JUMPI PUSH2 0x66E PUSH2 0x691 SWAP5 DUP7 PUSH1 0x24 PUSH2 0x24A SWAP9 CALLDATASIZE SWAP4 ADD CALLDATALOAD SWAP2 ADD PUSH2 0x1F4E JUMP JUMPDEST SWAP3 PUSH2 0x681 PUSH2 0x67C DUP5 CALLER PUSH2 0x2616 JUMP JUMPDEST PUSH2 0x2541 JUMP JUMPDEST PUSH2 0x68C DUP4 DUP4 DUP4 PUSH2 0x26DE JUMP JUMPDEST PUSH2 0x2A23 JUMP JUMPDEST PUSH2 0x25F6 JUMP JUMPDEST DUP6 DUP1 REVERT JUMPDEST DUP3 DUP5 CALLVALUE PUSH2 0x2C4 JUMPI PUSH2 0x6AA CALLDATASIZE PUSH2 0x1FA3 JUMP JUMPDEST SWAP4 PUSH2 0x6B3 PUSH2 0x20AE JUMP JUMPDEST PUSH2 0x6BB PUSH2 0x2C88 JUMP JUMPDEST PUSH1 0x1 PUSH1 0x1 PUSH1 0xA0 SHL SUB DUP4 AND SWAP2 DUP3 ISZERO PUSH2 0x94E JUMPI PUSH2 0x6D7 DUP2 ISZERO ISZERO PUSH2 0x2BC9 JUMP JUMPDEST PUSH2 0x6E3 DUP7 MLOAD ISZERO ISZERO PUSH2 0x2C0A JUMP JUMPDEST DUP5 MSTORE PUSH1 0x20 SWAP5 PUSH1 0xF DUP7 MSTORE DUP2 DUP6 KECCAK256 SLOAD SWAP4 DUP5 ISZERO PUSH2 0x90B JUMPI DUP5 DUP7 MSTORE PUSH1 0x10 DUP8 MSTORE PUSH1 0xFF PUSH1 0x3 DUP5 DUP9 KECCAK256 ADD SLOAD PUSH1 0xA0 SHR AND PUSH2 0x8C8 JUMPI DUP5 DUP7 MSTORE PUSH1 0x10 DUP8 MSTORE PUSH1 0x1 DUP1 DUP5 DUP9 KECCAK256 ADD SWAP1 DUP4 MLOAD SWAP1 PUSH1 0x1 PUSH1 0x1 PUSH1 0x40 SHL SUB DUP3 GT PUSH2 0x8B5 JUMPI SWAP1 DUP3 SWAP2 PUSH2 0x740 DUP10 SWAP8 SWAP7 SWAP6 SWAP5 SLOAD PUSH2 0x1DE6 JUMP JUMPDEST DUP12 PUSH1 0x1F DUP3 GT PUSH2 0x87C JUMPI JUMPDEST POP POP DUP11 DUP11 PUSH1 0x1F DUP5 GT PUSH1 0x1 EQ PUSH2 0x7EB JUMPI SWAP4 DUP4 DUP1 PUSH2 0x7D2 SWAP6 DUP12 SWAP6 PUSH2 0x7D8 SWAP10 SWAP6 PUSH32 0xE174B9AD4EE8D72C4F116B9005454BA0037B94FCCEDCC2BF686CBFEC8960538F SWAP13 SWAP12 SWAP10 SWAP4 PUSH2 0x7E0 JUMPI JUMPDEST POP SHL SWAP2 PUSH1 0x0 NOT SWAP1 PUSH1 0x3 SHL SHR NOT AND OR SWAP1 SSTORE JUMPDEST DUP2 DUP12 MSTORE PUSH1 0x10 DUP13 MSTORE DUP6 DUP12 KECCAK256 PUSH1 0x3 DUP2 ADD DUP1 SLOAD PUSH1 0x1 PUSH1 0x1 PUSH1 0xA8 SHL SUB NOT AND CALLER OR PUSH1 0x1 PUSH1 0xA0 SHL OR SWAP1 SSTORE TIMESTAMP PUSH1 0x2 SWAP1 SWAP2 ADD SSTORE PUSH2 0x2CCC JUMP JUMPDEST DUP5 PUSH2 0x2E6E JUMP JUMPDEST MLOAD SWAP5 DUP1 LOG3 DUP2 MSTORE RETURN JUMPDEST DUP10 ADD MLOAD SWAP3 POP CODESIZE PUSH2 0x791 JUMP JUMPDEST POP DUP4 DUP12 MSTORE DUP12 DUP12 KECCAK256 SWAP2 SWAP3 SWAP2 SWAP1 PUSH1 0x1F NOT DUP4 AND DUP13 DUP15 JUMPDEST DUP3 DUP3 LT PUSH2 0x864 JUMPI POP POP SWAP4 DUP4 PUSH2 0x7D8 SWAP8 SWAP4 PUSH32 0xE174B9AD4EE8D72C4F116B9005454BA0037B94FCCEDCC2BF686CBFEC8960538F SWAP11 SWAP10 SWAP8 SWAP4 DUP13 SWAP7 PUSH2 0x7D2 SWAP9 LT PUSH2 0x84B JUMPI JUMPDEST POP POP DUP2 SHL ADD SWAP1 SSTORE PUSH2 0x7A2 JUMP JUMPDEST DUP9 ADD MLOAD PUSH1 0x0 NOT PUSH1 0xF8 DUP5 PUSH1 0x3 SHL AND SHR NOT AND SWAP1 SSTORE DUP16 DUP1 PUSH2 0x83F JUMP JUMPDEST DUP10 DUP5 ADD MLOAD DUP6 SSTORE DUP14 SWAP12 POP SWAP4 DUP7 ADD SWAP4 SWAP3 DUP4 ADD SWAP3 ADD DUP15 PUSH2 0x7FE JUMP JUMPDEST DUP5 DUP13 MSTORE DUP1 DUP13 KECCAK256 PUSH2 0x8A4 SWAP3 PUSH1 0x1F DUP7 ADD PUSH1 0x5 SHR DUP3 ADD SWAP3 DUP7 LT PUSH2 0x8AB JUMPI JUMPDEST PUSH1 0x1F ADD PUSH1 0x5 SHR ADD SWAP1 PUSH2 0x2C4E JUMP JUMPDEST DUP12 DUP12 PUSH2 0x74A JUMP JUMPDEST SWAP1 SWAP2 POP DUP2 SWAP1 PUSH2 0x897 JUMP JUMPDEST PUSH4 0x4E487B71 PUSH1 0xE0 SHL DUP10 MSTORE PUSH1 0x41 DUP12 MSTORE PUSH1 0x24 DUP10 REVERT JUMPDEST DUP3 MLOAD PUSH3 0x461BCD PUSH1 0xE5 SHL DUP2 MSTORE DUP1 DUP10 ADD DUP9 SWAP1 MSTORE PUSH1 0x17 PUSH1 0x24 DUP3 ADD MSTORE PUSH32 0x546F6B656E20697320616C726561647920616374697665000000000000000000 PUSH1 0x44 DUP3 ADD MSTORE PUSH1 0x64 SWAP1 REVERT JUMPDEST DUP3 MLOAD PUSH3 0x461BCD PUSH1 0xE5 SHL DUP2 MSTORE DUP1 DUP10 ADD DUP9 SWAP1 MSTORE PUSH1 0x17 PUSH1 0x24 DUP3 ADD MSTORE PUSH32 0x4E6F20746F6B656E20666F722074686973206F72646572000000000000000000 PUSH1 0x44 DUP3 ADD MSTORE PUSH1 0x64 SWAP1 REVERT JUMPDEST DUP2 MLOAD PUSH3 0x461BCD PUSH1 0xE5 SHL DUP2 MSTORE PUSH1 0x20 DUP2 DUP10 ADD MSTORE PUSH1 0x11 PUSH1 0x24 DUP3 ADD MSTORE PUSH17 0x125B9D985B1A59081C9958DA5C1A595B9D PUSH1 0x7A SHL PUSH1 0x44 DUP3 ADD MSTORE PUSH1 0x64 SWAP1 REVERT JUMPDEST SWAP2 SWAP1 POP CALLVALUE PUSH2 0x24D JUMPI DUP1 PUSH1 0x3 NOT CALLDATASIZE ADD SLT PUSH2 0x24D JUMPI PUSH2 0x9A0 PUSH2 0x1DB5 JUMP JUMPDEST SWAP1 PUSH1 0x24 CALLDATALOAD SWAP2 DUP3 ISZERO ISZERO DUP1 SWAP4 SUB PUSH2 0xA51 JUMPI PUSH1 0x1 PUSH1 0x1 PUSH1 0xA0 SHL SUB AND SWAP3 CALLER DUP5 EQ PUSH2 0xA0F JUMPI POP CALLER DUP5 MSTORE PUSH1 0x5 PUSH1 0x20 MSTORE DUP1 DUP5 KECCAK256 DUP4 DUP6 MSTORE PUSH1 0x20 MSTORE DUP1 DUP5 KECCAK256 PUSH1 0xFF NOT DUP2 SLOAD AND PUSH1 0xFF DUP5 AND OR SWAP1 SSTORE MLOAD SWAP1 DUP2 MSTORE PUSH32 0x17307EAB39AB6107E8899845AD3D59BD9653F200F220920489CA2B5937696C31 PUSH1 0x20 CALLER SWAP3 LOG3 DUP1 RETURN JUMPDEST PUSH1 0x20 PUSH1 0x64 SWAP3 MLOAD SWAP2 PUSH3 0x461BCD PUSH1 0xE5 SHL DUP4 MSTORE DUP3 ADD MSTORE PUSH1 0x19 PUSH1 0x24 DUP3 ADD MSTORE PUSH32 0x4552433732313A20617070726F766520746F2063616C6C657200000000000000 PUSH1 0x44 DUP3 ADD MSTORE REVERT JUMPDEST DUP5 DUP1 REVERT JUMPDEST POP POP CALLVALUE PUSH2 0x20A JUMPI DUP2 PUSH1 0x3 NOT CALLDATASIZE ADD SLT PUSH2 0x20A JUMPI MLOAD SWAP1 DUP2 MSTORE PUSH1 0x20 SWAP1 RETURN JUMPDEST POP POP CALLVALUE PUSH2 0x20A JUMPI DUP2 PUSH1 0x3 NOT CALLDATASIZE ADD SLT PUSH2 0x20A JUMPI DUP1 MLOAD SWAP1 DUP3 PUSH1 0x1 DUP1 SLOAD SWAP2 PUSH2 0xA94 DUP4 PUSH2 0x1DE6 JUMP JUMPDEST DUP1 DUP7 MSTORE SWAP3 DUP3 DUP2 AND SWAP1 DUP2 ISZERO PUSH2 0xB2B JUMPI POP PUSH1 0x1 EQ PUSH2 0xACF JUMPI JUMPDEST POP POP POP PUSH2 0xABD DUP3 PUSH2 0x2C0 SWAP5 SUB DUP4 PUSH2 0x1E6C JUMP JUMPDEST MLOAD SWAP2 DUP3 SWAP2 PUSH1 0x20 DUP4 MSTORE PUSH1 0x20 DUP4 ADD SWAP1 PUSH2 0x1D90 JUMP JUMPDEST SWAP5 POP DUP1 DUP6 MSTORE PUSH32 0xB10E2D527612073B26EECDFD717E6A320CF44B4AFAC2B0732D9FCBE2B7FA0CF6 JUMPDEST DUP3 DUP7 LT PUSH2 0xB13 JUMPI POP POP POP PUSH2 0xABD DUP3 PUSH1 0x20 PUSH2 0x2C0 SWAP6 DUP3 ADD ADD SWAP5 PUSH2 0xAAB JUMP JUMPDEST DUP1 SLOAD PUSH1 0x20 DUP8 DUP8 ADD DUP2 ADD SWAP2 SWAP1 SWAP2 MSTORE SWAP1 SWAP6 ADD SWAP5 DUP2 ADD PUSH2 0xAF6 JUMP JUMPDEST PUSH2 0x2C0 SWAP8 POP DUP7 SWAP4 POP PUSH1 0x20 SWAP3 POP PUSH2 0xABD SWAP5 SWAP2 POP PUSH1 0xFF NOT AND DUP3 DUP5 ADD MSTORE ISZERO ISZERO PUSH1 0x5 SHL DUP3 ADD ADD SWAP5 PUSH2 0xAAB JUMP JUMPDEST SWAP1 POP CALLVALUE PUSH2 0x24D JUMPI DUP2 PUSH1 0x3 NOT CALLDATASIZE ADD SLT PUSH2 0x24D JUMPI DUP2 PUSH1 0x20 SWAP4 PUSH1 0xFF SWAP3 PUSH2 0xB74 PUSH2 0x1DD0 JUMP JUMPDEST SWAP1 CALLDATALOAD DUP3 MSTORE PUSH1 0xB DUP7 MSTORE DUP3 DUP3 KECCAK256 PUSH1 0x1 PUSH1 0x1 PUSH1 0xA0 SHL SUB SWAP1 SWAP2 AND DUP3 MSTORE DUP6 MSTORE KECCAK256 SLOAD SWAP2 MLOAD SWAP2 AND ISZERO ISZERO DUP2 MSTORE RETURN JUMPDEST POP POP CALLVALUE PUSH2 0x20A JUMPI DUP2 PUSH1 0x3 NOT CALLDATASIZE ADD SLT PUSH2 0x20A JUMPI PUSH1 0x20 PUSH32 0x62E78CEA01BEE320CD4E420270B5EA74000D11B0C9F74754EBDBFC544B05A258 SWAP2 PUSH2 0xBD8 PUSH2 0x20AE JUMP JUMPDEST PUSH2 0xBE0 PUSH2 0x2C88 JUMP JUMPDEST PUSH1 0x1 PUSH1 0xFF NOT PUSH1 0xD SLOAD AND OR PUSH1 0xD SSTORE MLOAD CALLER DUP2 MSTORE LOG1 DUP1 RETURN JUMPDEST POP POP CALLVALUE PUSH2 0x20A JUMPI DUP2 PUSH1 0x3 NOT CALLDATASIZE ADD SLT PUSH2 0x20A JUMPI PUSH1 0x20 SWAP1 MLOAD PUSH32 0xA49807205CE4D355092EF5A8A18F56E8913CF4A201FBE287825B095693C21775 DUP2 MSTORE RETURN JUMPDEST POP POP CALLVALUE PUSH2 0x20A JUMPI PUSH1 0x20 CALLDATASIZE PUSH1 0x3 NOT ADD SLT PUSH2 0x20A JUMPI PUSH1 0x20 SWAP1 PUSH2 0xC56 PUSH2 0xC51 PUSH2 0x1DB5 JUMP JUMPDEST PUSH2 0x241D JUMP JUMPDEST SWAP1 MLOAD SWAP1 DUP2 MSTORE RETURN JUMPDEST DUP3 DUP5 CALLVALUE PUSH2 0x2C4 JUMPI PUSH1 0x20 CALLDATASIZE PUSH1 0x3 NOT ADD SLT PUSH2 0x2C4 JUMPI POP PUSH2 0xC7D PUSH1 0x20 SWAP3 CALLDATALOAD PUSH2 0x24E0 JUMP JUMPDEST SWAP1 MLOAD PUSH1 0x1 PUSH1 0x1 PUSH1 0xA0 SHL SUB SWAP1 SWAP2 AND DUP2 MSTORE RETURN JUMPDEST SWAP1 POP CALLVALUE PUSH2 0x24D JUMPI PUSH1 0x20 CALLDATASIZE PUSH1 0x3 NOT ADD SLT PUSH2 0x24D JUMPI PUSH1 0x20 SWAP3 DUP3 SWAP2 CALLDATALOAD DUP2 MSTORE PUSH1 0xF DUP5 MSTORE KECCAK256 SLOAD SWAP1 MLOAD SWAP1 DUP2 MSTORE RETURN JUMPDEST POP POP CALLVALUE PUSH2 0x20A JUMPI DUP2 PUSH1 0x3 NOT CALLDATASIZE ADD SLT PUSH2 0x20A JUMPI PUSH1 0x20 SWAP1 PUSH1 0xFF PUSH1 0xD SLOAD AND SWAP1 MLOAD SWAP1 ISZERO ISZERO DUP2 MSTORE RETURN JUMPDEST DUP4 CALLVALUE PUSH2 0x2C4 JUMPI PUSH1 0x20 DUP1 PUSH1 0x3 NOT CALLDATASIZE ADD SLT PUSH2 0x20A JUMPI PUSH1 0x1 PUSH1 0x1 PUSH1 0x40 SHL SUB SWAP1 DUP4 CALLDATALOAD DUP3 DUP2 GT PUSH2 0xE4F JUMPI PUSH2 0xD0C SWAP1 CALLDATASIZE SWAP1 DUP7 ADD PUSH2 0x1F85 JUMP JUMPDEST SWAP4 PUSH2 0xD15 PUSH2 0x20AE JUMP JUMPDEST DUP5 MLOAD SWAP3 DUP4 GT PUSH2 0xE3C JUMPI POP PUSH2 0xD2A PUSH1 0x12 SLOAD PUSH2 0x1DE6 JUMP JUMPDEST PUSH1 0x1F DUP2 GT PUSH2 0xDEF JUMPI JUMPDEST POP DUP1 PUSH1 0x1F DUP4 GT PUSH1 0x1 EQ PUSH2 0xD6E JUMPI POP DUP3 SWAP4 DUP3 SWAP4 SWAP3 PUSH2 0xD63 JUMPI JUMPDEST POP POP DUP2 PUSH1 0x1 SHL SWAP2 PUSH1 0x0 NOT SWAP1 PUSH1 0x3 SHL SHR NOT AND OR PUSH1 0x12 SSTORE DUP1 RETURN JUMPDEST ADD MLOAD SWAP1 POP DUP4 DUP1 PUSH2 0xD4B JUMP JUMPDEST PUSH1 0x12 DUP5 MSTORE PUSH1 0x1F NOT DUP4 AND SWAP5 PUSH32 0xBB8A6A4669BA250D26CD7A459ECA9D215F8307E33AEBE50379BC5A3617EC3444 SWAP3 SWAP2 DUP6 SWAP1 JUMPDEST DUP8 DUP3 LT PUSH2 0xDD7 JUMPI POP POP DUP4 PUSH1 0x1 SWAP6 SWAP7 LT PUSH2 0xDBE JUMPI JUMPDEST POP POP POP DUP2 SHL ADD PUSH1 0x12 SSTORE DUP1 RETURN JUMPDEST ADD MLOAD PUSH1 0x0 NOT PUSH1 0xF8 DUP5 PUSH1 0x3 SHL AND SHR NOT AND SWAP1 SSTORE DUP4 DUP1 DUP1 PUSH2 0xDB2 JUMP JUMPDEST DUP1 PUSH1 0x1 DUP6 SWAP7 DUP3 SWAP5 SWAP7 DUP7 ADD MLOAD DUP2 SSTORE ADD SWAP6 ADD SWAP4 ADD SWAP1 PUSH2 0xD9E JUMP JUMPDEST PUSH2 0xE36 SWAP1 PUSH1 0x12 DUP6 MSTORE PUSH32 0xBB8A6A4669BA250D26CD7A459ECA9D215F8307E33AEBE50379BC5A3617EC3444 PUSH1 0x1F DUP6 ADD PUSH1 0x5 SHR DUP2 ADD SWAP2 DUP5 DUP7 LT PUSH2 0x8AB JUMPI PUSH1 0x1F ADD PUSH1 0x5 SHR ADD SWAP1 PUSH2 0x2C4E JUMP JUMPDEST DUP5 PUSH2 0xD33 JUMP JUMPDEST PUSH4 0x4E487B71 PUSH1 0xE0 SHL DUP5 MSTORE PUSH1 0x41 SWAP1 MSTORE PUSH1 0x24 DUP4 REVERT JUMPDEST DUP4 DUP1 REVERT JUMPDEST DUP4 DUP4 CALLVALUE PUSH2 0x20A JUMPI PUSH2 0xE63 CALLDATASIZE PUSH2 0x207F JUMP JUMPDEST SWAP1 SWAP2 PUSH2 0xE6D PUSH2 0x20AE JUMP JUMPDEST PUSH2 0xE75 PUSH2 0x2C88 JUMP JUMPDEST PUSH1 0x0 DUP4 DUP2 MSTORE PUSH1 0x2 PUSH1 0x20 MSTORE PUSH1 0x40 SWAP1 KECCAK256 SLOAD PUSH2 0xE98 SWAP1 PUSH1 0x1 PUSH1 0x1 PUSH1 0xA0 SHL SUB AND ISZERO ISZERO PUSH2 0x3047 JUMP JUMPDEST DUP2 MLOAD ISZERO PUSH2 0x1038 JUMPI PUSH2 0xEA8 DUP4 PUSH2 0x308A JUMP JUMPDEST SWAP2 PUSH2 0xEB3 DUP2 DUP6 PUSH2 0x2E6E JUMP JUMPDEST DUP4 DUP6 MSTORE PUSH1 0x20 SWAP6 PUSH1 0x10 DUP8 MSTORE PUSH1 0x1 SWAP1 DUP2 DUP5 DUP9 KECCAK256 ADD SWAP2 DUP4 MLOAD SWAP2 PUSH1 0x1 PUSH1 0x1 PUSH1 0x40 SHL SUB DUP4 GT PUSH2 0x1025 JUMPI POP PUSH2 0xEE2 DUP4 SLOAD PUSH2 0x1DE6 JUMP JUMPDEST PUSH1 0x1F DUP2 GT PUSH2 0xFF7 JUMPI JUMPDEST POP DUP9 PUSH1 0x1F DUP4 GT PUSH1 0x1 EQ PUSH2 0xF6F JUMPI SWAP2 DUP1 DUP1 DUP11 SWAP12 SWAP6 SWAP4 PUSH2 0xF5E SWAP8 SWAP6 PUSH32 0x61A360D9CCA9814BFB3679A5023B287D3343DF80BDE4718A26B757AECC9DCE51 SWAP12 SWAP13 SWAP4 PUSH2 0xF64 JUMPI JUMPDEST POP SHL SWAP2 PUSH1 0x0 NOT SWAP1 PUSH1 0x3 SHL SHR NOT AND OR SWAP1 SSTORE JUMPDEST PUSH2 0xF51 DUP5 MLOAD SWAP6 DUP6 DUP8 SWAP7 DUP8 MSTORE DUP7 ADD SWAP1 PUSH2 0x1D90 JUMP JUMPDEST SWAP2 DUP5 DUP4 SUB SWAP1 DUP6 ADD MSTORE PUSH2 0x1D90 JUMP JUMPDEST SUB SWAP1 LOG2 DUP1 RETURN JUMPDEST DUP7 ADD MLOAD SWAP3 POP DUP14 PUSH2 0xF2D JUMP JUMPDEST DUP4 DUP10 MSTORE DUP10 DUP10 KECCAK256 SWAP2 SWAP3 SWAP2 SWAP1 PUSH1 0x1F NOT DUP4 AND DUP11 JUMPDEST DUP2 DUP2 LT PUSH2 0xFE2 JUMPI POP SWAP2 DUP4 SWAP2 PUSH32 0x61A360D9CCA9814BFB3679A5023B287D3343DF80BDE4718A26B757AECC9DCE51 SWAP11 SWAP12 SWAP13 SWAP7 SWAP5 PUSH2 0xF5E SWAP9 SWAP7 SWAP5 LT PUSH2 0xFC9 JUMPI JUMPDEST POP POP DUP2 SHL ADD SWAP1 SSTORE PUSH2 0xF3E JUMP JUMPDEST DUP6 ADD MLOAD PUSH1 0x0 NOT PUSH1 0xF8 DUP5 PUSH1 0x3 SHL AND SHR NOT AND SWAP1 SSTORE DUP12 DUP1 PUSH2 0xFBD JUMP JUMPDEST DUP8 DUP4 ADD MLOAD DUP5 SSTORE SWAP3 DUP6 ADD SWAP3 SWAP2 DUP13 ADD SWAP2 DUP13 ADD PUSH2 0xF80 JUMP JUMPDEST PUSH2 0x101F SWAP1 DUP5 DUP11 MSTORE DUP11 DUP11 KECCAK256 PUSH1 0x1F DUP6 ADD PUSH1 0x5 SHR DUP2 ADD SWAP2 DUP13 DUP7 LT PUSH2 0x8AB JUMPI PUSH1 0x1F ADD PUSH1 0x5 SHR ADD SWAP1 PUSH2 0x2C4E JUMP JUMPDEST DUP10 PUSH2 0xEEB JUMP JUMPDEST PUSH4 0x4E487B71 PUSH1 0xE0 SHL DUP10 MSTORE PUSH1 0x41 SWAP1 MSTORE PUSH1 0x24 DUP9 REVERT JUMPDEST MLOAD PUSH3 0x461BCD PUSH1 0xE5 SHL DUP2 MSTORE PUSH1 0x20 DUP2 DUP7 ADD MSTORE PUSH1 0x14 PUSH1 0x24 DUP3 ADD MSTORE PUSH20 0x125B9D985B1A59081B595D1859185D1848155493 PUSH1 0x62 SHL PUSH1 0x44 DUP3 ADD MSTORE PUSH1 0x64 SWAP1 REVERT JUMPDEST SWAP1 POP DUP3 CALLVALUE PUSH2 0x2C4 JUMPI PUSH1 0x20 CALLDATASIZE PUSH1 0x3 NOT ADD SLT PUSH2 0x2C4 JUMPI POP DUP1 CALLDATALOAD SWAP1 PUSH1 0x8 SLOAD DUP3 LT ISZERO PUSH2 0x10AD JUMPI PUSH1 0x20 DUP4 PUSH2 0x109F DUP5 PUSH2 0x201A JUMP JUMPDEST SWAP2 SWAP1 SLOAD SWAP1 MLOAD SWAP2 PUSH1 0x3 SHL SHR DUP2 MSTORE RETURN JUMPDEST PUSH1 0x84 SWAP1 PUSH1 0x20 DUP5 MLOAD SWAP2 PUSH3 0x461BCD PUSH1 0xE5 SHL DUP4 MSTORE DUP3 ADD MSTORE PUSH1 0x2C PUSH1 0x24 DUP3 ADD MSTORE PUSH32 0x455243373231456E756D657261626C653A20676C6F62616C20696E646578206F PUSH1 0x44 DUP3 ADD MSTORE PUSH12 0x7574206F6620626F756E6473 PUSH1 0xA0 SHL PUSH1 0x64 DUP3 ADD MSTORE REVERT JUMPDEST POP POP CALLVALUE PUSH2 0x20A JUMPI PUSH2 0x691 PUSH2 0x24A SWAP2 PUSH2 0x111C CALLDATASIZE PUSH2 0x1FE5 JUMP JUMPDEST SWAP2 SWAP3 MLOAD SWAP3 PUSH2 0x1129 DUP5 PUSH2 0x1E20 JUMP JUMPDEST DUP7 DUP5 MSTORE PUSH2 0x681 PUSH2 0x67C DUP5 CALLER PUSH2 0x2616 JUMP JUMPDEST SWAP1 POP CALLVALUE PUSH2 0x24D JUMPI DUP3 PUSH1 0x3 NOT CALLDATASIZE ADD SLT PUSH2 0x24D JUMPI PUSH2 0x1153 PUSH2 0x20AE JUMP JUMPDEST PUSH1 0xD SLOAD SWAP1 PUSH1 0xFF DUP3 AND ISZERO PUSH2 0x1195 JUMPI POP PUSH1 0xFF NOT AND PUSH1 0xD SSTORE MLOAD CALLER DUP2 MSTORE PUSH32 0x5DB9EE0A495BF2E6FF9C91A7834C1BA4FDD244A5E8AA4E537BD38AEAE4B073AA SWAP1 PUSH1 0x20 SWAP1 LOG1 DUP1 RETURN JUMPDEST PUSH1 0x64 SWAP1 PUSH1 0x20 DUP5 MLOAD SWAP2 PUSH3 0x461BCD PUSH1 0xE5 SHL DUP4 MSTORE DUP3 ADD MSTORE PUSH1 0x14 PUSH1 0x24 DUP3 ADD MSTORE PUSH20 0x14185D5CD8589B194E881B9BDD081C185D5CD959 PUSH1 0x62 SHL PUSH1 0x44 DUP3 ADD MSTORE REVERT JUMPDEST DUP4 SWAP2 POP CALLVALUE PUSH2 0x20A JUMPI DUP3 PUSH1 0x3 NOT CALLDATASIZE ADD SLT PUSH2 0x20A JUMPI PUSH2 0x11EA PUSH2 0x1DD0 JUMP JUMPDEST SWAP1 CALLER PUSH1 0x1 PUSH1 0x1 PUSH1 0xA0 SHL SUB DUP4 AND SUB PUSH2 0x1206 JUMPI SWAP1 PUSH2 0x24A SWAP2 CALLDATALOAD PUSH2 0x23A7 JUMP JUMPDEST PUSH1 0x84 SWAP1 PUSH1 0x20 DUP6 MLOAD SWAP2 PUSH3 0x461BCD PUSH1 0xE5 SHL DUP4 MSTORE DUP3 ADD MSTORE PUSH1 0x2F PUSH1 0x24 DUP3 ADD MSTORE PUSH32 0x416363657373436F6E74726F6C3A2063616E206F6E6C792072656E6F756E6365 PUSH1 0x44 DUP3 ADD MSTORE PUSH15 0x103937B632B9903337B91039B2B633 PUSH1 0x89 SHL PUSH1 0x64 DUP3 ADD MSTORE REVERT JUMPDEST DUP3 DUP5 CALLVALUE PUSH2 0x2C4 JUMPI DUP2 PUSH1 0x3 NOT CALLDATASIZE ADD SLT PUSH2 0x2C4 JUMPI PUSH2 0x127B PUSH2 0x1DB5 JUMP JUMPDEST PUSH1 0x24 CALLDATALOAD SWAP1 PUSH2 0x1288 DUP2 PUSH2 0x241D JUMP JUMPDEST DUP3 LT ISZERO PUSH2 0x12B6 JUMPI PUSH1 0x1 PUSH1 0x1 PUSH1 0xA0 SHL SUB AND DUP3 MSTORE PUSH1 0x6 PUSH1 0x20 SWAP1 DUP2 MSTORE DUP4 DUP4 KECCAK256 SWAP2 DUP4 MSTORE SWAP1 DUP2 MSTORE SWAP1 DUP3 SWAP1 KECCAK256 SLOAD DUP3 MLOAD SWAP1 DUP2 MSTORE RETURN JUMPDEST DUP4 MLOAD PUSH3 0x461BCD PUSH1 0xE5 SHL DUP2 MSTORE PUSH1 0x20 DUP2 DUP8 ADD MSTORE PUSH1 0x2B PUSH1 0x24 DUP3 ADD MSTORE PUSH32 0x455243373231456E756D657261626C653A206F776E657220696E646578206F75 PUSH1 0x44 DUP3 ADD MSTORE PUSH11 0x74206F6620626F756E6473 PUSH1 0xA8 SHL PUSH1 0x64 DUP3 ADD MSTORE PUSH1 0x84 SWAP1 REVERT JUMPDEST SWAP1 POP CALLVALUE PUSH2 0x24D JUMPI DUP2 PUSH1 0x3 NOT CALLDATASIZE ADD SLT PUSH2 0x24D JUMPI CALLDATALOAD SWAP1 PUSH2 0x1329 PUSH2 0x1DD0 JUMP JUMPDEST SWAP1 DUP3 DUP5 MSTORE PUSH1 0xB PUSH1 0x20 MSTORE PUSH2 0x1341 PUSH1 0x1 DUP3 DUP7 KECCAK256 ADD SLOAD PUSH2 0x229C JUMP JUMPDEST DUP3 DUP5 MSTORE PUSH1 0xB PUSH1 0x20 SWAP1 DUP2 MSTORE DUP2 DUP6 KECCAK256 PUSH1 0x1 PUSH1 0x1 PUSH1 0xA0 SHL SUB SWAP1 SWAP4 AND DUP1 DUP7 MSTORE SWAP3 SWAP1 MSTORE DUP1 DUP5 KECCAK256 SLOAD PUSH1 0xFF AND ISZERO PUSH2 0x136F JUMPI DUP4 DUP1 RETURN JUMPDEST DUP3 DUP5 MSTORE PUSH1 0xB PUSH1 0x20 MSTORE DUP1 DUP5 KECCAK256 DUP3 DUP6 MSTORE PUSH1 0x20 MSTORE DUP4 KECCAK256 PUSH1 0x1 PUSH1 0xFF NOT DUP3 SLOAD AND OR SWAP1 SSTORE CALLER SWAP2 PUSH32 0x2F8788117E7EFF1D82E926EC794901D17C78024A50270940304540A733656F0D DUP5 DUP1 LOG4 CODESIZE DUP1 DUP1 DUP4 DUP1 RETURN JUMPDEST POP POP CALLVALUE PUSH2 0x20A JUMPI DUP1 PUSH1 0x3 NOT CALLDATASIZE ADD SLT PUSH2 0x20A JUMPI PUSH2 0x13D4 PUSH2 0x1DB5 JUMP JUMPDEST PUSH1 0x1 PUSH1 0x1 PUSH1 0xA0 SHL SUB AND DUP3 MSTORE PUSH1 0x11 PUSH1 0x20 MSTORE DUP1 DUP3 KECCAK256 DUP1 SLOAD PUSH1 0x24 CALLDATALOAD SWAP4 SWAP1 DUP5 LT ISZERO PUSH2 0x2C4 JUMPI POP PUSH1 0x20 SWAP3 PUSH2 0x109F SWAP2 PUSH2 0x2067 JUMP JUMPDEST SWAP1 POP CALLVALUE PUSH2 0x24D JUMPI PUSH1 0x20 CALLDATASIZE PUSH1 0x3 NOT ADD SLT PUSH2 0x24D JUMPI DUP2 PUSH1 0x20 SWAP4 PUSH1 0x1 SWAP3 CALLDATALOAD DUP2 MSTORE PUSH1 0xB DUP6 MSTORE KECCAK256 ADD SLOAD SWAP1 MLOAD SWAP1 DUP2 MSTORE RETURN JUMPDEST DUP4 CALLVALUE PUSH2 0x2C4 JUMPI PUSH2 0x24A PUSH2 0x143F CALLDATASIZE PUSH2 0x1FE5 JUMP JUMPDEST SWAP2 PUSH2 0x144D PUSH2 0x67C DUP5 CALLER PUSH2 0x2616 JUMP JUMPDEST PUSH2 0x26DE JUMP JUMPDEST DUP4 DUP4 CALLVALUE PUSH2 0x20A JUMPI PUSH2 0x1462 CALLDATASIZE PUSH2 0x1FA3 JUMP JUMPDEST PUSH32 0x9F2DF0FED2C77648DE5860A4CC508CD0818C85B8B8A1AB4CEEEF8D981C8956A6 SWAP5 SWAP3 SWAP5 SWAP6 DUP7 DUP5 MSTORE PUSH1 0x20 SWAP7 PUSH1 0xB DUP9 MSTORE DUP6 DUP6 KECCAK256 CALLER DUP7 MSTORE DUP9 MSTORE PUSH1 0xFF DUP7 DUP7 KECCAK256 SLOAD AND ISZERO PUSH2 0x181B JUMPI POP PUSH1 0x2 PUSH1 0xC SLOAD EQ PUSH2 0x17D8 JUMPI PUSH1 0x2 PUSH1 0xC SSTORE PUSH2 0x14BD PUSH2 0x2C88 JUMP JUMPDEST PUSH1 0x1 PUSH1 0x1 PUSH1 0xA0 SHL SUB DUP7 DUP2 AND SWAP5 SWAP1 DUP6 ISZERO PUSH2 0x1795 JUMPI PUSH2 0x14DB DUP6 ISZERO ISZERO PUSH2 0x2BC9 JUMP JUMPDEST PUSH2 0x14E7 DUP5 MLOAD ISZERO ISZERO PUSH2 0x2C0A JUMP JUMPDEST DUP5 DUP3 MSTORE PUSH1 0xF DUP10 MSTORE DUP7 DUP3 KECCAK256 SLOAD PUSH2 0x175B JUMPI PUSH1 0x1 PUSH1 0x80 MSTORE PUSH2 0x1510 PUSH1 0x80 MLOAD PUSH1 0xE SLOAD ADD DUP1 SWAP10 DUP2 PUSH1 0xE SSTORE PUSH2 0x2CCC JUMP JUMPDEST PUSH2 0x151A DUP5 DUP10 PUSH2 0x2E6E JUMP JUMPDEST DUP7 MLOAD PUSH1 0x1 PUSH1 0x1 PUSH1 0x40 SHL SUB PUSH1 0xA0 DUP3 ADD DUP2 DUP2 GT DUP4 DUP3 LT OR PUSH2 0x1748 JUMPI DUP10 MSTORE DUP7 DUP3 MSTORE DUP11 DUP3 ADD DUP7 DUP2 MSTORE TIMESTAMP DUP11 DUP5 ADD MSTORE CALLER PUSH1 0x60 DUP5 ADD MSTORE PUSH1 0x80 MLOAD PUSH1 0x80 DUP5 ADD MSTORE DUP11 DUP6 MSTORE PUSH1 0x10 DUP13 MSTORE DUP10 DUP6 KECCAK256 SWAP1 DUP4 MLOAD DUP3 SSTORE MLOAD SWAP2 DUP3 MLOAD SWAP1 DUP2 GT PUSH2 0x1735 JUMPI PUSH1 0x80 MLOAD DUP3 ADD SWAP1 DUP14 PUSH2 0x157C DUP4 SLOAD PUSH2 0x1DE6 JUMP JUMPDEST SWAP1 PUSH1 0x1F DUP3 GT PUSH2 0x1707 JUMPI JUMPDEST POP POP DUP14 DUP1 PUSH1 0x1F DUP4 GT PUSH1 0x1 EQ PUSH2 0x1697 JUMPI POP DUP2 SWAP1 PUSH1 0x3 SWAP6 DUP10 SWAP3 PUSH2 0x168C JUMPI JUMPDEST POP POP DUP2 PUSH1 0x80 MLOAD SHL SWAP2 PUSH1 0x0 NOT SWAP1 DUP7 SHL SHR NOT AND OR SWAP1 SSTORE JUMPDEST DUP10 DUP4 ADD MLOAD PUSH1 0x2 DUP3 ADD SSTORE ADD SWAP2 PUSH1 0x60 DUP3 ADD MLOAD AND DUP3 SLOAD SWAP2 PUSH1 0x80 PUSH1 0xFF PUSH1 0xA0 SHL SWAP2 ADD MLOAD ISZERO ISZERO PUSH1 0xA0 SHL AND SWAP2 PUSH11 0xFFFFFFFFFFFFFFFFFFFFFF PUSH1 0xA8 SHL AND OR OR SWAP1 SSTORE DUP4 DUP2 MSTORE PUSH1 0xF DUP9 MSTORE DUP7 DUP7 DUP3 KECCAK256 SSTORE DUP5 DUP2 MSTORE PUSH1 0x11 DUP9 MSTORE DUP6 DUP2 KECCAK256 SWAP1 DUP2 SLOAD SWAP3 PUSH1 0x1 PUSH1 0x40 SHL DUP5 LT ISZERO PUSH2 0x1679 JUMPI POP POP DUP7 SWAP4 SWAP3 PUSH2 0x1654 DUP6 PUSH2 0x3B7 PUSH32 0xA2339E7643E1CFCE17C9BF4D24D46B99C1B008E24809842F1302144910B1FC54 SWAP6 PUSH2 0x166A SWAP6 PUSH1 0x80 MLOAD DUP3 ADD DUP2 SSTORE PUSH2 0x2067 JUMP JUMPDEST DUP7 MLOAD SWAP2 DUP3 SWAP2 CALLER DUP4 MSTORE DUP9 DUP12 DUP5 ADD MSTORE DUP9 DUP4 ADD SWAP1 PUSH2 0x1D90 JUMP JUMPDEST SUB SWAP1 LOG4 PUSH1 0x80 MLOAD PUSH1 0xC SSTORE MLOAD SWAP1 DUP2 MSTORE RETURN JUMPDEST PUSH4 0x4E487B71 PUSH1 0xE0 SHL DUP3 MSTORE PUSH1 0x41 SWAP1 MSTORE PUSH1 0x24 SWAP1 REVERT JUMPDEST ADD MLOAD SWAP1 POP DUP16 DUP1 PUSH2 0x15A2 JUMP JUMPDEST SWAP2 SWAP3 SWAP4 SWAP5 DUP5 DUP10 MSTORE DUP3 DUP10 KECCAK256 SWAP3 DUP10 PUSH1 0x1F NOT DUP7 AND SWAP2 JUMPDEST DUP3 DUP3 LT PUSH2 0x16EE JUMPI POP POP SWAP1 DUP5 PUSH1 0x3 SWAP8 SWAP7 SWAP6 SWAP5 SWAP4 SWAP3 LT PUSH2 0x16D6 JUMPI JUMPDEST POP POP POP PUSH1 0x80 MLOAD SWAP1 PUSH1 0x80 MLOAD SHL ADD SWAP1 SSTORE PUSH2 0x15B7 JUMP JUMPDEST ADD MLOAD PUSH1 0x0 NOT DUP4 DUP8 SHL PUSH1 0xF8 AND SHR NOT AND SWAP1 SSTORE DUP15 DUP1 DUP1 PUSH2 0x16C3 JUMP JUMPDEST DUP1 DUP6 SWAP7 DUP2 SWAP4 SWAP7 DUP7 ADD MLOAD DUP2 SSTORE PUSH1 0x80 MLOAD ADD SWAP7 ADD SWAP5 ADD SWAP1 PUSH2 0x16AA JUMP JUMPDEST DUP4 DUP10 MSTORE DUP1 DUP10 KECCAK256 PUSH2 0x172E SWAP3 PUSH1 0x1F DUP6 ADD PUSH1 0x5 SHR DUP3 ADD SWAP3 DUP6 LT PUSH2 0x8AB JUMPI PUSH1 0x1F ADD PUSH1 0x5 SHR ADD SWAP1 PUSH2 0x2C4E JUMP JUMPDEST DUP15 DUP15 PUSH2 0x1586 JUMP JUMPDEST PUSH4 0x4E487B71 PUSH1 0xE0 SHL DUP7 MSTORE PUSH1 0x41 DUP8 MSTORE PUSH1 0x24 DUP7 REVERT JUMPDEST PUSH4 0x4E487B71 PUSH1 0xE0 SHL DUP6 MSTORE PUSH1 0x41 DUP7 MSTORE PUSH1 0x24 DUP6 REVERT JUMPDEST DUP7 MLOAD PUSH3 0x461BCD PUSH1 0xE5 SHL DUP2 MSTORE DUP1 DUP5 ADD DUP11 SWAP1 MSTORE PUSH1 0x14 PUSH1 0x24 DUP3 ADD MSTORE PUSH20 0x13DC99195C88185B1C9958591E481B5A5B9D1959 PUSH1 0x62 SHL PUSH1 0x44 DUP3 ADD MSTORE PUSH1 0x64 SWAP1 REVERT JUMPDEST DUP7 MLOAD PUSH3 0x461BCD PUSH1 0xE5 SHL DUP2 MSTORE DUP1 DUP5 ADD DUP11 SWAP1 MSTORE PUSH1 0x19 PUSH1 0x24 DUP3 ADD MSTORE PUSH32 0x496E76616C696420726563697069656E74206164647265737300000000000000 PUSH1 0x44 DUP3 ADD MSTORE PUSH1 0x64 SWAP1 REVERT JUMPDEST DUP5 MLOAD PUSH3 0x461BCD PUSH1 0xE5 SHL DUP2 MSTORE SWAP1 DUP2 ADD DUP8 SWAP1 MSTORE PUSH1 0x1F PUSH1 0x24 DUP3 ADD MSTORE PUSH32 0x5265656E7472616E637947756172643A207265656E7472616E742063616C6C00 PUSH1 0x44 DUP3 ADD MSTORE PUSH1 0x64 SWAP1 REVERT JUMPDEST SWAP4 SWAP3 POP SWAP5 POP POP PUSH2 0x182A CALLER PUSH2 0x2ABB JUMP JUMPDEST SWAP2 DUP4 MLOAD SWAP1 PUSH2 0x1837 DUP3 PUSH2 0x1E51 JUMP JUMPDEST PUSH1 0x42 DUP3 MSTORE DUP7 DUP3 ADD SWAP3 PUSH1 0x60 CALLDATASIZE DUP6 CALLDATACOPY DUP3 MLOAD ISZERO PUSH2 0x19D2 JUMPI PUSH1 0x30 DUP5 MSTORE8 DUP3 MLOAD SWAP1 PUSH1 0x1 SWAP2 DUP3 LT ISZERO PUSH2 0x19BF JUMPI SWAP1 PUSH1 0x78 PUSH1 0x21 DUP6 ADD MSTORE8 PUSH1 0x41 SWAP2 JUMPDEST DUP2 DUP4 GT PUSH2 0x1954 JUMPI POP POP POP PUSH2 0x1913 JUMPI PUSH1 0x48 PUSH2 0x18E6 SWAP4 DUP6 SWAP4 PUSH2 0x18F5 SWAP4 PUSH2 0x190F SWAP8 MLOAD SWAP7 DUP8 SWAP4 PUSH23 0x20B1B1B2B9B9A1B7B73A3937B61D1030B1B1B7BAB73A1 PUSH1 0x4D SHL DUP13 DUP7 ADD MSTORE PUSH2 0x18BD DUP13 DUP3 MLOAD SWAP3 DUP4 SWAP2 PUSH1 0x37 DUP10 ADD SWAP2 ADD PUSH2 0x1D6D JUMP JUMPDEST DUP5 ADD SWAP2 PUSH17 0x1034B99036B4B9B9B4B733903937B6329 PUSH1 0x7D SHL PUSH1 0x37 DUP5 ADD MSTORE MLOAD DUP1 SWAP4 DUP7 DUP5 ADD SWAP1 PUSH2 0x1D6D JUMP JUMPDEST ADD SUB PUSH1 0x28 DUP2 ADD DUP6 MSTORE ADD DUP4 PUSH2 0x1E6C JUMP JUMPDEST MLOAD SWAP4 DUP5 SWAP4 PUSH3 0x461BCD PUSH1 0xE5 SHL DUP6 MSTORE DUP5 ADD MSTORE PUSH1 0x24 DUP4 ADD SWAP1 PUSH2 0x1D90 JUMP JUMPDEST SUB SWAP1 REVERT JUMPDEST PUSH1 0x64 DUP6 DUP8 DUP1 DUP8 MLOAD SWAP3 PUSH3 0x461BCD PUSH1 0xE5 SHL DUP5 MSTORE DUP4 ADD MSTORE PUSH1 0x24 DUP3 ADD MSTORE PUSH32 0x537472696E67733A20686578206C656E67746820696E73756666696369656E74 PUSH1 0x44 DUP3 ADD MSTORE REVERT JUMPDEST SWAP1 SWAP2 SWAP3 PUSH1 0xF DUP2 AND PUSH1 0x10 DUP2 LT ISZERO PUSH2 0x19AC JUMPI PUSH16 0x181899199A1A9B1B9C1CB0B131B232B3 PUSH1 0x81 SHL SWAP1 BYTE PUSH2 0x1984 DUP6 DUP8 PUSH2 0x2AAA JUMP JUMPDEST MSTORE8 DUP9 SHR SWAP3 DUP1 ISZERO PUSH2 0x1999 JUMPI PUSH1 0x0 NOT ADD SWAP2 SWAP1 PUSH2 0x1868 JUMP JUMPDEST PUSH4 0x4E487B71 PUSH1 0xE0 SHL DUP3 MSTORE PUSH1 0x11 DUP10 MSTORE PUSH1 0x24 DUP3 REVERT JUMPDEST PUSH4 0x4E487B71 PUSH1 0xE0 SHL DUP4 MSTORE PUSH1 0x32 DUP11 MSTORE PUSH1 0x24 DUP4 REVERT JUMPDEST PUSH4 0x4E487B71 PUSH1 0xE0 SHL DUP2 MSTORE PUSH1 0x32 DUP9 MSTORE PUSH1 0x24 SWAP1 REVERT JUMPDEST PUSH4 0x4E487B71 PUSH1 0xE0 SHL DUP2 MSTORE PUSH1 0x32 DUP8 MSTORE PUSH1 0x24 SWAP1 REVERT JUMPDEST POP POP CALLVALUE PUSH2 0x20A JUMPI DUP2 PUSH1 0x3 NOT CALLDATASIZE ADD SLT PUSH2 0x20A JUMPI PUSH1 0x20 SWAP1 PUSH1 0x8 SLOAD SWAP1 MLOAD SWAP1 DUP2 MSTORE RETURN JUMPDEST SWAP1 POP CALLVALUE PUSH2 0x24D JUMPI PUSH1 0x20 CALLDATASIZE PUSH1 0x3 NOT ADD SLT PUSH2 0x24D JUMPI SWAP2 DUP2 SWAP3 CALLDATALOAD DUP2 MSTORE PUSH1 0x10 PUSH1 0x20 MSTORE KECCAK256 SWAP1 DUP2 SLOAD SWAP1 PUSH1 0xFF PUSH2 0x1A35 PUSH1 0x1 DUP6 ADD PUSH2 0x1E8D JUMP JUMPDEST SWAP4 PUSH1 0x3 PUSH1 0x2 DUP3 ADD SLOAD SWAP2 ADD SLOAD SWAP1 PUSH2 0x1A5C DUP5 MLOAD SWAP7 DUP8 SWAP7 DUP8 MSTORE PUSH1 0xA0 PUSH1 0x20 DUP9 ADD MSTORE PUSH1 0xA0 DUP8 ADD SWAP1 PUSH2 0x1D90 JUMP JUMPDEST SWAP4 DUP6 ADD MSTORE PUSH1 0x1 PUSH1 0x1 PUSH1 0xA0 SHL SUB DUP2 AND PUSH1 0x60 DUP6 ADD MSTORE PUSH1 0xA0 SHR AND ISZERO ISZERO PUSH1 0x80 DUP4 ADD MSTORE SUB SWAP1 RETURN JUMPDEST SWAP1 POP CALLVALUE PUSH2 0x24D JUMPI DUP2 PUSH1 0x3 NOT CALLDATASIZE ADD SLT PUSH2 0x24D JUMPI PUSH2 0x1A98 PUSH2 0x1DB5 JUMP JUMPDEST PUSH1 0x24 CALLDATALOAD SWAP3 SWAP1 SWAP2 PUSH1 0x1 PUSH1 0x1 PUSH1 0xA0 SHL SUB SWAP2 SWAP1 DUP3 DUP1 PUSH2 0x1AB3 DUP8 PUSH2 0x24E0 JUMP JUMPDEST AND SWAP5 AND SWAP4 DUP1 DUP6 EQ PUSH2 0x1B9F JUMPI DUP1 CALLER EQ SWAP1 DUP2 ISZERO PUSH2 0x1B80 JUMPI JUMPDEST POP ISZERO PUSH2 0x1B18 JUMPI DUP5 DUP7 MSTORE PUSH1 0x20 MSTORE DUP5 KECCAK256 DUP1 SLOAD PUSH1 0x1 PUSH1 0x1 PUSH1 0xA0 SHL SUB NOT AND DUP4 OR SWAP1 SSTORE PUSH2 0x1AF0 DUP4 PUSH2 0x24E0 JUMP JUMPDEST AND PUSH32 0x8C5BE1E5EBEC7D5BD14F71427D1E84F3DD0314C0F7B2291E5B200AC8C7C3B925 DUP5 DUP1 LOG4 DUP1 RETURN JUMPDEST PUSH1 0x20 PUSH1 0x84 SWAP3 MLOAD SWAP2 PUSH3 0x461BCD PUSH1 0xE5 SHL DUP4 MSTORE DUP3 ADD MSTORE PUSH1 0x3D PUSH1 0x24 DUP3 ADD MSTORE PUSH32 0x4552433732313A20617070726F76652063616C6C6572206973206E6F7420746F PUSH1 0x44 DUP3 ADD MSTORE PUSH32 0x6B656E206F776E6572206F7220617070726F76656420666F7220616C6C000000 PUSH1 0x64 DUP3 ADD MSTORE REVERT JUMPDEST SWAP1 POP DUP7 MSTORE PUSH1 0x5 PUSH1 0x20 MSTORE DUP2 DUP7 KECCAK256 CALLER DUP8 MSTORE PUSH1 0x20 MSTORE PUSH1 0xFF DUP3 DUP8 KECCAK256 SLOAD AND CODESIZE PUSH2 0x1AC9 JUMP JUMPDEST POP PUSH1 0x20 PUSH1 0x84 SWAP3 MLOAD SWAP2 PUSH3 0x461BCD PUSH1 0xE5 SHL DUP4 MSTORE DUP3 ADD MSTORE PUSH1 0x21 PUSH1 0x24 DUP3 ADD MSTORE PUSH32 0x4552433732313A20617070726F76616C20746F2063757272656E74206F776E65 PUSH1 0x44 DUP3 ADD MSTORE PUSH1 0x39 PUSH1 0xF9 SHL PUSH1 0x64 DUP3 ADD MSTORE REVERT JUMPDEST DUP3 DUP5 CALLVALUE PUSH2 0x2C4 JUMPI PUSH1 0x20 CALLDATASIZE PUSH1 0x3 NOT ADD SLT PUSH2 0x2C4 JUMPI POP PUSH2 0xC7D PUSH1 0x20 SWAP3 CALLDATALOAD PUSH2 0x2503 JUMP JUMPDEST POP POP CALLVALUE PUSH2 0x20A JUMPI DUP2 PUSH1 0x3 NOT CALLDATASIZE ADD SLT PUSH2 0x20A JUMPI DUP1 MLOAD SWAP1 DUP3 DUP1 SLOAD PUSH2 0x1C2D DUP2 PUSH2 0x1DE6 JUMP JUMPDEST DUP1 DUP6 MSTORE SWAP2 PUSH1 0x1 SWAP2 DUP1 DUP4 AND SWAP1 DUP2 ISZERO PUSH2 0xB2B JUMPI POP PUSH1 0x1 EQ PUSH2 0x1C58 JUMPI POP POP POP PUSH2 0xABD DUP3 PUSH2 0x2C0 SWAP5 SUB DUP4 PUSH2 0x1E6C JUMP JUMPDEST DUP1 DUP1 SWAP7 POP MSTORE PUSH32 0x290DECD9548B62A8D60345A988386FC84BA6BC95484008F6362F93160EF3E563 JUMPDEST DUP3 DUP7 LT PUSH2 0x1C9C JUMPI POP POP POP PUSH2 0xABD DUP3 PUSH1 0x20 PUSH2 0x2C0 SWAP6 DUP3 ADD ADD SWAP5 PUSH2 0xAAB JUMP JUMPDEST DUP1 SLOAD PUSH1 0x20 DUP8 DUP8 ADD DUP2 ADD SWAP2 SWAP1 SWAP2 MSTORE SWAP1 SWAP6 ADD SWAP5 DUP2 ADD PUSH2 0x1C7F JUMP JUMPDEST DUP5 SWAP2 CALLVALUE PUSH2 0x24D JUMPI PUSH1 0x20 CALLDATASIZE PUSH1 0x3 NOT ADD SLT PUSH2 0x24D JUMPI CALLDATALOAD PUSH4 0xFFFFFFFF PUSH1 0xE0 SHL DUP2 AND DUP1 SWAP2 SUB PUSH2 0x24D JUMPI PUSH1 0x20 SWAP3 POP PUSH4 0x7965DB0B PUSH1 0xE0 SHL DUP2 EQ SWAP1 DUP2 ISZERO PUSH2 0x1CF6 JUMPI JUMPDEST POP ISZERO ISZERO DUP2 MSTORE RETURN JUMPDEST PUSH4 0x24832483 PUSH1 0xE1 SHL DUP2 EQ SWAP2 POP DUP2 ISZERO PUSH2 0x1D10 JUMPI JUMPDEST POP DUP4 PUSH2 0x1CEF JUMP JUMPDEST PUSH4 0x780E9D63 PUSH1 0xE0 SHL DUP2 EQ SWAP2 POP DUP2 ISZERO PUSH2 0x1D2A JUMPI JUMPDEST POP DUP4 PUSH2 0x1D09 JUMP JUMPDEST PUSH4 0x80AC58CD PUSH1 0xE0 SHL DUP2 EQ SWAP2 POP DUP2 ISZERO PUSH2 0x1D5C JUMPI JUMPDEST DUP2 ISZERO PUSH2 0x1D4B JUMPI JUMPDEST POP DUP4 PUSH2 0x1D23 JUMP JUMPDEST PUSH4 0x1FFC9A7 PUSH1 0xE0 SHL EQ SWAP1 POP DUP4 PUSH2 0x1D44 JUMP JUMPDEST PUSH4 0x5B5E139F PUSH1 0xE0 SHL DUP2 EQ SWAP2 POP PUSH2 0x1D3D JUMP JUMPDEST PUSH1 0x0 JUMPDEST DUP4 DUP2 LT PUSH2 0x1D80 JUMPI POP POP PUSH1 0x0 SWAP2 ADD MSTORE JUMP JUMPDEST DUP2 DUP2 ADD MLOAD DUP4 DUP3 ADD MSTORE PUSH1 0x20 ADD PUSH2 0x1D70 JUMP JUMPDEST SWAP1 PUSH1 0x20 SWAP2 PUSH2 0x1DA9 DUP2 MLOAD DUP1 SWAP3 DUP2 DUP6 MSTORE DUP6 DUP1 DUP7 ADD SWAP2 ADD PUSH2 0x1D6D JUMP JUMPDEST PUSH1 0x1F ADD PUSH1 0x1F NOT AND ADD ADD SWAP1 JUMP JUMPDEST PUSH1 0x4 CALLDATALOAD SWAP1 PUSH1 0x1 PUSH1 0x1 PUSH1 0xA0 SHL SUB DUP3 AND DUP3 SUB PUSH2 0x1DCB JUMPI JUMP JUMPDEST PUSH1 0x0 DUP1 REVERT JUMPDEST PUSH1 0x24 CALLDATALOAD SWAP1 PUSH1 0x1 PUSH1 0x1 PUSH1 0xA0 SHL SUB DUP3 AND DUP3 SUB PUSH2 0x1DCB JUMPI JUMP JUMPDEST SWAP1 PUSH1 0x1 DUP3 DUP2 SHR SWAP3 AND DUP1 ISZERO PUSH2 0x1E16 JUMPI JUMPDEST PUSH1 0x20 DUP4 LT EQ PUSH2 0x1E00 JUMPI JUMP JUMPDEST PUSH4 0x4E487B71 PUSH1 0xE0 SHL PUSH1 0x0 MSTORE PUSH1 0x22 PUSH1 0x4 MSTORE PUSH1 0x24 PUSH1 0x0 REVERT JUMPDEST SWAP2 PUSH1 0x7F AND SWAP2 PUSH2 0x1DF5 JUMP JUMPDEST PUSH1 0x20 DUP2 ADD SWAP1 DUP2 LT PUSH1 0x1 PUSH1 0x1 PUSH1 0x40 SHL SUB DUP3 GT OR PUSH2 0x1E3B JUMPI PUSH1 0x40 MSTORE JUMP JUMPDEST PUSH4 0x4E487B71 PUSH1 0xE0 SHL PUSH1 0x0 MSTORE PUSH1 0x41 PUSH1 0x4 MSTORE PUSH1 0x24 PUSH1 0x0 REVERT JUMPDEST PUSH1 0x80 DUP2 ADD SWAP1 DUP2 LT PUSH1 0x1 PUSH1 0x1 PUSH1 0x40 SHL SUB DUP3 GT OR PUSH2 0x1E3B JUMPI PUSH1 0x40 MSTORE JUMP JUMPDEST SWAP1 PUSH1 0x1F DUP1 NOT SWAP2 ADD AND DUP2 ADD SWAP1 DUP2 LT PUSH1 0x1 PUSH1 0x1 PUSH1 0x40 SHL SUB DUP3 GT OR PUSH2 0x1E3B JUMPI PUSH1 0x40 MSTORE JUMP JUMPDEST SWAP1 PUSH1 0x40 MLOAD SWAP2 DUP3 PUSH1 0x0 DUP3 SLOAD SWAP3 PUSH2 0x1EA1 DUP5 PUSH2 0x1DE6 JUMP JUMPDEST SWAP1 DUP2 DUP5 MSTORE PUSH1 0x1 SWAP5 DUP6 DUP2 AND SWAP1 DUP2 PUSH1 0x0 EQ PUSH2 0x1F10 JUMPI POP PUSH1 0x1 EQ PUSH2 0x1ECD JUMPI JUMPDEST POP POP PUSH2 0x1ECB SWAP3 POP SUB DUP4 PUSH2 0x1E6C JUMP JUMPDEST JUMP JUMPDEST SWAP1 SWAP4 SWAP2 POP PUSH1 0x0 MSTORE PUSH1 0x20 SWAP1 DUP2 PUSH1 0x0 KECCAK256 SWAP4 PUSH1 0x0 SWAP2 JUMPDEST DUP2 DUP4 LT PUSH2 0x1EF8 JUMPI POP POP PUSH2 0x1ECB SWAP4 POP DUP3 ADD ADD CODESIZE DUP1 PUSH2 0x1EBD JUMP JUMPDEST DUP6 SLOAD DUP9 DUP5 ADD DUP6 ADD MSTORE SWAP5 DUP6 ADD SWAP5 DUP8 SWAP5 POP SWAP2 DUP4 ADD SWAP2 PUSH2 0x1EE0 JUMP JUMPDEST SWAP2 POP POP PUSH2 0x1ECB SWAP5 POP PUSH1 0x20 SWAP3 POP PUSH1 0xFF NOT AND DUP3 DUP5 ADD MSTORE ISZERO ISZERO PUSH1 0x5 SHL DUP3 ADD ADD CODESIZE DUP1 PUSH2 0x1EBD JUMP JUMPDEST PUSH1 0x1 PUSH1 0x1 PUSH1 0x40 SHL SUB DUP2 GT PUSH2 0x1E3B JUMPI PUSH1 0x1F ADD PUSH1 0x1F NOT AND PUSH1 0x20 ADD SWAP1 JUMP JUMPDEST SWAP3 SWAP2 SWAP3 PUSH2 0x1F5A DUP3 PUSH2 0x1F33 JUMP JUMPDEST SWAP2 PUSH2 0x1F68 PUSH1 0x40 MLOAD SWAP4 DUP5 PUSH2 0x1E6C JUMP JUMPDEST DUP3 SWAP5 DUP2 DUP5 MSTORE DUP2 DUP4 ADD GT PUSH2 0x1DCB JUMPI DUP3 DUP2 PUSH1 0x20 SWAP4 DUP5 PUSH1 0x0 SWAP7 ADD CALLDATACOPY ADD ADD MSTORE JUMP JUMPDEST SWAP1 DUP1 PUSH1 0x1F DUP4 ADD SLT ISZERO PUSH2 0x1DCB JUMPI DUP2 PUSH1 0x20 PUSH2 0x1FA0 SWAP4 CALLDATALOAD SWAP2 ADD PUSH2 0x1F4E JUMP JUMPDEST SWAP1 JUMP JUMPDEST PUSH1 0x60 PUSH1 0x3 NOT DUP3 ADD SLT PUSH2 0x1DCB JUMPI PUSH1 0x4 CALLDATALOAD PUSH1 0x1 PUSH1 0x1 PUSH1 0xA0 SHL SUB DUP2 AND DUP2 SUB PUSH2 0x1DCB JUMPI SWAP2 PUSH1 0x24 CALLDATALOAD SWAP2 PUSH1 0x44 CALLDATALOAD SWAP1 PUSH1 0x1 PUSH1 0x1 PUSH1 0x40 SHL SUB DUP3 GT PUSH2 0x1DCB JUMPI PUSH2 0x1FA0 SWAP2 PUSH1 0x4 ADD PUSH2 0x1F85 JUMP JUMPDEST PUSH1 0x60 SWAP1 PUSH1 0x3 NOT ADD SLT PUSH2 0x1DCB JUMPI PUSH1 0x1 PUSH1 0x1 PUSH1 0xA0 SHL SUB SWAP1 PUSH1 0x4 CALLDATALOAD DUP3 DUP2 AND DUP2 SUB PUSH2 0x1DCB JUMPI SWAP2 PUSH1 0x24 CALLDATALOAD SWAP1 DUP2 AND DUP2 SUB PUSH2 0x1DCB JUMPI SWAP1 PUSH1 0x44 CALLDATALOAD SWAP1 JUMP JUMPDEST PUSH1 0x8 SLOAD DUP2 LT ISZERO PUSH2 0x2051 JUMPI PUSH1 0x8 PUSH1 0x0 MSTORE PUSH32 0xF3F7A9FE364FAAB93B216DA50A3214154F22A0A2B415B23A84C8169E8B636EE3 ADD SWAP1 PUSH1 0x0 SWAP1 JUMP JUMPDEST PUSH4 0x4E487B71 PUSH1 0xE0 SHL PUSH1 0x0 MSTORE PUSH1 0x32 PUSH1 0x4 MSTORE PUSH1 0x24 PUSH1 0x0 REVERT JUMPDEST DUP1 SLOAD DUP3 LT ISZERO PUSH2 0x2051 JUMPI PUSH1 0x0 MSTORE PUSH1 0x20 PUSH1 0x0 KECCAK256 ADD SWAP1 PUSH1 0x0 SWAP1 JUMP JUMPDEST SWAP1 PUSH1 0x40 PUSH1 0x3 NOT DUP4 ADD SLT PUSH2 0x1DCB JUMPI PUSH1 0x4 CALLDATALOAD SWAP2 PUSH1 0x24 CALLDATALOAD SWAP1 PUSH1 0x1 PUSH1 0x1 PUSH1 0x40 SHL SUB DUP3 GT PUSH2 0x1DCB JUMPI PUSH2 0x1FA0 SWAP2 PUSH1 0x4 ADD PUSH2 0x1F85 JUMP JUMPDEST CALLER PUSH1 0x0 SWAP1 DUP2 MSTORE PUSH32 0x5329DF1543CB285EABD9EE00D915D71C9B1E8FF70A737BE4B25897D47FE38CD2 PUSH1 0x20 SWAP1 DUP2 MSTORE PUSH1 0x40 DUP1 DUP4 KECCAK256 SLOAD SWAP1 SWAP3 PUSH32 0xA49807205CE4D355092EF5A8A18F56E8913CF4A201FBE287825B095693C21775 SWAP2 PUSH1 0xFF AND ISZERO PUSH2 0x2112 JUMPI POP POP POP POP JUMP JUMPDEST PUSH2 0x211B CALLER PUSH2 0x2ABB JUMP JUMPDEST SWAP2 DUP5 MLOAD SWAP1 PUSH2 0x2128 DUP3 PUSH2 0x1E51 JUMP JUMPDEST PUSH1 0x42 DUP3 MSTORE DUP5 DUP3 ADD SWAP3 PUSH1 0x60 CALLDATASIZE DUP6 CALLDATACOPY DUP3 MLOAD ISZERO PUSH2 0x2288 JUMPI PUSH1 0x30 DUP5 MSTORE8 DUP3 MLOAD SWAP1 PUSH1 0x1 SWAP2 DUP3 LT ISZERO PUSH2 0x2288 JUMPI SWAP1 PUSH1 0x78 PUSH1 0x21 DUP6 ADD MSTORE8 PUSH1 0x41 SWAP2 JUMPDEST DUP2 DUP4 GT PUSH2 0x221A JUMPI POP POP POP PUSH2 0x21D8 JUMPI PUSH1 0x48 PUSH2 0x190F SWAP4 DUP7 SWAP4 PUSH2 0x21BC SWAP4 PUSH2 0x21AD SWAP9 MLOAD SWAP9 DUP10 SWAP4 PUSH23 0x20B1B1B2B9B9A1B7B73A3937B61D1030B1B1B7BAB73A1 PUSH1 0x4D SHL DUP11 DUP7 ADD MSTORE PUSH2 0x18BD DUP2 MLOAD DUP1 SWAP3 DUP13 PUSH1 0x37 DUP10 ADD SWAP2 ADD PUSH2 0x1D6D JUMP JUMPDEST ADD SUB PUSH1 0x28 DUP2 ADD DUP8 MSTORE ADD DUP6 PUSH2 0x1E6C JUMP JUMPDEST MLOAD SWAP3 DUP4 SWAP3 PUSH3 0x461BCD PUSH1 0xE5 SHL DUP5 MSTORE PUSH1 0x4 DUP5 ADD MSTORE PUSH1 0x24 DUP4 ADD SWAP1 PUSH2 0x1D90 JUMP JUMPDEST PUSH1 0x64 DUP5 DUP7 MLOAD SWAP1 PUSH3 0x461BCD PUSH1 0xE5 SHL DUP3 MSTORE DUP1 PUSH1 0x4 DUP4 ADD MSTORE PUSH1 0x24 DUP3 ADD MSTORE PUSH32 0x537472696E67733A20686578206C656E67746820696E73756666696369656E74 PUSH1 0x44 DUP3 ADD MSTORE REVERT JUMPDEST SWAP1 SWAP2 SWAP3 PUSH1 0xF DUP2 AND PUSH1 0x10 DUP2 LT ISZERO PUSH2 0x2274 JUMPI PUSH16 0x181899199A1A9B1B9C1CB0B131B232B3 PUSH1 0x81 SHL SWAP1 BYTE PUSH2 0x224A DUP6 DUP8 PUSH2 0x2AAA JUMP JUMPDEST MSTORE8 PUSH1 0x4 SHR SWAP3 DUP1 ISZERO PUSH2 0x2260 JUMPI PUSH1 0x0 NOT ADD SWAP2 SWAP1 PUSH2 0x2159 JUMP JUMPDEST PUSH4 0x4E487B71 PUSH1 0xE0 SHL DUP3 MSTORE PUSH1 0x11 PUSH1 0x4 MSTORE PUSH1 0x24 DUP3 REVERT JUMPDEST PUSH4 0x4E487B71 PUSH1 0xE0 SHL DUP4 MSTORE PUSH1 0x32 PUSH1 0x4 MSTORE PUSH1 0x24 DUP4 REVERT JUMPDEST PUSH4 0x4E487B71 PUSH1 0xE0 SHL DUP2 MSTORE PUSH1 0x32 PUSH1 0x4 MSTORE PUSH1 0x24 SWAP1 REVERT JUMPDEST PUSH1 0x0 SWAP1 DUP1 DUP3 MSTORE PUSH1 0x20 SWAP1 PUSH1 0xB DUP3 MSTORE PUSH1 0x40 SWAP3 DUP4 DUP2 KECCAK256 CALLER DUP3 MSTORE DUP4 MSTORE PUSH1 0xFF DUP5 DUP3 KECCAK256 SLOAD AND ISZERO PUSH2 0x22C6 JUMPI POP POP POP POP JUMP JUMPDEST PUSH2 0x22CF CALLER PUSH2 0x2ABB JUMP JUMPDEST SWAP2 DUP5 MLOAD SWAP1 PUSH2 0x22DC DUP3 PUSH2 0x1E51 JUMP JUMPDEST PUSH1 0x42 DUP3 MSTORE DUP5 DUP3 ADD SWAP3 PUSH1 0x60 CALLDATASIZE DUP6 CALLDATACOPY DUP3 MLOAD ISZERO PUSH2 0x2288 JUMPI PUSH1 0x30 DUP5 MSTORE8 DUP3 MLOAD SWAP1 PUSH1 0x1 SWAP2 DUP3 LT ISZERO PUSH2 0x2288 JUMPI SWAP1 PUSH1 0x78 PUSH1 0x21 DUP6 ADD MSTORE8 PUSH1 0x41 SWAP2 JUMPDEST DUP2 DUP4 GT PUSH2 0x2361 JUMPI POP POP POP PUSH2 0x21D8 JUMPI PUSH1 0x48 PUSH2 0x190F SWAP4 DUP7 SWAP4 PUSH2 0x21BC SWAP4 PUSH2 0x21AD SWAP9 MLOAD SWAP9 DUP10 SWAP4 PUSH23 0x20B1B1B2B9B9A1B7B73A3937B61D1030B1B1B7BAB73A1 PUSH1 0x4D SHL DUP11 DUP7 ADD MSTORE PUSH2 0x18BD DUP2 MLOAD DUP1 SWAP3 DUP13 PUSH1 0x37 DUP10 ADD SWAP2 ADD PUSH2 0x1D6D JUMP JUMPDEST SWAP1 SWAP2 SWAP3 PUSH1 0xF DUP2 AND PUSH1 0x10 DUP2 LT ISZERO PUSH2 0x2274 JUMPI PUSH16 0x181899199A1A9B1B9C1CB0B131B232B3 PUSH1 0x81 SHL SWAP1 BYTE PUSH2 0x2391 DUP6 DUP8 PUSH2 0x2AAA JUMP JUMPDEST MSTORE8 PUSH1 0x4 SHR SWAP3 DUP1 ISZERO PUSH2 0x2260 JUMPI PUSH1 0x0 NOT ADD SWAP2 SWAP1 PUSH2 0x230D JUMP JUMPDEST SWAP1 PUSH1 0x0 SWAP2 DUP1 DUP4 MSTORE PUSH1 0xB PUSH1 0x20 MSTORE PUSH1 0x40 DUP4 KECCAK256 SWAP2 PUSH1 0x1 DUP1 PUSH1 0xA0 SHL SUB AND SWAP2 DUP3 DUP5 MSTORE PUSH1 0x20 MSTORE PUSH1 0xFF PUSH1 0x40 DUP5 KECCAK256 SLOAD AND PUSH2 0x23D8 JUMPI POP POP POP JUMP JUMPDEST DUP1 DUP4 MSTORE PUSH1 0xB PUSH1 0x20 MSTORE PUSH1 0x40 DUP4 KECCAK256 DUP3 DUP5 MSTORE PUSH1 0x20 MSTORE PUSH1 0x40 DUP4 KECCAK256 PUSH1 0xFF NOT DUP2 SLOAD AND SWAP1 SSTORE PUSH32 0xF6391F5C32D9C69D2A47EA670B442974B53935D1EDC7FD64EB21E047A839171B CALLER SWAP4 DUP1 LOG4 JUMP JUMPDEST PUSH1 0x1 PUSH1 0x1 PUSH1 0xA0 SHL SUB AND DUP1 ISZERO PUSH2 0x243D JUMPI PUSH1 0x0 MSTORE PUSH1 0x3 PUSH1 0x20 MSTORE PUSH1 0x40 PUSH1 0x0 KECCAK256 SLOAD SWAP1 JUMP JUMPDEST PUSH1 0x40 MLOAD PUSH3 0x461BCD PUSH1 0xE5 SHL DUP2 MSTORE PUSH1 0x20 PUSH1 0x4 DUP3 ADD MSTORE PUSH1 0x29 PUSH1 0x24 DUP3 ADD MSTORE PUSH32 0x4552433732313A2061646472657373207A65726F206973206E6F742061207661 PUSH1 0x44 DUP3 ADD MSTORE PUSH9 0x3634B21037BBB732B9 PUSH1 0xB9 SHL PUSH1 0x64 DUP3 ADD MSTORE PUSH1 0x84 SWAP1 REVERT JUMPDEST ISZERO PUSH2 0x249B JUMPI JUMP JUMPDEST PUSH1 0x40 MLOAD PUSH3 0x461BCD PUSH1 0xE5 SHL DUP2 MSTORE PUSH1 0x20 PUSH1 0x4 DUP3 ADD MSTORE PUSH1 0x18 PUSH1 0x24 DUP3 ADD MSTORE PUSH32 0x4552433732313A20696E76616C696420746F6B656E2049440000000000000000 PUSH1 0x44 DUP3 ADD MSTORE PUSH1 0x64 SWAP1 REVERT JUMPDEST PUSH1 0x0 SWAP1 DUP2 MSTORE PUSH1 0x2 PUSH1 0x20 MSTORE PUSH1 0x40 SWAP1 KECCAK256 SLOAD PUSH1 0x1 PUSH1 0x1 PUSH1 0xA0 SHL SUB AND PUSH2 0x1FA0 DUP2 ISZERO ISZERO PUSH2 0x2494 JUMP JUMPDEST PUSH1 0x0 DUP2 DUP2 MSTORE PUSH1 0x2 PUSH1 0x20 MSTORE PUSH1 0x40 SWAP1 KECCAK256 SLOAD PUSH2 0x2526 SWAP1 PUSH1 0x1 PUSH1 0x1 PUSH1 0xA0 SHL SUB AND ISZERO ISZERO PUSH2 0x2494 JUMP JUMPDEST PUSH1 0x0 SWAP1 DUP2 MSTORE PUSH1 0x4 PUSH1 0x20 MSTORE PUSH1 0x40 SWAP1 KECCAK256 SLOAD PUSH1 0x1 PUSH1 0x1 PUSH1 0xA0 SHL SUB AND SWAP1 JUMP JUMPDEST ISZERO PUSH2 0x2548 JUMPI JUMP JUMPDEST PUSH1 0x40 MLOAD PUSH3 0x461BCD PUSH1 0xE5 SHL DUP2 MSTORE PUSH1 0x20 PUSH1 0x4 DUP3 ADD MSTORE PUSH1 0x2D PUSH1 0x24 DUP3 ADD MSTORE PUSH32 0x4552433732313A2063616C6C6572206973206E6F7420746F6B656E206F776E65 PUSH1 0x44 DUP3 ADD MSTORE PUSH13 0x1C881BDC88185C1C1C9BDD9959 PUSH1 0x9A SHL PUSH1 0x64 DUP3 ADD MSTORE PUSH1 0x84 SWAP1 REVERT JUMPDEST PUSH1 0x80 SWAP1 PUSH1 0x20 DUP2 MSTORE PUSH1 0x32 PUSH1 0x20 DUP3 ADD MSTORE PUSH32 0x4552433732313A207472616E7366657220746F206E6F6E204552433732315265 PUSH1 0x40 DUP3 ADD MSTORE PUSH18 0x31B2B4BB32B91034B6B83632B6B2B73A32B9 PUSH1 0x71 SHL PUSH1 0x60 DUP3 ADD MSTORE ADD SWAP1 JUMP JUMPDEST ISZERO PUSH2 0x25FD JUMPI JUMP JUMPDEST PUSH1 0x40 MLOAD PUSH3 0x461BCD PUSH1 0xE5 SHL DUP2 MSTORE DUP1 PUSH2 0x190F PUSH1 0x4 DUP3 ADD PUSH2 0x25A3 JUMP JUMPDEST SWAP1 PUSH1 0x1 PUSH1 0x1 PUSH1 0xA0 SHL SUB DUP1 DUP1 PUSH2 0x262A DUP5 PUSH2 0x24E0 JUMP JUMPDEST AND SWAP4 AND SWAP2 DUP4 DUP4 EQ SWAP4 DUP5 ISZERO PUSH2 0x265D JUMPI JUMPDEST POP DUP4 ISZERO PUSH2 0x2647 JUMPI JUMPDEST POP POP POP SWAP1 JUMP JUMPDEST PUSH2 0x2653 SWAP2 SWAP3 SWAP4 POP PUSH2 0x2503 JUMP JUMPDEST AND EQ CODESIZE DUP1 DUP1 PUSH2 0x2641 JUMP JUMPDEST SWAP1 SWAP4 POP PUSH1 0x0 MSTORE PUSH1 0x5 PUSH1 0x20 MSTORE PUSH1 0x40 PUSH1 0x0 KECCAK256 DUP3 PUSH1 0x0 MSTORE PUSH1 0x20 MSTORE PUSH1 0xFF PUSH1 0x40 PUSH1 0x0 KECCAK256 SLOAD AND SWAP3 CODESIZE PUSH2 0x2639 JUMP JUMPDEST ISZERO PUSH2 0x268B JUMPI JUMP JUMPDEST PUSH1 0x40 MLOAD PUSH3 0x461BCD PUSH1 0xE5 SHL DUP2 MSTORE PUSH1 0x20 PUSH1 0x4 DUP3 ADD MSTORE PUSH1 0x25 PUSH1 0x24 DUP3 ADD MSTORE PUSH32 0x4552433732313A207472616E736665722066726F6D20696E636F727265637420 PUSH1 0x44 DUP3 ADD MSTORE PUSH5 0x37BBB732B9 PUSH1 0xD9 SHL PUSH1 0x64 DUP3 ADD MSTORE PUSH1 0x84 SWAP1 REVERT JUMPDEST PUSH2 0x2702 SWAP2 PUSH2 0x26EB DUP5 PUSH2 0x24E0 JUMP JUMPDEST PUSH1 0x1 PUSH1 0x1 PUSH1 0xA0 SHL SUB SWAP4 DUP5 DUP5 AND SWAP4 SWAP2 DUP6 AND DUP5 EQ PUSH2 0x2684 JUMP JUMPDEST DUP4 DUP3 AND SWAP4 DUP5 ISZERO PUSH2 0x28B8 JUMPI DUP4 SWAP2 DUP3 PUSH2 0x27FF JUMPI POP PUSH2 0x274C SWAP3 PUSH1 0x8 SLOAD DUP8 PUSH1 0x0 MSTORE PUSH1 0x9 PUSH1 0x20 MSTORE PUSH1 0x40 PUSH1 0x0 KECCAK256 SSTORE PUSH2 0x2733 DUP8 PUSH2 0x2C65 JUMP JUMPDEST DUP3 DUP7 SUB PUSH2 0x27CC JUMPI JUMPDEST POP PUSH2 0x2745 DUP7 PUSH2 0x24E0 JUMP JUMPDEST AND EQ PUSH2 0x2684 JUMP JUMPDEST PUSH32 0xDDF252AD1BE2C89B69C2B068FC378DAA952BA7F163C4A11628F55A4DF523B3EF PUSH1 0x0 DUP5 DUP2 MSTORE PUSH1 0x4 PUSH1 0x20 MSTORE PUSH1 0x40 DUP2 KECCAK256 PUSH12 0xFFFFFFFFFFFFFFFFFFFFFFFF PUSH1 0xA0 SHL SWAP1 DUP2 DUP2 SLOAD AND SWAP1 SSTORE DUP4 DUP3 MSTORE PUSH1 0x3 PUSH1 0x20 MSTORE PUSH1 0x40 DUP3 KECCAK256 PUSH1 0x0 NOT DUP2 SLOAD ADD SWAP1 SSTORE DUP5 DUP3 MSTORE PUSH1 0x40 DUP3 KECCAK256 PUSH1 0x1 DUP2 SLOAD ADD SWAP1 SSTORE DUP6 DUP3 MSTORE PUSH1 0x2 PUSH1 0x20 MSTORE DUP5 PUSH1 0x40 DUP4 KECCAK256 SWAP2 DUP3 SLOAD AND OR SWAP1 SSTORE DUP1 LOG4 JUMP JUMPDEST PUSH2 0x27D5 SWAP1 PUSH2 0x241D JUMP JUMPDEST PUSH1 0x40 PUSH1 0x0 DUP8 DUP2 MSTORE PUSH1 0x6 PUSH1 0x20 MSTORE DUP2 DUP2 KECCAK256 DUP4 DUP3 MSTORE PUSH1 0x20 MSTORE DUP9 DUP3 DUP3 KECCAK256 SSTORE DUP9 DUP2 MSTORE PUSH1 0x7 PUSH1 0x20 MSTORE KECCAK256 SSTORE CODESIZE PUSH2 0x273B JUMP JUMPDEST DUP6 DUP4 SUB PUSH2 0x2811 JUMPI JUMPDEST POP PUSH2 0x274C SWAP3 PUSH2 0x2733 JUMP JUMPDEST PUSH2 0x281C SWAP2 SWAP3 POP PUSH2 0x241D JUMP JUMPDEST PUSH1 0x0 NOT DUP2 ADD SWAP2 SWAP1 DUP3 GT PUSH2 0x28A2 JUMPI PUSH2 0x274C SWAP3 DUP5 SWAP3 PUSH1 0x0 SWAP1 DUP9 DUP3 MSTORE PUSH1 0x20 SWAP1 PUSH1 0x7 DUP3 MSTORE PUSH1 0x40 SWAP2 DUP3 DUP5 KECCAK256 SLOAD DUP3 DUP2 SUB PUSH2 0x286B JUMPI JUMPDEST POP DUP11 DUP5 MSTORE DUP4 DUP4 DUP2 KECCAK256 SSTORE DUP7 DUP5 MSTORE PUSH1 0x6 DUP2 MSTORE DUP3 DUP5 KECCAK256 SWAP2 DUP5 MSTORE MSTORE DUP2 KECCAK256 SSTORE SWAP3 PUSH2 0x2807 JUMP JUMPDEST DUP8 DUP6 MSTORE PUSH1 0x6 DUP3 MSTORE DUP4 DUP6 KECCAK256 DUP4 DUP7 MSTORE DUP3 MSTORE DUP4 DUP6 KECCAK256 SLOAD DUP9 DUP7 MSTORE PUSH1 0x6 DUP4 MSTORE DUP5 DUP7 KECCAK256 DUP3 DUP8 MSTORE DUP4 MSTORE DUP1 DUP6 DUP8 KECCAK256 SSTORE DUP6 MSTORE PUSH1 0x7 DUP3 MSTORE DUP4 DUP6 KECCAK256 SSTORE CODESIZE PUSH2 0x284B JUMP JUMPDEST PUSH4 0x4E487B71 PUSH1 0xE0 SHL PUSH1 0x0 MSTORE PUSH1 0x11 PUSH1 0x4 MSTORE PUSH1 0x24 PUSH1 0x0 REVERT JUMPDEST PUSH1 0x40 MLOAD PUSH3 0x461BCD PUSH1 0xE5 SHL DUP2 MSTORE PUSH1 0x20 PUSH1 0x4 DUP3 ADD MSTORE PUSH1 0x24 DUP1 DUP3 ADD MSTORE PUSH32 0x4552433732313A207472616E7366657220746F20746865207A65726F20616464 PUSH1 0x44 DUP3 ADD MSTORE PUSH4 0x72657373 PUSH1 0xE0 SHL PUSH1 0x64 DUP3 ADD MSTORE PUSH1 0x84 SWAP1 REVERT JUMPDEST SWAP2 SWAP3 SWAP1 SWAP2 DUP1 EXTCODESIZE ISZERO PUSH2 0x2A1A JUMPI PUSH2 0x2956 SWAP4 PUSH1 0x40 MLOAD SWAP1 DUP2 PUSH4 0xA85BD01 PUSH1 0xE1 SHL SWAP4 DUP5 DUP3 MSTORE CALLER PUSH1 0x4 DUP4 ADD MSTORE PUSH1 0x0 SWAP7 DUP8 PUSH1 0x24 DUP5 ADD MSTORE PUSH1 0x44 DUP4 ADD MSTORE PUSH1 0x80 PUSH1 0x64 DUP4 ADD MSTORE DUP2 DUP8 DUP2 PUSH1 0x20 SWAP11 DUP12 SWAP7 PUSH1 0x84 DUP4 ADD SWAP1 PUSH2 0x1D90 JUMP JUMPDEST SUB SWAP3 PUSH1 0x1 PUSH1 0x1 PUSH1 0xA0 SHL SUB AND GAS CALL DUP5 SWAP2 DUP2 PUSH2 0x29DA JUMPI JUMPDEST POP PUSH2 0x29C9 JUMPI POP POP POP RETURNDATASIZE PUSH1 0x0 EQ PUSH2 0x29C1 JUMPI RETURNDATASIZE PUSH2 0x2985 DUP2 PUSH2 0x1F33 JUMP JUMPDEST SWAP1 PUSH2 0x2993 PUSH1 0x40 MLOAD SWAP3 DUP4 PUSH2 0x1E6C JUMP JUMPDEST DUP2 MSTORE DUP1 SWAP2 DUP4 RETURNDATASIZE SWAP3 ADD RETURNDATACOPY JUMPDEST DUP1 MLOAD SWAP2 DUP3 PUSH2 0x29BE JUMPI PUSH1 0x40 MLOAD PUSH3 0x461BCD PUSH1 0xE5 SHL DUP2 MSTORE DUP1 PUSH2 0x190F PUSH1 0x4 DUP3 ADD PUSH2 0x25A3 JUMP JUMPDEST ADD REVERT JUMPDEST POP PUSH1 0x60 PUSH2 0x299D JUMP JUMPDEST PUSH1 0x1 PUSH1 0x1 PUSH1 0xE0 SHL SUB NOT AND EQ SWAP3 POP SWAP1 POP JUMP JUMPDEST SWAP1 SWAP2 POP DUP6 DUP2 DUP2 RETURNDATASIZE DUP4 GT PUSH2 0x2A13 JUMPI JUMPDEST PUSH2 0x29F2 DUP2 DUP4 PUSH2 0x1E6C JUMP JUMPDEST DUP2 ADD SUB SLT PUSH2 0xA51 JUMPI MLOAD PUSH1 0x1 PUSH1 0x1 PUSH1 0xE0 SHL SUB NOT DUP2 AND DUP2 SUB PUSH2 0xA51 JUMPI SWAP1 CODESIZE PUSH2 0x296B JUMP JUMPDEST POP RETURNDATASIZE PUSH2 0x29E8 JUMP JUMPDEST POP SWAP2 POP POP PUSH1 0x1 SWAP1 JUMP JUMPDEST SWAP3 SWAP4 SWAP2 SWAP1 DUP1 EXTCODESIZE ISZERO PUSH2 0x2AA0 JUMPI PUSH2 0x2A75 SWAP5 PUSH1 0x40 MLOAD DUP1 SWAP3 PUSH4 0xA85BD01 PUSH1 0xE1 SHL SWAP5 DUP6 DUP4 MSTORE CALLER PUSH1 0x4 DUP5 ADD MSTORE PUSH1 0x1 DUP1 PUSH1 0xA0 SHL SUB DUP1 SWAP9 AND PUSH1 0x24 DUP5 ADD MSTORE PUSH1 0x44 DUP4 ADD MSTORE PUSH1 0x80 PUSH1 0x64 DUP4 ADD MSTORE DUP2 DUP1 PUSH1 0x20 SWAP10 DUP11 SWAP6 PUSH1 0x84 DUP4 ADD SWAP1 PUSH2 0x1D90 JUMP JUMPDEST SUB SWAP2 PUSH1 0x0 SWAP9 DUP10 SWAP2 AND GAS CALL DUP5 SWAP2 DUP2 PUSH2 0x29DA JUMPI POP PUSH2 0x29C9 JUMPI POP POP POP RETURNDATASIZE PUSH1 0x0 EQ PUSH2 0x29C1 JUMPI RETURNDATASIZE PUSH2 0x2985 DUP2 PUSH2 0x1F33 JUMP JUMPDEST POP POP SWAP2 POP POP PUSH1 0x1 SWAP1 JUMP JUMPDEST SWAP1 DUP2 MLOAD DUP2 LT ISZERO PUSH2 0x2051 JUMPI ADD PUSH1 0x20 ADD SWAP1 JUMP JUMPDEST PUSH1 0x40 MLOAD SWAP1 PUSH1 0x60 DUP3 ADD DUP3 DUP2 LT PUSH1 0x1 PUSH1 0x1 PUSH1 0x40 SHL SUB DUP3 GT OR PUSH2 0x1E3B JUMPI PUSH1 0x40 MSTORE PUSH1 0x2A DUP3 MSTORE PUSH1 0x20 DUP3 ADD PUSH1 0x40 CALLDATASIZE DUP3 CALLDATACOPY DUP3 MLOAD ISZERO PUSH2 0x2051 JUMPI PUSH1 0x30 SWAP1 MSTORE8 DUP2 MLOAD PUSH1 0x1 SWAP1 DUP2 LT ISZERO PUSH2 0x2051 JUMPI PUSH1 0x78 PUSH1 0x21 DUP5 ADD MSTORE8 PUSH1 0x29 SWAP1 JUMPDEST DUP1 DUP3 GT PUSH2 0x2B5B JUMPI POP POP PUSH2 0x2B17 JUMPI SWAP1 JUMP JUMPDEST PUSH1 0x64 PUSH1 0x40 MLOAD PUSH3 0x461BCD PUSH1 0xE5 SHL DUP2 MSTORE PUSH1 0x20 PUSH1 0x4 DUP3 ADD MSTORE PUSH1 0x20 PUSH1 0x24 DUP3 ADD MSTORE PUSH32 0x537472696E67733A20686578206C656E67746820696E73756666696369656E74 PUSH1 0x44 DUP3 ADD MSTORE REVERT JUMPDEST SWAP1 SWAP2 PUSH1 0xF DUP2 AND PUSH1 0x10 DUP2 LT ISZERO PUSH2 0x2BB4 JUMPI PUSH16 0x181899199A1A9B1B9C1CB0B131B232B3 PUSH1 0x81 SHL SWAP1 BYTE PUSH2 0x2B8A DUP5 DUP7 PUSH2 0x2AAA JUMP JUMPDEST MSTORE8 PUSH1 0x4 SHR SWAP2 DUP1 ISZERO PUSH2 0x2B9F JUMPI PUSH1 0x0 NOT ADD SWAP1 PUSH2 0x2B07 JUMP JUMPDEST PUSH1 0x24 PUSH1 0x0 PUSH4 0x4E487B71 PUSH1 0xE0 SHL DUP2 MSTORE PUSH1 0x11 PUSH1 0x4 MSTORE REVERT JUMPDEST PUSH1 0x24 PUSH1 0x0 PUSH4 0x4E487B71 PUSH1 0xE0 SHL DUP2 MSTORE PUSH1 0x32 PUSH1 0x4 MSTORE REVERT JUMPDEST ISZERO PUSH2 0x2BD0 JUMPI JUMP JUMPDEST PUSH1 0x40 MLOAD PUSH3 0x461BCD PUSH1 0xE5 SHL DUP2 MSTORE PUSH1 0x20 PUSH1 0x4 DUP3 ADD MSTORE PUSH1 0x12 PUSH1 0x24 DUP3 ADD MSTORE PUSH18 0x92DCECC2D8D2C840DEE4C8CAE440D0C2E6D PUSH1 0x73 SHL PUSH1 0x44 DUP3 ADD MSTORE PUSH1 0x64 SWAP1 REVERT JUMPDEST ISZERO PUSH2 0x2C11 JUMPI JUMP JUMPDEST PUSH1 0x40 MLOAD PUSH3 0x461BCD PUSH1 0xE5 SHL DUP2 MSTORE PUSH1 0x20 PUSH1 0x4 DUP3 ADD MSTORE PUSH1 0x15 PUSH1 0x24 DUP3 ADD MSTORE PUSH21 0x13595D1859185D1848155493081C995C5D5A5C9959 PUSH1 0x5A SHL PUSH1 0x44 DUP3 ADD MSTORE PUSH1 0x64 SWAP1 REVERT JUMPDEST DUP2 DUP2 LT PUSH2 0x2C59 JUMPI POP POP JUMP JUMPDEST PUSH1 0x0 DUP2 SSTORE PUSH1 0x1 ADD PUSH2 0x2C4E JUMP JUMPDEST PUSH1 0x8 SLOAD SWAP1 PUSH1 0x1 PUSH1 0x40 SHL DUP3 LT ISZERO PUSH2 0x1E3B JUMPI PUSH2 0x3B7 DUP3 PUSH1 0x1 PUSH2 0x1ECB SWAP5 ADD PUSH1 0x8 SSTORE PUSH2 0x201A JUMP JUMPDEST PUSH1 0xFF PUSH1 0xD SLOAD AND PUSH2 0x2C94 JUMPI JUMP JUMPDEST PUSH1 0x40 MLOAD PUSH3 0x461BCD PUSH1 0xE5 SHL DUP2 MSTORE PUSH1 0x20 PUSH1 0x4 DUP3 ADD MSTORE PUSH1 0x10 PUSH1 0x24 DUP3 ADD MSTORE PUSH16 0x14185D5CD8589B194E881C185D5CD959 PUSH1 0x82 SHL PUSH1 0x44 DUP3 ADD MSTORE PUSH1 0x64 SWAP1 REVERT JUMPDEST SWAP1 PUSH1 0x40 SWAP2 DUP3 MLOAD SWAP3 PUSH2 0x2CDC DUP5 PUSH2 0x1E20 JUMP JUMPDEST PUSH1 0x0 DUP1 DUP6 MSTORE PUSH1 0x1 PUSH1 0x1 PUSH1 0xA0 SHL SUB DUP4 AND SWAP2 DUP3 ISZERO PUSH2 0x2DDF JUMPI SWAP4 DUP1 SWAP3 PUSH2 0x1ECB SWAP7 SWAP5 SWAP3 PUSH2 0x691 SWAP7 PUSH2 0x2D27 PUSH2 0x2D21 DUP6 PUSH1 0x0 MSTORE PUSH1 0x2 PUSH1 0x20 MSTORE PUSH1 0x1 DUP1 PUSH1 0xA0 SHL SUB PUSH1 0x40 PUSH1 0x0 KECCAK256 SLOAD AND ISZERO ISZERO SWAP1 JUMP JUMPDEST ISZERO PUSH2 0x2E22 JUMP JUMPDEST PUSH1 0x2 PUSH1 0x8 SLOAD DUP6 DUP5 MSTORE PUSH1 0x20 SWAP1 PUSH1 0x9 DUP3 MSTORE DUP4 DUP6 KECCAK256 SSTORE PUSH2 0x2D43 DUP7 PUSH2 0x2C65 JUMP JUMPDEST PUSH2 0x2D4C DUP8 PUSH2 0x241D JUMP JUMPDEST DUP6 DUP6 MSTORE PUSH1 0x6 DUP3 MSTORE DUP4 DUP6 KECCAK256 DUP2 DUP7 MSTORE DUP3 MSTORE DUP4 DUP6 KECCAK256 DUP8 SWAP1 SSTORE DUP7 DUP6 MSTORE PUSH1 0x7 DUP3 MSTORE DUP4 DUP6 KECCAK256 SSTORE PUSH1 0x0 DUP7 DUP2 MSTORE PUSH1 0x2 PUSH1 0x20 MSTORE PUSH1 0x40 SWAP1 KECCAK256 SLOAD PUSH2 0x2D8F SWAP1 PUSH1 0x1 PUSH1 0x1 PUSH1 0xA0 SHL SUB AND ISZERO ISZERO PUSH2 0x2D21 JUMP JUMPDEST DUP5 DUP5 MSTORE PUSH1 0x3 DUP2 MSTORE DUP3 DUP5 KECCAK256 DUP1 SLOAD PUSH1 0x1 ADD SWAP1 SSTORE DUP6 DUP5 MSTORE MSTORE DUP2 KECCAK256 DUP1 SLOAD PUSH1 0x1 PUSH1 0x1 PUSH1 0xA0 SHL SUB NOT AND DUP4 OR SWAP1 SSTORE PUSH32 0xDDF252AD1BE2C89B69C2B068FC378DAA952BA7F163C4A11628F55A4DF523B3EF DUP2 DUP1 LOG4 PUSH2 0x2909 JUMP JUMPDEST MLOAD PUSH3 0x461BCD PUSH1 0xE5 SHL DUP2 MSTORE PUSH1 0x20 PUSH1 0x4 DUP3 ADD DUP2 SWAP1 MSTORE PUSH1 0x24 DUP3 ADD MSTORE PUSH32 0x4552433732313A206D696E7420746F20746865207A65726F2061646472657373 PUSH1 0x44 DUP3 ADD MSTORE PUSH1 0x64 SWAP1 REVERT JUMPDEST ISZERO PUSH2 0x2E29 JUMPI JUMP JUMPDEST PUSH1 0x40 MLOAD PUSH3 0x461BCD PUSH1 0xE5 SHL DUP2 MSTORE PUSH1 0x20 PUSH1 0x4 DUP3 ADD MSTORE PUSH1 0x1C PUSH1 0x24 DUP3 ADD MSTORE PUSH32 0x4552433732313A20746F6B656E20616C7265616479206D696E74656400000000 PUSH1 0x44 DUP3 ADD MSTORE PUSH1 0x64 SWAP1 REVERT JUMPDEST PUSH1 0x0 DUP2 DUP2 MSTORE PUSH1 0x2 PUSH1 0x20 MSTORE PUSH1 0x40 SWAP1 KECCAK256 SLOAD SWAP2 SWAP3 SWAP2 PUSH1 0x1 PUSH1 0x1 PUSH1 0xA0 SHL SUB AND ISZERO PUSH2 0x2FEB JUMPI PUSH1 0x0 SWAP1 DUP1 DUP3 MSTORE PUSH1 0x20 SWAP2 PUSH1 0xA DUP4 MSTORE PUSH1 0x40 DUP2 KECCAK256 SWAP1 DUP6 MLOAD SWAP1 PUSH1 0x1 PUSH1 0x1 PUSH1 0x40 SHL SUB DUP3 GT PUSH2 0x2FD7 JUMPI PUSH2 0x2EBB DUP4 SLOAD PUSH2 0x1DE6 JUMP JUMPDEST PUSH1 0x1F DUP2 GT PUSH2 0x2FA9 JUMPI JUMPDEST POP DUP5 SWAP1 PUSH1 0x1F DUP4 GT PUSH1 0x1 EQ PUSH2 0x2F25 JUMPI SWAP1 PUSH32 0xF8E1A15ABA9398E019F0B49DF1A4FDE98EE17AE345CB5F6B5E2C27F5033E8CE7 SWAP7 SWAP8 DUP4 PUSH2 0x2F1A JUMPI JUMPDEST POP POP DUP2 PUSH1 0x1 SHL SWAP2 PUSH1 0x0 NOT SWAP1 PUSH1 0x3 SHL SHR NOT AND OR SWAP1 SSTORE JUMPDEST PUSH1 0x40 MLOAD SWAP1 DUP2 MSTORE LOG1 JUMP JUMPDEST ADD MLOAD SWAP1 POP CODESIZE DUP1 PUSH2 0x2EFC JUMP JUMPDEST SWAP2 SWAP7 PUSH1 0x1F NOT DUP9 AND DUP5 DUP5 MSTORE DUP7 DUP5 KECCAK256 SWAP4 JUMPDEST DUP2 DUP2 LT PUSH2 0x2F92 JUMPI POP SWAP2 PUSH1 0x1 SWAP4 SWAP2 DUP10 PUSH32 0xF8E1A15ABA9398E019F0B49DF1A4FDE98EE17AE345CB5F6B5E2C27F5033E8CE7 SWAP10 SWAP11 SWAP5 LT PUSH2 0x2F79 JUMPI JUMPDEST POP POP POP DUP2 SHL ADD SWAP1 SSTORE PUSH2 0x2F11 JUMP JUMPDEST ADD MLOAD PUSH1 0x0 NOT PUSH1 0xF8 DUP5 PUSH1 0x3 SHL AND SHR NOT AND SWAP1 SSTORE CODESIZE DUP1 DUP1 PUSH2 0x2F6C JUMP JUMPDEST SWAP3 SWAP4 DUP8 PUSH1 0x1 DUP2 SWAP3 DUP8 DUP7 ADD MLOAD DUP2 SSTORE ADD SWAP6 ADD SWAP4 ADD PUSH2 0x2F34 JUMP JUMPDEST PUSH2 0x2FD1 SWAP1 DUP5 DUP4 MSTORE DUP7 DUP4 KECCAK256 PUSH1 0x1F DUP6 ADD PUSH1 0x5 SHR DUP2 ADD SWAP2 DUP9 DUP7 LT PUSH2 0x8AB JUMPI PUSH1 0x1F ADD PUSH1 0x5 SHR ADD SWAP1 PUSH2 0x2C4E JUMP JUMPDEST CODESIZE PUSH2 0x2EC4 JUMP JUMPDEST PUSH4 0x4E487B71 PUSH1 0xE0 SHL DUP2 MSTORE PUSH1 0x41 PUSH1 0x4 MSTORE PUSH1 0x24 SWAP1 REVERT JUMPDEST PUSH1 0x40 MLOAD PUSH3 0x461BCD PUSH1 0xE5 SHL DUP2 MSTORE PUSH1 0x20 PUSH1 0x4 DUP3 ADD MSTORE PUSH1 0x2E PUSH1 0x24 DUP3 ADD MSTORE PUSH32 0x45524337323155524953746F726167653A2055524920736574206F66206E6F6E PUSH1 0x44 DUP3 ADD MSTORE PUSH14 0x32BC34B9BA32B73A103A37B5B2B7 PUSH1 0x91 SHL PUSH1 0x64 DUP3 ADD MSTORE PUSH1 0x84 SWAP1 REVERT JUMPDEST ISZERO PUSH2 0x304E JUMPI JUMP JUMPDEST PUSH1 0x40 MLOAD PUSH3 0x461BCD PUSH1 0xE5 SHL DUP2 MSTORE PUSH1 0x20 PUSH1 0x4 DUP3 ADD MSTORE PUSH1 0x14 PUSH1 0x24 DUP3 ADD MSTORE PUSH20 0x151BDAD95B88191BD95CC81B9BDD08195E1A5CDD PUSH1 0x62 SHL PUSH1 0x44 DUP3 ADD MSTORE PUSH1 0x64 SWAP1 REVERT JUMPDEST PUSH1 0x0 DUP2 DUP2 MSTORE PUSH1 0x2 PUSH1 0x20 MSTORE PUSH1 0x40 SWAP1 KECCAK256 SLOAD PUSH2 0x30AD SWAP1 PUSH1 0x1 PUSH1 0x1 PUSH1 0xA0 SHL SUB AND ISZERO ISZERO PUSH2 0x2494 JUMP JUMPDEST PUSH1 0x0 MSTORE PUSH1 0xA PUSH1 0x20 MSTORE PUSH2 0x30C2 PUSH1 0x40 PUSH1 0x0 KECCAK256 PUSH2 0x1E8D JUMP JUMPDEST PUSH1 0x0 PUSH1 0x40 MLOAD PUSH2 0x30D0 DUP2 PUSH2 0x1E20 JUMP JUMPDEST MSTORE SWAP1 JUMP JUMPDEST PUSH32 0x88A5966D370B9919B20F3E2C13FF65706F196A4E32CC2C12BF57088F88525874 PUSH1 0x40 DUP1 MLOAD CALLER DUP2 MSTORE CALLVALUE PUSH1 0x20 DUP3 ADD MSTORE LOG1 JUMP INVALID LOG2 PUSH5 0x6970667358 0x22 SLT KECCAK256 SWAP2 SWAP5 PUSH32 0x24ABEDB2175AF0FE6B2BC6E7A05DD470544D1C9894B1E12819050D982D64736F PUSH13 0x634300081400332F8788117E7E SELFDESTRUCT SAR DUP3 0xE9 0x26 0xEC PUSH26 0x4901D17C78024A50270940304540A733656F0D00000000000000 "},"methodIdentifiers":{"ADMIN_ROLE()":"75b238fc","DEFAULT_ADMIN_ROLE()":"a217fddf","MINTER_ROLE()":"d5391393","approve(address,uint256)":"095ea7b3","balanceOf(address)":"70a08231","getApproved(uint256)":"081812fc","getRoleAdmin(bytes32)":"248a9ca3","grantRole(bytes32,address)":"2f2ff15d","hasRole(bytes32,address)":"91d14854","isApprovedForAll(address,address)":"e985e9c5","name()":"06fdde03","orderHashToTokenId(bytes32)":"5f010ca1","ownerOf(uint256)":"6352211e","ownerTokens(address,uint256)":"28b60031","pause()":"8456cb59","paused()":"5c975abb","receipts(uint256)":"0f7ee1ec","renounceRole(bytes32,address)":"36568abe","restoreReceipt(address,bytes32,string)":"b07dbcdd","revokeReceipt(uint256,string)":"bd98de16","revokeRole(bytes32,address)":"d547741f","safeMint(address,bytes32,string)":"1c759b69","safeTransferFrom(address,address,uint256)":"42842e0e","safeTransferFrom(address,address,uint256,bytes)":"b88d4fde","setApprovalForAll(address,bool)":"a22cb465","setBaseURI(string)":"55f804b3","supportsInterface(bytes4)":"01ffc9a7","symbol()":"95d89b41","tokenByIndex(uint256)":"4f6ccce7","tokenOfOwnerByIndex(address,uint256)":"2f745c59","tokenURI(uint256)":"c87b56dd","totalSupply()":"18160ddd","transferFrom(address,address,uint256)":"23b872dd","unpause()":"3f4ba83a","updateMetadata(uint256,string)":"53c8388e"}}}}}