{"contracts/PaymentContract.sol":{"PaymentContract":{"abi":[{"inputs":[{"internalType":"address","name":"_recipientWallet","type":"address"}],"stateMutability":"nonpayable","type":"constructor"},{"anonymous":false,"inputs":[{"indexed":true,"internalType":"address","name":"caller","type":"address"},{"indexed":false,"internalType":"uint256","name":"timestamp","type":"uint256"}],"name":"EmergencyPause","type":"event"},{"anonymous":false,"inputs":[{"indexed":true,"internalType":"address","name":"caller","type":"address"},{"indexed":false,"internalType":"uint256","name":"timestamp","type":"uint256"}],"name":"EmergencyUnpause","type":"event"},{"anonymous":false,"inputs":[{"indexed":true,"internalType":"string","name":"orderId","type":"string"},{"indexed":true,"internalType":"address","name":"payer","type":"address"},{"indexed":false,"internalType":"uint256","name":"amount","type":"uint256"},{"indexed":true,"internalType":"address","name":"token","type":"address"},{"indexed":false,"internalType":"string","name":"paymentMethod","type":"string"},{"indexed":false,"internalType":"uint256","name":"timestamp","type":"uint256"}],"name":"OrderPaid","type":"event"},{"anonymous":false,"inputs":[{"indexed":true,"internalType":"address","name":"previousOwner","type":"address"},{"indexed":true,"internalType":"address","name":"newOwner","type":"address"}],"name":"OwnershipTransferred","type":"event"},{"anonymous":false,"inputs":[{"indexed":true,"internalType":"string","name":"orderId","type":"string"},{"indexed":true,"internalType":"address","name":"payer","type":"address"},{"indexed":false,"internalType":"string","name":"reason","type":"string"},{"indexed":false,"internalType":"uint256","name":"timestamp","type":"uint256"}],"name":"PaymentFailed","type":"event"},{"inputs":[],"name":"ETH_RATE","outputs":[{"internalType":"uint256","name":"","type":"uint256"}],"stateMutability":"view","type":"function"},{"inputs":[],"name":"NATIVE_TOKEN","outputs":[{"internalType":"address","name":"","type":"address"}],"stateMutability":"view","type":"function"},{"inputs":[],"name":"USDC_RATE","outputs":[{"internalType":"uint256","name":"","type":"uint256"}],"stateMutability":"view","type":"function"},{"inputs":[],"name":"USDC_TOKEN","outputs":[{"internalType":"address","name":"","type":"address"}],"stateMutability":"view","type":"function"},{"inputs":[],"name":"USDT_RATE","outputs":[{"internalType":"uint256","name":"","type":"uint256"}],"stateMutability":"view","type":"function"},{"inputs":[],"name":"USDT_TOKEN","outputs":[{"internalType":"address","name":"","type":"address"}],"stateMutability":"view","type":"function"},{"inputs":[{"internalType":"address","name":"","type":"address"}],"name":"authorizedTokens","outputs":[{"internalType":"bool","name":"","type":"bool"}],"stateMutability":"view","type":"function"},{"inputs":[{"internalType":"address","name":"token","type":"address"}],"name":"getBalance","outputs":[{"internalType":"uint256","name":"","type":"uint256"}],"stateMutability":"view","type":"function"},{"inputs":[{"internalType":"address","name":"token","type":"address"}],"name":"getExchangeRate","outputs":[{"internalType":"uint256","name":"","type":"uint256"}],"stateMutability":"view","type":"function"},{"inputs":[],"name":"getSupportedTokens","outputs":[{"internalType":"address[]","name":"","type":"address[]"}],"stateMutability":"view","type":"function"},{"inputs":[{"internalType":"string","name":"orderId","type":"string"}],"name":"isOrderProcessed","outputs":[{"internalType":"bool","name":"","type":"bool"}],"stateMutability":"view","type":"function"},{"inputs":[],"name":"owner","outputs":[{"internalType":"address","name":"","type":"address"}],"stateMutability":"view","type":"function"},{"inputs":[],"name":"pause","outputs":[],"stateMutability":"nonpayable","type":"function"},{"inputs":[],"name":"paused","outputs":[{"internalType":"bool","name":"","type":"bool"}],"stateMutability":"view","type":"function"},{"inputs":[{"internalType":"string","name":"orderId","type":"string"}],"name":"payOrderWithNative","outputs":[],"stateMutability":"payable","type":"function"},{"inputs":[{"internalType":"string","name":"orderId","type":"string"},{"internalType":"address","name":"token","type":"address"},{"internalType":"uint256","name":"amount","type":"uint256"}],"name":"payOrderWithToken","outputs":[],"stateMutability":"nonpayable","type":"function"},{"inputs":[{"internalType":"string","name":"","type":"string"}],"name":"processedOrders","outputs":[{"internalType":"bool","name":"","type":"bool"}],"stateMutability":"view","type":"function"},{"inputs":[],"name":"recipientWallet","outputs":[{"internalType":"address","name":"","type":"address"}],"stateMutability":"view","type":"function"},{"inputs":[],"name":"renounceOwnership","outputs":[],"stateMutability":"nonpayable","type":"function"},{"inputs":[{"internalType":"address","name":"_recipientWallet","type":"address"}],"name":"setRecipientWallet","outputs":[],"stateMutability":"nonpayable","type":"function"},{"inputs":[{"internalType":"address","name":"token","type":"address"},{"internalType":"bool","name":"authorized","type":"bool"}],"name":"setTokenAuthorization","outputs":[],"stateMutability":"nonpayable","type":"function"},{"inputs":[{"internalType":"address","name":"newOwner","type":"address"}],"name":"transferOwnership","outputs":[],"stateMutability":"nonpayable","type":"function"},{"inputs":[],"name":"unpause","outputs":[],"stateMutability":"nonpayable","type":"function"},{"inputs":[{"internalType":"address","name":"token","type":"address"},{"internalType":"uint256","name":"amount","type":"uint256"}],"name":"withdraw","outputs":[],"stateMutability":"nonpayable","type":"function"},{"stateMutability":"payable","type":"receive"}],"evm":{"bytecode":{"linkReferences":{},"object":"60803461016757601f6112e538819003918201601f191683019291906001600160401b0384118385101761016c57816020928492604096875283398101031261016757516001600160a01b03908181169081810361016757600160008181558154336001600160a01b031982168117845587519395929492939187167f8be0079c531659141344cd1fd0a4f28419497f9722a3daafe3b4186f6b6457e08680a3600454926161a8806007556008556332a9f8806009551561012557506001600160a81b031990911660089190911b610100600160a81b031617600455600554831681526002602052838120805460ff1990811684179091556006549093168152838120805484168317905580805283902080549092161790555161116290816101838239f35b62461bcd60e51b815260206004820152601860248201527f496e76616c696420726563697069656e742077616c6c657400000000000000006044820152606490fd5b600080fd5b634e487b7160e01b600052604160045260246000fdfe60406080815260049081361015610020575b5050361561001e57600080fd5b005b600091823560e01c90816303196aa914610abe5781630600ac6e14610a24578163136758fd146109f85781632d5c94051461086457816331f7d964146108495781633d116e261461051d5781633f4ba83a146107b857816350290018146107995781635c975abb14610776578163715018a61461071957816377b330c9146106f0578163804f7b6f1461069a5781638456cb59146105fc5781638da5cb5b146105d35781639bc7c58614610595578163bcf9401814610576578163cc82d7be1461051d578163d3c7c2c7146104185783908263efb7601d146103f2578263f2fde38b14610322578263f3fef3a3146101a95750508063f8b2cb4f1461017d578063fa569274146101555763fd06ecc50361001157346101515781600319360112610151576020906009549051908152f35b5080fd5b503461015157816003193601126101515760065490516001600160a01b039091168152602090f35b5034610151576020366003190112610151576020906101a261019d610e0b565b61106d565b9051908152f35b909150346101515782600319360112610151576101c4610e0b565b90602435916101d1610e4c565b8215916101de8315610f70565b6001600160a01b039182168061022d57505082849392849392610204859447101561102a565b60015416908390610224575bf11561021a575080f35b51903d90823e3d90fd5b506108fc610210565b86516370a0823160e01b815230818401526020979596509293509187908781602481875afa90811561031857829188918a969594916102dd575b5060449495969161027991101561102a565b60015416938651978895869463a9059cbb60e01b865285015260248401525af19081156102d457506102aa57505080f35b816102c992903d106102cd575b6102c18183610d6b565b810190610fbc565b5080f35b503d6102b7565b513d85823e3d90fd5b94958092508591503d8311610311575b6102f78183610d6b565b8101031261030e5791518793929087906044610267565b80fd5b503d6102ed565b86513d84823e3d90fd5b8390346103ee5760203660031901126103ee5761033d610e0b565b90610346610e4c565b6001600160a01b0391821692831561039c575050600154826bffffffffffffffffffffffff60a01b821617600155167f8be0079c531659141344cd1fd0a4f28419497f9722a3daafe3b4186f6b6457e08380a380f35b906020608492519162461bcd60e51b8352820152602660248201527f4f776e61626c653a206e6577206f776e657220697320746865207a65726f206160448201526564647265737360d01b6064820152fd5b8280fd5b508234610151576020366003190112610151576020906101a2610413610e0b565b6110eb565b82843461030e578060031936011261030e5781516080810181811067ffffffffffffffff82111761050a57835260038152602080820192606036853760055483516001600160a01b0391821690156104f75785528060065416968451976001988910156104e457878601528451600210156104d157509286928694836060840152855195828701938388525180945286019693905b8382106104ba5786880387f35b8451811688529682019693820193908501906104ad565b634e487b7160e01b835260329052602482fd5b634e487b7160e01b845260328252602484fd5b634e487b7160e01b835260328852602483fd5b634e487b7160e01b835260418552602483fd5b82843461030e57602036600319011261030e5782359067ffffffffffffffff821161030e57506105636020610558819560ff94369101610dbf565b845192838092610e21565b6003815203019020541690519015158152f35b5050346101515781600319360112610151576020906007549051908152f35b5050346101515760203660031901126101515760209160ff9082906001600160a01b036105c0610e0b565b1681526002855220541690519015158152f35b50503461015157816003193601126101515760015490516001600160a01b039091168152602090f35b9050346103ee57826003193601126103ee57610616610e4c565b805460ff81166106575760019060ff1916179055514281527f6eae7d8f48015fddc9502717696ac737bec3d20c703c3958a689f8f48574718360203392a280f35b506020606492519162461bcd60e51b8352820152601760248201527f436f6e747261637420616c7265616479207061757365640000000000000000006044820152fd5b5050346101515780600319360112610151576106b4610e0b565b90602435918215158093036106ec576106cb610e4c565b60018060a01b03168352600260205282209060ff8019835416911617905580f35b8380fd5b50503461015157816003193601126101515760055490516001600160a01b039091168152602090f35b833461030e578060031936011261030e57610732610e4c565b600180546001600160a01b0319811690915581906001600160a01b03167f8be0079c531659141344cd1fd0a4f28419497f9722a3daafe3b4186f6b6457e08280a380f35b82843461030e578060031936011261030e575060ff602092541690519015158152f35b5050346101515781600319360112610151576020906008549051908152f35b9050346103ee57826003193601126103ee576107d2610e4c565b805460ff8116156108105760ff19169055514281527f3fc6beefa3f4115babe1a3d46940222e37b39b9ef03dc7b79f832dbcc3da6abf60203392a280f35b506020606492519162461bcd60e51b8352820152601360248201527210dbdb9d1c9858dd081b9bdd081c185d5cd959606a1b6044820152fd5b50503461015157816003193601126101515751908152602090f35b83602084366003190182136103ee57833567ffffffffffffffff81116106ec576108919036908601610dbf565b9361089a610fd4565b8380808084546108ad60ff821615610ea4565b6108b98a511515610ee5565b6108de60ff6108ce8a8d8b5192838092610e21565b6003815203019020541615610f24565b6108e9341515610f70565b349060081c6001600160a01b03165af13d156109f3573d61090981610da3565b9061091685519283610d6b565b815285853d92013e5b156109b257506109568394825184816109388185610e21565b6003815203019020600160ff19825416179055825191828092610e21565b039020906060815193348552840152600b60608401526a2720aa24ab22afa1a7a4a760a91b608084015242908301527fa544be43a5f07a5f0249714e2f7a4b6dc5cda48d34d2c146f8a279fc1fa2b8bc60a03393a46001815580f35b82606492519162461bcd60e51b8352820152601b60248201527f4e617469766520636f696e207472616e73666572206661696c656400000000006044820152fd5b61091f565b9050346103ee57826003193601126103ee5754905160089190911c6001600160a01b0316815260209150f35b919050346103ee5760203660031901126103ee57610a40610e0b565b90610a49610e4c565b6001600160a01b03821615610a7c57508154610100600160a81b03191660089190911b610100600160a81b031617905580f35b5162461bcd60e51b8152602081840152601860248201527f496e76616c696420726563697069656e742077616c6c657400000000000000006044820152606490fd5b9050346103ee5760603660031901126103ee57803567ffffffffffffffff81116106ec57610aef9036908301610dbf565b6001600160a01b0360243581811694919290859003610d675760443593610b14610fd4565b8054610b2360ff821615610ea4565b846005541687148015610d5a575b8015610d52575b15610d1b57610b4983511515610ee5565b835194610b7160ff87610b5c8188610e21565b600381526020998a9103019020541615610f24565b610b7c871515610f70565b8451916323b872dd60e01b8352338484015260081c16602482015285604482015284816064818b8b5af1908115610d11578891610cf4575b5015610c465750610bed60609183518581610bcf8185610e21565b6003815203019020600160ff19825416179055835191828092610e21565b039020928251948552840152600b60608401526a22a92199182faa27a5a2a760a91b608084015242908301527fa544be43a5f07a5f0249714e2f7a4b6dc5cda48d34d2c146f8a279fc1fa2b8bc60a03393a46001815580f35b9350610c5790825191828092610e21565b0390208151908282527fd3212626bea413568e588ce2195c35a26f191fb807dbe4e80f8b1a92fab98028610cb08484016040906015815274151bdad95b881d1c985b9cd9995c8819985a5b1959605a1b60208201520190565b9242868201528033940390a35162461bcd60e51b8152918201526015602482015274151bdad95b881d1c985b9cd9995c8819985a5b1959605a1b6044820152606490fd5b610d0b9150853d87116102cd576102c18183610d6b565b38610bb4565b84513d8a823e3d90fd5b835162461bcd60e51b815260208184015260116024820152702ab739bab83837b93a32b2103a37b5b2b760791b6044820152606490fd5b508615610b38565b5084600654168714610b31565b8580fd5b90601f8019910116810190811067ffffffffffffffff821117610d8d57604052565b634e487b7160e01b600052604160045260246000fd5b67ffffffffffffffff8111610d8d57601f01601f191660200190565b81601f82011215610e0657803590610dd682610da3565b92610de46040519485610d6b565b82845260208383010111610e0657816000926020809301838601378301015290565b600080fd5b600435906001600160a01b0382168203610e0657565b9081519160005b838110610e39575050016000815290565b8060208092840101518185015201610e28565b6001546001600160a01b03163303610e6057565b606460405162461bcd60e51b815260206004820152602060248201527f4f776e61626c653a2063616c6c6572206973206e6f7420746865206f776e65726044820152fd5b15610eab57565b60405162461bcd60e51b815260206004820152601260248201527110dbdb9d1c9858dd081a5cc81c185d5cd95960721b6044820152606490fd5b15610eec57565b60405162461bcd60e51b815260206004820152601060248201526f125b9d985b1a59081bdc99195c88125160821b6044820152606490fd5b15610f2b57565b60405162461bcd60e51b815260206004820152601760248201527f4f7264657220616c72656164792070726f6365737365640000000000000000006044820152606490fd5b15610f7757565b60405162461bcd60e51b815260206004820152601d60248201527f416d6f756e74206d7573742062652067726561746572207468616e20300000006044820152606490fd5b90816020910312610e0657518015158103610e065790565b600260005414610fe5576002600055565b60405162461bcd60e51b815260206004820152601f60248201527f5265656e7472616e637947756172643a207265656e7472616e742063616c6c006044820152606490fd5b1561103157565b60405162461bcd60e51b8152602060048201526014602482015273496e73756666696369656e742062616c616e636560601b6044820152606490fd5b6001600160a01b031680156110e6576020602491604051928380926370a0823160e01b82523060048301525afa9081156110da576000916110ac575090565b906020823d82116110d2575b816110c560209383610d6b565b8101031261030e57505190565b3d91506110b8565b6040513d6000823e3d90fd5b504790565b6005546001600160a01b039182169190811682146111245760065416811461111d571561111757600090565b60095490565b5060085490565b50506007549056fea2646970667358221220a3713a00abb957366cbdcd9f93c2447ba909eabccdb84a37cc5efd04713f54be64736f6c63430008140033","opcodes":"PUSH1 0x80 CALLVALUE PUSH2 0x167 JUMPI PUSH1 0x1F PUSH2 0x12E5 CODESIZE DUP2 SWAP1 SUB SWAP2 DUP3 ADD PUSH1 0x1F NOT AND DUP4 ADD SWAP3 SWAP2 SWAP1 PUSH1 0x1 PUSH1 0x1 PUSH1 0x40 SHL SUB DUP5 GT DUP4 DUP6 LT OR PUSH2 0x16C JUMPI DUP2 PUSH1 0x20 SWAP3 DUP5 SWAP3 PUSH1 0x40 SWAP7 DUP8 MSTORE DUP4 CODECOPY DUP2 ADD SUB SLT PUSH2 0x167 JUMPI MLOAD PUSH1 0x1 PUSH1 0x1 PUSH1 0xA0 SHL SUB SWAP1 DUP2 DUP2 AND SWAP1 DUP2 DUP2 SUB PUSH2 0x167 JUMPI PUSH1 0x1 PUSH1 0x0 DUP2 DUP2 SSTORE DUP2 SLOAD CALLER PUSH1 0x1 PUSH1 0x1 PUSH1 0xA0 SHL SUB NOT DUP3 AND DUP2 OR DUP5 SSTORE DUP8 MLOAD SWAP4 SWAP6 SWAP3 SWAP5 SWAP3 SWAP4 SWAP2 DUP8 AND PUSH32 0x8BE0079C531659141344CD1FD0A4F28419497F9722A3DAAFE3B4186F6B6457E0 DUP7 DUP1 LOG3 PUSH1 0x4 SLOAD SWAP3 PUSH2 0x61A8 DUP1 PUSH1 0x7 SSTORE PUSH1 0x8 SSTORE PUSH4 0x32A9F880 PUSH1 0x9 SSTORE ISZERO PUSH2 0x125 JUMPI POP PUSH1 0x1 PUSH1 0x1 PUSH1 0xA8 SHL SUB NOT SWAP1 SWAP2 AND PUSH1 0x8 SWAP2 SWAP1 SWAP2 SHL PUSH2 0x100 PUSH1 0x1 PUSH1 0xA8 SHL SUB AND OR PUSH1 0x4 SSTORE PUSH1 0x5 SLOAD DUP4 AND DUP2 MSTORE PUSH1 0x2 PUSH1 0x20 MSTORE DUP4 DUP2 KECCAK256 DUP1 SLOAD PUSH1 0xFF NOT SWAP1 DUP2 AND DUP5 OR SWAP1 SWAP2 SSTORE PUSH1 0x6 SLOAD SWAP1 SWAP4 AND DUP2 MSTORE DUP4 DUP2 KECCAK256 DUP1 SLOAD DUP5 AND DUP4 OR SWAP1 SSTORE DUP1 DUP1 MSTORE DUP4 SWAP1 KECCAK256 DUP1 SLOAD SWAP1 SWAP3 AND OR SWAP1 SSTORE MLOAD PUSH2 0x1162 SWAP1 DUP2 PUSH2 0x183 DUP3 CODECOPY RETURN JUMPDEST PUSH3 0x461BCD PUSH1 0xE5 SHL DUP2 MSTORE PUSH1 0x20 PUSH1 0x4 DUP3 ADD MSTORE PUSH1 0x18 PUSH1 0x24 DUP3 ADD MSTORE PUSH32 0x496E76616C696420726563697069656E742077616C6C65740000000000000000 PUSH1 0x44 DUP3 ADD MSTORE PUSH1 0x64 SWAP1 REVERT JUMPDEST PUSH1 0x0 DUP1 REVERT JUMPDEST PUSH4 0x4E487B71 PUSH1 0xE0 SHL PUSH1 0x0 MSTORE PUSH1 0x41 PUSH1 0x4 MSTORE PUSH1 0x24 PUSH1 0x0 REVERT INVALID PUSH1 0x40 PUSH1 0x80 DUP2 MSTORE PUSH1 0x4 SWAP1 DUP2 CALLDATASIZE LT ISZERO PUSH2 0x20 JUMPI JUMPDEST POP POP CALLDATASIZE ISZERO PUSH2 0x1E JUMPI PUSH1 0x0 DUP1 REVERT JUMPDEST STOP JUMPDEST PUSH1 0x0 SWAP2 DUP3 CALLDATALOAD PUSH1 0xE0 SHR SWAP1 DUP2 PUSH4 0x3196AA9 EQ PUSH2 0xABE JUMPI DUP2 PUSH4 0x600AC6E EQ PUSH2 0xA24 JUMPI DUP2 PUSH4 0x136758FD EQ PUSH2 0x9F8 JUMPI DUP2 PUSH4 0x2D5C9405 EQ PUSH2 0x864 JUMPI DUP2 PUSH4 0x31F7D964 EQ PUSH2 0x849 JUMPI DUP2 PUSH4 0x3D116E26 EQ PUSH2 0x51D JUMPI DUP2 PUSH4 0x3F4BA83A EQ PUSH2 0x7B8 JUMPI DUP2 PUSH4 0x50290018 EQ PUSH2 0x799 JUMPI DUP2 PUSH4 0x5C975ABB EQ PUSH2 0x776 JUMPI DUP2 PUSH4 0x715018A6 EQ PUSH2 0x719 JUMPI DUP2 PUSH4 0x77B330C9 EQ PUSH2 0x6F0 JUMPI DUP2 PUSH4 0x804F7B6F EQ PUSH2 0x69A JUMPI DUP2 PUSH4 0x8456CB59 EQ PUSH2 0x5FC JUMPI DUP2 PUSH4 0x8DA5CB5B EQ PUSH2 0x5D3 JUMPI DUP2 PUSH4 0x9BC7C586 EQ PUSH2 0x595 JUMPI DUP2 PUSH4 0xBCF94018 EQ PUSH2 0x576 JUMPI DUP2 PUSH4 0xCC82D7BE EQ PUSH2 0x51D JUMPI DUP2 PUSH4 0xD3C7C2C7 EQ PUSH2 0x418 JUMPI DUP4 SWAP1 DUP3 PUSH4 0xEFB7601D EQ PUSH2 0x3F2 JUMPI DUP3 PUSH4 0xF2FDE38B EQ PUSH2 0x322 JUMPI DUP3 PUSH4 0xF3FEF3A3 EQ PUSH2 0x1A9 JUMPI POP POP DUP1 PUSH4 0xF8B2CB4F EQ PUSH2 0x17D JUMPI DUP1 PUSH4 0xFA569274 EQ PUSH2 0x155 JUMPI PUSH4 0xFD06ECC5 SUB PUSH2 0x11 JUMPI CALLVALUE PUSH2 0x151 JUMPI DUP2 PUSH1 0x3 NOT CALLDATASIZE ADD SLT PUSH2 0x151 JUMPI PUSH1 0x20 SWAP1 PUSH1 0x9 SLOAD SWAP1 MLOAD SWAP1 DUP2 MSTORE RETURN JUMPDEST POP DUP1 REVERT JUMPDEST POP CALLVALUE PUSH2 0x151 JUMPI DUP2 PUSH1 0x3 NOT CALLDATASIZE ADD SLT PUSH2 0x151 JUMPI PUSH1 0x6 SLOAD SWAP1 MLOAD PUSH1 0x1 PUSH1 0x1 PUSH1 0xA0 SHL SUB SWAP1 SWAP2 AND DUP2 MSTORE PUSH1 0x20 SWAP1 RETURN JUMPDEST POP CALLVALUE PUSH2 0x151 JUMPI PUSH1 0x20 CALLDATASIZE PUSH1 0x3 NOT ADD SLT PUSH2 0x151 JUMPI PUSH1 0x20 SWAP1 PUSH2 0x1A2 PUSH2 0x19D PUSH2 0xE0B JUMP JUMPDEST PUSH2 0x106D JUMP JUMPDEST SWAP1 MLOAD SWAP1 DUP2 MSTORE RETURN JUMPDEST SWAP1 SWAP2 POP CALLVALUE PUSH2 0x151 JUMPI DUP3 PUSH1 0x3 NOT CALLDATASIZE ADD SLT PUSH2 0x151 JUMPI PUSH2 0x1C4 PUSH2 0xE0B JUMP JUMPDEST SWAP1 PUSH1 0x24 CALLDATALOAD SWAP2 PUSH2 0x1D1 PUSH2 0xE4C JUMP JUMPDEST DUP3 ISZERO SWAP2 PUSH2 0x1DE DUP4 ISZERO PUSH2 0xF70 JUMP JUMPDEST PUSH1 0x1 PUSH1 0x1 PUSH1 0xA0 SHL SUB SWAP2 DUP3 AND DUP1 PUSH2 0x22D JUMPI POP POP DUP3 DUP5 SWAP4 SWAP3 DUP5 SWAP4 SWAP3 PUSH2 0x204 DUP6 SWAP5 SELFBALANCE LT ISZERO PUSH2 0x102A JUMP JUMPDEST PUSH1 0x1 SLOAD AND SWAP1 DUP4 SWAP1 PUSH2 0x224 JUMPI JUMPDEST CALL ISZERO PUSH2 0x21A JUMPI POP DUP1 RETURN JUMPDEST MLOAD SWAP1 RETURNDATASIZE SWAP1 DUP3 RETURNDATACOPY RETURNDATASIZE SWAP1 REVERT JUMPDEST POP PUSH2 0x8FC PUSH2 0x210 JUMP JUMPDEST DUP7 MLOAD PUSH4 0x70A08231 PUSH1 0xE0 SHL DUP2 MSTORE ADDRESS DUP2 DUP5 ADD MSTORE PUSH1 0x20 SWAP8 SWAP6 SWAP7 POP SWAP3 SWAP4 POP SWAP2 DUP8 SWAP1 DUP8 DUP2 PUSH1 0x24 DUP2 DUP8 GAS STATICCALL SWAP1 DUP2 ISZERO PUSH2 0x318 JUMPI DUP3 SWAP2 DUP9 SWAP2 DUP11 SWAP7 SWAP6 SWAP5 SWAP2 PUSH2 0x2DD JUMPI JUMPDEST POP PUSH1 0x44 SWAP5 SWAP6 SWAP7 SWAP2 PUSH2 0x279 SWAP2 LT ISZERO PUSH2 0x102A JUMP JUMPDEST PUSH1 0x1 SLOAD AND SWAP4 DUP7 MLOAD SWAP8 DUP9 SWAP6 DUP7 SWAP5 PUSH4 0xA9059CBB PUSH1 0xE0 SHL DUP7 MSTORE DUP6 ADD MSTORE PUSH1 0x24 DUP5 ADD MSTORE GAS CALL SWAP1 DUP2 ISZERO PUSH2 0x2D4 JUMPI POP PUSH2 0x2AA JUMPI POP POP DUP1 RETURN JUMPDEST DUP2 PUSH2 0x2C9 SWAP3 SWAP1 RETURNDATASIZE LT PUSH2 0x2CD JUMPI JUMPDEST PUSH2 0x2C1 DUP2 DUP4 PUSH2 0xD6B JUMP JUMPDEST DUP2 ADD SWAP1 PUSH2 0xFBC JUMP JUMPDEST POP DUP1 RETURN JUMPDEST POP RETURNDATASIZE PUSH2 0x2B7 JUMP JUMPDEST MLOAD RETURNDATASIZE DUP6 DUP3 RETURNDATACOPY RETURNDATASIZE SWAP1 REVERT JUMPDEST SWAP5 SWAP6 DUP1 SWAP3 POP DUP6 SWAP2 POP RETURNDATASIZE DUP4 GT PUSH2 0x311 JUMPI JUMPDEST PUSH2 0x2F7 DUP2 DUP4 PUSH2 0xD6B JUMP JUMPDEST DUP2 ADD SUB SLT PUSH2 0x30E JUMPI SWAP2 MLOAD DUP8 SWAP4 SWAP3 SWAP1 DUP8 SWAP1 PUSH1 0x44 PUSH2 0x267 JUMP JUMPDEST DUP1 REVERT JUMPDEST POP RETURNDATASIZE PUSH2 0x2ED JUMP JUMPDEST DUP7 MLOAD RETURNDATASIZE DUP5 DUP3 RETURNDATACOPY RETURNDATASIZE SWAP1 REVERT JUMPDEST DUP4 SWAP1 CALLVALUE PUSH2 0x3EE JUMPI PUSH1 0x20 CALLDATASIZE PUSH1 0x3 NOT ADD SLT PUSH2 0x3EE JUMPI PUSH2 0x33D PUSH2 0xE0B JUMP JUMPDEST SWAP1 PUSH2 0x346 PUSH2 0xE4C JUMP JUMPDEST PUSH1 0x1 PUSH1 0x1 PUSH1 0xA0 SHL SUB SWAP2 DUP3 AND SWAP3 DUP4 ISZERO PUSH2 0x39C JUMPI POP POP PUSH1 0x1 SLOAD DUP3 PUSH12 0xFFFFFFFFFFFFFFFFFFFFFFFF PUSH1 0xA0 SHL DUP3 AND OR PUSH1 0x1 SSTORE AND PUSH32 0x8BE0079C531659141344CD1FD0A4F28419497F9722A3DAAFE3B4186F6B6457E0 DUP4 DUP1 LOG3 DUP1 RETURN JUMPDEST SWAP1 PUSH1 0x20 PUSH1 0x84 SWAP3 MLOAD SWAP2 PUSH3 0x461BCD PUSH1 0xE5 SHL DUP4 MSTORE DUP3 ADD MSTORE PUSH1 0x26 PUSH1 0x24 DUP3 ADD MSTORE PUSH32 0x4F776E61626C653A206E6577206F776E657220697320746865207A65726F2061 PUSH1 0x44 DUP3 ADD MSTORE PUSH6 0x646472657373 PUSH1 0xD0 SHL PUSH1 0x64 DUP3 ADD MSTORE REVERT JUMPDEST DUP3 DUP1 REVERT JUMPDEST POP DUP3 CALLVALUE PUSH2 0x151 JUMPI PUSH1 0x20 CALLDATASIZE PUSH1 0x3 NOT ADD SLT PUSH2 0x151 JUMPI PUSH1 0x20 SWAP1 PUSH2 0x1A2 PUSH2 0x413 PUSH2 0xE0B JUMP JUMPDEST PUSH2 0x10EB JUMP JUMPDEST DUP3 DUP5 CALLVALUE PUSH2 0x30E JUMPI DUP1 PUSH1 0x3 NOT CALLDATASIZE ADD SLT PUSH2 0x30E JUMPI DUP2 MLOAD PUSH1 0x80 DUP2 ADD DUP2 DUP2 LT PUSH8 0xFFFFFFFFFFFFFFFF DUP3 GT OR PUSH2 0x50A JUMPI DUP4 MSTORE PUSH1 0x3 DUP2 MSTORE PUSH1 0x20 DUP1 DUP3 ADD SWAP3 PUSH1 0x60 CALLDATASIZE DUP6 CALLDATACOPY PUSH1 0x5 SLOAD DUP4 MLOAD PUSH1 0x1 PUSH1 0x1 PUSH1 0xA0 SHL SUB SWAP2 DUP3 AND SWAP1 ISZERO PUSH2 0x4F7 JUMPI DUP6 MSTORE DUP1 PUSH1 0x6 SLOAD AND SWAP7 DUP5 MLOAD SWAP8 PUSH1 0x1 SWAP9 DUP10 LT ISZERO PUSH2 0x4E4 JUMPI DUP8 DUP7 ADD MSTORE DUP5 MLOAD PUSH1 0x2 LT ISZERO PUSH2 0x4D1 JUMPI POP SWAP3 DUP7 SWAP3 DUP7 SWAP5 DUP4 PUSH1 0x60 DUP5 ADD MSTORE DUP6 MLOAD SWAP6 DUP3 DUP8 ADD SWAP4 DUP4 DUP9 MSTORE MLOAD DUP1 SWAP5 MSTORE DUP7 ADD SWAP7 SWAP4 SWAP1 JUMPDEST DUP4 DUP3 LT PUSH2 0x4BA JUMPI DUP7 DUP9 SUB DUP8 RETURN JUMPDEST DUP5 MLOAD DUP2 AND DUP9 MSTORE SWAP7 DUP3 ADD SWAP7 SWAP4 DUP3 ADD SWAP4 SWAP1 DUP6 ADD SWAP1 PUSH2 0x4AD JUMP JUMPDEST PUSH4 0x4E487B71 PUSH1 0xE0 SHL DUP4 MSTORE PUSH1 0x32 SWAP1 MSTORE PUSH1 0x24 DUP3 REVERT JUMPDEST PUSH4 0x4E487B71 PUSH1 0xE0 SHL DUP5 MSTORE PUSH1 0x32 DUP3 MSTORE PUSH1 0x24 DUP5 REVERT JUMPDEST PUSH4 0x4E487B71 PUSH1 0xE0 SHL DUP4 MSTORE PUSH1 0x32 DUP9 MSTORE PUSH1 0x24 DUP4 REVERT JUMPDEST PUSH4 0x4E487B71 PUSH1 0xE0 SHL DUP4 MSTORE PUSH1 0x41 DUP6 MSTORE PUSH1 0x24 DUP4 REVERT JUMPDEST DUP3 DUP5 CALLVALUE PUSH2 0x30E JUMPI PUSH1 0x20 CALLDATASIZE PUSH1 0x3 NOT ADD SLT PUSH2 0x30E JUMPI DUP3 CALLDATALOAD SWAP1 PUSH8 0xFFFFFFFFFFFFFFFF DUP3 GT PUSH2 0x30E JUMPI POP PUSH2 0x563 PUSH1 0x20 PUSH2 0x558 DUP2 SWAP6 PUSH1 0xFF SWAP5 CALLDATASIZE SWAP2 ADD PUSH2 0xDBF JUMP JUMPDEST DUP5 MLOAD SWAP3 DUP4 DUP1 SWAP3 PUSH2 0xE21 JUMP JUMPDEST PUSH1 0x3 DUP2 MSTORE SUB ADD SWAP1 KECCAK256 SLOAD AND SWAP1 MLOAD SWAP1 ISZERO ISZERO DUP2 MSTORE RETURN JUMPDEST POP POP CALLVALUE PUSH2 0x151 JUMPI DUP2 PUSH1 0x3 NOT CALLDATASIZE ADD SLT PUSH2 0x151 JUMPI PUSH1 0x20 SWAP1 PUSH1 0x7 SLOAD SWAP1 MLOAD SWAP1 DUP2 MSTORE RETURN JUMPDEST POP POP CALLVALUE PUSH2 0x151 JUMPI PUSH1 0x20 CALLDATASIZE PUSH1 0x3 NOT ADD SLT PUSH2 0x151 JUMPI PUSH1 0x20 SWAP2 PUSH1 0xFF SWAP1 DUP3 SWAP1 PUSH1 0x1 PUSH1 0x1 PUSH1 0xA0 SHL SUB PUSH2 0x5C0 PUSH2 0xE0B JUMP JUMPDEST AND DUP2 MSTORE PUSH1 0x2 DUP6 MSTORE KECCAK256 SLOAD AND SWAP1 MLOAD SWAP1 ISZERO ISZERO DUP2 MSTORE RETURN JUMPDEST POP POP CALLVALUE PUSH2 0x151 JUMPI DUP2 PUSH1 0x3 NOT CALLDATASIZE ADD SLT PUSH2 0x151 JUMPI PUSH1 0x1 SLOAD SWAP1 MLOAD PUSH1 0x1 PUSH1 0x1 PUSH1 0xA0 SHL SUB SWAP1 SWAP2 AND DUP2 MSTORE PUSH1 0x20 SWAP1 RETURN JUMPDEST SWAP1 POP CALLVALUE PUSH2 0x3EE JUMPI DUP3 PUSH1 0x3 NOT CALLDATASIZE ADD SLT PUSH2 0x3EE JUMPI PUSH2 0x616 PUSH2 0xE4C JUMP JUMPDEST DUP1 SLOAD PUSH1 0xFF DUP2 AND PUSH2 0x657 JUMPI PUSH1 0x1 SWAP1 PUSH1 0xFF NOT AND OR SWAP1 SSTORE MLOAD TIMESTAMP DUP2 MSTORE PUSH32 0x6EAE7D8F48015FDDC9502717696AC737BEC3D20C703C3958A689F8F485747183 PUSH1 0x20 CALLER SWAP3 LOG2 DUP1 RETURN JUMPDEST POP PUSH1 0x20 PUSH1 0x64 SWAP3 MLOAD SWAP2 PUSH3 0x461BCD PUSH1 0xE5 SHL DUP4 MSTORE DUP3 ADD MSTORE PUSH1 0x17 PUSH1 0x24 DUP3 ADD MSTORE PUSH32 0x436F6E747261637420616C726561647920706175736564000000000000000000 PUSH1 0x44 DUP3 ADD MSTORE REVERT JUMPDEST POP POP CALLVALUE PUSH2 0x151 JUMPI DUP1 PUSH1 0x3 NOT CALLDATASIZE ADD SLT PUSH2 0x151 JUMPI PUSH2 0x6B4 PUSH2 0xE0B JUMP JUMPDEST SWAP1 PUSH1 0x24 CALLDATALOAD SWAP2 DUP3 ISZERO ISZERO DUP1 SWAP4 SUB PUSH2 0x6EC JUMPI PUSH2 0x6CB PUSH2 0xE4C JUMP JUMPDEST PUSH1 0x1 DUP1 PUSH1 0xA0 SHL SUB AND DUP4 MSTORE PUSH1 0x2 PUSH1 0x20 MSTORE DUP3 KECCAK256 SWAP1 PUSH1 0xFF DUP1 NOT DUP4 SLOAD AND SWAP2 AND OR SWAP1 SSTORE DUP1 RETURN JUMPDEST DUP4 DUP1 REVERT JUMPDEST POP POP CALLVALUE PUSH2 0x151 JUMPI DUP2 PUSH1 0x3 NOT CALLDATASIZE ADD SLT PUSH2 0x151 JUMPI PUSH1 0x5 SLOAD SWAP1 MLOAD PUSH1 0x1 PUSH1 0x1 PUSH1 0xA0 SHL SUB SWAP1 SWAP2 AND DUP2 MSTORE PUSH1 0x20 SWAP1 RETURN JUMPDEST DUP4 CALLVALUE PUSH2 0x30E JUMPI DUP1 PUSH1 0x3 NOT CALLDATASIZE ADD SLT PUSH2 0x30E JUMPI PUSH2 0x732 PUSH2 0xE4C JUMP JUMPDEST PUSH1 0x1 DUP1 SLOAD PUSH1 0x1 PUSH1 0x1 PUSH1 0xA0 SHL SUB NOT DUP2 AND SWAP1 SWAP2 SSTORE DUP2 SWAP1 PUSH1 0x1 PUSH1 0x1 PUSH1 0xA0 SHL SUB AND PUSH32 0x8BE0079C531659141344CD1FD0A4F28419497F9722A3DAAFE3B4186F6B6457E0 DUP3 DUP1 LOG3 DUP1 RETURN JUMPDEST DUP3 DUP5 CALLVALUE PUSH2 0x30E JUMPI DUP1 PUSH1 0x3 NOT CALLDATASIZE ADD SLT PUSH2 0x30E JUMPI POP PUSH1 0xFF PUSH1 0x20 SWAP3 SLOAD AND SWAP1 MLOAD SWAP1 ISZERO ISZERO DUP2 MSTORE RETURN JUMPDEST POP POP CALLVALUE PUSH2 0x151 JUMPI DUP2 PUSH1 0x3 NOT CALLDATASIZE ADD SLT PUSH2 0x151 JUMPI PUSH1 0x20 SWAP1 PUSH1 0x8 SLOAD SWAP1 MLOAD SWAP1 DUP2 MSTORE RETURN JUMPDEST SWAP1 POP CALLVALUE PUSH2 0x3EE JUMPI DUP3 PUSH1 0x3 NOT CALLDATASIZE ADD SLT PUSH2 0x3EE JUMPI PUSH2 0x7D2 PUSH2 0xE4C JUMP JUMPDEST DUP1 SLOAD PUSH1 0xFF DUP2 AND ISZERO PUSH2 0x810 JUMPI PUSH1 0xFF NOT AND SWAP1 SSTORE MLOAD TIMESTAMP DUP2 MSTORE PUSH32 0x3FC6BEEFA3F4115BABE1A3D46940222E37B39B9EF03DC7B79F832DBCC3DA6ABF PUSH1 0x20 CALLER SWAP3 LOG2 DUP1 RETURN JUMPDEST POP PUSH1 0x20 PUSH1 0x64 SWAP3 MLOAD SWAP2 PUSH3 0x461BCD PUSH1 0xE5 SHL DUP4 MSTORE DUP3 ADD MSTORE PUSH1 0x13 PUSH1 0x24 DUP3 ADD MSTORE PUSH19 0x10DBDB9D1C9858DD081B9BDD081C185D5CD959 PUSH1 0x6A SHL PUSH1 0x44 DUP3 ADD MSTORE REVERT JUMPDEST POP POP CALLVALUE PUSH2 0x151 JUMPI DUP2 PUSH1 0x3 NOT CALLDATASIZE ADD SLT PUSH2 0x151 JUMPI MLOAD SWAP1 DUP2 MSTORE PUSH1 0x20 SWAP1 RETURN JUMPDEST DUP4 PUSH1 0x20 DUP5 CALLDATASIZE PUSH1 0x3 NOT ADD DUP3 SGT PUSH2 0x3EE JUMPI DUP4 CALLDATALOAD PUSH8 0xFFFFFFFFFFFFFFFF DUP2 GT PUSH2 0x6EC JUMPI PUSH2 0x891 SWAP1 CALLDATASIZE SWAP1 DUP7 ADD PUSH2 0xDBF JUMP JUMPDEST SWAP4 PUSH2 0x89A PUSH2 0xFD4 JUMP JUMPDEST DUP4 DUP1 DUP1 DUP1 DUP5 SLOAD PUSH2 0x8AD PUSH1 0xFF DUP3 AND ISZERO PUSH2 0xEA4 JUMP JUMPDEST PUSH2 0x8B9 DUP11 MLOAD ISZERO ISZERO PUSH2 0xEE5 JUMP JUMPDEST PUSH2 0x8DE PUSH1 0xFF PUSH2 0x8CE DUP11 DUP14 DUP12 MLOAD SWAP3 DUP4 DUP1 SWAP3 PUSH2 0xE21 JUMP JUMPDEST PUSH1 0x3 DUP2 MSTORE SUB ADD SWAP1 KECCAK256 SLOAD AND ISZERO PUSH2 0xF24 JUMP JUMPDEST PUSH2 0x8E9 CALLVALUE ISZERO ISZERO PUSH2 0xF70 JUMP JUMPDEST CALLVALUE SWAP1 PUSH1 0x8 SHR PUSH1 0x1 PUSH1 0x1 PUSH1 0xA0 SHL SUB AND GAS CALL RETURNDATASIZE ISZERO PUSH2 0x9F3 JUMPI RETURNDATASIZE PUSH2 0x909 DUP2 PUSH2 0xDA3 JUMP JUMPDEST SWAP1 PUSH2 0x916 DUP6 MLOAD SWAP3 DUP4 PUSH2 0xD6B JUMP JUMPDEST DUP2 MSTORE DUP6 DUP6 RETURNDATASIZE SWAP3 ADD RETURNDATACOPY JUMPDEST ISZERO PUSH2 0x9B2 JUMPI POP PUSH2 0x956 DUP4 SWAP5 DUP3 MLOAD DUP5 DUP2 PUSH2 0x938 DUP2 DUP6 PUSH2 0xE21 JUMP JUMPDEST PUSH1 0x3 DUP2 MSTORE SUB ADD SWAP1 KECCAK256 PUSH1 0x1 PUSH1 0xFF NOT DUP3 SLOAD AND OR SWAP1 SSTORE DUP3 MLOAD SWAP2 DUP3 DUP1 SWAP3 PUSH2 0xE21 JUMP JUMPDEST SUB SWAP1 KECCAK256 SWAP1 PUSH1 0x60 DUP2 MLOAD SWAP4 CALLVALUE DUP6 MSTORE DUP5 ADD MSTORE PUSH1 0xB PUSH1 0x60 DUP5 ADD MSTORE PUSH11 0x2720AA24AB22AFA1A7A4A7 PUSH1 0xA9 SHL PUSH1 0x80 DUP5 ADD MSTORE TIMESTAMP SWAP1 DUP4 ADD MSTORE PUSH32 0xA544BE43A5F07A5F0249714E2F7A4B6DC5CDA48D34D2C146F8A279FC1FA2B8BC PUSH1 0xA0 CALLER SWAP4 LOG4 PUSH1 0x1 DUP2 SSTORE DUP1 RETURN JUMPDEST DUP3 PUSH1 0x64 SWAP3 MLOAD SWAP2 PUSH3 0x461BCD PUSH1 0xE5 SHL DUP4 MSTORE DUP3 ADD MSTORE PUSH1 0x1B PUSH1 0x24 DUP3 ADD MSTORE PUSH32 0x4E617469766520636F696E207472616E73666572206661696C65640000000000 PUSH1 0x44 DUP3 ADD MSTORE REVERT JUMPDEST PUSH2 0x91F JUMP JUMPDEST SWAP1 POP CALLVALUE PUSH2 0x3EE JUMPI DUP3 PUSH1 0x3 NOT CALLDATASIZE ADD SLT PUSH2 0x3EE JUMPI SLOAD SWAP1 MLOAD PUSH1 0x8 SWAP2 SWAP1 SWAP2 SHR PUSH1 0x1 PUSH1 0x1 PUSH1 0xA0 SHL SUB AND DUP2 MSTORE PUSH1 0x20 SWAP2 POP RETURN JUMPDEST SWAP2 SWAP1 POP CALLVALUE PUSH2 0x3EE JUMPI PUSH1 0x20 CALLDATASIZE PUSH1 0x3 NOT ADD SLT PUSH2 0x3EE JUMPI PUSH2 0xA40 PUSH2 0xE0B JUMP JUMPDEST SWAP1 PUSH2 0xA49 PUSH2 0xE4C JUMP JUMPDEST PUSH1 0x1 PUSH1 0x1 PUSH1 0xA0 SHL SUB DUP3 AND ISZERO PUSH2 0xA7C JUMPI POP DUP2 SLOAD PUSH2 0x100 PUSH1 0x1 PUSH1 0xA8 SHL SUB NOT AND PUSH1 0x8 SWAP2 SWAP1 SWAP2 SHL PUSH2 0x100 PUSH1 0x1 PUSH1 0xA8 SHL SUB AND OR SWAP1 SSTORE DUP1 RETURN JUMPDEST MLOAD PUSH3 0x461BCD PUSH1 0xE5 SHL DUP2 MSTORE PUSH1 0x20 DUP2 DUP5 ADD MSTORE PUSH1 0x18 PUSH1 0x24 DUP3 ADD MSTORE PUSH32 0x496E76616C696420726563697069656E742077616C6C65740000000000000000 PUSH1 0x44 DUP3 ADD MSTORE PUSH1 0x64 SWAP1 REVERT JUMPDEST SWAP1 POP CALLVALUE PUSH2 0x3EE JUMPI PUSH1 0x60 CALLDATASIZE PUSH1 0x3 NOT ADD SLT PUSH2 0x3EE JUMPI DUP1 CALLDATALOAD PUSH8 0xFFFFFFFFFFFFFFFF DUP2 GT PUSH2 0x6EC JUMPI PUSH2 0xAEF SWAP1 CALLDATASIZE SWAP1 DUP4 ADD PUSH2 0xDBF JUMP JUMPDEST PUSH1 0x1 PUSH1 0x1 PUSH1 0xA0 SHL SUB PUSH1 0x24 CALLDATALOAD DUP2 DUP2 AND SWAP5 SWAP2 SWAP3 SWAP1 DUP6 SWAP1 SUB PUSH2 0xD67 JUMPI PUSH1 0x44 CALLDATALOAD SWAP4 PUSH2 0xB14 PUSH2 0xFD4 JUMP JUMPDEST DUP1 SLOAD PUSH2 0xB23 PUSH1 0xFF DUP3 AND ISZERO PUSH2 0xEA4 JUMP JUMPDEST DUP5 PUSH1 0x5 SLOAD AND DUP8 EQ DUP1 ISZERO PUSH2 0xD5A JUMPI JUMPDEST DUP1 ISZERO PUSH2 0xD52 JUMPI JUMPDEST ISZERO PUSH2 0xD1B JUMPI PUSH2 0xB49 DUP4 MLOAD ISZERO ISZERO PUSH2 0xEE5 JUMP JUMPDEST DUP4 MLOAD SWAP5 PUSH2 0xB71 PUSH1 0xFF DUP8 PUSH2 0xB5C DUP2 DUP9 PUSH2 0xE21 JUMP JUMPDEST PUSH1 0x3 DUP2 MSTORE PUSH1 0x20 SWAP10 DUP11 SWAP2 SUB ADD SWAP1 KECCAK256 SLOAD AND ISZERO PUSH2 0xF24 JUMP JUMPDEST PUSH2 0xB7C DUP8 ISZERO ISZERO PUSH2 0xF70 JUMP JUMPDEST DUP5 MLOAD SWAP2 PUSH4 0x23B872DD PUSH1 0xE0 SHL DUP4 MSTORE CALLER DUP5 DUP5 ADD MSTORE PUSH1 0x8 SHR AND PUSH1 0x24 DUP3 ADD MSTORE DUP6 PUSH1 0x44 DUP3 ADD MSTORE DUP5 DUP2 PUSH1 0x64 DUP2 DUP12 DUP12 GAS CALL SWAP1 DUP2 ISZERO PUSH2 0xD11 JUMPI DUP9 SWAP2 PUSH2 0xCF4 JUMPI JUMPDEST POP ISZERO PUSH2 0xC46 JUMPI POP PUSH2 0xBED PUSH1 0x60 SWAP2 DUP4 MLOAD DUP6 DUP2 PUSH2 0xBCF DUP2 DUP6 PUSH2 0xE21 JUMP JUMPDEST PUSH1 0x3 DUP2 MSTORE SUB ADD SWAP1 KECCAK256 PUSH1 0x1 PUSH1 0xFF NOT DUP3 SLOAD AND OR SWAP1 SSTORE DUP4 MLOAD SWAP2 DUP3 DUP1 SWAP3 PUSH2 0xE21 JUMP JUMPDEST SUB SWAP1 KECCAK256 SWAP3 DUP3 MLOAD SWAP5 DUP6 MSTORE DUP5 ADD MSTORE PUSH1 0xB PUSH1 0x60 DUP5 ADD MSTORE PUSH11 0x22A92199182FAA27A5A2A7 PUSH1 0xA9 SHL PUSH1 0x80 DUP5 ADD MSTORE TIMESTAMP SWAP1 DUP4 ADD MSTORE PUSH32 0xA544BE43A5F07A5F0249714E2F7A4B6DC5CDA48D34D2C146F8A279FC1FA2B8BC PUSH1 0xA0 CALLER SWAP4 LOG4 PUSH1 0x1 DUP2 SSTORE DUP1 RETURN JUMPDEST SWAP4 POP PUSH2 0xC57 SWAP1 DUP3 MLOAD SWAP2 DUP3 DUP1 SWAP3 PUSH2 0xE21 JUMP JUMPDEST SUB SWAP1 KECCAK256 DUP2 MLOAD SWAP1 DUP3 DUP3 MSTORE PUSH32 0xD3212626BEA413568E588CE2195C35A26F191FB807DBE4E80F8B1A92FAB98028 PUSH2 0xCB0 DUP5 DUP5 ADD PUSH1 0x40 SWAP1 PUSH1 0x15 DUP2 MSTORE PUSH21 0x151BDAD95B881D1C985B9CD9995C8819985A5B1959 PUSH1 0x5A SHL PUSH1 0x20 DUP3 ADD MSTORE ADD SWAP1 JUMP JUMPDEST SWAP3 TIMESTAMP DUP7 DUP3 ADD MSTORE DUP1 CALLER SWAP5 SUB SWAP1 LOG3 MLOAD PUSH3 0x461BCD PUSH1 0xE5 SHL DUP2 MSTORE SWAP2 DUP3 ADD MSTORE PUSH1 0x15 PUSH1 0x24 DUP3 ADD MSTORE PUSH21 0x151BDAD95B881D1C985B9CD9995C8819985A5B1959 PUSH1 0x5A SHL PUSH1 0x44 DUP3 ADD MSTORE PUSH1 0x64 SWAP1 REVERT JUMPDEST PUSH2 0xD0B SWAP2 POP DUP6 RETURNDATASIZE DUP8 GT PUSH2 0x2CD JUMPI PUSH2 0x2C1 DUP2 DUP4 PUSH2 0xD6B JUMP JUMPDEST CODESIZE PUSH2 0xBB4 JUMP JUMPDEST DUP5 MLOAD RETURNDATASIZE DUP11 DUP3 RETURNDATACOPY RETURNDATASIZE SWAP1 REVERT JUMPDEST DUP4 MLOAD PUSH3 0x461BCD PUSH1 0xE5 SHL DUP2 MSTORE PUSH1 0x20 DUP2 DUP5 ADD MSTORE PUSH1 0x11 PUSH1 0x24 DUP3 ADD MSTORE PUSH17 0x2AB739BAB83837B93A32B2103A37B5B2B7 PUSH1 0x79 SHL PUSH1 0x44 DUP3 ADD MSTORE PUSH1 0x64 SWAP1 REVERT JUMPDEST POP DUP7 ISZERO PUSH2 0xB38 JUMP JUMPDEST POP DUP5 PUSH1 0x6 SLOAD AND DUP8 EQ PUSH2 0xB31 JUMP JUMPDEST DUP6 DUP1 REVERT JUMPDEST SWAP1 PUSH1 0x1F DUP1 NOT SWAP2 ADD AND DUP2 ADD SWAP1 DUP2 LT PUSH8 0xFFFFFFFFFFFFFFFF DUP3 GT OR PUSH2 0xD8D JUMPI PUSH1 0x40 MSTORE JUMP JUMPDEST PUSH4 0x4E487B71 PUSH1 0xE0 SHL PUSH1 0x0 MSTORE PUSH1 0x41 PUSH1 0x4 MSTORE PUSH1 0x24 PUSH1 0x0 REVERT JUMPDEST PUSH8 0xFFFFFFFFFFFFFFFF DUP2 GT PUSH2 0xD8D JUMPI PUSH1 0x1F ADD PUSH1 0x1F NOT AND PUSH1 0x20 ADD SWAP1 JUMP JUMPDEST DUP2 PUSH1 0x1F DUP3 ADD SLT ISZERO PUSH2 0xE06 JUMPI DUP1 CALLDATALOAD SWAP1 PUSH2 0xDD6 DUP3 PUSH2 0xDA3 JUMP JUMPDEST SWAP3 PUSH2 0xDE4 PUSH1 0x40 MLOAD SWAP5 DUP6 PUSH2 0xD6B JUMP JUMPDEST DUP3 DUP5 MSTORE PUSH1 0x20 DUP4 DUP4 ADD ADD GT PUSH2 0xE06 JUMPI DUP2 PUSH1 0x0 SWAP3 PUSH1 0x20 DUP1 SWAP4 ADD DUP4 DUP7 ADD CALLDATACOPY DUP4 ADD ADD MSTORE SWAP1 JUMP JUMPDEST PUSH1 0x0 DUP1 REVERT JUMPDEST PUSH1 0x4 CALLDATALOAD SWAP1 PUSH1 0x1 PUSH1 0x1 PUSH1 0xA0 SHL SUB DUP3 AND DUP3 SUB PUSH2 0xE06 JUMPI JUMP JUMPDEST SWAP1 DUP2 MLOAD SWAP2 PUSH1 0x0 JUMPDEST DUP4 DUP2 LT PUSH2 0xE39 JUMPI POP POP ADD PUSH1 0x0 DUP2 MSTORE SWAP1 JUMP JUMPDEST DUP1 PUSH1 0x20 DUP1 SWAP3 DUP5 ADD ADD MLOAD DUP2 DUP6 ADD MSTORE ADD PUSH2 0xE28 JUMP JUMPDEST PUSH1 0x1 SLOAD PUSH1 0x1 PUSH1 0x1 PUSH1 0xA0 SHL SUB AND CALLER SUB PUSH2 0xE60 JUMPI JUMP JUMPDEST PUSH1 0x64 PUSH1 0x40 MLOAD PUSH3 0x461BCD PUSH1 0xE5 SHL DUP2 MSTORE PUSH1 0x20 PUSH1 0x4 DUP3 ADD MSTORE PUSH1 0x20 PUSH1 0x24 DUP3 ADD MSTORE PUSH32 0x4F776E61626C653A2063616C6C6572206973206E6F7420746865206F776E6572 PUSH1 0x44 DUP3 ADD MSTORE REVERT JUMPDEST ISZERO PUSH2 0xEAB JUMPI JUMP JUMPDEST PUSH1 0x40 MLOAD PUSH3 0x461BCD PUSH1 0xE5 SHL DUP2 MSTORE PUSH1 0x20 PUSH1 0x4 DUP3 ADD MSTORE PUSH1 0x12 PUSH1 0x24 DUP3 ADD MSTORE PUSH18 0x10DBDB9D1C9858DD081A5CC81C185D5CD959 PUSH1 0x72 SHL PUSH1 0x44 DUP3 ADD MSTORE PUSH1 0x64 SWAP1 REVERT JUMPDEST ISZERO PUSH2 0xEEC JUMPI JUMP JUMPDEST PUSH1 0x40 MLOAD PUSH3 0x461BCD PUSH1 0xE5 SHL DUP2 MSTORE PUSH1 0x20 PUSH1 0x4 DUP3 ADD MSTORE PUSH1 0x10 PUSH1 0x24 DUP3 ADD MSTORE PUSH16 0x125B9D985B1A59081BDC99195C881251 PUSH1 0x82 SHL PUSH1 0x44 DUP3 ADD MSTORE PUSH1 0x64 SWAP1 REVERT JUMPDEST ISZERO PUSH2 0xF2B JUMPI JUMP JUMPDEST PUSH1 0x40 MLOAD PUSH3 0x461BCD PUSH1 0xE5 SHL DUP2 MSTORE PUSH1 0x20 PUSH1 0x4 DUP3 ADD MSTORE PUSH1 0x17 PUSH1 0x24 DUP3 ADD MSTORE PUSH32 0x4F7264657220616C72656164792070726F636573736564000000000000000000 PUSH1 0x44 DUP3 ADD MSTORE PUSH1 0x64 SWAP1 REVERT JUMPDEST ISZERO PUSH2 0xF77 JUMPI JUMP JUMPDEST PUSH1 0x40 MLOAD PUSH3 0x461BCD PUSH1 0xE5 SHL DUP2 MSTORE PUSH1 0x20 PUSH1 0x4 DUP3 ADD MSTORE PUSH1 0x1D PUSH1 0x24 DUP3 ADD MSTORE PUSH32 0x416D6F756E74206D7573742062652067726561746572207468616E2030000000 PUSH1 0x44 DUP3 ADD MSTORE PUSH1 0x64 SWAP1 REVERT JUMPDEST SWAP1 DUP2 PUSH1 0x20 SWAP2 SUB SLT PUSH2 0xE06 JUMPI MLOAD DUP1 ISZERO ISZERO DUP2 SUB PUSH2 0xE06 JUMPI SWAP1 JUMP JUMPDEST PUSH1 0x2 PUSH1 0x0 SLOAD EQ PUSH2 0xFE5 JUMPI PUSH1 0x2 PUSH1 0x0 SSTORE JUMP JUMPDEST PUSH1 0x40 MLOAD PUSH3 0x461BCD PUSH1 0xE5 SHL DUP2 MSTORE PUSH1 0x20 PUSH1 0x4 DUP3 ADD MSTORE PUSH1 0x1F PUSH1 0x24 DUP3 ADD MSTORE PUSH32 0x5265656E7472616E637947756172643A207265656E7472616E742063616C6C00 PUSH1 0x44 DUP3 ADD MSTORE PUSH1 0x64 SWAP1 REVERT JUMPDEST ISZERO PUSH2 0x1031 JUMPI JUMP JUMPDEST PUSH1 0x40 MLOAD PUSH3 0x461BCD PUSH1 0xE5 SHL DUP2 MSTORE PUSH1 0x20 PUSH1 0x4 DUP3 ADD MSTORE PUSH1 0x14 PUSH1 0x24 DUP3 ADD MSTORE PUSH20 0x496E73756666696369656E742062616C616E6365 PUSH1 0x60 SHL PUSH1 0x44 DUP3 ADD MSTORE PUSH1 0x64 SWAP1 REVERT JUMPDEST PUSH1 0x1 PUSH1 0x1 PUSH1 0xA0 SHL SUB AND DUP1 ISZERO PUSH2 0x10E6 JUMPI PUSH1 0x20 PUSH1 0x24 SWAP2 PUSH1 0x40 MLOAD SWAP3 DUP4 DUP1 SWAP3 PUSH4 0x70A08231 PUSH1 0xE0 SHL DUP3 MSTORE ADDRESS PUSH1 0x4 DUP4 ADD MSTORE GAS STATICCALL SWAP1 DUP2 ISZERO PUSH2 0x10DA JUMPI PUSH1 0x0 SWAP2 PUSH2 0x10AC JUMPI POP SWAP1 JUMP JUMPDEST SWAP1 PUSH1 0x20 DUP3 RETURNDATASIZE DUP3 GT PUSH2 0x10D2 JUMPI JUMPDEST DUP2 PUSH2 0x10C5 PUSH1 0x20 SWAP4 DUP4 PUSH2 0xD6B JUMP JUMPDEST DUP2 ADD SUB SLT PUSH2 0x30E JUMPI POP MLOAD SWAP1 JUMP JUMPDEST RETURNDATASIZE SWAP2 POP PUSH2 0x10B8 JUMP JUMPDEST PUSH1 0x40 MLOAD RETURNDATASIZE PUSH1 0x0 DUP3 RETURNDATACOPY RETURNDATASIZE SWAP1 REVERT JUMPDEST POP SELFBALANCE SWAP1 JUMP JUMPDEST PUSH1 0x5 SLOAD PUSH1 0x1 PUSH1 0x1 PUSH1 0xA0 SHL SUB SWAP2 DUP3 AND SWAP2 SWAP1 DUP2 AND DUP3 EQ PUSH2 0x1124 JUMPI PUSH1 0x6 SLOAD AND DUP2 EQ PUSH2 0x111D JUMPI ISZERO PUSH2 0x1117 JUMPI PUSH1 0x0 SWAP1 JUMP JUMPDEST PUSH1 0x9 SLOAD SWAP1 JUMP JUMPDEST POP PUSH1 0x8 SLOAD SWAP1 JUMP JUMPDEST POP POP PUSH1 0x7 SLOAD SWAP1 JUMP INVALID LOG2 PUSH5 0x6970667358 0x22 SLT KECCAK256 LOG3 PUSH18 0x3A00ABB957366CBDCD9F93C2447BA909EABC 0xCD 0xB8 0x4A CALLDATACOPY 0xCC 0x5E REVERT DIV PUSH18 0x3F54BE64736F6C6343000814003300000000 "},"methodIdentifiers":{"ETH_RATE()":"fd06ecc5","NATIVE_TOKEN()":"31f7d964","USDC_RATE()":"50290018","USDC_TOKEN()":"fa569274","USDT_RATE()":"bcf94018","USDT_TOKEN()":"77b330c9","authorizedTokens(address)":"9bc7c586","getBalance(address)":"f8b2cb4f","getExchangeRate(address)":"efb7601d","getSupportedTokens()":"d3c7c2c7","isOrderProcessed(string)":"cc82d7be","owner()":"8da5cb5b","pause()":"8456cb59","paused()":"5c975abb","payOrderWithNative(string)":"2d5c9405","payOrderWithToken(string,address,uint256)":"03196aa9","processedOrders(string)":"3d116e26","recipientWallet()":"136758fd","renounceOwnership()":"715018a6","setRecipientWallet(address)":"0600ac6e","setTokenAuthorization(address,bool)":"804f7b6f","transferOwnership(address)":"f2fde38b","unpause()":"3f4ba83a","withdraw(address,uint256)":"f3fef3a3"}}}}}