{
  "_format": "hh-sol-artifact-1",
  "contractName": "InvoiceNFT",
  "sourceName": "contracts/InvoiceNFT.sol",
  "abi": [
    {
      "inputs": [],
      "stateMutability": "nonpayable",
      "type": "constructor"
    },
    {
      "anonymous": false,
      "inputs": [
        {
          "indexed": true,
          "internalType": "address",
          "name": "owner",
          "type": "address"
        },
        {
          "indexed": true,
          "internalType": "address",
          "name": "approved",
          "type": "address"
        },
        {
          "indexed": true,
          "internalType": "uint256",
          "name": "tokenId",
          "type": "uint256"
        }
      ],
      "name": "Approval",
      "type": "event"
    },
    {
      "anonymous": false,
      "inputs": [
        {
          "indexed": true,
          "internalType": "address",
          "name": "owner",
          "type": "address"
        },
        {
          "indexed": true,
          "internalType": "address",
          "name": "operator",
          "type": "address"
        },
        {
          "indexed": false,
          "internalType": "bool",
          "name": "approved",
          "type": "bool"
        }
      ],
      "name": "ApprovalForAll",
      "type": "event"
    },
    {
      "anonymous": false,
      "inputs": [
        {
          "indexed": true,
          "internalType": "uint256",
          "name": "tokenId",
          "type": "uint256"
        },
        {
          "indexed": false,
          "internalType": "string",
          "name": "orderId",
          "type": "string"
        },
        {
          "indexed": false,
          "internalType": "address",
          "name": "owner",
          "type": "address"
        },
        {
          "indexed": false,
          "internalType": "uint256",
          "name": "amount",
          "type": "uint256"
        },
        {
          "indexed": false,
          "internalType": "uint256",
          "name": "warrantyMonths",
          "type": "uint256"
        }
      ],
      "name": "InvoiceMinted",
      "type": "event"
    },
    {
      "anonymous": false,
      "inputs": [
        {
          "indexed": true,
          "internalType": "address",
          "name": "previousOwner",
          "type": "address"
        },
        {
          "indexed": true,
          "internalType": "address",
          "name": "newOwner",
          "type": "address"
        }
      ],
      "name": "OwnershipTransferred",
      "type": "event"
    },
    {
      "anonymous": false,
      "inputs": [
        {
          "indexed": true,
          "internalType": "address",
          "name": "from",
          "type": "address"
        },
        {
          "indexed": true,
          "internalType": "address",
          "name": "to",
          "type": "address"
        },
        {
          "indexed": true,
          "internalType": "uint256",
          "name": "tokenId",
          "type": "uint256"
        }
      ],
      "name": "Transfer",
      "type": "event"
    },
    {
      "anonymous": false,
      "inputs": [
        {
          "indexed": true,
          "internalType": "uint256",
          "name": "tokenId",
          "type": "uint256"
        },
        {
          "indexed": false,
          "internalType": "address",
          "name": "user",
          "type": "address"
        },
        {
          "indexed": false,
          "internalType": "uint256",
          "name": "timestamp",
          "type": "uint256"
        }
      ],
      "name": "WarrantyUsed",
      "type": "event"
    },
    {
      "inputs": [
        {
          "internalType": "address",
          "name": "to",
          "type": "address"
        },
        {
          "internalType": "uint256",
          "name": "tokenId",
          "type": "uint256"
        }
      ],
      "name": "approve",
      "outputs": [],
      "stateMutability": "nonpayable",
      "type": "function"
    },
    {
      "inputs": [
        {
          "internalType": "address",
          "name": "owner",
          "type": "address"
        }
      ],
      "name": "balanceOf",
      "outputs": [
        {
          "internalType": "uint256",
          "name": "",
          "type": "uint256"
        }
      ],
      "stateMutability": "view",
      "type": "function"
    },
    {
      "inputs": [
        {
          "internalType": "uint256",
          "name": "tokenId",
          "type": "uint256"
        }
      ],
      "name": "getApproved",
      "outputs": [
        {
          "internalType": "address",
          "name": "",
          "type": "address"
        }
      ],
      "stateMutability": "view",
      "type": "function"
    },
    {
      "inputs": [
        {
          "internalType": "uint256",
          "name": "",
          "type": "uint256"
        }
      ],
      "name": "invoiceData",
      "outputs": [
        {
          "internalType": "string",
          "name": "orderId",
          "type": "string"
        },
        {
          "internalType": "uint256",
          "name": "amount",
          "type": "uint256"
        },
        {
          "internalType": "uint256",
          "name": "purchaseDate",
          "type": "uint256"
        },
        {
          "internalType": "uint256",
          "name": "warrantyMonths",
          "type": "uint256"
        },
        {
          "internalType": "bool",
          "name": "warrantyUsed",
          "type": "bool"
        }
      ],
      "stateMutability": "view",
      "type": "function"
    },
    {
      "inputs": [
        {
          "internalType": "address",
          "name": "owner",
          "type": "address"
        },
        {
          "internalType": "address",
          "name": "operator",
          "type": "address"
        }
      ],
      "name": "isApprovedForAll",
      "outputs": [
        {
          "internalType": "bool",
          "name": "",
          "type": "bool"
        }
      ],
      "stateMutability": "view",
      "type": "function"
    },
    {
      "inputs": [
        {
          "internalType": "address",
          "name": "to",
          "type": "address"
        },
        {
          "internalType": "string",
          "name": "orderId",
          "type": "string"
        },
        {
          "internalType": "uint256",
          "name": "amount",
          "type": "uint256"
        },
        {
          "internalType": "uint256",
          "name": "warrantyMonths",
          "type": "uint256"
        }
      ],
      "name": "mint",
      "outputs": [
        {
          "internalType": "uint256",
          "name": "",
          "type": "uint256"
        }
      ],
      "stateMutability": "nonpayable",
      "type": "function"
    },
    {
      "inputs": [],
      "name": "name",
      "outputs": [
        {
          "internalType": "string",
          "name": "",
          "type": "string"
        }
      ],
      "stateMutability": "view",
      "type": "function"
    },
    {
      "inputs": [
        {
          "internalType": "string",
          "name": "",
          "type": "string"
        }
      ],
      "name": "orderToTokenId",
      "outputs": [
        {
          "internalType": "uint256",
          "name": "",
          "type": "uint256"
        }
      ],
      "stateMutability": "view",
      "type": "function"
    },
    {
      "inputs": [],
      "name": "owner",
      "outputs": [
        {
          "internalType": "address",
          "name": "",
          "type": "address"
        }
      ],
      "stateMutability": "view",
      "type": "function"
    },
    {
      "inputs": [
        {
          "internalType": "uint256",
          "name": "tokenId",
          "type": "uint256"
        }
      ],
      "name": "ownerOf",
      "outputs": [
        {
          "internalType": "address",
          "name": "",
          "type": "address"
        }
      ],
      "stateMutability": "view",
      "type": "function"
    },
    {
      "inputs": [],
      "name": "renounceOwnership",
      "outputs": [],
      "stateMutability": "nonpayable",
      "type": "function"
    },
    {
      "inputs": [
        {
          "internalType": "address",
          "name": "from",
          "type": "address"
        },
        {
          "internalType": "address",
          "name": "to",
          "type": "address"
        },
        {
          "internalType": "uint256",
          "name": "tokenId",
          "type": "uint256"
        }
      ],
      "name": "safeTransferFrom",
      "outputs": [],
      "stateMutability": "nonpayable",
      "type": "function"
    },
    {
      "inputs": [
        {
          "internalType": "address",
          "name": "from",
          "type": "address"
        },
        {
          "internalType": "address",
          "name": "to",
          "type": "address"
        },
        {
          "internalType": "uint256",
          "name": "tokenId",
          "type": "uint256"
        },
        {
          "internalType": "bytes",
          "name": "data",
          "type": "bytes"
        }
      ],
      "name": "safeTransferFrom",
      "outputs": [],
      "stateMutability": "nonpayable",
      "type": "function"
    },
    {
      "inputs": [
        {
          "internalType": "address",
          "name": "operator",
          "type": "address"
        },
        {
          "internalType": "bool",
          "name": "approved",
          "type": "bool"
        }
      ],
      "name": "setApprovalForAll",
      "outputs": [],
      "stateMutability": "nonpayable",
      "type": "function"
    },
    {
      "inputs": [
        {
          "internalType": "bytes4",
          "name": "interfaceId",
          "type": "bytes4"
        }
      ],
      "name": "supportsInterface",
      "outputs": [
        {
          "internalType": "bool",
          "name": "",
          "type": "bool"
        }
      ],
      "stateMutability": "view",
      "type": "function"
    },
    {
      "inputs": [],
      "name": "symbol",
      "outputs": [
        {
          "internalType": "string",
          "name": "",
          "type": "string"
        }
      ],
      "stateMutability": "view",
      "type": "function"
    },
    {
      "inputs": [
        {
          "internalType": "uint256",
          "name": "tokenId",
          "type": "uint256"
        }
      ],
      "name": "tokenURI",
      "outputs": [
        {
          "internalType": "string",
          "name": "",
          "type": "string"
        }
      ],
      "stateMutability": "view",
      "type": "function"
    },
    {
      "inputs": [
        {
          "internalType": "address",
          "name": "from",
          "type": "address"
        },
        {
          "internalType": "address",
          "name": "to",
          "type": "address"
        },
        {
          "internalType": "uint256",
          "name": "tokenId",
          "type": "uint256"
        }
      ],
      "name": "transferFrom",
      "outputs": [],
      "stateMutability": "nonpayable",
      "type": "function"
    },
    {
      "inputs": [
        {
          "internalType": "address",
          "name": "newOwner",
          "type": "address"
        }
      ],
      "name": "transferOwnership",
      "outputs": [],
      "stateMutability": "nonpayable",
      "type": "function"
    },
    {
      "inputs": [
        {
          "internalType": "uint256",
          "name": "tokenId",
          "type": "uint256"
        }
      ],
      "name": "useWarranty",
      "outputs": [],
      "stateMutability": "nonpayable",
      "type": "function"
    }
  ],
  "bytecode": "0x6080346200035f576001600160401b039060408181018381118382101762000349578152601082526020916f45636f6d6d65726365496e766f69636560801b838201528151938285018581108282111762000349578352600585526422a1a4a72b60d91b84860152815181811162000349576000948554916001948584811c941680156200033e575b838510146200032a578190601f94858111620002d7575b5083908583116001146200027357899262000267575b5050600019600383901b1c191690851b1786555b8651928311620002535783548481811c9116801562000248575b828210146200023457828111620001ec575b50809183116001146200018557508495829394959262000179575b5050600019600383901b1c191690821b1790555b60068054336001600160a01b03198216811790925591519290916001600160a01b0316907f8be0079c531659141344cd1fd0a4f28419497f9722a3daafe3b4186f6b6457e09080a36120c79081620003658239f35b01519050388062000110565b90601f198316968487528287209287905b898210620001d4575050838596979810620001ba575b505050811b01905562000124565b015160001960f88460031b161c19169055388080620001ac565b80878596829496860151815501950193019062000196565b8487528187208380860160051c8201928487106200022a575b0160051c019085905b8281106200021e575050620000f5565b8881550185906200020e565b9250819262000205565b634e487b7160e01b87526022600452602487fd5b90607f1690620000e3565b634e487b7160e01b86526041600452602486fd5b015190503880620000b5565b898052848a208894509190601f1984168b5b87828210620002c05750508411620002a6575b505050811b018655620000c9565b015160001960f88460031b161c1916905538808062000298565b8385015186558b9790950194938401930162000285565b9091508880528389208580850160051c82019286861062000320575b918991869594930160051c01915b828110620003115750506200009f565b8b815585945089910162000301565b92508192620002f3565b634e487b7160e01b88526022600452602488fd5b93607f169362000088565b634e487b7160e01b600052604160045260246000fd5b600080fdfe608080604052600436101561001357600080fd5b60003560e01c90816301ffc9a71461150c5750806306fdde0314611469578063081812fc1461144b578063095ea7b3146112d1578063178a5cff1461115957806323b872dd1461113557806342842e0e146111025780634a5dc3aa14610bfd5780636352211e14610bcd578063680abf4814610b7057806370a0823114610ad9578063715018a614610a7c5780638da5cb5b14610a5357806395d89b4114610974578063a22cb46514610899578063ab23b64614610822578063b88d4fde1461079a578063c87b56dd1461021f578063e985e9c5146101c95763f2fde38b146100fb57600080fd5b346101c45760203660031901126101c4576101146115bf565b61011c6117fd565b6001600160a01b0390811690811561017057600654826bffffffffffffffffffffffff60a01b821617600655167f8be0079c531659141344cd1fd0a4f28419497f9722a3daafe3b4186f6b6457e0600080a3005b60405162461bcd60e51b815260206004820152602660248201527f4f776e61626c653a206e6577206f776e657220697320746865207a65726f206160448201526564647265737360d01b6064820152608490fd5b600080fd5b346101c45760403660031901126101c4576101e26115bf565b6101ea6115d5565b9060018060a01b03809116600052600560205260406000209116600052602052602060ff604060002054166040519015158152f35b346101c4576020806003193601126101c4576004356000818152600260205260409020546001600160a01b03161561075e576000526008815260406000206040519061026a82611620565b61027381611757565b9182815260018201549182858301526102b460028201549360408401948552608060ff60046003860154956060880196875201541694019315158452611f4e565b936102bf8451611f4e565b946102ca8351611f4e565b945192519362278d0094858102958187041490151715610748576106b9966103006102fb6106b49761021e97611daa565b611f4e565b91511561072357886040516103148161166e565b6004815263155cd95960e21b82820152935b604051988996717b226e616d65223a22496e766f696365202360701b848901528051906104758582019261035e8160328d0186611577565b61088b60f21b6032918c01918201527f226465736372697074696f6e223a22452d636f6d6d6572636520496e766f696360348201527f6520616e642057617272616e7479204365727469666963617465222c0000000060548201527f22696d616765223a22697066733a2f2f516d5366516f6557365976427736583560708201527f5a354a3751585a764a3851394c5138714a3851394c5138714a3851394c512f7060908201526f1b1858d95a1bdb19195c8b9c1b99c88b60821b60b08201526d2261747472696275746573223a5b60901b60c08201527f7b2274726169745f74797065223a224f72646572204944222c2276616c75652260ce820152611d1160f11b60ee820152915192839060f0840190611577565b0162089f4b60ea1b60f08201527f7b2274726169745f74797065223a22416d6f756e74222c22646973706c61795f60f38201527f74797065223a226e756d626572222c2276616c7565223a0000000000000000006101138201528251906104e58261012a95878785019101611577565b0193611f4b60f21b8581809795819601527f7b2274726169745f74797065223a2250757263686173652044617465222c226461012c8201527f6973706c61795f74797065223a2264617465222c2276616c7565223a0000000061014c82015282519061055a8261016895898785019101611577565b01918201527f7b2274726169745f74797065223a2257617272616e7479204d6f6e746873222c61016a8201527f22646973706c61795f74797065223a226e756d626572222c2276616c7565223a61018a8201526105c2825180936101aa968785019101611577565b01918201527f7b2274726169745f74797065223a2257617272616e74792056616c696420556e6101ac8201527f74696c222c22646973706c61795f74797065223a2264617465222c2276616c756101cc8201526232911d60e91b6101ec820152825190610638826101ef958d8785019101611577565b01918201527f7b2274726169745f74797065223a2257617272616e747920537461747573222c6101f182015268113b30b63ab2911d1160b91b61021182015281519061068d8261021a948b8685019101611577565b019061227d60f01b90820152615d7d60f01b61021c820152036101fe81018452018261168a565b611de9565b9061070b603d60405180947f646174613a6170706c69636174696f6e2f6a736f6e3b6261736536342c000000858301526106fb81518092878686019101611577565b810103601d81018552018361168a565b61071f60405192828493845283019061159a565b0390f35b886040516107308161166e565b600681526541637469766560d01b8282015293610326565b634e487b7160e01b600052601160045260246000fd5b60405162461bcd60e51b8152600481018390526014602482015273151bdad95b88191bd95cc81b9bdd08195e1a5cdd60621b6044820152606490fd5b346101c45760803660031901126101c4576107b36115bf565b6107bb6115d5565b906064359060443567ffffffffffffffff83116101c457366023840112156101c457610820936107f861081b9436906024816004013591016116c8565b9261080b61080684336119db565b611902565b610816838383611aa3565b611cd7565b6119b7565b005b346101c45760203660031901126101c457600435600052600860205261087e604060002061084f81611757565b9060018101549060028101549060ff60046003830154920154169160405195869560a0875260a087019061159a565b93602086015260408501526060840152151560808301520390f35b346101c45760403660031901126101c4576108b26115bf565b60243590811515908183036101c4576001600160a01b03169133831461092f576109019033600052600560205260406000208460005260205260406000209060ff801983541691151516179055565b6040519081527f17307eab39ab6107e8899845ad3d59bd9653f200f220920489ca2b5937696c3160203392a3005b60405162461bcd60e51b815260206004820152601960248201527f4552433732313a20617070726f766520746f2063616c6c6572000000000000006044820152606490fd5b346101c45760003660031901126101c457604051600060018054906109988261171d565b80855291818116908115610a2c57506001146109d3575b61071f846109bf8186038261168a565b60405191829160208352602083019061159a565b600081815292507fb10e2d527612073b26eecdfd717e6a320cf44b4afac2b0732d9fcbe2b7fa0cf65b828410610a145750505081016020016109bf826109af565b805460208587018101919091529093019281016109fc565b60ff191660208087019190915292151560051b850190920192506109bf91508390506109af565b346101c45760003660031901126101c4576006546040516001600160a01b039091168152602090f35b346101c45760003660031901126101c457610a956117fd565b600680546001600160a01b031981169091556000906001600160a01b03167f8be0079c531659141344cd1fd0a4f28419497f9722a3daafe3b4186f6b6457e08280a3005b346101c45760203660031901126101c4576001600160a01b03610afa6115bf565b168015610b195760005260036020526020604060002054604051908152f35b60405162461bcd60e51b815260206004820152602960248201527f4552433732313a2061646472657373207a65726f206973206e6f7420612076616044820152683634b21037bbb732b960b91b6064820152608490fd5b346101c45760203660031901126101c45760043567ffffffffffffffff81116101c457610bba6020610ba7819336906004016116ff565b8160405193828580945193849201611577565b8101600981520301902054604051908152f35b346101c45760203660031901126101c4576020610beb6004356118a1565b6040516001600160a01b039091168152f35b346101c45760803660031901126101c457610c166115bf565b60249067ffffffffffffffff9082358281116101c457610c3a9036906004016116ff565b92610c436117fd565b6040516020818651610c588183858b01611577565b81016009815203019020546110c65783511561108f576044351561104b5760643515610ff8576001600754019283600755604051610c9581611652565b600081526001600160a01b03841615610fb457600085815260026020526040902054610d629161081b91610cd5906001600160a01b031615155b15611d5e565b600087815260026020526040902054610cf8906001600160a01b03161515610ccf565b6001600160a01b0386166000818152600360209081526040808320805460010190558a83526002909152812080546001600160a01b031916831790558891907fddf252ad1be2c89b69c2b068fc378daa952ba7f163c4a11628f55a4df523b3ef8180a48686611bb9565b60405190610d6f82611620565b85825260443560208301524260408301526064356060830152600060808301528460005260086020526040600020928251908151928311610fa05750610db5845461171d565b601f8111610f5c575b509160209693918695938890601f8311600114610ec2576080610e8d969484610e59957f47453627127e40530ba9cf2e1390e4f71a91447bffd9a434b1aaa0bdebd84f959a9895600495600092610eb7575b50508160011b916000199060031b1c19161784555b8b810151600185015560408101516002850155606081015160038501550151151591019060ff801983541691151516179055565b8460405188818551610e6e8183858a01611577565b810160098152030190205560405192839260808452608084019061159a565b6001600160a01b0390911682880152604435604083015260643560608301520390a2604051908152f35b015190508e80610e10565b9084600052896000209160005b601f1985168110610f425750610e8d96946001857f47453627127e40530ba9cf2e1390e4f71a91447bffd9a434b1aaa0bdebd84f959a9895600495608095610e5999601f19811610610f29575b505050811b018455610e25565b015160001960f88460031b161c191690558e8080610f1c565b8183015184558a9950600190930192918b01918b01610ecf565b846000526020600020601f840160051c810160208510610f99575b601f830160051c82018110610f8d575050610dbe565b60008155600101610f77565b5080610f77565b634e487b7160e01b60009081526041600452fd5b60405162461bcd60e51b8152602060048201819052818501527f4552433732313a206d696e7420746f20746865207a65726f20616464726573736044820152606490fd5b60849060266040519162461bcd60e51b8352602060048401528201527f57617272616e747920706572696f64206d75737420626520677265617465722060448201526507468616e20360d41b6064820152fd5b606490601d6040519162461bcd60e51b8352602060048401528201527f416d6f756e74206d7573742062652067726561746572207468616e20300000006044820152fd5b60649060106040519162461bcd60e51b8352602060048401528201526f125b9d985b1a59081bdc99195c88125160821b6044820152fd5b60649060156040519162461bcd60e51b8352602060048401528201527413dc99195c88185b1c9958591e481a185cc8139195605a1b6044820152fd5b346101c45761082061081b611116366115eb565b906040519261112484611652565b6000845261080b61080684336119db565b346101c457610820611146366115eb565b9161115461080684336119db565b611aa3565b346101c4576020806003193601126101c45760043590611178826118a1565b336001600160a01b039091160361129b57816000526008815260ff6004604060002001541661125f57816000526008815260406000206003600282015491015462278d0090818102918183041490151715610748576111d691611daa565b42116112285760407f0bc0332d9daf825142b13dbf9bb17844eaa4387f96f3b4e094b71526ac09d08d91836000526008815260048260002001600160ff198254161790558151903382524290820152a2005b6064906040519062461bcd60e51b82526004820152601060248201526f15d85c9c985b9d1e48195e1c1a5c995960821b6044820152fd5b6064906040519062461bcd60e51b82526004820152601560248201527415d85c9c985b9d1e48185b1c9958591e481d5cd959605a1b6044820152fd5b6064906040519062461bcd60e51b82526004820152600f60248201526e2737ba103a37b5b2b71037bbb732b960891b6044820152fd5b346101c45760403660031901126101c4576112ea6115bf565b602435906001600160a01b038080611301856118a1565b169216918083146113fc578033149081156113d7575b501561136c57600083815260046020526040902080546001600160a01b03191683179055611344836118a1565b167f8c5be1e5ebec7d5bd14f71427d1e84f3dd0314c0f7b2291e5b200ac8c7c3b925600080a4005b60405162461bcd60e51b815260206004820152603d60248201527f4552433732313a20617070726f76652063616c6c6572206973206e6f7420746f60448201527f6b656e206f776e6572206f7220617070726f76656420666f7220616c6c0000006064820152608490fd5b9050600052600560205260406000203360005260205260ff6040600020541684611317565b60405162461bcd60e51b815260206004820152602160248201527f4552433732313a20617070726f76616c20746f2063757272656e74206f776e656044820152603960f91b6064820152608490fd5b346101c45760203660031901126101c4576020610beb6004356118c4565b346101c45760003660031901126101c4576040516000805461148a8161171d565b80845290600190818116908115610a2c57506001146114b35761071f846109bf8186038261168a565b600080805292507f290decd9548b62a8d60345a988386fc84ba6bc95484008f6362f93160ef3e5635b8284106114f45750505081016020016109bf826109af565b805460208587018101919091529093019281016114dc565b346101c45760203660031901126101c4576004359063ffffffff60e01b82168092036101c4576020916380ac58cd60e01b8114908115611566575b8115611555575b5015158152f35b6301ffc9a760e01b1490508361154e565b635b5e139f60e01b81149150611547565b60005b83811061158a5750506000910152565b818101518382015260200161157a565b906020916115b381518092818552858086019101611577565b601f01601f1916010190565b600435906001600160a01b03821682036101c457565b602435906001600160a01b03821682036101c457565b60609060031901126101c4576001600160a01b039060043582811681036101c4579160243590811681036101c4579060443590565b60a0810190811067ffffffffffffffff82111761163c57604052565b634e487b7160e01b600052604160045260246000fd5b6020810190811067ffffffffffffffff82111761163c57604052565b6040810190811067ffffffffffffffff82111761163c57604052565b90601f8019910116810190811067ffffffffffffffff82111761163c57604052565b67ffffffffffffffff811161163c57601f01601f191660200190565b9291926116d4826116ac565b916116e2604051938461168a565b8294818452818301116101c4578281602093846000960137010152565b9080601f830112156101c45781602061171a933591016116c8565b90565b90600182811c9216801561174d575b602083101461173757565b634e487b7160e01b600052602260045260246000fd5b91607f169161172c565b906040519182600082549261176b8461171d565b9081845260019485811690816000146117da5750600114611797575b50506117959250038361168a565b565b9093915060005260209081600020936000915b8183106117c257505061179593508201013880611787565b855488840185015294850194879450918301916117aa565b91505061179594506020925060ff191682840152151560051b8201013880611787565b6006546001600160a01b0316330361181157565b606460405162461bcd60e51b815260206004820152602060248201527f4f776e61626c653a2063616c6c6572206973206e6f7420746865206f776e65726044820152fd5b1561185c57565b60405162461bcd60e51b815260206004820152601860248201527f4552433732313a20696e76616c696420746f6b656e20494400000000000000006044820152606490fd5b6000908152600260205260409020546001600160a01b031661171a811515611855565b6000818152600260205260409020546118e7906001600160a01b03161515611855565b6000908152600460205260409020546001600160a01b031690565b1561190957565b60405162461bcd60e51b815260206004820152602d60248201527f4552433732313a2063616c6c6572206973206e6f7420746f6b656e206f776e6560448201526c1c881bdc88185c1c1c9bdd9959609a1b6064820152608490fd5b60809060208152603260208201527f4552433732313a207472616e7366657220746f206e6f6e20455243373231526560408201527131b2b4bb32b91034b6b83632b6b2b73a32b960711b60608201520190565b156119be57565b60405162461bcd60e51b8152806119d760048201611964565b0390fd5b906001600160a01b0380806119ef846118a1565b16931691838314938415611a22575b508315611a0c575b50505090565b611a18919293506118c4565b1614388080611a06565b909350600052600560205260406000208260005260205260ff6040600020541692386119fe565b15611a5057565b60405162461bcd60e51b815260206004820152602560248201527f4552433732313a207472616e736665722066726f6d20696e636f72726563742060448201526437bbb732b960d91b6064820152608490fd5b90611acb91611ab1846118a1565b6001600160a01b0393918416928492909183168414611a49565b16918215611b685781611ae891611ae1866118a1565b1614611a49565b7fddf252ad1be2c89b69c2b068fc378daa952ba7f163c4a11628f55a4df523b3ef60008481526004602052604081206bffffffffffffffffffffffff60a01b9081815416905583825260036020526040822060001981540190558482526040822060018154019055858252600260205284604083209182541617905580a4565b60405162461bcd60e51b8152602060048201526024808201527f4552433732313a207472616e7366657220746f20746865207a65726f206164646044820152637265737360e01b6064820152608490fd5b91929091803b15611cce57611c06936040519081630a85bd0160e11b9384825233600483015260009687602484015260448301526080606483015281878160209a8b96608483019061159a565b03926001600160a01b03165af1849181611c8a575b50611c79575050503d600014611c71573d611c35816116ac565b90611c43604051928361168a565b81528091833d92013e5b80519182611c6e5760405162461bcd60e51b8152806119d760048201611964565b01fd5b506060611c4d565b6001600160e01b0319161492509050565b9091508581813d8311611cc7575b611ca2818361168a565b81010312611cc357516001600160e01b031981168103611cc3579038611c1b565b8480fd5b503d611c98565b50915050600190565b92939190803b15611d5457611d29946040518092630a85bd0160e11b9485835233600484015260018060a01b03809816602484015260448301526080606483015281806020998a95608483019061159a565b03916000988991165af1849181611c8a5750611c79575050503d600014611c71573d611c35816116ac565b5050915050600190565b15611d6557565b60405162461bcd60e51b815260206004820152601c60248201527f4552433732313a20746f6b656e20616c7265616479206d696e746564000000006044820152606490fd5b9190820180921161074857565b90611dc1826116ac565b611dce604051918261168a565b8281528092611ddf601f19916116ac565b0190602036910137565b805115611f3a57604051906060820182811067ffffffffffffffff82111761163c57604052604082527f4142434445464748494a4b4c4d4e4f505152535455565758595a61626364656660208301527f6768696a6b6c6d6e6f707172737475767778797a303132333435363738392b2f60408301528051600291828201809211610748576003918290046001600160fe1b038116810361074857611e90908495941b611db7565b936020850193829183518401906020820192835194600085525b838110611ee9575050505052510680600114611ed657600214611ecb575090565b603d90600019015390565b50603d9081600019820153600119015390565b87600491999293949901918251600190603f9082828260121c16880101518453828282600c1c16880101518385015382828260061c1688010151888501531685010151898201530197929190611eaa565b50604051611f4781611652565b6000815290565b806000917a184f03e93ff9f4daa797ed6e38ed64bf6a1f01000000000000000080821015612083575b506d04ee2d6d415b85acef810000000080831015612074575b50662386f26fc1000080831015612065575b506305f5e10080831015612056575b5061271080831015612047575b506064821015612037575b600a8092101561202d575b600190816021611fe5828701611db7565b95860101905b611ff7575b5050505090565b600019019083906f181899199a1a9b1b9c1cb0b131b232b360811b8282061a83530491821561202857919082611feb565b611ff0565b9160010191611fd4565b9190606460029104910191611fc9565b60049193920491019138611fbe565b60089193920491019138611fb1565b60109193920491019138611fa2565b60209193920491019138611f90565b604093508104915038611f7756fea2646970667358221220f882cb2430a4009179b90762a97c5f8da16568ad3cf20477103f2868672bd53564736f6c63430008140033",
  "linkReferences": {},
  "deployedLinkReferences": {}
}