{
  "_format": "hh-sol-artifact-1",
  "contractName": "PaymentContract",
  "sourceName": "contracts/PaymentContract.sol",
  "abi": [
    {
      "inputs": [
        {
          "internalType": "address",
          "name": "_recipientWallet",
          "type": "address"
        }
      ],
      "stateMutability": "nonpayable",
      "type": "constructor"
    },
    {
      "anonymous": false,
      "inputs": [
        {
          "indexed": true,
          "internalType": "address",
          "name": "caller",
          "type": "address"
        },
        {
          "indexed": false,
          "internalType": "uint256",
          "name": "timestamp",
          "type": "uint256"
        }
      ],
      "name": "EmergencyPause",
      "type": "event"
    },
    {
      "anonymous": false,
      "inputs": [
        {
          "indexed": true,
          "internalType": "address",
          "name": "caller",
          "type": "address"
        },
        {
          "indexed": false,
          "internalType": "uint256",
          "name": "timestamp",
          "type": "uint256"
        }
      ],
      "name": "EmergencyUnpause",
      "type": "event"
    },
    {
      "anonymous": false,
      "inputs": [
        {
          "indexed": true,
          "internalType": "string",
          "name": "orderId",
          "type": "string"
        },
        {
          "indexed": true,
          "internalType": "address",
          "name": "payer",
          "type": "address"
        },
        {
          "indexed": false,
          "internalType": "uint256",
          "name": "amount",
          "type": "uint256"
        },
        {
          "indexed": true,
          "internalType": "address",
          "name": "token",
          "type": "address"
        },
        {
          "indexed": false,
          "internalType": "string",
          "name": "paymentMethod",
          "type": "string"
        },
        {
          "indexed": false,
          "internalType": "uint256",
          "name": "timestamp",
          "type": "uint256"
        }
      ],
      "name": "OrderPaid",
      "type": "event"
    },
    {
      "anonymous": false,
      "inputs": [
        {
          "indexed": true,
          "internalType": "address",
          "name": "previousOwner",
          "type": "address"
        },
        {
          "indexed": true,
          "internalType": "address",
          "name": "newOwner",
          "type": "address"
        }
      ],
      "name": "OwnershipTransferred",
      "type": "event"
    },
    {
      "anonymous": false,
      "inputs": [
        {
          "indexed": true,
          "internalType": "string",
          "name": "orderId",
          "type": "string"
        },
        {
          "indexed": true,
          "internalType": "address",
          "name": "payer",
          "type": "address"
        },
        {
          "indexed": false,
          "internalType": "string",
          "name": "reason",
          "type": "string"
        },
        {
          "indexed": false,
          "internalType": "uint256",
          "name": "timestamp",
          "type": "uint256"
        }
      ],
      "name": "PaymentFailed",
      "type": "event"
    },
    {
      "inputs": [],
      "name": "ETH_RATE",
      "outputs": [
        {
          "internalType": "uint256",
          "name": "",
          "type": "uint256"
        }
      ],
      "stateMutability": "view",
      "type": "function"
    },
    {
      "inputs": [],
      "name": "NATIVE_TOKEN",
      "outputs": [
        {
          "internalType": "address",
          "name": "",
          "type": "address"
        }
      ],
      "stateMutability": "view",
      "type": "function"
    },
    {
      "inputs": [],
      "name": "USDC_RATE",
      "outputs": [
        {
          "internalType": "uint256",
          "name": "",
          "type": "uint256"
        }
      ],
      "stateMutability": "view",
      "type": "function"
    },
    {
      "inputs": [],
      "name": "USDC_TOKEN",
      "outputs": [
        {
          "internalType": "address",
          "name": "",
          "type": "address"
        }
      ],
      "stateMutability": "view",
      "type": "function"
    },
    {
      "inputs": [],
      "name": "USDT_RATE",
      "outputs": [
        {
          "internalType": "uint256",
          "name": "",
          "type": "uint256"
        }
      ],
      "stateMutability": "view",
      "type": "function"
    },
    {
      "inputs": [],
      "name": "USDT_TOKEN",
      "outputs": [
        {
          "internalType": "address",
          "name": "",
          "type": "address"
        }
      ],
      "stateMutability": "view",
      "type": "function"
    },
    {
      "inputs": [
        {
          "internalType": "address",
          "name": "",
          "type": "address"
        }
      ],
      "name": "authorizedTokens",
      "outputs": [
        {
          "internalType": "bool",
          "name": "",
          "type": "bool"
        }
      ],
      "stateMutability": "view",
      "type": "function"
    },
    {
      "inputs": [
        {
          "internalType": "address",
          "name": "token",
          "type": "address"
        }
      ],
      "name": "getBalance",
      "outputs": [
        {
          "internalType": "uint256",
          "name": "",
          "type": "uint256"
        }
      ],
      "stateMutability": "view",
      "type": "function"
    },
    {
      "inputs": [
        {
          "internalType": "address",
          "name": "token",
          "type": "address"
        }
      ],
      "name": "getExchangeRate",
      "outputs": [
        {
          "internalType": "uint256",
          "name": "",
          "type": "uint256"
        }
      ],
      "stateMutability": "view",
      "type": "function"
    },
    {
      "inputs": [],
      "name": "getSupportedTokens",
      "outputs": [
        {
          "internalType": "address[]",
          "name": "",
          "type": "address[]"
        }
      ],
      "stateMutability": "view",
      "type": "function"
    },
    {
      "inputs": [
        {
          "internalType": "string",
          "name": "orderId",
          "type": "string"
        }
      ],
      "name": "isOrderProcessed",
      "outputs": [
        {
          "internalType": "bool",
          "name": "",
          "type": "bool"
        }
      ],
      "stateMutability": "view",
      "type": "function"
    },
    {
      "inputs": [],
      "name": "owner",
      "outputs": [
        {
          "internalType": "address",
          "name": "",
          "type": "address"
        }
      ],
      "stateMutability": "view",
      "type": "function"
    },
    {
      "inputs": [],
      "name": "pause",
      "outputs": [],
      "stateMutability": "nonpayable",
      "type": "function"
    },
    {
      "inputs": [],
      "name": "paused",
      "outputs": [
        {
          "internalType": "bool",
          "name": "",
          "type": "bool"
        }
      ],
      "stateMutability": "view",
      "type": "function"
    },
    {
      "inputs": [
        {
          "internalType": "string",
          "name": "orderId",
          "type": "string"
        }
      ],
      "name": "payOrderWithNative",
      "outputs": [],
      "stateMutability": "payable",
      "type": "function"
    },
    {
      "inputs": [
        {
          "internalType": "string",
          "name": "orderId",
          "type": "string"
        },
        {
          "internalType": "address",
          "name": "token",
          "type": "address"
        },
        {
          "internalType": "uint256",
          "name": "amount",
          "type": "uint256"
        }
      ],
      "name": "payOrderWithToken",
      "outputs": [],
      "stateMutability": "nonpayable",
      "type": "function"
    },
    {
      "inputs": [
        {
          "internalType": "string",
          "name": "",
          "type": "string"
        }
      ],
      "name": "processedOrders",
      "outputs": [
        {
          "internalType": "bool",
          "name": "",
          "type": "bool"
        }
      ],
      "stateMutability": "view",
      "type": "function"
    },
    {
      "inputs": [],
      "name": "recipientWallet",
      "outputs": [
        {
          "internalType": "address",
          "name": "",
          "type": "address"
        }
      ],
      "stateMutability": "view",
      "type": "function"
    },
    {
      "inputs": [],
      "name": "renounceOwnership",
      "outputs": [],
      "stateMutability": "nonpayable",
      "type": "function"
    },
    {
      "inputs": [
        {
          "internalType": "address",
          "name": "_recipientWallet",
          "type": "address"
        }
      ],
      "name": "setRecipientWallet",
      "outputs": [],
      "stateMutability": "nonpayable",
      "type": "function"
    },
    {
      "inputs": [
        {
          "internalType": "address",
          "name": "token",
          "type": "address"
        },
        {
          "internalType": "bool",
          "name": "authorized",
          "type": "bool"
        }
      ],
      "name": "setTokenAuthorization",
      "outputs": [],
      "stateMutability": "nonpayable",
      "type": "function"
    },
    {
      "inputs": [
        {
          "internalType": "address",
          "name": "newOwner",
          "type": "address"
        }
      ],
      "name": "transferOwnership",
      "outputs": [],
      "stateMutability": "nonpayable",
      "type": "function"
    },
    {
      "inputs": [],
      "name": "unpause",
      "outputs": [],
      "stateMutability": "nonpayable",
      "type": "function"
    },
    {
      "inputs": [
        {
          "internalType": "address",
          "name": "token",
          "type": "address"
        },
        {
          "internalType": "uint256",
          "name": "amount",
          "type": "uint256"
        }
      ],
      "name": "withdraw",
      "outputs": [],
      "stateMutability": "nonpayable",
      "type": "function"
    },
    {
      "stateMutability": "payable",
      "type": "receive"
    }
  ],
  "bytecode": "0x60803461016757601f6112e538819003918201601f191683019291906001600160401b0384118385101761016c57816020928492604096875283398101031261016757516001600160a01b03908181169081810361016757600160008181558154336001600160a01b031982168117845587519395929492939187167f8be0079c531659141344cd1fd0a4f28419497f9722a3daafe3b4186f6b6457e08680a3600454926161a8806007556008556332a9f8806009551561012557506001600160a81b031990911660089190911b610100600160a81b031617600455600554831681526002602052838120805460ff1990811684179091556006549093168152838120805484168317905580805283902080549092161790555161116290816101838239f35b62461bcd60e51b815260206004820152601860248201527f496e76616c696420726563697069656e742077616c6c657400000000000000006044820152606490fd5b600080fd5b634e487b7160e01b600052604160045260246000fdfe60406080815260049081361015610020575b5050361561001e57600080fd5b005b600091823560e01c90816303196aa914610abe5781630600ac6e14610a24578163136758fd146109f85781632d5c94051461086457816331f7d964146108495781633d116e261461051d5781633f4ba83a146107b857816350290018146107995781635c975abb14610776578163715018a61461071957816377b330c9146106f0578163804f7b6f1461069a5781638456cb59146105fc5781638da5cb5b146105d35781639bc7c58614610595578163bcf9401814610576578163cc82d7be1461051d578163d3c7c2c7146104185783908263efb7601d146103f2578263f2fde38b14610322578263f3fef3a3146101a95750508063f8b2cb4f1461017d578063fa569274146101555763fd06ecc50361001157346101515781600319360112610151576020906009549051908152f35b5080fd5b503461015157816003193601126101515760065490516001600160a01b039091168152602090f35b5034610151576020366003190112610151576020906101a261019d610e0b565b61106d565b9051908152f35b909150346101515782600319360112610151576101c4610e0b565b90602435916101d1610e4c565b8215916101de8315610f70565b6001600160a01b039182168061022d57505082849392849392610204859447101561102a565b60015416908390610224575bf11561021a575080f35b51903d90823e3d90fd5b506108fc610210565b86516370a0823160e01b815230818401526020979596509293509187908781602481875afa90811561031857829188918a969594916102dd575b5060449495969161027991101561102a565b60015416938651978895869463a9059cbb60e01b865285015260248401525af19081156102d457506102aa57505080f35b816102c992903d106102cd575b6102c18183610d6b565b810190610fbc565b5080f35b503d6102b7565b513d85823e3d90fd5b94958092508591503d8311610311575b6102f78183610d6b565b8101031261030e5791518793929087906044610267565b80fd5b503d6102ed565b86513d84823e3d90fd5b8390346103ee5760203660031901126103ee5761033d610e0b565b90610346610e4c565b6001600160a01b0391821692831561039c575050600154826bffffffffffffffffffffffff60a01b821617600155167f8be0079c531659141344cd1fd0a4f28419497f9722a3daafe3b4186f6b6457e08380a380f35b906020608492519162461bcd60e51b8352820152602660248201527f4f776e61626c653a206e6577206f776e657220697320746865207a65726f206160448201526564647265737360d01b6064820152fd5b8280fd5b508234610151576020366003190112610151576020906101a2610413610e0b565b6110eb565b82843461030e578060031936011261030e5781516080810181811067ffffffffffffffff82111761050a57835260038152602080820192606036853760055483516001600160a01b0391821690156104f75785528060065416968451976001988910156104e457878601528451600210156104d157509286928694836060840152855195828701938388525180945286019693905b8382106104ba5786880387f35b8451811688529682019693820193908501906104ad565b634e487b7160e01b835260329052602482fd5b634e487b7160e01b845260328252602484fd5b634e487b7160e01b835260328852602483fd5b634e487b7160e01b835260418552602483fd5b82843461030e57602036600319011261030e5782359067ffffffffffffffff821161030e57506105636020610558819560ff94369101610dbf565b845192838092610e21565b6003815203019020541690519015158152f35b5050346101515781600319360112610151576020906007549051908152f35b5050346101515760203660031901126101515760209160ff9082906001600160a01b036105c0610e0b565b1681526002855220541690519015158152f35b50503461015157816003193601126101515760015490516001600160a01b039091168152602090f35b9050346103ee57826003193601126103ee57610616610e4c565b805460ff81166106575760019060ff1916179055514281527f6eae7d8f48015fddc9502717696ac737bec3d20c703c3958a689f8f48574718360203392a280f35b506020606492519162461bcd60e51b8352820152601760248201527f436f6e747261637420616c7265616479207061757365640000000000000000006044820152fd5b5050346101515780600319360112610151576106b4610e0b565b90602435918215158093036106ec576106cb610e4c565b60018060a01b03168352600260205282209060ff8019835416911617905580f35b8380fd5b50503461015157816003193601126101515760055490516001600160a01b039091168152602090f35b833461030e578060031936011261030e57610732610e4c565b600180546001600160a01b0319811690915581906001600160a01b03167f8be0079c531659141344cd1fd0a4f28419497f9722a3daafe3b4186f6b6457e08280a380f35b82843461030e578060031936011261030e575060ff602092541690519015158152f35b5050346101515781600319360112610151576020906008549051908152f35b9050346103ee57826003193601126103ee576107d2610e4c565b805460ff8116156108105760ff19169055514281527f3fc6beefa3f4115babe1a3d46940222e37b39b9ef03dc7b79f832dbcc3da6abf60203392a280f35b506020606492519162461bcd60e51b8352820152601360248201527210dbdb9d1c9858dd081b9bdd081c185d5cd959606a1b6044820152fd5b50503461015157816003193601126101515751908152602090f35b83602084366003190182136103ee57833567ffffffffffffffff81116106ec576108919036908601610dbf565b9361089a610fd4565b8380808084546108ad60ff821615610ea4565b6108b98a511515610ee5565b6108de60ff6108ce8a8d8b5192838092610e21565b6003815203019020541615610f24565b6108e9341515610f70565b349060081c6001600160a01b03165af13d156109f3573d61090981610da3565b9061091685519283610d6b565b815285853d92013e5b156109b257506109568394825184816109388185610e21565b6003815203019020600160ff19825416179055825191828092610e21565b039020906060815193348552840152600b60608401526a2720aa24ab22afa1a7a4a760a91b608084015242908301527fa544be43a5f07a5f0249714e2f7a4b6dc5cda48d34d2c146f8a279fc1fa2b8bc60a03393a46001815580f35b82606492519162461bcd60e51b8352820152601b60248201527f4e617469766520636f696e207472616e73666572206661696c656400000000006044820152fd5b61091f565b9050346103ee57826003193601126103ee5754905160089190911c6001600160a01b0316815260209150f35b919050346103ee5760203660031901126103ee57610a40610e0b565b90610a49610e4c565b6001600160a01b03821615610a7c57508154610100600160a81b03191660089190911b610100600160a81b031617905580f35b5162461bcd60e51b8152602081840152601860248201527f496e76616c696420726563697069656e742077616c6c657400000000000000006044820152606490fd5b9050346103ee5760603660031901126103ee57803567ffffffffffffffff81116106ec57610aef9036908301610dbf565b6001600160a01b0360243581811694919290859003610d675760443593610b14610fd4565b8054610b2360ff821615610ea4565b846005541687148015610d5a575b8015610d52575b15610d1b57610b4983511515610ee5565b835194610b7160ff87610b5c8188610e21565b600381526020998a9103019020541615610f24565b610b7c871515610f70565b8451916323b872dd60e01b8352338484015260081c16602482015285604482015284816064818b8b5af1908115610d11578891610cf4575b5015610c465750610bed60609183518581610bcf8185610e21565b6003815203019020600160ff19825416179055835191828092610e21565b039020928251948552840152600b60608401526a22a92199182faa27a5a2a760a91b608084015242908301527fa544be43a5f07a5f0249714e2f7a4b6dc5cda48d34d2c146f8a279fc1fa2b8bc60a03393a46001815580f35b9350610c5790825191828092610e21565b0390208151908282527fd3212626bea413568e588ce2195c35a26f191fb807dbe4e80f8b1a92fab98028610cb08484016040906015815274151bdad95b881d1c985b9cd9995c8819985a5b1959605a1b60208201520190565b9242868201528033940390a35162461bcd60e51b8152918201526015602482015274151bdad95b881d1c985b9cd9995c8819985a5b1959605a1b6044820152606490fd5b610d0b9150853d87116102cd576102c18183610d6b565b38610bb4565b84513d8a823e3d90fd5b835162461bcd60e51b815260208184015260116024820152702ab739bab83837b93a32b2103a37b5b2b760791b6044820152606490fd5b508615610b38565b5084600654168714610b31565b8580fd5b90601f8019910116810190811067ffffffffffffffff821117610d8d57604052565b634e487b7160e01b600052604160045260246000fd5b67ffffffffffffffff8111610d8d57601f01601f191660200190565b81601f82011215610e0657803590610dd682610da3565b92610de46040519485610d6b565b82845260208383010111610e0657816000926020809301838601378301015290565b600080fd5b600435906001600160a01b0382168203610e0657565b9081519160005b838110610e39575050016000815290565b8060208092840101518185015201610e28565b6001546001600160a01b03163303610e6057565b606460405162461bcd60e51b815260206004820152602060248201527f4f776e61626c653a2063616c6c6572206973206e6f7420746865206f776e65726044820152fd5b15610eab57565b60405162461bcd60e51b815260206004820152601260248201527110dbdb9d1c9858dd081a5cc81c185d5cd95960721b6044820152606490fd5b15610eec57565b60405162461bcd60e51b815260206004820152601060248201526f125b9d985b1a59081bdc99195c88125160821b6044820152606490fd5b15610f2b57565b60405162461bcd60e51b815260206004820152601760248201527f4f7264657220616c72656164792070726f6365737365640000000000000000006044820152606490fd5b15610f7757565b60405162461bcd60e51b815260206004820152601d60248201527f416d6f756e74206d7573742062652067726561746572207468616e20300000006044820152606490fd5b90816020910312610e0657518015158103610e065790565b600260005414610fe5576002600055565b60405162461bcd60e51b815260206004820152601f60248201527f5265656e7472616e637947756172643a207265656e7472616e742063616c6c006044820152606490fd5b1561103157565b60405162461bcd60e51b8152602060048201526014602482015273496e73756666696369656e742062616c616e636560601b6044820152606490fd5b6001600160a01b031680156110e6576020602491604051928380926370a0823160e01b82523060048301525afa9081156110da576000916110ac575090565b906020823d82116110d2575b816110c560209383610d6b565b8101031261030e57505190565b3d91506110b8565b6040513d6000823e3d90fd5b504790565b6005546001600160a01b039182169190811682146111245760065416811461111d571561111757600090565b60095490565b5060085490565b50506007549056fea2646970667358221220a3713a00abb957366cbdcd9f93c2447ba909eabccdb84a37cc5efd04713f54be64736f6c63430008140033",
  "linkReferences": {},
  "deployedLinkReferences": {}
}