{
  "_format": "hh-sol-artifact-1",
  "contractName": "PaymentContract",
  "sourceName": "contracts/PaymentContract.sol",
  "abi": [
    {
      "inputs": [
        {
          "internalType": "address",
          "name": "_recipientWallet",
          "type": "address"
        }
      ],
      "stateMutability": "nonpayable",
      "type": "constructor"
    },
    {
      "anonymous": false,
      "inputs": [
        {
          "indexed": true,
          "internalType": "address",
          "name": "caller",
          "type": "address"
        },
        {
          "indexed": false,
          "internalType": "uint256",
          "name": "timestamp",
          "type": "uint256"
        }
      ],
      "name": "EmergencyPause",
      "type": "event"
    },
    {
      "anonymous": false,
      "inputs": [
        {
          "indexed": true,
          "internalType": "address",
          "name": "caller",
          "type": "address"
        },
        {
          "indexed": false,
          "internalType": "uint256",
          "name": "timestamp",
          "type": "uint256"
        }
      ],
      "name": "EmergencyUnpause",
      "type": "event"
    },
    {
      "anonymous": false,
      "inputs": [
        {
          "indexed": true,
          "internalType": "string",
          "name": "orderId",
          "type": "string"
        },
        {
          "indexed": true,
          "internalType": "address",
          "name": "payer",
          "type": "address"
        },
        {
          "indexed": false,
          "internalType": "uint256",
          "name": "amount",
          "type": "uint256"
        },
        {
          "indexed": true,
          "internalType": "address",
          "name": "token",
          "type": "address"
        },
        {
          "indexed": false,
          "internalType": "string",
          "name": "paymentMethod",
          "type": "string"
        },
        {
          "indexed": false,
          "internalType": "uint256",
          "name": "timestamp",
          "type": "uint256"
        }
      ],
      "name": "OrderPaid",
      "type": "event"
    },
    {
      "anonymous": false,
      "inputs": [
        {
          "indexed": true,
          "internalType": "address",
          "name": "previousOwner",
          "type": "address"
        },
        {
          "indexed": true,
          "internalType": "address",
          "name": "newOwner",
          "type": "address"
        }
      ],
      "name": "OwnershipTransferred",
      "type": "event"
    },
    {
      "anonymous": false,
      "inputs": [
        {
          "indexed": true,
          "internalType": "string",
          "name": "orderId",
          "type": "string"
        },
        {
          "indexed": true,
          "internalType": "address",
          "name": "payer",
          "type": "address"
        },
        {
          "indexed": false,
          "internalType": "string",
          "name": "reason",
          "type": "string"
        },
        {
          "indexed": false,
          "internalType": "uint256",
          "name": "timestamp",
          "type": "uint256"
        }
      ],
      "name": "PaymentFailed",
      "type": "event"
    },
    {
      "inputs": [],
      "name": "BNB_RATE",
      "outputs": [
        {
          "internalType": "uint256",
          "name": "",
          "type": "uint256"
        }
      ],
      "stateMutability": "view",
      "type": "function"
    },
    {
      "inputs": [],
      "name": "ETH_RATE",
      "outputs": [
        {
          "internalType": "uint256",
          "name": "",
          "type": "uint256"
        }
      ],
      "stateMutability": "view",
      "type": "function"
    },
    {
      "inputs": [],
      "name": "NATIVE_TOKEN",
      "outputs": [
        {
          "internalType": "address",
          "name": "",
          "type": "address"
        }
      ],
      "stateMutability": "view",
      "type": "function"
    },
    {
      "inputs": [],
      "name": "USDC_RATE",
      "outputs": [
        {
          "internalType": "uint256",
          "name": "",
          "type": "uint256"
        }
      ],
      "stateMutability": "view",
      "type": "function"
    },
    {
      "inputs": [],
      "name": "USDC_TOKEN",
      "outputs": [
        {
          "internalType": "address",
          "name": "",
          "type": "address"
        }
      ],
      "stateMutability": "view",
      "type": "function"
    },
    {
      "inputs": [],
      "name": "USDT_RATE",
      "outputs": [
        {
          "internalType": "uint256",
          "name": "",
          "type": "uint256"
        }
      ],
      "stateMutability": "view",
      "type": "function"
    },
    {
      "inputs": [],
      "name": "USDT_TOKEN",
      "outputs": [
        {
          "internalType": "address",
          "name": "",
          "type": "address"
        }
      ],
      "stateMutability": "view",
      "type": "function"
    },
    {
      "inputs": [
        {
          "internalType": "address",
          "name": "",
          "type": "address"
        }
      ],
      "name": "authorizedTokens",
      "outputs": [
        {
          "internalType": "bool",
          "name": "",
          "type": "bool"
        }
      ],
      "stateMutability": "view",
      "type": "function"
    },
    {
      "inputs": [
        {
          "internalType": "address",
          "name": "token",
          "type": "address"
        }
      ],
      "name": "getBalance",
      "outputs": [
        {
          "internalType": "uint256",
          "name": "",
          "type": "uint256"
        }
      ],
      "stateMutability": "view",
      "type": "function"
    },
    {
      "inputs": [
        {
          "internalType": "address",
          "name": "token",
          "type": "address"
        }
      ],
      "name": "getExchangeRate",
      "outputs": [
        {
          "internalType": "uint256",
          "name": "",
          "type": "uint256"
        }
      ],
      "stateMutability": "view",
      "type": "function"
    },
    {
      "inputs": [],
      "name": "getSupportedTokens",
      "outputs": [
        {
          "internalType": "address[]",
          "name": "",
          "type": "address[]"
        }
      ],
      "stateMutability": "view",
      "type": "function"
    },
    {
      "inputs": [
        {
          "internalType": "string",
          "name": "orderId",
          "type": "string"
        }
      ],
      "name": "isOrderProcessed",
      "outputs": [
        {
          "internalType": "bool",
          "name": "",
          "type": "bool"
        }
      ],
      "stateMutability": "view",
      "type": "function"
    },
    {
      "inputs": [],
      "name": "owner",
      "outputs": [
        {
          "internalType": "address",
          "name": "",
          "type": "address"
        }
      ],
      "stateMutability": "view",
      "type": "function"
    },
    {
      "inputs": [],
      "name": "pause",
      "outputs": [],
      "stateMutability": "nonpayable",
      "type": "function"
    },
    {
      "inputs": [],
      "name": "paused",
      "outputs": [
        {
          "internalType": "bool",
          "name": "",
          "type": "bool"
        }
      ],
      "stateMutability": "view",
      "type": "function"
    },
    {
      "inputs": [
        {
          "internalType": "string",
          "name": "orderId",
          "type": "string"
        }
      ],
      "name": "payOrderWithNative",
      "outputs": [],
      "stateMutability": "payable",
      "type": "function"
    },
    {
      "inputs": [
        {
          "internalType": "string",
          "name": "orderId",
          "type": "string"
        },
        {
          "internalType": "address",
          "name": "token",
          "type": "address"
        },
        {
          "internalType": "uint256",
          "name": "amount",
          "type": "uint256"
        }
      ],
      "name": "payOrderWithToken",
      "outputs": [],
      "stateMutability": "nonpayable",
      "type": "function"
    },
    {
      "inputs": [
        {
          "internalType": "string",
          "name": "",
          "type": "string"
        }
      ],
      "name": "processedOrders",
      "outputs": [
        {
          "internalType": "bool",
          "name": "",
          "type": "bool"
        }
      ],
      "stateMutability": "view",
      "type": "function"
    },
    {
      "inputs": [],
      "name": "recipientWallet",
      "outputs": [
        {
          "internalType": "address",
          "name": "",
          "type": "address"
        }
      ],
      "stateMutability": "view",
      "type": "function"
    },
    {
      "inputs": [],
      "name": "renounceOwnership",
      "outputs": [],
      "stateMutability": "nonpayable",
      "type": "function"
    },
    {
      "inputs": [
        {
          "internalType": "address",
          "name": "_recipientWallet",
          "type": "address"
        }
      ],
      "name": "setRecipientWallet",
      "outputs": [],
      "stateMutability": "nonpayable",
      "type": "function"
    },
    {
      "inputs": [
        {
          "internalType": "address",
          "name": "token",
          "type": "address"
        },
        {
          "internalType": "bool",
          "name": "authorized",
          "type": "bool"
        }
      ],
      "name": "setTokenAuthorization",
      "outputs": [],
      "stateMutability": "nonpayable",
      "type": "function"
    },
    {
      "inputs": [
        {
          "internalType": "address",
          "name": "newOwner",
          "type": "address"
        }
      ],
      "name": "transferOwnership",
      "outputs": [],
      "stateMutability": "nonpayable",
      "type": "function"
    },
    {
      "inputs": [],
      "name": "unpause",
      "outputs": [],
      "stateMutability": "nonpayable",
      "type": "function"
    },
    {
      "inputs": [
        {
          "internalType": "address",
          "name": "token",
          "type": "address"
        },
        {
          "internalType": "uint256",
          "name": "amount",
          "type": "uint256"
        }
      ],
      "name": "withdraw",
      "outputs": [],
      "stateMutability": "nonpayable",
      "type": "function"
    },
    {
      "stateMutability": "payable",
      "type": "receive"
    }
  ],
  "bytecode": "0x60806040526004805460ff1916905534801561001a57600080fd5b5060405161179d38038061179d833981016040819052610039916101ac565b60016000556100473361015a565b6001600160a01b0381166100a15760405162461bcd60e51b815260206004820152601860248201527f496e76616c696420726563697069656e742077616c6c65740000000000000000604482015260640160405180910390fd5b600480546001600160a01b0390921661010002610100600160a81b031990921691909117905560026020527fad73d77f5fc003325467baa8fb35572fad6a8e99b9c01aec7dca2919a6c856db805460ff1990811660019081179092557f0622f3edba21ec1597268edb511f11fe6de233ec242a698ccf5a42a6fcb96ca38054821683179055600080527fac33ff75c19e70fe83507db0d683fd3465c996598dc972688b7ace676c89077b805490911690911790556101dc565b600180546001600160a01b038381166001600160a01b0319831681179093556040519116919082907f8be0079c531659141344cd1fd0a4f28419497f9722a3daafe3b4186f6b6457e090600090a35050565b6000602082840312156101be57600080fd5b81516001600160a01b03811681146101d557600080fd5b9392505050565b6115b2806101eb6000396000f3fe60806040526004361061016a5760003560e01c80638456cb59116100d1578063d3c7c2c71161008a578063f3fef3a311610064578063f3fef3a314610419578063f8b2cb4f14610439578063fa56927414610459578063fd06ecc51461048157600080fd5b8063d3c7c2c7146103b7578063efb7601d146103d9578063f2fde38b146103f957600080fd5b80638456cb591461031d5780638da5cb5b146103325780639bc7c58614610350578063abc4818f14610380578063bcf9401814610282578063cc82d7be1461039757600080fd5b80633f4ba83a116101235780633f4ba83a1461026d57806350290018146102825780635c975abb146102a6578063715018a6146102c057806377b330c9146102d5578063804f7b6f146102fd57600080fd5b806303196aa9146101765780630600ac6e14610198578063136758fd146101b85780632d5c9405146101fa57806331f7d9641461020d5780633d116e261461022257600080fd5b3661017157005b600080fd5b34801561018257600080fd5b506101966101913660046112e0565b610499565b005b3480156101a457600080fd5b506101966101b3366004611337565b610817565b3480156101c457600080fd5b506004546101dd9061010090046001600160a01b031681565b6040516001600160a01b0390911681526020015b60405180910390f35b610196610208366004611359565b61089d565b34801561021957600080fd5b506101dd600081565b34801561022e57600080fd5b5061025d61023d366004611359565b805160208183018101805160038252928201919093012091525460ff1681565b60405190151581526020016101f1565b34801561027957600080fd5b50610196610b23565b34801561028e57600080fd5b506102986161a881565b6040519081526020016101f1565b3480156102b257600080fd5b5060045461025d9060ff1681565b3480156102cc57600080fd5b50610196610bb5565b3480156102e157600080fd5b506101dd73337610d27c682e347c9cd60bd4b3b107c9d34ddd81565b34801561030957600080fd5b506101966103183660046113a4565b610bc9565b34801561032957600080fd5b50610196610bfc565b34801561033e57600080fd5b506001546001600160a01b03166101dd565b34801561035c57600080fd5b5061025d61036b366004611337565b60026020526000908152604090205460ff1681565b34801561038c57600080fd5b5061029862e4e1c081565b3480156103a357600080fd5b5061025d6103b2366004611359565b610c98565b3480156103c357600080fd5b506103cc610cc3565b6040516101f191906113db565b3480156103e557600080fd5b506102986103f4366004611337565b610dab565b34801561040557600080fd5b50610196610414366004611337565b610e29565b34801561042557600080fd5b50610196610434366004611428565b610e9f565b34801561044557600080fd5b50610298610454366004611337565b611097565b34801561046557600080fd5b506101dd738ac76a51cc950d9822d68b83fe1ad97b32cd580d81565b34801561048d57600080fd5b506102986332a9f88081565b6104a161111c565b60045460ff16156104ee5760405162461bcd60e51b815260206004820152601260248201527110dbdb9d1c9858dd081a5cc81c185d5cd95960721b60448201526064015b60405180910390fd5b816001600160a01b03811673337610d27c682e347c9cd60bd4b3b107c9d34ddd148061053657506001600160a01b038116738ac76a51cc950d9822d68b83fe1ad97b32cd580d145b8061054857506001600160a01b038116155b6105885760405162461bcd60e51b81526020600482015260116024820152702ab739bab83837b93a32b2103a37b5b2b760791b60448201526064016104e5565b8360008151116105cd5760405162461bcd60e51b815260206004820152601060248201526f125b9d985b1a59081bdc99195c88125160821b60448201526064016104e5565b6003816040516105dd9190611452565b9081526040519081900360200190205460ff16156106375760405162461bcd60e51b815260206004820152601760248201527613dc99195c88185b1c9958591e481c1c9bd8d95cdcd959604a1b60448201526064016104e5565b600083116106575760405162461bcd60e51b81526004016104e590611481565b600480546040516323b872dd60e01b8152339281019290925261010090046001600160a01b03908116602483015260448201859052600091908616906323b872dd906064016020604051808303816000875af11580156106bb573d6000803e3d6000fd5b505050506040513d601f19601f820116820180604052508101906106df91906114b8565b90508061074d5760405133906106f6908890611452565b60405180910390207fd3212626bea413568e588ce2195c35a26f191fb807dbe4e80f8b1a92fab980284260405161072d91906114d5565b60405180910390a360405162461bcd60e51b81526004016104e590611518565b600160038760405161075f9190611452565b908152604051908190036020018120805492151560ff19909316929092179091556001600160a01b038616903390610798908990611452565b60405180910390207fa544be43a5f07a5f0249714e2f7a4b6dc5cda48d34d2c146f8a279fc1fa2b8bc87426040516107fd929190918252606060208301819052600b908301526a22a92199182faa27a5a2a760a91b6080830152604082015260a00190565b60405180910390a45050506108126001600055565b505050565b61081f611175565b6001600160a01b0381166108755760405162461bcd60e51b815260206004820152601860248201527f496e76616c696420726563697069656e742077616c6c6574000000000000000060448201526064016104e5565b600480546001600160a01b0390921661010002610100600160a81b0319909216919091179055565b6108a561111c565b60045460ff16156108ed5760405162461bcd60e51b815260206004820152601260248201527110dbdb9d1c9858dd081a5cc81c185d5cd95960721b60448201526064016104e5565b8060008151116109325760405162461bcd60e51b815260206004820152601060248201526f125b9d985b1a59081bdc99195c88125160821b60448201526064016104e5565b6003816040516109429190611452565b9081526040519081900360200190205460ff161561099c5760405162461bcd60e51b815260206004820152601760248201527613dc99195c88185b1c9958591e481c1c9bd8d95cdcd959604a1b60448201526064016104e5565b600034116109bc5760405162461bcd60e51b81526004016104e590611481565b60045460405160009161010090046001600160a01b03169034908381818185875af1925050503d8060008114610a0e576040519150601f19603f3d011682016040523d82523d6000602084013e610a13565b606091505b5050905080610a645760405162461bcd60e51b815260206004820152601b60248201527f4e617469766520636f696e207472616e73666572206661696c6564000000000060448201526064016104e5565b6001600384604051610a769190611452565b908152604051908190036020018120805492151560ff19909316929092179091556000903390610aa7908690611452565b60405180910390207fa544be43a5f07a5f0249714e2f7a4b6dc5cda48d34d2c146f8a279fc1fa2b8bc3442604051610b0c929190918252606060208301819052600b908301526a2720aa24ab22afa1a7a4a760a91b6080830152604082015260a00190565b60405180910390a45050610b206001600055565b50565b610b2b611175565b60045460ff16610b735760405162461bcd60e51b815260206004820152601360248201527210dbdb9d1c9858dd081b9bdd081c185d5cd959606a1b60448201526064016104e5565b6004805460ff1916905560405142815233907f3fc6beefa3f4115babe1a3d46940222e37b39b9ef03dc7b79f832dbcc3da6abf906020015b60405180910390a2565b610bbd611175565b610bc760006111cf565b565b610bd1611175565b6001600160a01b03919091166000908152600260205260409020805460ff1916911515919091179055565b610c04611175565b60045460ff1615610c575760405162461bcd60e51b815260206004820152601760248201527f436f6e747261637420616c72656164792070617573656400000000000000000060448201526064016104e5565b6004805460ff1916600117905560405133907f6eae7d8f48015fddc9502717696ac737bec3d20c703c3958a689f8f48574718390610bab9042815260200190565b6000600382604051610caa9190611452565b9081526040519081900360200190205460ff1692915050565b604080516003808252608082019092526060916000919060208201848036833701905050905073337610d27c682e347c9cd60bd4b3b107c9d34ddd81600081518110610d1157610d1161154d565b60200260200101906001600160a01b031690816001600160a01b031681525050738ac76a51cc950d9822d68b83fe1ad97b32cd580d81600181518110610d5957610d5961154d565b60200260200101906001600160a01b031690816001600160a01b031681525050600081600281518110610d8e57610d8e61154d565b6001600160a01b0390921660209283029190910190910152919050565b600073337610d27c682e347c9cd60bd4b3b107c9d34ddc196001600160a01b03831601610ddb57506161a8919050565b738ac76a51cc950d9822d68b83fe1ad97b32cd580c196001600160a01b03831601610e0957506161a8919050565b6001600160a01b038216610e21575062e4e1c0919050565b506000919050565b610e31611175565b6001600160a01b038116610e965760405162461bcd60e51b815260206004820152602660248201527f4f776e61626c653a206e6577206f776e657220697320746865207a65726f206160448201526564647265737360d01b60648201526084016104e5565b610b20816111cf565b610ea7611175565b60008111610ec75760405162461bcd60e51b81526004016104e590611481565b6001600160a01b038216610f565780471015610f1c5760405162461bcd60e51b8152602060048201526014602482015273496e73756666696369656e742062616c616e636560601b60448201526064016104e5565b6001546040516001600160a01b039091169082156108fc029083906000818181858888f19350505050158015610812573d6000803e3d6000fd5b6040516370a0823160e01b815230600482015281906001600160a01b038416906370a0823190602401602060405180830381865afa158015610f9c573d6000803e3d6000fd5b505050506040513d601f19601f82011682018060405250810190610fc09190611563565b10156110055760405162461bcd60e51b8152602060048201526014602482015273496e73756666696369656e742062616c616e636560601b60448201526064016104e5565b816001600160a01b031663a9059cbb6110266001546001600160a01b031690565b6040516001600160e01b031960e084901b1681526001600160a01b039091166004820152602481018490526044016020604051808303816000875af1158015611073573d6000803e3d6000fd5b505050506040513d601f19601f8201168201806040525081019061081291906114b8565b60006001600160a01b0382166110ae575047919050565b6040516370a0823160e01b81523060048201526001600160a01b038316906370a0823190602401602060405180830381865afa1580156110f2573d6000803e3d6000fd5b505050506040513d601f19601f820116820180604052508101906111169190611563565b92915050565b60026000540361116e5760405162461bcd60e51b815260206004820152601f60248201527f5265656e7472616e637947756172643a207265656e7472616e742063616c6c0060448201526064016104e5565b6002600055565b6001546001600160a01b03163314610bc75760405162461bcd60e51b815260206004820181905260248201527f4f776e61626c653a2063616c6c6572206973206e6f7420746865206f776e657260448201526064016104e5565b600180546001600160a01b038381166001600160a01b0319831681179093556040519116919082907f8be0079c531659141344cd1fd0a4f28419497f9722a3daafe3b4186f6b6457e090600090a35050565b634e487b7160e01b600052604160045260246000fd5b600082601f83011261124857600080fd5b813567ffffffffffffffff8082111561126357611263611221565b604051601f8301601f19908116603f0116810190828211818310171561128b5761128b611221565b816040528381528660208588010111156112a457600080fd5b836020870160208301376000602085830101528094505050505092915050565b80356001600160a01b03811681146112db57600080fd5b919050565b6000806000606084860312156112f557600080fd5b833567ffffffffffffffff81111561130c57600080fd5b61131886828701611237565b935050611327602085016112c4565b9150604084013590509250925092565b60006020828403121561134957600080fd5b611352826112c4565b9392505050565b60006020828403121561136b57600080fd5b813567ffffffffffffffff81111561138257600080fd5b61138e84828501611237565b949350505050565b8015158114610b2057600080fd5b600080604083850312156113b757600080fd5b6113c0836112c4565b915060208301356113d081611396565b809150509250929050565b6020808252825182820181905260009190848201906040850190845b8181101561141c5783516001600160a01b0316835292840192918401916001016113f7565b50909695505050505050565b6000806040838503121561143b57600080fd5b611444836112c4565b946020939093013593505050565b6000825160005b818110156114735760208186018101518583015201611459565b506000920191825250919050565b6020808252601d908201527f416d6f756e74206d7573742062652067726561746572207468616e2030000000604082015260600190565b6000602082840312156114ca57600080fd5b815161135281611396565b60408152600061150a604083016015815274151bdad95b881d1c985b9cd9995c8819985a5b1959605a1b602082015260400190565b905082602083015292915050565b602081526000611116602083016015815274151bdad95b881d1c985b9cd9995c8819985a5b1959605a1b602082015260400190565b634e487b7160e01b600052603260045260246000fd5b60006020828403121561157557600080fd5b505191905056fea2646970667358221220e76862faaad1bbb4488c9a77751b7f42f5c0bc8aeadafde14df25bf0e899919264736f6c63430008130033",
  "linkReferences": {},
  "deployedLinkReferences": {}
}